{
	"blockchain.sol": {
		"Blockchain": {
			"abi": [
				{
					"inputs": [
						{
							"internalType": "string",
							"name": "secret_first_phrase",
							"type": "string"
						}
					],
					"stateMutability": "nonpayable",
					"type": "constructor"
				},
				{
					"inputs": [
						{
							"components": [
								{
									"internalType": "bytes32",
									"name": "hash",
									"type": "bytes32"
								},
								{
									"internalType": "bytes32",
									"name": "prevHash",
									"type": "bytes32"
								},
								{
									"internalType": "uint256",
									"name": "blockNum",
									"type": "uint256"
								},
								{
									"internalType": "string",
									"name": "message",
									"type": "string"
								}
							],
							"internalType": "struct Blockchain.Block",
							"name": "proposed_block",
							"type": "tuple"
						}
					],
					"name": "check_block",
					"outputs": [
						{
							"internalType": "uint256",
							"name": "",
							"type": "uint256"
						}
					],
					"stateMutability": "view",
					"type": "function"
				}
			],
			"devdoc": {
				"kind": "dev",
				"methods": {},
				"version": 1
			},
			"evm": {
				"assembly": "    /* \"blockchain.sol\":61:4033  contract Blockchain{... */\n  mstore(0x40, 0x80)\n    /* \"blockchain.sol\":1141:1457  constructor(string memory secret_first_phrase){... */\n  callvalue\n  dup1\n  iszero\n  tag_1\n  jumpi\n  revert(0x00, 0x00)\ntag_1:\n  pop\n  mload(0x40)\n  sub(codesize, bytecodeSize)\n  dup1\n  bytecodeSize\n  dup4\n  codecopy\n  dup2\n  dup2\n  add\n  0x40\n  mstore\n  dup2\n  add\n  swap1\n  tag_2\n  swap2\n  swap1\n  tag_3\n  jump\t// in\ntag_2:\n    /* \"blockchain.sol\":1198:1218  Block memory genesis */\n  0x00\n    /* \"blockchain.sol\":1221:1385  Block({... */\n  mload(0x40)\n  dup1\n  0x80\n  add\n  0x40\n  mstore\n  dup1\n    /* \"blockchain.sol\":1248:1277  hashFunc(secret_first_phrase) */\n  tag_6\n    /* \"blockchain.sol\":1257:1276  secret_first_phrase */\n  dup5\n    /* \"blockchain.sol\":1248:1256  hashFunc */\n  shl(0x20, tag_7)\n    /* \"blockchain.sol\":1248:1277  hashFunc(secret_first_phrase) */\n  0x20\n  shr\n  jump\t// in\ntag_6:\n    /* \"blockchain.sol\":1221:1385  Block({... */\n  dup2\n  mstore\n  0x20\n  add\n  0x00\n  dup2\n  mstore\n  0x20\n  add\n    /* \"blockchain.sol\":1329:1330  0 */\n  0x00\n    /* \"blockchain.sol\":1221:1385  Block({... */\n  dup2\n  mstore\n  0x20\n  add\n    /* \"blockchain.sol\":1354:1373  secret_first_phrase */\n  dup4\n    /* \"blockchain.sol\":1221:1385  Block({... */\n  dup2\n  mstore\n  pop\n    /* \"blockchain.sol\":1198:1385  Block memory genesis = Block({... */\n  swap1\n  pop\n    /* \"blockchain.sol\":1413:1414  1 */\n  0x01\n    /* \"blockchain.sol\":1396:1410  next_block_num */\n  dup1\n    /* \"blockchain.sol\":1396:1414  next_block_num = 1 */\n  dup2\n  swap1\n  sstore\n  pop\n    /* \"blockchain.sol\":1425:1435  blockchain */\n  0x00\n    /* \"blockchain.sol\":1441:1448  genesis */\n  dup2\n    /* \"blockchain.sol\":1425:1449  blockchain.push(genesis) */\n  swap1\n  dup1\n  0x01\n  dup2\n  sload\n  add\n  dup1\n  dup3\n  sstore\n  dup1\n  swap2\n  pop\n  pop\n  0x01\n  swap1\n  sub\n  swap1\n  0x00\n  mstore\n  keccak256(0x00, 0x20)\n  swap1\n  0x04\n  mul\n  add\n  0x00\n  swap1\n  swap2\n  swap1\n  swap2\n  swap1\n  swap2\n  pop\n  0x00\n  dup3\n  add\n  mload\n  dup2\n  0x00\n  add\n  sstore\n  0x20\n  dup3\n  add\n  mload\n  dup2\n  0x01\n  add\n  sstore\n  0x40\n  dup3\n  add\n  mload\n  dup2\n  0x02\n  add\n  sstore\n  0x60\n  dup3\n  add\n  mload\n  dup2\n  0x03\n  add\n  swap1\n  dup2\n  tag_9\n  swap2\n  swap1\n  tag_10\n  jump\t// in\ntag_9:\n  pop\n  pop\n  pop\n    /* \"blockchain.sol\":1187:1457  {... */\n  pop\n    /* \"blockchain.sol\":1141:1457  constructor(string memory secret_first_phrase){... */\n  pop\n    /* \"blockchain.sol\":61:4033  contract Blockchain{... */\n  jump(tag_11)\n    /* \"blockchain.sol\":1574:2033  function hashFunc(string memory data) private pure returns(bytes32){... */\ntag_7:\n    /* \"blockchain.sol\":1633:1640  bytes32 */\n  0x00\n    /* \"blockchain.sol\":2019:2023  data */\n  dup2\n    /* \"blockchain.sol\":2002:2024  abi.encodePacked(data) */\n  add(0x20, mload(0x40))\n  tag_13\n  swap2\n  swap1\n  tag_14\n  jump\t// in\ntag_13:\n  mload(0x40)\n  0x20\n  dup2\n  dup4\n  sub\n  sub\n  dup2\n  mstore\n  swap1\n  0x40\n  mstore\n    /* \"blockchain.sol\":1992:2025  keccak256(abi.encodePacked(data)) */\n  dup1\n  mload\n  swap1\n  0x20\n  add\n  keccak256\n    /* \"blockchain.sol\":1985:2025  return keccak256(abi.encodePacked(data)) */\n  swap1\n  pop\n    /* \"blockchain.sol\":1574:2033  function hashFunc(string memory data) private pure returns(bytes32){... */\n  swap2\n  swap1\n  pop\n  jump\t// out\n    /* \"#utility.yul\":7:82   */\ntag_15:\n    /* \"#utility.yul\":40:46   */\n  0x00\n    /* \"#utility.yul\":73:75   */\n  0x40\n    /* \"#utility.yul\":67:76   */\n  mload\n    /* \"#utility.yul\":57:76   */\n  swap1\n  pop\n    /* \"#utility.yul\":7:82   */\n  swap1\n  jump\t// out\n    /* \"#utility.yul\":88:205   */\ntag_16:\n    /* \"#utility.yul\":197:198   */\n  0x00\n    /* \"#utility.yul\":194:195   */\n  0x00\n    /* \"#utility.yul\":187:199   */\n  revert\n    /* \"#utility.yul\":211:328   */\ntag_17:\n    /* \"#utility.yul\":320:321   */\n  0x00\n    /* \"#utility.yul\":317:318   */\n  0x00\n    /* \"#utility.yul\":310:322   */\n  revert\n    /* \"#utility.yul\":334:451   */\ntag_18:\n    /* \"#utility.yul\":443:444   */\n  0x00\n    /* \"#utility.yul\":440:441   */\n  0x00\n    /* \"#utility.yul\":433:445   */\n  revert\n    /* \"#utility.yul\":457:574   */\ntag_19:\n    /* \"#utility.yul\":566:567   */\n  0x00\n    /* \"#utility.yul\":563:564   */\n  0x00\n    /* \"#utility.yul\":556:568   */\n  revert\n    /* \"#utility.yul\":580:682   */\ntag_20:\n    /* \"#utility.yul\":621:627   */\n  0x00\n    /* \"#utility.yul\":672:674   */\n  0x1f\n    /* \"#utility.yul\":668:675   */\n  not\n    /* \"#utility.yul\":663:665   */\n  0x1f\n    /* \"#utility.yul\":656:661   */\n  dup4\n    /* \"#utility.yul\":652:666   */\n  add\n    /* \"#utility.yul\":648:676   */\n  and\n    /* \"#utility.yul\":638:676   */\n  swap1\n  pop\n    /* \"#utility.yul\":580:682   */\n  swap2\n  swap1\n  pop\n  jump\t// out\n    /* \"#utility.yul\":688:868   */\ntag_21:\n    /* \"#utility.yul\":736:813   */\n  0x4e487b7100000000000000000000000000000000000000000000000000000000\n    /* \"#utility.yul\":733:734   */\n  0x00\n    /* \"#utility.yul\":726:814   */\n  mstore\n    /* \"#utility.yul\":833:837   */\n  0x41\n    /* \"#utility.yul\":830:831   */\n  0x04\n    /* \"#utility.yul\":823:838   */\n  mstore\n    /* \"#utility.yul\":857:861   */\n  0x24\n    /* \"#utility.yul\":854:855   */\n  0x00\n    /* \"#utility.yul\":847:862   */\n  revert\n    /* \"#utility.yul\":874:1155   */\ntag_22:\n    /* \"#utility.yul\":957:984   */\n  tag_58\n    /* \"#utility.yul\":979:983   */\n  dup3\n    /* \"#utility.yul\":957:984   */\n  tag_20\n  jump\t// in\ntag_58:\n    /* \"#utility.yul\":949:955   */\n  dup2\n    /* \"#utility.yul\":945:985   */\n  add\n    /* \"#utility.yul\":1087:1093   */\n  dup2\n    /* \"#utility.yul\":1075:1085   */\n  dup2\n    /* \"#utility.yul\":1072:1094   */\n  lt\n    /* \"#utility.yul\":1051:1069   */\n  0xffffffffffffffff\n    /* \"#utility.yul\":1039:1049   */\n  dup3\n    /* \"#utility.yul\":1036:1070   */\n  gt\n    /* \"#utility.yul\":1033:1095   */\n  or\n    /* \"#utility.yul\":1030:1118   */\n  iszero\n  tag_59\n  jumpi\n    /* \"#utility.yul\":1098:1116   */\n  tag_60\n  tag_21\n  jump\t// in\ntag_60:\n    /* \"#utility.yul\":1030:1118   */\ntag_59:\n    /* \"#utility.yul\":1138:1148   */\n  dup1\n    /* \"#utility.yul\":1134:1136   */\n  0x40\n    /* \"#utility.yul\":1127:1149   */\n  mstore\n    /* \"#utility.yul\":917:1155   */\n  pop\n    /* \"#utility.yul\":874:1155   */\n  pop\n  pop\n  jump\t// out\n    /* \"#utility.yul\":1161:1290   */\ntag_23:\n    /* \"#utility.yul\":1195:1201   */\n  0x00\n    /* \"#utility.yul\":1222:1242   */\n  tag_62\n  tag_15\n  jump\t// in\ntag_62:\n    /* \"#utility.yul\":1212:1242   */\n  swap1\n  pop\n    /* \"#utility.yul\":1251:1284   */\n  tag_63\n    /* \"#utility.yul\":1279:1283   */\n  dup3\n    /* \"#utility.yul\":1271:1277   */\n  dup3\n    /* \"#utility.yul\":1251:1284   */\n  tag_22\n  jump\t// in\ntag_63:\n    /* \"#utility.yul\":1161:1290   */\n  swap2\n  swap1\n  pop\n  jump\t// out\n    /* \"#utility.yul\":1296:1604   */\ntag_24:\n    /* \"#utility.yul\":1358:1362   */\n  0x00\n    /* \"#utility.yul\":1448:1466   */\n  0xffffffffffffffff\n    /* \"#utility.yul\":1440:1446   */\n  dup3\n    /* \"#utility.yul\":1437:1467   */\n  gt\n    /* \"#utility.yul\":1434:1490   */\n  iszero\n  tag_65\n  jumpi\n    /* \"#utility.yul\":1470:1488   */\n  tag_66\n  tag_21\n  jump\t// in\ntag_66:\n    /* \"#utility.yul\":1434:1490   */\ntag_65:\n    /* \"#utility.yul\":1508:1537   */\n  tag_67\n    /* \"#utility.yul\":1530:1536   */\n  dup3\n    /* \"#utility.yul\":1508:1537   */\n  tag_20\n  jump\t// in\ntag_67:\n    /* \"#utility.yul\":1500:1537   */\n  swap1\n  pop\n    /* \"#utility.yul\":1592:1596   */\n  0x20\n    /* \"#utility.yul\":1586:1590   */\n  dup2\n    /* \"#utility.yul\":1582:1597   */\n  add\n    /* \"#utility.yul\":1574:1597   */\n  swap1\n  pop\n    /* \"#utility.yul\":1296:1604   */\n  swap2\n  swap1\n  pop\n  jump\t// out\n    /* \"#utility.yul\":1610:1749   */\ntag_25:\n    /* \"#utility.yul\":1699:1705   */\n  dup3\n    /* \"#utility.yul\":1694:1697   */\n  dup2\n    /* \"#utility.yul\":1689:1692   */\n  dup4\n    /* \"#utility.yul\":1683:1706   */\n  mcopy\n    /* \"#utility.yul\":1740:1741   */\n  0x00\n    /* \"#utility.yul\":1731:1737   */\n  dup4\n    /* \"#utility.yul\":1726:1729   */\n  dup4\n    /* \"#utility.yul\":1722:1738   */\n  add\n    /* \"#utility.yul\":1715:1742   */\n  mstore\n    /* \"#utility.yul\":1610:1749   */\n  pop\n  pop\n  pop\n  jump\t// out\n    /* \"#utility.yul\":1755:2189   */\ntag_26:\n    /* \"#utility.yul\":1844:1849   */\n  0x00\n    /* \"#utility.yul\":1869:1935   */\n  tag_70\n    /* \"#utility.yul\":1885:1934   */\n  tag_71\n    /* \"#utility.yul\":1927:1933   */\n  dup5\n    /* \"#utility.yul\":1885:1934   */\n  tag_24\n  jump\t// in\ntag_71:\n    /* \"#utility.yul\":1869:1935   */\n  tag_23\n  jump\t// in\ntag_70:\n    /* \"#utility.yul\":1860:1935   */\n  swap1\n  pop\n    /* \"#utility.yul\":1958:1964   */\n  dup3\n    /* \"#utility.yul\":1951:1956   */\n  dup2\n    /* \"#utility.yul\":1944:1965   */\n  mstore\n    /* \"#utility.yul\":1996:2000   */\n  0x20\n    /* \"#utility.yul\":1989:1994   */\n  dup2\n    /* \"#utility.yul\":1985:2001   */\n  add\n    /* \"#utility.yul\":2034:2037   */\n  dup5\n    /* \"#utility.yul\":2025:2031   */\n  dup5\n    /* \"#utility.yul\":2020:2023   */\n  dup5\n    /* \"#utility.yul\":2016:2032   */\n  add\n    /* \"#utility.yul\":2013:2038   */\n  gt\n    /* \"#utility.yul\":2010:2122   */\n  iszero\n  tag_72\n  jumpi\n    /* \"#utility.yul\":2041:2120   */\n  tag_73\n  tag_19\n  jump\t// in\ntag_73:\n    /* \"#utility.yul\":2010:2122   */\ntag_72:\n    /* \"#utility.yul\":2131:2183   */\n  tag_74\n    /* \"#utility.yul\":2176:2182   */\n  dup5\n    /* \"#utility.yul\":2171:2174   */\n  dup3\n    /* \"#utility.yul\":2166:2169   */\n  dup6\n    /* \"#utility.yul\":2131:2183   */\n  tag_25\n  jump\t// in\ntag_74:\n    /* \"#utility.yul\":1850:2189   */\n  pop\n    /* \"#utility.yul\":1755:2189   */\n  swap4\n  swap3\n  pop\n  pop\n  pop\n  jump\t// out\n    /* \"#utility.yul\":2209:2564   */\ntag_27:\n    /* \"#utility.yul\":2276:2281   */\n  0x00\n    /* \"#utility.yul\":2325:2328   */\n  dup3\n    /* \"#utility.yul\":2318:2322   */\n  0x1f\n    /* \"#utility.yul\":2310:2316   */\n  dup4\n    /* \"#utility.yul\":2306:2323   */\n  add\n    /* \"#utility.yul\":2302:2329   */\n  slt\n    /* \"#utility.yul\":2292:2414   */\n  tag_76\n  jumpi\n    /* \"#utility.yul\":2333:2412   */\n  tag_77\n  tag_18\n  jump\t// in\ntag_77:\n    /* \"#utility.yul\":2292:2414   */\ntag_76:\n    /* \"#utility.yul\":2443:2449   */\n  dup2\n    /* \"#utility.yul\":2437:2450   */\n  mload\n    /* \"#utility.yul\":2468:2558   */\n  tag_78\n    /* \"#utility.yul\":2554:2557   */\n  dup5\n    /* \"#utility.yul\":2546:2552   */\n  dup3\n    /* \"#utility.yul\":2539:2543   */\n  0x20\n    /* \"#utility.yul\":2531:2537   */\n  dup7\n    /* \"#utility.yul\":2527:2544   */\n  add\n    /* \"#utility.yul\":2468:2558   */\n  tag_26\n  jump\t// in\ntag_78:\n    /* \"#utility.yul\":2459:2558   */\n  swap2\n  pop\n    /* \"#utility.yul\":2282:2564   */\n  pop\n    /* \"#utility.yul\":2209:2564   */\n  swap3\n  swap2\n  pop\n  pop\n  jump\t// out\n    /* \"#utility.yul\":2570:3094   */\ntag_3:\n    /* \"#utility.yul\":2650:2656   */\n  0x00\n    /* \"#utility.yul\":2699:2701   */\n  0x20\n    /* \"#utility.yul\":2687:2696   */\n  dup3\n    /* \"#utility.yul\":2678:2685   */\n  dup5\n    /* \"#utility.yul\":2674:2697   */\n  sub\n    /* \"#utility.yul\":2670:2702   */\n  slt\n    /* \"#utility.yul\":2667:2786   */\n  iszero\n  tag_80\n  jumpi\n    /* \"#utility.yul\":2705:2784   */\n  tag_81\n  tag_16\n  jump\t// in\ntag_81:\n    /* \"#utility.yul\":2667:2786   */\ntag_80:\n    /* \"#utility.yul\":2846:2847   */\n  0x00\n    /* \"#utility.yul\":2835:2844   */\n  dup3\n    /* \"#utility.yul\":2831:2848   */\n  add\n    /* \"#utility.yul\":2825:2849   */\n  mload\n    /* \"#utility.yul\":2876:2894   */\n  0xffffffffffffffff\n    /* \"#utility.yul\":2868:2874   */\n  dup2\n    /* \"#utility.yul\":2865:2895   */\n  gt\n    /* \"#utility.yul\":2862:2979   */\n  iszero\n  tag_82\n  jumpi\n    /* \"#utility.yul\":2898:2977   */\n  tag_83\n  tag_17\n  jump\t// in\ntag_83:\n    /* \"#utility.yul\":2862:2979   */\ntag_82:\n    /* \"#utility.yul\":3003:3077   */\n  tag_84\n    /* \"#utility.yul\":3069:3076   */\n  dup5\n    /* \"#utility.yul\":3060:3066   */\n  dup3\n    /* \"#utility.yul\":3049:3058   */\n  dup6\n    /* \"#utility.yul\":3045:3067   */\n  add\n    /* \"#utility.yul\":3003:3077   */\n  tag_27\n  jump\t// in\ntag_84:\n    /* \"#utility.yul\":2993:3077   */\n  swap2\n  pop\n    /* \"#utility.yul\":2796:3087   */\n  pop\n    /* \"#utility.yul\":2570:3094   */\n  swap3\n  swap2\n  pop\n  pop\n  jump\t// out\n    /* \"#utility.yul\":3100:3199   */\ntag_28:\n    /* \"#utility.yul\":3152:3158   */\n  0x00\n    /* \"#utility.yul\":3186:3191   */\n  dup2\n    /* \"#utility.yul\":3180:3192   */\n  mload\n    /* \"#utility.yul\":3170:3192   */\n  swap1\n  pop\n    /* \"#utility.yul\":3100:3199   */\n  swap2\n  swap1\n  pop\n  jump\t// out\n    /* \"#utility.yul\":3205:3385   */\ntag_29:\n    /* \"#utility.yul\":3253:3330   */\n  0x4e487b7100000000000000000000000000000000000000000000000000000000\n    /* \"#utility.yul\":3250:3251   */\n  0x00\n    /* \"#utility.yul\":3243:3331   */\n  mstore\n    /* \"#utility.yul\":3350:3354   */\n  0x22\n    /* \"#utility.yul\":3347:3348   */\n  0x04\n    /* \"#utility.yul\":3340:3355   */\n  mstore\n    /* \"#utility.yul\":3374:3378   */\n  0x24\n    /* \"#utility.yul\":3371:3372   */\n  0x00\n    /* \"#utility.yul\":3364:3379   */\n  revert\n    /* \"#utility.yul\":3391:3711   */\ntag_30:\n    /* \"#utility.yul\":3435:3441   */\n  0x00\n    /* \"#utility.yul\":3472:3473   */\n  0x02\n    /* \"#utility.yul\":3466:3470   */\n  dup3\n    /* \"#utility.yul\":3462:3474   */\n  div\n    /* \"#utility.yul\":3452:3474   */\n  swap1\n  pop\n    /* \"#utility.yul\":3519:3520   */\n  0x01\n    /* \"#utility.yul\":3513:3517   */\n  dup3\n    /* \"#utility.yul\":3509:3521   */\n  and\n    /* \"#utility.yul\":3540:3558   */\n  dup1\n    /* \"#utility.yul\":3530:3611   */\n  tag_88\n  jumpi\n    /* \"#utility.yul\":3596:3600   */\n  0x7f\n    /* \"#utility.yul\":3588:3594   */\n  dup3\n    /* \"#utility.yul\":3584:3601   */\n  and\n    /* \"#utility.yul\":3574:3601   */\n  swap2\n  pop\n    /* \"#utility.yul\":3530:3611   */\ntag_88:\n    /* \"#utility.yul\":3658:3660   */\n  0x20\n    /* \"#utility.yul\":3650:3656   */\n  dup3\n    /* \"#utility.yul\":3647:3661   */\n  lt\n    /* \"#utility.yul\":3627:3645   */\n  dup2\n    /* \"#utility.yul\":3624:3662   */\n  sub\n    /* \"#utility.yul\":3621:3705   */\n  tag_89\n  jumpi\n    /* \"#utility.yul\":3677:3695   */\n  tag_90\n  tag_29\n  jump\t// in\ntag_90:\n    /* \"#utility.yul\":3621:3705   */\ntag_89:\n    /* \"#utility.yul\":3442:3711   */\n  pop\n    /* \"#utility.yul\":3391:3711   */\n  swap2\n  swap1\n  pop\n  jump\t// out\n    /* \"#utility.yul\":3717:3858   */\ntag_31:\n    /* \"#utility.yul\":3766:3770   */\n  0x00\n    /* \"#utility.yul\":3789:3792   */\n  dup2\n    /* \"#utility.yul\":3781:3792   */\n  swap1\n  pop\n    /* \"#utility.yul\":3812:3815   */\n  dup2\n    /* \"#utility.yul\":3809:3810   */\n  0x00\n    /* \"#utility.yul\":3802:3816   */\n  mstore\n    /* \"#utility.yul\":3846:3850   */\n  0x20\n    /* \"#utility.yul\":3843:3844   */\n  0x00\n    /* \"#utility.yul\":3833:3851   */\n  keccak256\n    /* \"#utility.yul\":3825:3851   */\n  swap1\n  pop\n    /* \"#utility.yul\":3717:3858   */\n  swap2\n  swap1\n  pop\n  jump\t// out\n    /* \"#utility.yul\":3864:3957   */\ntag_32:\n    /* \"#utility.yul\":3901:3907   */\n  0x00\n    /* \"#utility.yul\":3948:3950   */\n  0x20\n    /* \"#utility.yul\":3943:3945   */\n  0x1f\n    /* \"#utility.yul\":3936:3941   */\n  dup4\n    /* \"#utility.yul\":3932:3946   */\n  add\n    /* \"#utility.yul\":3928:3951   */\n  div\n    /* \"#utility.yul\":3918:3951   */\n  swap1\n  pop\n    /* \"#utility.yul\":3864:3957   */\n  swap2\n  swap1\n  pop\n  jump\t// out\n    /* \"#utility.yul\":3963:4070   */\ntag_33:\n    /* \"#utility.yul\":4007:4015   */\n  0x00\n    /* \"#utility.yul\":4057:4062   */\n  dup3\n    /* \"#utility.yul\":4051:4055   */\n  dup3\n    /* \"#utility.yul\":4047:4063   */\n  shl\n    /* \"#utility.yul\":4026:4063   */\n  swap1\n  pop\n    /* \"#utility.yul\":3963:4070   */\n  swap3\n  swap2\n  pop\n  pop\n  jump\t// out\n    /* \"#utility.yul\":4076:4469   */\ntag_34:\n    /* \"#utility.yul\":4145:4151   */\n  0x00\n    /* \"#utility.yul\":4195:4196   */\n  0x08\n    /* \"#utility.yul\":4183:4193   */\n  dup4\n    /* \"#utility.yul\":4179:4197   */\n  mul\n    /* \"#utility.yul\":4218:4315   */\n  tag_95\n    /* \"#utility.yul\":4248:4314   */\n  0xffffffffffffffffffffffffffffffffffffffffffffffffffffffffffffffff\n    /* \"#utility.yul\":4237:4246   */\n  dup3\n    /* \"#utility.yul\":4218:4315   */\n  tag_33\n  jump\t// in\ntag_95:\n    /* \"#utility.yul\":4336:4375   */\n  tag_96\n    /* \"#utility.yul\":4366:4374   */\n  dup7\n    /* \"#utility.yul\":4355:4364   */\n  dup4\n    /* \"#utility.yul\":4336:4375   */\n  tag_33\n  jump\t// in\ntag_96:\n    /* \"#utility.yul\":4324:4375   */\n  swap6\n  pop\n    /* \"#utility.yul\":4408:4412   */\n  dup1\n    /* \"#utility.yul\":4404:4413   */\n  not\n    /* \"#utility.yul\":4397:4402   */\n  dup5\n    /* \"#utility.yul\":4393:4414   */\n  and\n    /* \"#utility.yul\":4384:4414   */\n  swap4\n  pop\n    /* \"#utility.yul\":4457:4461   */\n  dup1\n    /* \"#utility.yul\":4447:4455   */\n  dup7\n    /* \"#utility.yul\":4443:4462   */\n  and\n    /* \"#utility.yul\":4436:4441   */\n  dup5\n    /* \"#utility.yul\":4433:4463   */\n  or\n    /* \"#utility.yul\":4423:4463   */\n  swap3\n  pop\n    /* \"#utility.yul\":4152:4469   */\n  pop\n  pop\n    /* \"#utility.yul\":4076:4469   */\n  swap4\n  swap3\n  pop\n  pop\n  pop\n  jump\t// out\n    /* \"#utility.yul\":4475:4552   */\ntag_35:\n    /* \"#utility.yul\":4512:4519   */\n  0x00\n    /* \"#utility.yul\":4541:4546   */\n  dup2\n    /* \"#utility.yul\":4530:4546   */\n  swap1\n  pop\n    /* \"#utility.yul\":4475:4552   */\n  swap2\n  swap1\n  pop\n  jump\t// out\n    /* \"#utility.yul\":4558:4618   */\ntag_36:\n    /* \"#utility.yul\":4586:4589   */\n  0x00\n    /* \"#utility.yul\":4607:4612   */\n  dup2\n    /* \"#utility.yul\":4600:4612   */\n  swap1\n  pop\n    /* \"#utility.yul\":4558:4618   */\n  swap2\n  swap1\n  pop\n  jump\t// out\n    /* \"#utility.yul\":4624:4766   */\ntag_37:\n    /* \"#utility.yul\":4674:4683   */\n  0x00\n    /* \"#utility.yul\":4707:4760   */\n  tag_100\n    /* \"#utility.yul\":4725:4759   */\n  tag_101\n    /* \"#utility.yul\":4734:4758   */\n  tag_102\n    /* \"#utility.yul\":4752:4757   */\n  dup5\n    /* \"#utility.yul\":4734:4758   */\n  tag_35\n  jump\t// in\ntag_102:\n    /* \"#utility.yul\":4725:4759   */\n  tag_36\n  jump\t// in\ntag_101:\n    /* \"#utility.yul\":4707:4760   */\n  tag_35\n  jump\t// in\ntag_100:\n    /* \"#utility.yul\":4694:4760   */\n  swap1\n  pop\n    /* \"#utility.yul\":4624:4766   */\n  swap2\n  swap1\n  pop\n  jump\t// out\n    /* \"#utility.yul\":4772:4847   */\ntag_38:\n    /* \"#utility.yul\":4815:4818   */\n  0x00\n    /* \"#utility.yul\":4836:4841   */\n  dup2\n    /* \"#utility.yul\":4829:4841   */\n  swap1\n  pop\n    /* \"#utility.yul\":4772:4847   */\n  swap2\n  swap1\n  pop\n  jump\t// out\n    /* \"#utility.yul\":4853:5122   */\ntag_39:\n    /* \"#utility.yul\":4963:5002   */\n  tag_105\n    /* \"#utility.yul\":4994:5001   */\n  dup4\n    /* \"#utility.yul\":4963:5002   */\n  tag_37\n  jump\t// in\ntag_105:\n    /* \"#utility.yul\":5024:5115   */\n  tag_106\n    /* \"#utility.yul\":5073:5114   */\n  tag_107\n    /* \"#utility.yul\":5097:5113   */\n  dup3\n    /* \"#utility.yul\":5073:5114   */\n  tag_38\n  jump\t// in\ntag_107:\n    /* \"#utility.yul\":5065:5071   */\n  dup5\n    /* \"#utility.yul\":5058:5062   */\n  dup5\n    /* \"#utility.yul\":5052:5063   */\n  sload\n    /* \"#utility.yul\":5024:5115   */\n  tag_34\n  jump\t// in\ntag_106:\n    /* \"#utility.yul\":5018:5022   */\n  dup3\n    /* \"#utility.yul\":5011:5116   */\n  sstore\n    /* \"#utility.yul\":4929:5122   */\n  pop\n    /* \"#utility.yul\":4853:5122   */\n  pop\n  pop\n  pop\n  jump\t// out\n    /* \"#utility.yul\":5128:5201   */\ntag_40:\n    /* \"#utility.yul\":5173:5176   */\n  0x00\n    /* \"#utility.yul\":5194:5195   */\n  0x00\n    /* \"#utility.yul\":5187:5195   */\n  swap1\n  pop\n    /* \"#utility.yul\":5128:5201   */\n  swap1\n  jump\t// out\n    /* \"#utility.yul\":5207:5396   */\ntag_41:\n    /* \"#utility.yul\":5284:5316   */\n  tag_110\n  tag_40\n  jump\t// in\ntag_110:\n    /* \"#utility.yul\":5325:5390   */\n  tag_111\n    /* \"#utility.yul\":5383:5389   */\n  dup2\n    /* \"#utility.yul\":5375:5381   */\n  dup5\n    /* \"#utility.yul\":5369:5373   */\n  dup5\n    /* \"#utility.yul\":5325:5390   */\n  tag_39\n  jump\t// in\ntag_111:\n    /* \"#utility.yul\":5260:5396   */\n  pop\n    /* \"#utility.yul\":5207:5396   */\n  pop\n  pop\n  jump\t// out\n    /* \"#utility.yul\":5402:5588   */\ntag_42:\n    /* \"#utility.yul\":5462:5582   */\ntag_113:\n    /* \"#utility.yul\":5479:5482   */\n  dup2\n    /* \"#utility.yul\":5472:5477   */\n  dup2\n    /* \"#utility.yul\":5469:5483   */\n  lt\n    /* \"#utility.yul\":5462:5582   */\n  iszero\n  tag_115\n  jumpi\n    /* \"#utility.yul\":5533:5572   */\n  tag_116\n    /* \"#utility.yul\":5570:5571   */\n  0x00\n    /* \"#utility.yul\":5563:5568   */\n  dup3\n    /* \"#utility.yul\":5533:5572   */\n  tag_41\n  jump\t// in\ntag_116:\n    /* \"#utility.yul\":5506:5507   */\n  0x01\n    /* \"#utility.yul\":5499:5504   */\n  dup2\n    /* \"#utility.yul\":5495:5508   */\n  add\n    /* \"#utility.yul\":5486:5508   */\n  swap1\n  pop\n    /* \"#utility.yul\":5462:5582   */\n  jump(tag_113)\ntag_115:\n    /* \"#utility.yul\":5402:5588   */\n  pop\n  pop\n  jump\t// out\n    /* \"#utility.yul\":5594:6137   */\ntag_43:\n    /* \"#utility.yul\":5695:5697   */\n  0x1f\n    /* \"#utility.yul\":5690:5693   */\n  dup3\n    /* \"#utility.yul\":5687:5698   */\n  gt\n    /* \"#utility.yul\":5684:6130   */\n  iszero\n  tag_118\n  jumpi\n    /* \"#utility.yul\":5729:5767   */\n  tag_119\n    /* \"#utility.yul\":5761:5766   */\n  dup2\n    /* \"#utility.yul\":5729:5767   */\n  tag_31\n  jump\t// in\ntag_119:\n    /* \"#utility.yul\":5813:5842   */\n  tag_120\n    /* \"#utility.yul\":5831:5841   */\n  dup5\n    /* \"#utility.yul\":5813:5842   */\n  tag_32\n  jump\t// in\ntag_120:\n    /* \"#utility.yul\":5803:5811   */\n  dup2\n    /* \"#utility.yul\":5799:5843   */\n  add\n    /* \"#utility.yul\":5996:5998   */\n  0x20\n    /* \"#utility.yul\":5984:5994   */\n  dup6\n    /* \"#utility.yul\":5981:5999   */\n  lt\n    /* \"#utility.yul\":5978:6027   */\n  iszero\n  tag_121\n  jumpi\n    /* \"#utility.yul\":6017:6025   */\n  dup2\n    /* \"#utility.yul\":6002:6025   */\n  swap1\n  pop\n    /* \"#utility.yul\":5978:6027   */\ntag_121:\n    /* \"#utility.yul\":6040:6120   */\n  tag_122\n    /* \"#utility.yul\":6096:6118   */\n  tag_123\n    /* \"#utility.yul\":6114:6117   */\n  dup6\n    /* \"#utility.yul\":6096:6118   */\n  tag_32\n  jump\t// in\ntag_123:\n    /* \"#utility.yul\":6086:6094   */\n  dup4\n    /* \"#utility.yul\":6082:6119   */\n  add\n    /* \"#utility.yul\":6069:6080   */\n  dup3\n    /* \"#utility.yul\":6040:6120   */\n  tag_42\n  jump\t// in\ntag_122:\n    /* \"#utility.yul\":5699:6130   */\n  pop\n  pop\n    /* \"#utility.yul\":5684:6130   */\ntag_118:\n    /* \"#utility.yul\":5594:6137   */\n  pop\n  pop\n  pop\n  jump\t// out\n    /* \"#utility.yul\":6143:6260   */\ntag_44:\n    /* \"#utility.yul\":6197:6205   */\n  0x00\n    /* \"#utility.yul\":6247:6252   */\n  dup3\n    /* \"#utility.yul\":6241:6245   */\n  dup3\n    /* \"#utility.yul\":6237:6253   */\n  shr\n    /* \"#utility.yul\":6216:6253   */\n  swap1\n  pop\n    /* \"#utility.yul\":6143:6260   */\n  swap3\n  swap2\n  pop\n  pop\n  jump\t// out\n    /* \"#utility.yul\":6266:6435   */\ntag_45:\n    /* \"#utility.yul\":6310:6316   */\n  0x00\n    /* \"#utility.yul\":6343:6394   */\n  tag_126\n    /* \"#utility.yul\":6391:6392   */\n  0x00\n    /* \"#utility.yul\":6387:6393   */\n  not\n    /* \"#utility.yul\":6379:6384   */\n  dup5\n    /* \"#utility.yul\":6376:6377   */\n  0x08\n    /* \"#utility.yul\":6372:6385   */\n  mul\n    /* \"#utility.yul\":6343:6394   */\n  tag_44\n  jump\t// in\ntag_126:\n    /* \"#utility.yul\":6339:6395   */\n  not\n    /* \"#utility.yul\":6424:6428   */\n  dup1\n    /* \"#utility.yul\":6418:6422   */\n  dup4\n    /* \"#utility.yul\":6414:6429   */\n  and\n    /* \"#utility.yul\":6404:6429   */\n  swap2\n  pop\n    /* \"#utility.yul\":6317:6435   */\n  pop\n    /* \"#utility.yul\":6266:6435   */\n  swap3\n  swap2\n  pop\n  pop\n  jump\t// out\n    /* \"#utility.yul\":6440:6735   */\ntag_46:\n    /* \"#utility.yul\":6516:6520   */\n  0x00\n    /* \"#utility.yul\":6662:6691   */\n  tag_128\n    /* \"#utility.yul\":6687:6690   */\n  dup4\n    /* \"#utility.yul\":6681:6685   */\n  dup4\n    /* \"#utility.yul\":6662:6691   */\n  tag_45\n  jump\t// in\ntag_128:\n    /* \"#utility.yul\":6654:6691   */\n  swap2\n  pop\n    /* \"#utility.yul\":6724:6727   */\n  dup3\n    /* \"#utility.yul\":6721:6722   */\n  0x02\n    /* \"#utility.yul\":6717:6728   */\n  mul\n    /* \"#utility.yul\":6711:6715   */\n  dup3\n    /* \"#utility.yul\":6708:6729   */\n  or\n    /* \"#utility.yul\":6700:6729   */\n  swap1\n  pop\n    /* \"#utility.yul\":6440:6735   */\n  swap3\n  swap2\n  pop\n  pop\n  jump\t// out\n    /* \"#utility.yul\":6740:8135   */\ntag_10:\n    /* \"#utility.yul\":6857:6894   */\n  tag_130\n    /* \"#utility.yul\":6890:6893   */\n  dup3\n    /* \"#utility.yul\":6857:6894   */\n  tag_28\n  jump\t// in\ntag_130:\n    /* \"#utility.yul\":6959:6977   */\n  0xffffffffffffffff\n    /* \"#utility.yul\":6951:6957   */\n  dup2\n    /* \"#utility.yul\":6948:6978   */\n  gt\n    /* \"#utility.yul\":6945:7001   */\n  iszero\n  tag_131\n  jumpi\n    /* \"#utility.yul\":6981:6999   */\n  tag_132\n  tag_21\n  jump\t// in\ntag_132:\n    /* \"#utility.yul\":6945:7001   */\ntag_131:\n    /* \"#utility.yul\":7025:7063   */\n  tag_133\n    /* \"#utility.yul\":7057:7061   */\n  dup3\n    /* \"#utility.yul\":7051:7062   */\n  sload\n    /* \"#utility.yul\":7025:7063   */\n  tag_30\n  jump\t// in\ntag_133:\n    /* \"#utility.yul\":7110:7177   */\n  tag_134\n    /* \"#utility.yul\":7170:7176   */\n  dup3\n    /* \"#utility.yul\":7162:7168   */\n  dup3\n    /* \"#utility.yul\":7156:7160   */\n  dup6\n    /* \"#utility.yul\":7110:7177   */\n  tag_43\n  jump\t// in\ntag_134:\n    /* \"#utility.yul\":7204:7205   */\n  0x00\n    /* \"#utility.yul\":7228:7232   */\n  0x20\n    /* \"#utility.yul\":7215:7232   */\n  swap1\n  pop\n    /* \"#utility.yul\":7260:7262   */\n  0x1f\n    /* \"#utility.yul\":7252:7258   */\n  dup4\n    /* \"#utility.yul\":7249:7263   */\n  gt\n    /* \"#utility.yul\":7277:7278   */\n  0x01\n    /* \"#utility.yul\":7272:7890   */\n  dup2\n  eq\n  tag_136\n  jumpi\n    /* \"#utility.yul\":7934:7935   */\n  0x00\n    /* \"#utility.yul\":7951:7957   */\n  dup5\n    /* \"#utility.yul\":7948:8025   */\n  iszero\n  tag_137\n  jumpi\n    /* \"#utility.yul\":8000:8009   */\n  dup3\n    /* \"#utility.yul\":7995:7998   */\n  dup8\n    /* \"#utility.yul\":7991:8010   */\n  add\n    /* \"#utility.yul\":7985:8011   */\n  mload\n    /* \"#utility.yul\":7976:8011   */\n  swap1\n  pop\n    /* \"#utility.yul\":7948:8025   */\ntag_137:\n    /* \"#utility.yul\":8051:8118   */\n  tag_138\n    /* \"#utility.yul\":8111:8117   */\n  dup6\n    /* \"#utility.yul\":8104:8109   */\n  dup3\n    /* \"#utility.yul\":8051:8118   */\n  tag_46\n  jump\t// in\ntag_138:\n    /* \"#utility.yul\":8045:8049   */\n  dup7\n    /* \"#utility.yul\":8038:8119   */\n  sstore\n    /* \"#utility.yul\":7907:8129   */\n  pop\n    /* \"#utility.yul\":7242:8129   */\n  jump(tag_135)\n    /* \"#utility.yul\":7272:7890   */\ntag_136:\n    /* \"#utility.yul\":7324:7328   */\n  0x1f\n    /* \"#utility.yul\":7320:7329   */\n  not\n    /* \"#utility.yul\":7312:7318   */\n  dup5\n    /* \"#utility.yul\":7308:7330   */\n  and\n    /* \"#utility.yul\":7358:7395   */\n  tag_139\n    /* \"#utility.yul\":7390:7394   */\n  dup7\n    /* \"#utility.yul\":7358:7395   */\n  tag_31\n  jump\t// in\ntag_139:\n    /* \"#utility.yul\":7417:7418   */\n  0x00\n    /* \"#utility.yul\":7431:7639   */\ntag_140:\n    /* \"#utility.yul\":7445:7452   */\n  dup3\n    /* \"#utility.yul\":7442:7443   */\n  dup2\n    /* \"#utility.yul\":7439:7453   */\n  lt\n    /* \"#utility.yul\":7431:7639   */\n  iszero\n  tag_142\n  jumpi\n    /* \"#utility.yul\":7524:7533   */\n  dup5\n    /* \"#utility.yul\":7519:7522   */\n  dup10\n    /* \"#utility.yul\":7515:7534   */\n  add\n    /* \"#utility.yul\":7509:7535   */\n  mload\n    /* \"#utility.yul\":7501:7507   */\n  dup3\n    /* \"#utility.yul\":7494:7536   */\n  sstore\n    /* \"#utility.yul\":7575:7576   */\n  0x01\n    /* \"#utility.yul\":7567:7573   */\n  dup3\n    /* \"#utility.yul\":7563:7577   */\n  add\n    /* \"#utility.yul\":7553:7577   */\n  swap2\n  pop\n    /* \"#utility.yul\":7622:7624   */\n  0x20\n    /* \"#utility.yul\":7611:7620   */\n  dup6\n    /* \"#utility.yul\":7607:7625   */\n  add\n    /* \"#utility.yul\":7594:7625   */\n  swap5\n  pop\n    /* \"#utility.yul\":7468:7472   */\n  0x20\n    /* \"#utility.yul\":7465:7466   */\n  dup2\n    /* \"#utility.yul\":7461:7473   */\n  add\n    /* \"#utility.yul\":7456:7473   */\n  swap1\n  pop\n    /* \"#utility.yul\":7431:7639   */\n  jump(tag_140)\ntag_142:\n    /* \"#utility.yul\":7667:7673   */\n  dup7\n    /* \"#utility.yul\":7658:7665   */\n  dup4\n    /* \"#utility.yul\":7655:7674   */\n  lt\n    /* \"#utility.yul\":7652:7831   */\n  iszero\n  tag_143\n  jumpi\n    /* \"#utility.yul\":7725:7734   */\n  dup5\n    /* \"#utility.yul\":7720:7723   */\n  dup10\n    /* \"#utility.yul\":7716:7735   */\n  add\n    /* \"#utility.yul\":7710:7736   */\n  mload\n    /* \"#utility.yul\":7768:7816   */\n  tag_144\n    /* \"#utility.yul\":7810:7814   */\n  0x1f\n    /* \"#utility.yul\":7802:7808   */\n  dup10\n    /* \"#utility.yul\":7798:7815   */\n  and\n    /* \"#utility.yul\":7787:7796   */\n  dup3\n    /* \"#utility.yul\":7768:7816   */\n  tag_45\n  jump\t// in\ntag_144:\n    /* \"#utility.yul\":7760:7766   */\n  dup4\n    /* \"#utility.yul\":7753:7817   */\n  sstore\n    /* \"#utility.yul\":7675:7831   */\n  pop\n    /* \"#utility.yul\":7652:7831   */\ntag_143:\n    /* \"#utility.yul\":7877:7878   */\n  0x01\n    /* \"#utility.yul\":7873:7874   */\n  0x02\n    /* \"#utility.yul\":7865:7871   */\n  dup9\n    /* \"#utility.yul\":7861:7875   */\n  mul\n    /* \"#utility.yul\":7857:7879   */\n  add\n    /* \"#utility.yul\":7851:7855   */\n  dup9\n    /* \"#utility.yul\":7844:7880   */\n  sstore\n    /* \"#utility.yul\":7279:7890   */\n  pop\n  pop\n  pop\n    /* \"#utility.yul\":7242:8129   */\ntag_135:\n  pop\n    /* \"#utility.yul\":6832:8135   */\n  pop\n  pop\n  pop\n    /* \"#utility.yul\":6740:8135   */\n  pop\n  pop\n  jump\t// out\n    /* \"#utility.yul\":8141:8289   */\ntag_47:\n    /* \"#utility.yul\":8243:8254   */\n  0x00\n    /* \"#utility.yul\":8280:8283   */\n  dup2\n    /* \"#utility.yul\":8265:8283   */\n  swap1\n  pop\n    /* \"#utility.yul\":8141:8289   */\n  swap3\n  swap2\n  pop\n  pop\n  jump\t// out\n    /* \"#utility.yul\":8295:8685   */\ntag_48:\n    /* \"#utility.yul\":8401:8404   */\n  0x00\n    /* \"#utility.yul\":8429:8468   */\n  tag_147\n    /* \"#utility.yul\":8462:8467   */\n  dup3\n    /* \"#utility.yul\":8429:8468   */\n  tag_28\n  jump\t// in\ntag_147:\n    /* \"#utility.yul\":8484:8573   */\n  tag_148\n    /* \"#utility.yul\":8566:8572   */\n  dup2\n    /* \"#utility.yul\":8561:8564   */\n  dup6\n    /* \"#utility.yul\":8484:8573   */\n  tag_47\n  jump\t// in\ntag_148:\n    /* \"#utility.yul\":8477:8573   */\n  swap4\n  pop\n    /* \"#utility.yul\":8582:8647   */\n  tag_149\n    /* \"#utility.yul\":8640:8646   */\n  dup2\n    /* \"#utility.yul\":8635:8638   */\n  dup6\n    /* \"#utility.yul\":8628:8632   */\n  0x20\n    /* \"#utility.yul\":8621:8626   */\n  dup7\n    /* \"#utility.yul\":8617:8633   */\n  add\n    /* \"#utility.yul\":8582:8647   */\n  tag_25\n  jump\t// in\ntag_149:\n    /* \"#utility.yul\":8672:8678   */\n  dup1\n    /* \"#utility.yul\":8667:8670   */\n  dup5\n    /* \"#utility.yul\":8663:8679   */\n  add\n    /* \"#utility.yul\":8656:8679   */\n  swap2\n  pop\n    /* \"#utility.yul\":8405:8685   */\n  pop\n    /* \"#utility.yul\":8295:8685   */\n  swap3\n  swap2\n  pop\n  pop\n  jump\t// out\n    /* \"#utility.yul\":8691:8966   */\ntag_14:\n    /* \"#utility.yul\":8823:8826   */\n  0x00\n    /* \"#utility.yul\":8845:8940   */\n  tag_151\n    /* \"#utility.yul\":8936:8939   */\n  dup3\n    /* \"#utility.yul\":8927:8933   */\n  dup5\n    /* \"#utility.yul\":8845:8940   */\n  tag_48\n  jump\t// in\ntag_151:\n    /* \"#utility.yul\":8838:8940   */\n  swap2\n  pop\n    /* \"#utility.yul\":8957:8960   */\n  dup2\n    /* \"#utility.yul\":8950:8960   */\n  swap1\n  pop\n    /* \"#utility.yul\":8691:8966   */\n  swap3\n  swap2\n  pop\n  pop\n  jump\t// out\n    /* \"blockchain.sol\":61:4033  contract Blockchain{... */\ntag_11:\n  dataSize(sub_0)\n  dup1\n  dataOffset(sub_0)\n  0x00\n  codecopy\n  0x00\n  return\nstop\n\nsub_0: assembly {\n        /* \"blockchain.sol\":61:4033  contract Blockchain{... */\n      mstore(0x40, 0x80)\n      callvalue\n      dup1\n      iszero\n      tag_1\n      jumpi\n      revert(0x00, 0x00)\n    tag_1:\n      pop\n      jumpi(tag_2, lt(calldatasize, 0x04))\n      shr(0xe0, calldataload(0x00))\n      dup1\n      0x4618f42c\n      eq\n      tag_3\n      jumpi\n    tag_2:\n      revert(0x00, 0x00)\n        /* \"blockchain.sol\":3041:4030  function check_block(Block memory proposed_block) external view returns(uint){ //We changed check_block from public to external because the function is meant to be called by other deployed node contracts rather than from inside the same contract, and the modification allows direct inter-contract calls with lower overhead than a public function, which we need because each node checks a proposed block by calling Node(peer).check_block(current_block)... */\n    tag_3:\n      tag_4\n      0x04\n      dup1\n      calldatasize\n      sub\n      dup2\n      add\n      swap1\n      tag_5\n      swap2\n      swap1\n      tag_6\n      jump\t// in\n    tag_5:\n      tag_7\n      jump\t// in\n    tag_4:\n      mload(0x40)\n      tag_8\n      swap2\n      swap1\n      tag_9\n      jump\t// in\n    tag_8:\n      mload(0x40)\n      dup1\n      swap2\n      sub\n      swap1\n      return\n    tag_7:\n        /* \"blockchain.sol\":3113:3117  uint */\n      0x00\n        /* \"blockchain.sol\":3535:3561  Block memory current_block */\n      0x00\n        /* \"blockchain.sol\":3564:3574  blockchain */\n      0x00\n        /* \"blockchain.sol\":3590:3591  1 */\n      0x01\n        /* \"blockchain.sol\":3575:3589  next_block_num */\n      dup1\n      sload\n        /* \"blockchain.sol\":3575:3591  next_block_num-1 */\n      tag_11\n      swap2\n      swap1\n      tag_12\n      jump\t// in\n    tag_11:\n        /* \"blockchain.sol\":3564:3592  blockchain[next_block_num-1] */\n      dup2\n      sload\n      dup2\n      lt\n      tag_13\n      jumpi\n      tag_14\n      tag_15\n      jump\t// in\n    tag_14:\n    tag_13:\n      swap1\n      0x00\n      mstore\n      keccak256(0x00, 0x20)\n      swap1\n      0x04\n      mul\n      add\n        /* \"blockchain.sol\":3535:3592  Block memory current_block = blockchain[next_block_num-1] */\n      mload(0x40)\n      dup1\n      0x80\n      add\n      0x40\n      mstore\n      swap1\n      dup2\n      0x00\n      dup3\n      add\n      sload\n      dup2\n      mstore\n      0x20\n      add\n      0x01\n      dup3\n      add\n      sload\n      dup2\n      mstore\n      0x20\n      add\n      0x02\n      dup3\n      add\n      sload\n      dup2\n      mstore\n      0x20\n      add\n      0x03\n      dup3\n      add\n      dup1\n      sload\n      tag_17\n      swap1\n      tag_18\n      jump\t// in\n    tag_17:\n      dup1\n      0x1f\n      add\n      0x20\n      dup1\n      swap2\n      div\n      mul\n      0x20\n      add\n      mload(0x40)\n      swap1\n      dup2\n      add\n      0x40\n      mstore\n      dup1\n      swap3\n      swap2\n      swap1\n      dup2\n      dup2\n      mstore\n      0x20\n      add\n      dup3\n      dup1\n      sload\n      tag_19\n      swap1\n      tag_18\n      jump\t// in\n    tag_19:\n      dup1\n      iszero\n      tag_20\n      jumpi\n      dup1\n      0x1f\n      lt\n      tag_21\n      jumpi\n      0x0100\n      dup1\n      dup4\n      sload\n      div\n      mul\n      dup4\n      mstore\n      swap2\n      0x20\n      add\n      swap2\n      jump(tag_20)\n    tag_21:\n      dup3\n      add\n      swap2\n      swap1\n      0x00\n      mstore\n      keccak256(0x00, 0x20)\n      swap1\n    tag_22:\n      dup2\n      sload\n      dup2\n      mstore\n      swap1\n      0x01\n      add\n      swap1\n      0x20\n      add\n      dup1\n      dup4\n      gt\n      tag_22\n      jumpi\n      dup3\n      swap1\n      sub\n      0x1f\n      and\n      dup3\n      add\n      swap2\n    tag_20:\n      pop\n      pop\n      pop\n      pop\n      pop\n      dup2\n      mstore\n      pop\n      pop\n      swap1\n      pop\n        /* \"blockchain.sol\":3871:3872  1 */\n      0x01\n        /* \"blockchain.sol\":3845:3858  current_block */\n      dup2\n        /* \"blockchain.sol\":3845:3867  current_block.blockNum */\n      0x40\n      add\n      mload\n        /* \"blockchain.sol\":3819:3833  proposed_block */\n      dup5\n        /* \"blockchain.sol\":3819:3842  proposed_block.blockNum */\n      0x40\n      add\n      mload\n        /* \"blockchain.sol\":3819:3867  proposed_block.blockNum - current_block.blockNum */\n      tag_23\n      swap2\n      swap1\n      tag_12\n      jump\t// in\n    tag_23:\n        /* \"blockchain.sol\":3819:3872  proposed_block.blockNum - current_block.blockNum != 1 */\n      eq\n        /* \"blockchain.sol\":3816:3908  if(proposed_block.blockNum - current_block.blockNum != 1){... */\n      tag_24\n      jumpi\n        /* \"blockchain.sol\":3895:3896  0 */\n      0x00\n        /* \"blockchain.sol\":3888:3896  return 0 */\n      swap2\n      pop\n      pop\n      jump(tag_10)\n        /* \"blockchain.sol\":3816:3908  if(proposed_block.blockNum - current_block.blockNum != 1){... */\n    tag_24:\n        /* \"blockchain.sol\":3948:3961  current_block */\n      dup1\n        /* \"blockchain.sol\":3948:3966  current_block.hash */\n      0x00\n      add\n      mload\n        /* \"blockchain.sol\":3921:3935  proposed_block */\n      dup4\n        /* \"blockchain.sol\":3921:3944  proposed_block.prevHash */\n      0x20\n      add\n      mload\n        /* \"blockchain.sol\":3921:3966  proposed_block.prevHash != current_block.hash */\n      eq\n        /* \"blockchain.sol\":3918:4002  if(proposed_block.prevHash != current_block.hash){... */\n      tag_25\n      jumpi\n        /* \"blockchain.sol\":3989:3990  0 */\n      0x00\n        /* \"blockchain.sol\":3982:3990  return 0 */\n      swap2\n      pop\n      pop\n      jump(tag_10)\n        /* \"blockchain.sol\":3918:4002  if(proposed_block.prevHash != current_block.hash){... */\n    tag_25:\n        /* \"blockchain.sol\":4021:4022  1 */\n      0x01\n        /* \"blockchain.sol\":4014:4022  return 1 */\n      swap2\n      pop\n      pop\n        /* \"blockchain.sol\":3041:4030  function check_block(Block memory proposed_block) external view returns(uint){ //We changed check_block from public to external because the function is meant to be called by other deployed node contracts rather than from inside the same contract, and the modification allows direct inter-contract calls with lower overhead than a public function, which we need because each node checks a proposed block by calling Node(peer).check_block(current_block)... */\n    tag_10:\n      swap2\n      swap1\n      pop\n      jump\t// out\n        /* \"#utility.yul\":7:82   */\n    tag_26:\n        /* \"#utility.yul\":40:46   */\n      0x00\n        /* \"#utility.yul\":73:75   */\n      0x40\n        /* \"#utility.yul\":67:76   */\n      mload\n        /* \"#utility.yul\":57:76   */\n      swap1\n      pop\n        /* \"#utility.yul\":7:82   */\n      swap1\n      jump\t// out\n        /* \"#utility.yul\":88:205   */\n    tag_27:\n        /* \"#utility.yul\":197:198   */\n      0x00\n        /* \"#utility.yul\":194:195   */\n      0x00\n        /* \"#utility.yul\":187:199   */\n      revert\n        /* \"#utility.yul\":211:328   */\n    tag_28:\n        /* \"#utility.yul\":320:321   */\n      0x00\n        /* \"#utility.yul\":317:318   */\n      0x00\n        /* \"#utility.yul\":310:322   */\n      revert\n        /* \"#utility.yul\":334:451   */\n    tag_29:\n        /* \"#utility.yul\":443:444   */\n      0x00\n        /* \"#utility.yul\":440:441   */\n      0x00\n        /* \"#utility.yul\":433:445   */\n      revert\n        /* \"#utility.yul\":457:559   */\n    tag_30:\n        /* \"#utility.yul\":498:504   */\n      0x00\n        /* \"#utility.yul\":549:551   */\n      0x1f\n        /* \"#utility.yul\":545:552   */\n      not\n        /* \"#utility.yul\":540:542   */\n      0x1f\n        /* \"#utility.yul\":533:538   */\n      dup4\n        /* \"#utility.yul\":529:543   */\n      add\n        /* \"#utility.yul\":525:553   */\n      and\n        /* \"#utility.yul\":515:553   */\n      swap1\n      pop\n        /* \"#utility.yul\":457:559   */\n      swap2\n      swap1\n      pop\n      jump\t// out\n        /* \"#utility.yul\":565:745   */\n    tag_31:\n        /* \"#utility.yul\":613:690   */\n      0x4e487b7100000000000000000000000000000000000000000000000000000000\n        /* \"#utility.yul\":610:611   */\n      0x00\n        /* \"#utility.yul\":603:691   */\n      mstore\n        /* \"#utility.yul\":710:714   */\n      0x41\n        /* \"#utility.yul\":707:708   */\n      0x04\n        /* \"#utility.yul\":700:715   */\n      mstore\n        /* \"#utility.yul\":734:738   */\n      0x24\n        /* \"#utility.yul\":731:732   */\n      0x00\n        /* \"#utility.yul\":724:739   */\n      revert\n        /* \"#utility.yul\":751:1032   */\n    tag_32:\n        /* \"#utility.yul\":834:861   */\n      tag_59\n        /* \"#utility.yul\":856:860   */\n      dup3\n        /* \"#utility.yul\":834:861   */\n      tag_30\n      jump\t// in\n    tag_59:\n        /* \"#utility.yul\":826:832   */\n      dup2\n        /* \"#utility.yul\":822:862   */\n      add\n        /* \"#utility.yul\":964:970   */\n      dup2\n        /* \"#utility.yul\":952:962   */\n      dup2\n        /* \"#utility.yul\":949:971   */\n      lt\n        /* \"#utility.yul\":928:946   */\n      0xffffffffffffffff\n        /* \"#utility.yul\":916:926   */\n      dup3\n        /* \"#utility.yul\":913:947   */\n      gt\n        /* \"#utility.yul\":910:972   */\n      or\n        /* \"#utility.yul\":907:995   */\n      iszero\n      tag_60\n      jumpi\n        /* \"#utility.yul\":975:993   */\n      tag_61\n      tag_31\n      jump\t// in\n    tag_61:\n        /* \"#utility.yul\":907:995   */\n    tag_60:\n        /* \"#utility.yul\":1015:1025   */\n      dup1\n        /* \"#utility.yul\":1011:1013   */\n      0x40\n        /* \"#utility.yul\":1004:1026   */\n      mstore\n        /* \"#utility.yul\":794:1032   */\n      pop\n        /* \"#utility.yul\":751:1032   */\n      pop\n      pop\n      jump\t// out\n        /* \"#utility.yul\":1038:1167   */\n    tag_33:\n        /* \"#utility.yul\":1072:1078   */\n      0x00\n        /* \"#utility.yul\":1099:1119   */\n      tag_63\n      tag_26\n      jump\t// in\n    tag_63:\n        /* \"#utility.yul\":1089:1119   */\n      swap1\n      pop\n        /* \"#utility.yul\":1128:1161   */\n      tag_64\n        /* \"#utility.yul\":1156:1160   */\n      dup3\n        /* \"#utility.yul\":1148:1154   */\n      dup3\n        /* \"#utility.yul\":1128:1161   */\n      tag_32\n      jump\t// in\n    tag_64:\n        /* \"#utility.yul\":1038:1167   */\n      swap2\n      swap1\n      pop\n      jump\t// out\n        /* \"#utility.yul\":1173:1290   */\n    tag_34:\n        /* \"#utility.yul\":1282:1283   */\n      0x00\n        /* \"#utility.yul\":1279:1280   */\n      0x00\n        /* \"#utility.yul\":1272:1284   */\n      revert\n        /* \"#utility.yul\":1296:1373   */\n    tag_35:\n        /* \"#utility.yul\":1333:1340   */\n      0x00\n        /* \"#utility.yul\":1362:1367   */\n      dup2\n        /* \"#utility.yul\":1351:1367   */\n      swap1\n      pop\n        /* \"#utility.yul\":1296:1373   */\n      swap2\n      swap1\n      pop\n      jump\t// out\n        /* \"#utility.yul\":1379:1501   */\n    tag_36:\n        /* \"#utility.yul\":1452:1476   */\n      tag_68\n        /* \"#utility.yul\":1470:1475   */\n      dup2\n        /* \"#utility.yul\":1452:1476   */\n      tag_35\n      jump\t// in\n    tag_68:\n        /* \"#utility.yul\":1445:1450   */\n      dup2\n        /* \"#utility.yul\":1442:1477   */\n      eq\n        /* \"#utility.yul\":1432:1495   */\n      tag_69\n      jumpi\n        /* \"#utility.yul\":1491:1492   */\n      0x00\n        /* \"#utility.yul\":1488:1489   */\n      0x00\n        /* \"#utility.yul\":1481:1493   */\n      revert\n        /* \"#utility.yul\":1432:1495   */\n    tag_69:\n        /* \"#utility.yul\":1379:1501   */\n      pop\n      jump\t// out\n        /* \"#utility.yul\":1507:1646   */\n    tag_37:\n        /* \"#utility.yul\":1553:1558   */\n      0x00\n        /* \"#utility.yul\":1591:1597   */\n      dup2\n        /* \"#utility.yul\":1578:1598   */\n      calldataload\n        /* \"#utility.yul\":1569:1598   */\n      swap1\n      pop\n        /* \"#utility.yul\":1607:1640   */\n      tag_71\n        /* \"#utility.yul\":1634:1639   */\n      dup2\n        /* \"#utility.yul\":1607:1640   */\n      tag_36\n      jump\t// in\n    tag_71:\n        /* \"#utility.yul\":1507:1646   */\n      swap3\n      swap2\n      pop\n      pop\n      jump\t// out\n        /* \"#utility.yul\":1652:1729   */\n    tag_38:\n        /* \"#utility.yul\":1689:1696   */\n      0x00\n        /* \"#utility.yul\":1718:1723   */\n      dup2\n        /* \"#utility.yul\":1707:1723   */\n      swap1\n      pop\n        /* \"#utility.yul\":1652:1729   */\n      swap2\n      swap1\n      pop\n      jump\t// out\n        /* \"#utility.yul\":1735:1857   */\n    tag_39:\n        /* \"#utility.yul\":1808:1832   */\n      tag_74\n        /* \"#utility.yul\":1826:1831   */\n      dup2\n        /* \"#utility.yul\":1808:1832   */\n      tag_38\n      jump\t// in\n    tag_74:\n        /* \"#utility.yul\":1801:1806   */\n      dup2\n        /* \"#utility.yul\":1798:1833   */\n      eq\n        /* \"#utility.yul\":1788:1851   */\n      tag_75\n      jumpi\n        /* \"#utility.yul\":1847:1848   */\n      0x00\n        /* \"#utility.yul\":1844:1845   */\n      0x00\n        /* \"#utility.yul\":1837:1849   */\n      revert\n        /* \"#utility.yul\":1788:1851   */\n    tag_75:\n        /* \"#utility.yul\":1735:1857   */\n      pop\n      jump\t// out\n        /* \"#utility.yul\":1863:2002   */\n    tag_40:\n        /* \"#utility.yul\":1909:1914   */\n      0x00\n        /* \"#utility.yul\":1947:1953   */\n      dup2\n        /* \"#utility.yul\":1934:1954   */\n      calldataload\n        /* \"#utility.yul\":1925:1954   */\n      swap1\n      pop\n        /* \"#utility.yul\":1963:1996   */\n      tag_77\n        /* \"#utility.yul\":1990:1995   */\n      dup2\n        /* \"#utility.yul\":1963:1996   */\n      tag_39\n      jump\t// in\n    tag_77:\n        /* \"#utility.yul\":1863:2002   */\n      swap3\n      swap2\n      pop\n      pop\n      jump\t// out\n        /* \"#utility.yul\":2008:2125   */\n    tag_41:\n        /* \"#utility.yul\":2117:2118   */\n      0x00\n        /* \"#utility.yul\":2114:2115   */\n      0x00\n        /* \"#utility.yul\":2107:2119   */\n      revert\n        /* \"#utility.yul\":2131:2248   */\n    tag_42:\n        /* \"#utility.yul\":2240:2241   */\n      0x00\n        /* \"#utility.yul\":2237:2238   */\n      0x00\n        /* \"#utility.yul\":2230:2242   */\n      revert\n        /* \"#utility.yul\":2254:2562   */\n    tag_43:\n        /* \"#utility.yul\":2316:2320   */\n      0x00\n        /* \"#utility.yul\":2406:2424   */\n      0xffffffffffffffff\n        /* \"#utility.yul\":2398:2404   */\n      dup3\n        /* \"#utility.yul\":2395:2425   */\n      gt\n        /* \"#utility.yul\":2392:2448   */\n      iszero\n      tag_81\n      jumpi\n        /* \"#utility.yul\":2428:2446   */\n      tag_82\n      tag_31\n      jump\t// in\n    tag_82:\n        /* \"#utility.yul\":2392:2448   */\n    tag_81:\n        /* \"#utility.yul\":2466:2495   */\n      tag_83\n        /* \"#utility.yul\":2488:2494   */\n      dup3\n        /* \"#utility.yul\":2466:2495   */\n      tag_30\n      jump\t// in\n    tag_83:\n        /* \"#utility.yul\":2458:2495   */\n      swap1\n      pop\n        /* \"#utility.yul\":2550:2554   */\n      0x20\n        /* \"#utility.yul\":2544:2548   */\n      dup2\n        /* \"#utility.yul\":2540:2555   */\n      add\n        /* \"#utility.yul\":2532:2555   */\n      swap1\n      pop\n        /* \"#utility.yul\":2254:2562   */\n      swap2\n      swap1\n      pop\n      jump\t// out\n        /* \"#utility.yul\":2568:2716   */\n    tag_44:\n        /* \"#utility.yul\":2666:2672   */\n      dup3\n        /* \"#utility.yul\":2661:2664   */\n      dup2\n        /* \"#utility.yul\":2656:2659   */\n      dup4\n        /* \"#utility.yul\":2643:2673   */\n      calldatacopy\n        /* \"#utility.yul\":2707:2708   */\n      0x00\n        /* \"#utility.yul\":2698:2704   */\n      dup4\n        /* \"#utility.yul\":2693:2696   */\n      dup4\n        /* \"#utility.yul\":2689:2705   */\n      add\n        /* \"#utility.yul\":2682:2709   */\n      mstore\n        /* \"#utility.yul\":2568:2716   */\n      pop\n      pop\n      pop\n      jump\t// out\n        /* \"#utility.yul\":2722:3147   */\n    tag_45:\n        /* \"#utility.yul\":2800:2805   */\n      0x00\n        /* \"#utility.yul\":2825:2891   */\n      tag_86\n        /* \"#utility.yul\":2841:2890   */\n      tag_87\n        /* \"#utility.yul\":2883:2889   */\n      dup5\n        /* \"#utility.yul\":2841:2890   */\n      tag_43\n      jump\t// in\n    tag_87:\n        /* \"#utility.yul\":2825:2891   */\n      tag_33\n      jump\t// in\n    tag_86:\n        /* \"#utility.yul\":2816:2891   */\n      swap1\n      pop\n        /* \"#utility.yul\":2914:2920   */\n      dup3\n        /* \"#utility.yul\":2907:2912   */\n      dup2\n        /* \"#utility.yul\":2900:2921   */\n      mstore\n        /* \"#utility.yul\":2952:2956   */\n      0x20\n        /* \"#utility.yul\":2945:2950   */\n      dup2\n        /* \"#utility.yul\":2941:2957   */\n      add\n        /* \"#utility.yul\":2990:2993   */\n      dup5\n        /* \"#utility.yul\":2981:2987   */\n      dup5\n        /* \"#utility.yul\":2976:2979   */\n      dup5\n        /* \"#utility.yul\":2972:2988   */\n      add\n        /* \"#utility.yul\":2969:2994   */\n      gt\n        /* \"#utility.yul\":2966:3078   */\n      iszero\n      tag_88\n      jumpi\n        /* \"#utility.yul\":2997:3076   */\n      tag_89\n      tag_42\n      jump\t// in\n    tag_89:\n        /* \"#utility.yul\":2966:3078   */\n    tag_88:\n        /* \"#utility.yul\":3087:3141   */\n      tag_90\n        /* \"#utility.yul\":3134:3140   */\n      dup5\n        /* \"#utility.yul\":3129:3132   */\n      dup3\n        /* \"#utility.yul\":3124:3127   */\n      dup6\n        /* \"#utility.yul\":3087:3141   */\n      tag_44\n      jump\t// in\n    tag_90:\n        /* \"#utility.yul\":2806:3147   */\n      pop\n        /* \"#utility.yul\":2722:3147   */\n      swap4\n      swap3\n      pop\n      pop\n      pop\n      jump\t// out\n        /* \"#utility.yul\":3167:3507   */\n    tag_46:\n        /* \"#utility.yul\":3223:3228   */\n      0x00\n        /* \"#utility.yul\":3272:3275   */\n      dup3\n        /* \"#utility.yul\":3265:3269   */\n      0x1f\n        /* \"#utility.yul\":3257:3263   */\n      dup4\n        /* \"#utility.yul\":3253:3270   */\n      add\n        /* \"#utility.yul\":3249:3276   */\n      slt\n        /* \"#utility.yul\":3239:3361   */\n      tag_92\n      jumpi\n        /* \"#utility.yul\":3280:3359   */\n      tag_93\n      tag_41\n      jump\t// in\n    tag_93:\n        /* \"#utility.yul\":3239:3361   */\n    tag_92:\n        /* \"#utility.yul\":3397:3403   */\n      dup2\n        /* \"#utility.yul\":3384:3404   */\n      calldataload\n        /* \"#utility.yul\":3422:3501   */\n      tag_94\n        /* \"#utility.yul\":3497:3500   */\n      dup5\n        /* \"#utility.yul\":3489:3495   */\n      dup3\n        /* \"#utility.yul\":3482:3486   */\n      0x20\n        /* \"#utility.yul\":3474:3480   */\n      dup7\n        /* \"#utility.yul\":3470:3487   */\n      add\n        /* \"#utility.yul\":3422:3501   */\n      tag_45\n      jump\t// in\n    tag_94:\n        /* \"#utility.yul\":3413:3501   */\n      swap2\n      pop\n        /* \"#utility.yul\":3229:3507   */\n      pop\n        /* \"#utility.yul\":3167:3507   */\n      swap3\n      swap2\n      pop\n      pop\n      jump\t// out\n        /* \"#utility.yul\":3544:4618   */\n    tag_47:\n        /* \"#utility.yul\":3615:3620   */\n      0x00\n        /* \"#utility.yul\":3659:3663   */\n      0x80\n        /* \"#utility.yul\":3647:3656   */\n      dup3\n        /* \"#utility.yul\":3642:3645   */\n      dup5\n        /* \"#utility.yul\":3638:3657   */\n      sub\n        /* \"#utility.yul\":3634:3664   */\n      slt\n        /* \"#utility.yul\":3631:3748   */\n      iszero\n      tag_96\n      jumpi\n        /* \"#utility.yul\":3667:3746   */\n      tag_97\n      tag_29\n      jump\t// in\n    tag_97:\n        /* \"#utility.yul\":3631:3748   */\n    tag_96:\n        /* \"#utility.yul\":3766:3787   */\n      tag_98\n        /* \"#utility.yul\":3782:3786   */\n      0x80\n        /* \"#utility.yul\":3766:3787   */\n      tag_33\n      jump\t// in\n    tag_98:\n        /* \"#utility.yul\":3757:3787   */\n      swap1\n      pop\n        /* \"#utility.yul\":3846:3847   */\n      0x00\n        /* \"#utility.yul\":3886:3935   */\n      tag_99\n        /* \"#utility.yul\":3931:3934   */\n      dup5\n        /* \"#utility.yul\":3922:3928   */\n      dup3\n        /* \"#utility.yul\":3911:3920   */\n      dup6\n        /* \"#utility.yul\":3907:3929   */\n      add\n        /* \"#utility.yul\":3886:3935   */\n      tag_37\n      jump\t// in\n    tag_99:\n        /* \"#utility.yul\":3879:3883   */\n      0x00\n        /* \"#utility.yul\":3872:3877   */\n      dup4\n        /* \"#utility.yul\":3868:3884   */\n      add\n        /* \"#utility.yul\":3861:3936   */\n      mstore\n        /* \"#utility.yul\":3797:3947   */\n      pop\n        /* \"#utility.yul\":4010:4012   */\n      0x20\n        /* \"#utility.yul\":4051:4100   */\n      tag_100\n        /* \"#utility.yul\":4096:4099   */\n      dup5\n        /* \"#utility.yul\":4087:4093   */\n      dup3\n        /* \"#utility.yul\":4076:4085   */\n      dup6\n        /* \"#utility.yul\":4072:4094   */\n      add\n        /* \"#utility.yul\":4051:4100   */\n      tag_37\n      jump\t// in\n    tag_100:\n        /* \"#utility.yul\":4044:4048   */\n      0x20\n        /* \"#utility.yul\":4037:4042   */\n      dup4\n        /* \"#utility.yul\":4033:4049   */\n      add\n        /* \"#utility.yul\":4026:4101   */\n      mstore\n        /* \"#utility.yul\":3957:4112   */\n      pop\n        /* \"#utility.yul\":4175:4177   */\n      0x40\n        /* \"#utility.yul\":4216:4265   */\n      tag_101\n        /* \"#utility.yul\":4261:4264   */\n      dup5\n        /* \"#utility.yul\":4252:4258   */\n      dup3\n        /* \"#utility.yul\":4241:4250   */\n      dup6\n        /* \"#utility.yul\":4237:4259   */\n      add\n        /* \"#utility.yul\":4216:4265   */\n      tag_40\n      jump\t// in\n    tag_101:\n        /* \"#utility.yul\":4209:4213   */\n      0x40\n        /* \"#utility.yul\":4202:4207   */\n      dup4\n        /* \"#utility.yul\":4198:4214   */\n      add\n        /* \"#utility.yul\":4191:4266   */\n      mstore\n        /* \"#utility.yul\":4122:4277   */\n      pop\n        /* \"#utility.yul\":4367:4369   */\n      0x60\n        /* \"#utility.yul\":4356:4365   */\n      dup3\n        /* \"#utility.yul\":4352:4370   */\n      add\n        /* \"#utility.yul\":4339:4371   */\n      calldataload\n        /* \"#utility.yul\":4398:4416   */\n      0xffffffffffffffff\n        /* \"#utility.yul\":4390:4396   */\n      dup2\n        /* \"#utility.yul\":4387:4417   */\n      gt\n        /* \"#utility.yul\":4384:4501   */\n      iszero\n      tag_102\n      jumpi\n        /* \"#utility.yul\":4420:4499   */\n      tag_103\n      tag_34\n      jump\t// in\n    tag_103:\n        /* \"#utility.yul\":4384:4501   */\n    tag_102:\n        /* \"#utility.yul\":4540:4599   */\n      tag_104\n        /* \"#utility.yul\":4595:4598   */\n      dup5\n        /* \"#utility.yul\":4586:4592   */\n      dup3\n        /* \"#utility.yul\":4575:4584   */\n      dup6\n        /* \"#utility.yul\":4571:4593   */\n      add\n        /* \"#utility.yul\":4540:4599   */\n      tag_46\n      jump\t// in\n    tag_104:\n        /* \"#utility.yul\":4533:4537   */\n      0x60\n        /* \"#utility.yul\":4526:4531   */\n      dup4\n        /* \"#utility.yul\":4522:4538   */\n      add\n        /* \"#utility.yul\":4515:4600   */\n      mstore\n        /* \"#utility.yul\":4287:4611   */\n      pop\n        /* \"#utility.yul\":3544:4618   */\n      swap3\n      swap2\n      pop\n      pop\n      jump\t// out\n        /* \"#utility.yul\":4624:5157   */\n    tag_6:\n        /* \"#utility.yul\":4705:4711   */\n      0x00\n        /* \"#utility.yul\":4754:4756   */\n      0x20\n        /* \"#utility.yul\":4742:4751   */\n      dup3\n        /* \"#utility.yul\":4733:4740   */\n      dup5\n        /* \"#utility.yul\":4729:4752   */\n      sub\n        /* \"#utility.yul\":4725:4757   */\n      slt\n        /* \"#utility.yul\":4722:4841   */\n      iszero\n      tag_106\n      jumpi\n        /* \"#utility.yul\":4760:4839   */\n      tag_107\n      tag_27\n      jump\t// in\n    tag_107:\n        /* \"#utility.yul\":4722:4841   */\n    tag_106:\n        /* \"#utility.yul\":4908:4909   */\n      0x00\n        /* \"#utility.yul\":4897:4906   */\n      dup3\n        /* \"#utility.yul\":4893:4910   */\n      add\n        /* \"#utility.yul\":4880:4911   */\n      calldataload\n        /* \"#utility.yul\":4938:4956   */\n      0xffffffffffffffff\n        /* \"#utility.yul\":4930:4936   */\n      dup2\n        /* \"#utility.yul\":4927:4957   */\n      gt\n        /* \"#utility.yul\":4924:5041   */\n      iszero\n      tag_108\n      jumpi\n        /* \"#utility.yul\":4960:5039   */\n      tag_109\n      tag_28\n      jump\t// in\n    tag_109:\n        /* \"#utility.yul\":4924:5041   */\n    tag_108:\n        /* \"#utility.yul\":5065:5140   */\n      tag_110\n        /* \"#utility.yul\":5132:5139   */\n      dup5\n        /* \"#utility.yul\":5123:5129   */\n      dup3\n        /* \"#utility.yul\":5112:5121   */\n      dup6\n        /* \"#utility.yul\":5108:5130   */\n      add\n        /* \"#utility.yul\":5065:5140   */\n      tag_47\n      jump\t// in\n    tag_110:\n        /* \"#utility.yul\":5055:5140   */\n      swap2\n      pop\n        /* \"#utility.yul\":4851:5150   */\n      pop\n        /* \"#utility.yul\":4624:5157   */\n      swap3\n      swap2\n      pop\n      pop\n      jump\t// out\n        /* \"#utility.yul\":5163:5281   */\n    tag_48:\n        /* \"#utility.yul\":5250:5274   */\n      tag_112\n        /* \"#utility.yul\":5268:5273   */\n      dup2\n        /* \"#utility.yul\":5250:5274   */\n      tag_38\n      jump\t// in\n    tag_112:\n        /* \"#utility.yul\":5245:5248   */\n      dup3\n        /* \"#utility.yul\":5238:5275   */\n      mstore\n        /* \"#utility.yul\":5163:5281   */\n      pop\n      pop\n      jump\t// out\n        /* \"#utility.yul\":5287:5509   */\n    tag_9:\n        /* \"#utility.yul\":5380:5384   */\n      0x00\n        /* \"#utility.yul\":5418:5420   */\n      0x20\n        /* \"#utility.yul\":5407:5416   */\n      dup3\n        /* \"#utility.yul\":5403:5421   */\n      add\n        /* \"#utility.yul\":5395:5421   */\n      swap1\n      pop\n        /* \"#utility.yul\":5431:5502   */\n      tag_114\n        /* \"#utility.yul\":5499:5500   */\n      0x00\n        /* \"#utility.yul\":5488:5497   */\n      dup4\n        /* \"#utility.yul\":5484:5501   */\n      add\n        /* \"#utility.yul\":5475:5481   */\n      dup5\n        /* \"#utility.yul\":5431:5502   */\n      tag_48\n      jump\t// in\n    tag_114:\n        /* \"#utility.yul\":5287:5509   */\n      swap3\n      swap2\n      pop\n      pop\n      jump\t// out\n        /* \"#utility.yul\":5515:5695   */\n    tag_49:\n        /* \"#utility.yul\":5563:5640   */\n      0x4e487b7100000000000000000000000000000000000000000000000000000000\n        /* \"#utility.yul\":5560:5561   */\n      0x00\n        /* \"#utility.yul\":5553:5641   */\n      mstore\n        /* \"#utility.yul\":5660:5664   */\n      0x11\n        /* \"#utility.yul\":5657:5658   */\n      0x04\n        /* \"#utility.yul\":5650:5665   */\n      mstore\n        /* \"#utility.yul\":5684:5688   */\n      0x24\n        /* \"#utility.yul\":5681:5682   */\n      0x00\n        /* \"#utility.yul\":5674:5689   */\n      revert\n        /* \"#utility.yul\":5701:5895   */\n    tag_12:\n        /* \"#utility.yul\":5741:5745   */\n      0x00\n        /* \"#utility.yul\":5761:5781   */\n      tag_117\n        /* \"#utility.yul\":5779:5780   */\n      dup3\n        /* \"#utility.yul\":5761:5781   */\n      tag_38\n      jump\t// in\n    tag_117:\n        /* \"#utility.yul\":5756:5781   */\n      swap2\n      pop\n        /* \"#utility.yul\":5795:5815   */\n      tag_118\n        /* \"#utility.yul\":5813:5814   */\n      dup4\n        /* \"#utility.yul\":5795:5815   */\n      tag_38\n      jump\t// in\n    tag_118:\n        /* \"#utility.yul\":5790:5815   */\n      swap3\n      pop\n        /* \"#utility.yul\":5839:5840   */\n      dup3\n        /* \"#utility.yul\":5836:5837   */\n      dup3\n        /* \"#utility.yul\":5832:5841   */\n      sub\n        /* \"#utility.yul\":5824:5841   */\n      swap1\n      pop\n        /* \"#utility.yul\":5863:5864   */\n      dup2\n        /* \"#utility.yul\":5857:5861   */\n      dup2\n        /* \"#utility.yul\":5854:5865   */\n      gt\n        /* \"#utility.yul\":5851:5888   */\n      iszero\n      tag_119\n      jumpi\n        /* \"#utility.yul\":5868:5886   */\n      tag_120\n      tag_49\n      jump\t// in\n    tag_120:\n        /* \"#utility.yul\":5851:5888   */\n    tag_119:\n        /* \"#utility.yul\":5701:5895   */\n      swap3\n      swap2\n      pop\n      pop\n      jump\t// out\n        /* \"#utility.yul\":5901:6081   */\n    tag_15:\n        /* \"#utility.yul\":5949:6026   */\n      0x4e487b7100000000000000000000000000000000000000000000000000000000\n        /* \"#utility.yul\":5946:5947   */\n      0x00\n        /* \"#utility.yul\":5939:6027   */\n      mstore\n        /* \"#utility.yul\":6046:6050   */\n      0x32\n        /* \"#utility.yul\":6043:6044   */\n      0x04\n        /* \"#utility.yul\":6036:6051   */\n      mstore\n        /* \"#utility.yul\":6070:6074   */\n      0x24\n        /* \"#utility.yul\":6067:6068   */\n      0x00\n        /* \"#utility.yul\":6060:6075   */\n      revert\n        /* \"#utility.yul\":6087:6267   */\n    tag_50:\n        /* \"#utility.yul\":6135:6212   */\n      0x4e487b7100000000000000000000000000000000000000000000000000000000\n        /* \"#utility.yul\":6132:6133   */\n      0x00\n        /* \"#utility.yul\":6125:6213   */\n      mstore\n        /* \"#utility.yul\":6232:6236   */\n      0x22\n        /* \"#utility.yul\":6229:6230   */\n      0x04\n        /* \"#utility.yul\":6222:6237   */\n      mstore\n        /* \"#utility.yul\":6256:6260   */\n      0x24\n        /* \"#utility.yul\":6253:6254   */\n      0x00\n        /* \"#utility.yul\":6246:6261   */\n      revert\n        /* \"#utility.yul\":6273:6593   */\n    tag_18:\n        /* \"#utility.yul\":6317:6323   */\n      0x00\n        /* \"#utility.yul\":6354:6355   */\n      0x02\n        /* \"#utility.yul\":6348:6352   */\n      dup3\n        /* \"#utility.yul\":6344:6356   */\n      div\n        /* \"#utility.yul\":6334:6356   */\n      swap1\n      pop\n        /* \"#utility.yul\":6401:6402   */\n      0x01\n        /* \"#utility.yul\":6395:6399   */\n      dup3\n        /* \"#utility.yul\":6391:6403   */\n      and\n        /* \"#utility.yul\":6422:6440   */\n      dup1\n        /* \"#utility.yul\":6412:6493   */\n      tag_124\n      jumpi\n        /* \"#utility.yul\":6478:6482   */\n      0x7f\n        /* \"#utility.yul\":6470:6476   */\n      dup3\n        /* \"#utility.yul\":6466:6483   */\n      and\n        /* \"#utility.yul\":6456:6483   */\n      swap2\n      pop\n        /* \"#utility.yul\":6412:6493   */\n    tag_124:\n        /* \"#utility.yul\":6540:6542   */\n      0x20\n        /* \"#utility.yul\":6532:6538   */\n      dup3\n        /* \"#utility.yul\":6529:6543   */\n      lt\n        /* \"#utility.yul\":6509:6527   */\n      dup2\n        /* \"#utility.yul\":6506:6544   */\n      sub\n        /* \"#utility.yul\":6503:6587   */\n      tag_125\n      jumpi\n        /* \"#utility.yul\":6559:6577   */\n      tag_126\n      tag_50\n      jump\t// in\n    tag_126:\n        /* \"#utility.yul\":6503:6587   */\n    tag_125:\n        /* \"#utility.yul\":6324:6593   */\n      pop\n        /* \"#utility.yul\":6273:6593   */\n      swap2\n      swap1\n      pop\n      jump\t// out\n\n    auxdata: 0xa26469706673582212207e7bdd0804f2f9fd29193f29979c589502bd62307028765d873eff74022fbe3364736f6c634300081e0033\n}\n",
				"bytecode": {
					"linkReferences": {},
					"object": "608060405234801561000f575f5ffd5b50604051610b32380380610b3283398181016040528101906100319190610249565b5f604051806080016040528061004c846100cd60201b60201c565b81526020015f81526020015f8152602001838152509050600180819055505f81908060018154018082558091505060019003905f5260205f2090600402015f909190919091505f820151815f0155602082015181600101556040820151816002015560608201518160030190816100c391906104a0565b50505050506105bf565b5f816040516020016100df91906105a9565b604051602081830303815290604052805190602001209050919050565b5f604051905090565b5f5ffd5b5f5ffd5b5f5ffd5b5f5ffd5b5f601f19601f8301169050919050565b7f4e487b71000000000000000000000000000000000000000000000000000000005f52604160045260245ffd5b61015b82610115565b810181811067ffffffffffffffff8211171561017a57610179610125565b5b80604052505050565b5f61018c6100fc565b90506101988282610152565b919050565b5f67ffffffffffffffff8211156101b7576101b6610125565b5b6101c082610115565b9050602081019050919050565b8281835e5f83830152505050565b5f6101ed6101e88461019d565b610183565b90508281526020810184848401111561020957610208610111565b5b6102148482856101cd565b509392505050565b5f82601f8301126102305761022f61010d565b5b81516102408482602086016101db565b91505092915050565b5f6020828403121561025e5761025d610105565b5b5f82015167ffffffffffffffff81111561027b5761027a610109565b5b6102878482850161021c565b91505092915050565b5f81519050919050565b7f4e487b71000000000000000000000000000000000000000000000000000000005f52602260045260245ffd5b5f60028204905060018216806102de57607f821691505b6020821081036102f1576102f061029a565b5b50919050565b5f819050815f5260205f209050919050565b5f6020601f8301049050919050565b5f82821b905092915050565b5f600883026103537fffffffffffffffffffffffffffffffffffffffffffffffffffffffffffffffff82610318565b61035d8683610318565b95508019841693508086168417925050509392505050565b5f819050919050565b5f819050919050565b5f6103a161039c61039784610375565b61037e565b610375565b9050919050565b5f819050919050565b6103ba83610387565b6103ce6103c6826103a8565b848454610324565b825550505050565b5f5f905090565b6103e56103d6565b6103f08184846103b1565b505050565b5b81811015610413576104085f826103dd565b6001810190506103f6565b5050565b601f82111561045857610429816102f7565b61043284610309565b81016020851015610441578190505b61045561044d85610309565b8301826103f5565b50505b505050565b5f82821c905092915050565b5f6104785f198460080261045d565b1980831691505092915050565b5f6104908383610469565b9150826002028217905092915050565b6104a982610290565b67ffffffffffffffff8111156104c2576104c1610125565b5b6104cc82546102c7565b6104d7828285610417565b5f60209050601f831160018114610508575f84156104f6578287015190505b6105008582610485565b865550610567565b601f198416610516866102f7565b5f5b8281101561053d57848901518255600182019150602085019450602081019050610518565b8683101561055a5784890151610556601f891682610469565b8355505b6001600288020188555050505b505050505050565b5f81905092915050565b5f61058382610290565b61058d818561056f565b935061059d8185602086016101cd565b80840191505092915050565b5f6105b48284610579565b915081905092915050565b610566806105cc5f395ff3fe608060405234801561000f575f5ffd5b5060043610610029575f3560e01c80634618f42c1461002d575b5f5ffd5b610047600480360381019061004291906103d7565b61005d565b604051610054919061042d565b60405180910390f35b5f5f5f6001805461006e9190610473565b8154811061007f5761007e6104a6565b5b905f5260205f2090600402016040518060800160405290815f820154815260200160018201548152602001600282015481526020016003820180546100c390610500565b80601f01602080910402602001604051908101604052809291908181526020018280546100ef90610500565b801561013a5780601f106101115761010080835404028352916020019161013a565b820191905f5260205f20905b81548152906001019060200180831161011d57829003601f168201915b505050505081525050905060018160400151846040015161015b9190610473565b14610169575f915050610186565b805f0151836020015114610180575f915050610186565b60019150505b919050565b5f604051905090565b5f5ffd5b5f5ffd5b5f5ffd5b5f601f19601f8301169050919050565b7f4e487b71000000000000000000000000000000000000000000000000000000005f52604160045260245ffd5b6101e6826101a0565b810181811067ffffffffffffffff82111715610205576102046101b0565b5b80604052505050565b5f61021761018b565b905061022382826101dd565b919050565b5f5ffd5b5f819050919050565b61023e8161022c565b8114610248575f5ffd5b50565b5f8135905061025981610235565b92915050565b5f819050919050565b6102718161025f565b811461027b575f5ffd5b50565b5f8135905061028c81610268565b92915050565b5f5ffd5b5f5ffd5b5f67ffffffffffffffff8211156102b4576102b36101b0565b5b6102bd826101a0565b9050602081019050919050565b828183375f83830152505050565b5f6102ea6102e58461029a565b61020e565b90508281526020810184848401111561030657610305610296565b5b6103118482856102ca565b509392505050565b5f82601f83011261032d5761032c610292565b5b813561033d8482602086016102d8565b91505092915050565b5f6080828403121561035b5761035a61019c565b5b610365608061020e565b90505f6103748482850161024b565b5f8301525060206103878482850161024b565b602083015250604061039b8482850161027e565b604083015250606082013567ffffffffffffffff8111156103bf576103be610228565b5b6103cb84828501610319565b60608301525092915050565b5f602082840312156103ec576103eb610194565b5b5f82013567ffffffffffffffff81111561040957610408610198565b5b61041584828501610346565b91505092915050565b6104278161025f565b82525050565b5f6020820190506104405f83018461041e565b92915050565b7f4e487b71000000000000000000000000000000000000000000000000000000005f52601160045260245ffd5b5f61047d8261025f565b91506104888361025f565b92508282039050818111156104a05761049f610446565b5b92915050565b7f4e487b71000000000000000000000000000000000000000000000000000000005f52603260045260245ffd5b7f4e487b71000000000000000000000000000000000000000000000000000000005f52602260045260245ffd5b5f600282049050600182168061051757607f821691505b60208210810361052a576105296104d3565b5b5091905056fea26469706673582212207e7bdd0804f2f9fd29193f29979c589502bd62307028765d873eff74022fbe3364736f6c634300081e0033",
					"opcodes": "PUSH1 0x80 PUSH1 0x40 MSTORE CALLVALUE DUP1 ISZERO PUSH2 0xF JUMPI PUSH0 PUSH0 REVERT JUMPDEST POP PUSH1 0x40 MLOAD PUSH2 0xB32 CODESIZE SUB DUP1 PUSH2 0xB32 DUP4 CODECOPY DUP2 DUP2 ADD PUSH1 0x40 MSTORE DUP2 ADD SWAP1 PUSH2 0x31 SWAP2 SWAP1 PUSH2 0x249 JUMP JUMPDEST PUSH0 PUSH1 0x40 MLOAD DUP1 PUSH1 0x80 ADD PUSH1 0x40 MSTORE DUP1 PUSH2 0x4C DUP5 PUSH2 0xCD PUSH1 0x20 SHL PUSH1 0x20 SHR JUMP JUMPDEST DUP2 MSTORE PUSH1 0x20 ADD PUSH0 DUP2 MSTORE PUSH1 0x20 ADD PUSH0 DUP2 MSTORE PUSH1 0x20 ADD DUP4 DUP2 MSTORE POP SWAP1 POP PUSH1 0x1 DUP1 DUP2 SWAP1 SSTORE POP PUSH0 DUP2 SWAP1 DUP1 PUSH1 0x1 DUP2 SLOAD ADD DUP1 DUP3 SSTORE DUP1 SWAP2 POP POP PUSH1 0x1 SWAP1 SUB SWAP1 PUSH0 MSTORE PUSH1 0x20 PUSH0 KECCAK256 SWAP1 PUSH1 0x4 MUL ADD PUSH0 SWAP1 SWAP2 SWAP1 SWAP2 SWAP1 SWAP2 POP PUSH0 DUP3 ADD MLOAD DUP2 PUSH0 ADD SSTORE PUSH1 0x20 DUP3 ADD MLOAD DUP2 PUSH1 0x1 ADD SSTORE PUSH1 0x40 DUP3 ADD MLOAD DUP2 PUSH1 0x2 ADD SSTORE PUSH1 0x60 DUP3 ADD MLOAD DUP2 PUSH1 0x3 ADD SWAP1 DUP2 PUSH2 0xC3 SWAP2 SWAP1 PUSH2 0x4A0 JUMP JUMPDEST POP POP POP POP POP PUSH2 0x5BF JUMP JUMPDEST PUSH0 DUP2 PUSH1 0x40 MLOAD PUSH1 0x20 ADD PUSH2 0xDF SWAP2 SWAP1 PUSH2 0x5A9 JUMP JUMPDEST PUSH1 0x40 MLOAD PUSH1 0x20 DUP2 DUP4 SUB SUB DUP2 MSTORE SWAP1 PUSH1 0x40 MSTORE DUP1 MLOAD SWAP1 PUSH1 0x20 ADD KECCAK256 SWAP1 POP SWAP2 SWAP1 POP JUMP JUMPDEST PUSH0 PUSH1 0x40 MLOAD SWAP1 POP SWAP1 JUMP JUMPDEST PUSH0 PUSH0 REVERT JUMPDEST PUSH0 PUSH0 REVERT JUMPDEST PUSH0 PUSH0 REVERT JUMPDEST PUSH0 PUSH0 REVERT JUMPDEST PUSH0 PUSH1 0x1F NOT PUSH1 0x1F DUP4 ADD AND SWAP1 POP SWAP2 SWAP1 POP JUMP JUMPDEST PUSH32 0x4E487B7100000000000000000000000000000000000000000000000000000000 PUSH0 MSTORE PUSH1 0x41 PUSH1 0x4 MSTORE PUSH1 0x24 PUSH0 REVERT JUMPDEST PUSH2 0x15B DUP3 PUSH2 0x115 JUMP JUMPDEST DUP2 ADD DUP2 DUP2 LT PUSH8 0xFFFFFFFFFFFFFFFF DUP3 GT OR ISZERO PUSH2 0x17A JUMPI PUSH2 0x179 PUSH2 0x125 JUMP JUMPDEST JUMPDEST DUP1 PUSH1 0x40 MSTORE POP POP POP JUMP JUMPDEST PUSH0 PUSH2 0x18C PUSH2 0xFC JUMP JUMPDEST SWAP1 POP PUSH2 0x198 DUP3 DUP3 PUSH2 0x152 JUMP JUMPDEST SWAP2 SWAP1 POP JUMP JUMPDEST PUSH0 PUSH8 0xFFFFFFFFFFFFFFFF DUP3 GT ISZERO PUSH2 0x1B7 JUMPI PUSH2 0x1B6 PUSH2 0x125 JUMP JUMPDEST JUMPDEST PUSH2 0x1C0 DUP3 PUSH2 0x115 JUMP JUMPDEST SWAP1 POP PUSH1 0x20 DUP2 ADD SWAP1 POP SWAP2 SWAP1 POP JUMP JUMPDEST DUP3 DUP2 DUP4 MCOPY PUSH0 DUP4 DUP4 ADD MSTORE POP POP POP JUMP JUMPDEST PUSH0 PUSH2 0x1ED PUSH2 0x1E8 DUP5 PUSH2 0x19D JUMP JUMPDEST PUSH2 0x183 JUMP JUMPDEST SWAP1 POP DUP3 DUP2 MSTORE PUSH1 0x20 DUP2 ADD DUP5 DUP5 DUP5 ADD GT ISZERO PUSH2 0x209 JUMPI PUSH2 0x208 PUSH2 0x111 JUMP JUMPDEST JUMPDEST PUSH2 0x214 DUP5 DUP3 DUP6 PUSH2 0x1CD JUMP JUMPDEST POP SWAP4 SWAP3 POP POP POP JUMP JUMPDEST PUSH0 DUP3 PUSH1 0x1F DUP4 ADD SLT PUSH2 0x230 JUMPI PUSH2 0x22F PUSH2 0x10D JUMP JUMPDEST JUMPDEST DUP2 MLOAD PUSH2 0x240 DUP5 DUP3 PUSH1 0x20 DUP7 ADD PUSH2 0x1DB JUMP JUMPDEST SWAP2 POP POP SWAP3 SWAP2 POP POP JUMP JUMPDEST PUSH0 PUSH1 0x20 DUP3 DUP5 SUB SLT ISZERO PUSH2 0x25E JUMPI PUSH2 0x25D PUSH2 0x105 JUMP JUMPDEST JUMPDEST PUSH0 DUP3 ADD MLOAD PUSH8 0xFFFFFFFFFFFFFFFF DUP2 GT ISZERO PUSH2 0x27B JUMPI PUSH2 0x27A PUSH2 0x109 JUMP JUMPDEST JUMPDEST PUSH2 0x287 DUP5 DUP3 DUP6 ADD PUSH2 0x21C JUMP JUMPDEST SWAP2 POP POP SWAP3 SWAP2 POP POP JUMP JUMPDEST PUSH0 DUP2 MLOAD SWAP1 POP SWAP2 SWAP1 POP JUMP JUMPDEST PUSH32 0x4E487B7100000000000000000000000000000000000000000000000000000000 PUSH0 MSTORE PUSH1 0x22 PUSH1 0x4 MSTORE PUSH1 0x24 PUSH0 REVERT JUMPDEST PUSH0 PUSH1 0x2 DUP3 DIV SWAP1 POP PUSH1 0x1 DUP3 AND DUP1 PUSH2 0x2DE JUMPI PUSH1 0x7F DUP3 AND SWAP2 POP JUMPDEST PUSH1 0x20 DUP3 LT DUP2 SUB PUSH2 0x2F1 JUMPI PUSH2 0x2F0 PUSH2 0x29A JUMP JUMPDEST JUMPDEST POP SWAP2 SWAP1 POP JUMP JUMPDEST PUSH0 DUP2 SWAP1 POP DUP2 PUSH0 MSTORE PUSH1 0x20 PUSH0 KECCAK256 SWAP1 POP SWAP2 SWAP1 POP JUMP JUMPDEST PUSH0 PUSH1 0x20 PUSH1 0x1F DUP4 ADD DIV SWAP1 POP SWAP2 SWAP1 POP JUMP JUMPDEST PUSH0 DUP3 DUP3 SHL SWAP1 POP SWAP3 SWAP2 POP POP JUMP JUMPDEST PUSH0 PUSH1 0x8 DUP4 MUL PUSH2 0x353 PUSH32 0xFFFFFFFFFFFFFFFFFFFFFFFFFFFFFFFFFFFFFFFFFFFFFFFFFFFFFFFFFFFFFFFF DUP3 PUSH2 0x318 JUMP JUMPDEST PUSH2 0x35D DUP7 DUP4 PUSH2 0x318 JUMP JUMPDEST SWAP6 POP DUP1 NOT DUP5 AND SWAP4 POP DUP1 DUP7 AND DUP5 OR SWAP3 POP POP POP SWAP4 SWAP3 POP POP POP JUMP JUMPDEST PUSH0 DUP2 SWAP1 POP SWAP2 SWAP1 POP JUMP JUMPDEST PUSH0 DUP2 SWAP1 POP SWAP2 SWAP1 POP JUMP JUMPDEST PUSH0 PUSH2 0x3A1 PUSH2 0x39C PUSH2 0x397 DUP5 PUSH2 0x375 JUMP JUMPDEST PUSH2 0x37E JUMP JUMPDEST PUSH2 0x375 JUMP JUMPDEST SWAP1 POP SWAP2 SWAP1 POP JUMP JUMPDEST PUSH0 DUP2 SWAP1 POP SWAP2 SWAP1 POP JUMP JUMPDEST PUSH2 0x3BA DUP4 PUSH2 0x387 JUMP JUMPDEST PUSH2 0x3CE PUSH2 0x3C6 DUP3 PUSH2 0x3A8 JUMP JUMPDEST DUP5 DUP5 SLOAD PUSH2 0x324 JUMP JUMPDEST DUP3 SSTORE POP POP POP POP JUMP JUMPDEST PUSH0 PUSH0 SWAP1 POP SWAP1 JUMP JUMPDEST PUSH2 0x3E5 PUSH2 0x3D6 JUMP JUMPDEST PUSH2 0x3F0 DUP2 DUP5 DUP5 PUSH2 0x3B1 JUMP JUMPDEST POP POP POP JUMP JUMPDEST JUMPDEST DUP2 DUP2 LT ISZERO PUSH2 0x413 JUMPI PUSH2 0x408 PUSH0 DUP3 PUSH2 0x3DD JUMP JUMPDEST PUSH1 0x1 DUP2 ADD SWAP1 POP PUSH2 0x3F6 JUMP JUMPDEST POP POP JUMP JUMPDEST PUSH1 0x1F DUP3 GT ISZERO PUSH2 0x458 JUMPI PUSH2 0x429 DUP2 PUSH2 0x2F7 JUMP JUMPDEST PUSH2 0x432 DUP5 PUSH2 0x309 JUMP JUMPDEST DUP2 ADD PUSH1 0x20 DUP6 LT ISZERO PUSH2 0x441 JUMPI DUP2 SWAP1 POP JUMPDEST PUSH2 0x455 PUSH2 0x44D DUP6 PUSH2 0x309 JUMP JUMPDEST DUP4 ADD DUP3 PUSH2 0x3F5 JUMP JUMPDEST POP POP JUMPDEST POP POP POP JUMP JUMPDEST PUSH0 DUP3 DUP3 SHR SWAP1 POP SWAP3 SWAP2 POP POP JUMP JUMPDEST PUSH0 PUSH2 0x478 PUSH0 NOT DUP5 PUSH1 0x8 MUL PUSH2 0x45D JUMP JUMPDEST NOT DUP1 DUP4 AND SWAP2 POP POP SWAP3 SWAP2 POP POP JUMP JUMPDEST PUSH0 PUSH2 0x490 DUP4 DUP4 PUSH2 0x469 JUMP JUMPDEST SWAP2 POP DUP3 PUSH1 0x2 MUL DUP3 OR SWAP1 POP SWAP3 SWAP2 POP POP JUMP JUMPDEST PUSH2 0x4A9 DUP3 PUSH2 0x290 JUMP JUMPDEST PUSH8 0xFFFFFFFFFFFFFFFF DUP2 GT ISZERO PUSH2 0x4C2 JUMPI PUSH2 0x4C1 PUSH2 0x125 JUMP JUMPDEST JUMPDEST PUSH2 0x4CC DUP3 SLOAD PUSH2 0x2C7 JUMP JUMPDEST PUSH2 0x4D7 DUP3 DUP3 DUP6 PUSH2 0x417 JUMP JUMPDEST PUSH0 PUSH1 0x20 SWAP1 POP PUSH1 0x1F DUP4 GT PUSH1 0x1 DUP2 EQ PUSH2 0x508 JUMPI PUSH0 DUP5 ISZERO PUSH2 0x4F6 JUMPI DUP3 DUP8 ADD MLOAD SWAP1 POP JUMPDEST PUSH2 0x500 DUP6 DUP3 PUSH2 0x485 JUMP JUMPDEST DUP7 SSTORE POP PUSH2 0x567 JUMP JUMPDEST PUSH1 0x1F NOT DUP5 AND PUSH2 0x516 DUP7 PUSH2 0x2F7 JUMP JUMPDEST PUSH0 JUMPDEST DUP3 DUP2 LT ISZERO PUSH2 0x53D JUMPI DUP5 DUP10 ADD MLOAD DUP3 SSTORE PUSH1 0x1 DUP3 ADD SWAP2 POP PUSH1 0x20 DUP6 ADD SWAP5 POP PUSH1 0x20 DUP2 ADD SWAP1 POP PUSH2 0x518 JUMP JUMPDEST DUP7 DUP4 LT ISZERO PUSH2 0x55A JUMPI DUP5 DUP10 ADD MLOAD PUSH2 0x556 PUSH1 0x1F DUP10 AND DUP3 PUSH2 0x469 JUMP JUMPDEST DUP4 SSTORE POP JUMPDEST PUSH1 0x1 PUSH1 0x2 DUP9 MUL ADD DUP9 SSTORE POP POP POP JUMPDEST POP POP POP POP POP POP JUMP JUMPDEST PUSH0 DUP2 SWAP1 POP SWAP3 SWAP2 POP POP JUMP JUMPDEST PUSH0 PUSH2 0x583 DUP3 PUSH2 0x290 JUMP JUMPDEST PUSH2 0x58D DUP2 DUP6 PUSH2 0x56F JUMP JUMPDEST SWAP4 POP PUSH2 0x59D DUP2 DUP6 PUSH1 0x20 DUP7 ADD PUSH2 0x1CD JUMP JUMPDEST DUP1 DUP5 ADD SWAP2 POP POP SWAP3 SWAP2 POP POP JUMP JUMPDEST PUSH0 PUSH2 0x5B4 DUP3 DUP5 PUSH2 0x579 JUMP JUMPDEST SWAP2 POP DUP2 SWAP1 POP SWAP3 SWAP2 POP POP JUMP JUMPDEST PUSH2 0x566 DUP1 PUSH2 0x5CC PUSH0 CODECOPY PUSH0 RETURN INVALID PUSH1 0x80 PUSH1 0x40 MSTORE CALLVALUE DUP1 ISZERO PUSH2 0xF JUMPI PUSH0 PUSH0 REVERT JUMPDEST POP PUSH1 0x4 CALLDATASIZE LT PUSH2 0x29 JUMPI PUSH0 CALLDATALOAD PUSH1 0xE0 SHR DUP1 PUSH4 0x4618F42C EQ PUSH2 0x2D JUMPI JUMPDEST PUSH0 PUSH0 REVERT JUMPDEST PUSH2 0x47 PUSH1 0x4 DUP1 CALLDATASIZE SUB DUP2 ADD SWAP1 PUSH2 0x42 SWAP2 SWAP1 PUSH2 0x3D7 JUMP JUMPDEST PUSH2 0x5D JUMP JUMPDEST PUSH1 0x40 MLOAD PUSH2 0x54 SWAP2 SWAP1 PUSH2 0x42D JUMP JUMPDEST PUSH1 0x40 MLOAD DUP1 SWAP2 SUB SWAP1 RETURN JUMPDEST PUSH0 PUSH0 PUSH0 PUSH1 0x1 DUP1 SLOAD PUSH2 0x6E SWAP2 SWAP1 PUSH2 0x473 JUMP JUMPDEST DUP2 SLOAD DUP2 LT PUSH2 0x7F JUMPI PUSH2 0x7E PUSH2 0x4A6 JUMP JUMPDEST JUMPDEST SWAP1 PUSH0 MSTORE PUSH1 0x20 PUSH0 KECCAK256 SWAP1 PUSH1 0x4 MUL ADD PUSH1 0x40 MLOAD DUP1 PUSH1 0x80 ADD PUSH1 0x40 MSTORE SWAP1 DUP2 PUSH0 DUP3 ADD SLOAD DUP2 MSTORE PUSH1 0x20 ADD PUSH1 0x1 DUP3 ADD SLOAD DUP2 MSTORE PUSH1 0x20 ADD PUSH1 0x2 DUP3 ADD SLOAD DUP2 MSTORE PUSH1 0x20 ADD PUSH1 0x3 DUP3 ADD DUP1 SLOAD PUSH2 0xC3 SWAP1 PUSH2 0x500 JUMP JUMPDEST DUP1 PUSH1 0x1F ADD PUSH1 0x20 DUP1 SWAP2 DIV MUL PUSH1 0x20 ADD PUSH1 0x40 MLOAD SWAP1 DUP2 ADD PUSH1 0x40 MSTORE DUP1 SWAP3 SWAP2 SWAP1 DUP2 DUP2 MSTORE PUSH1 0x20 ADD DUP3 DUP1 SLOAD PUSH2 0xEF SWAP1 PUSH2 0x500 JUMP JUMPDEST DUP1 ISZERO PUSH2 0x13A JUMPI DUP1 PUSH1 0x1F LT PUSH2 0x111 JUMPI PUSH2 0x100 DUP1 DUP4 SLOAD DIV MUL DUP4 MSTORE SWAP2 PUSH1 0x20 ADD SWAP2 PUSH2 0x13A JUMP JUMPDEST DUP3 ADD SWAP2 SWAP1 PUSH0 MSTORE PUSH1 0x20 PUSH0 KECCAK256 SWAP1 JUMPDEST DUP2 SLOAD DUP2 MSTORE SWAP1 PUSH1 0x1 ADD SWAP1 PUSH1 0x20 ADD DUP1 DUP4 GT PUSH2 0x11D JUMPI DUP3 SWAP1 SUB PUSH1 0x1F AND DUP3 ADD SWAP2 JUMPDEST POP POP POP POP POP DUP2 MSTORE POP POP SWAP1 POP PUSH1 0x1 DUP2 PUSH1 0x40 ADD MLOAD DUP5 PUSH1 0x40 ADD MLOAD PUSH2 0x15B SWAP2 SWAP1 PUSH2 0x473 JUMP JUMPDEST EQ PUSH2 0x169 JUMPI PUSH0 SWAP2 POP POP PUSH2 0x186 JUMP JUMPDEST DUP1 PUSH0 ADD MLOAD DUP4 PUSH1 0x20 ADD MLOAD EQ PUSH2 0x180 JUMPI PUSH0 SWAP2 POP POP PUSH2 0x186 JUMP JUMPDEST PUSH1 0x1 SWAP2 POP POP JUMPDEST SWAP2 SWAP1 POP JUMP JUMPDEST PUSH0 PUSH1 0x40 MLOAD SWAP1 POP SWAP1 JUMP JUMPDEST PUSH0 PUSH0 REVERT JUMPDEST PUSH0 PUSH0 REVERT JUMPDEST PUSH0 PUSH0 REVERT JUMPDEST PUSH0 PUSH1 0x1F NOT PUSH1 0x1F DUP4 ADD AND SWAP1 POP SWAP2 SWAP1 POP JUMP JUMPDEST PUSH32 0x4E487B7100000000000000000000000000000000000000000000000000000000 PUSH0 MSTORE PUSH1 0x41 PUSH1 0x4 MSTORE PUSH1 0x24 PUSH0 REVERT JUMPDEST PUSH2 0x1E6 DUP3 PUSH2 0x1A0 JUMP JUMPDEST DUP2 ADD DUP2 DUP2 LT PUSH8 0xFFFFFFFFFFFFFFFF DUP3 GT OR ISZERO PUSH2 0x205 JUMPI PUSH2 0x204 PUSH2 0x1B0 JUMP JUMPDEST JUMPDEST DUP1 PUSH1 0x40 MSTORE POP POP POP JUMP JUMPDEST PUSH0 PUSH2 0x217 PUSH2 0x18B JUMP JUMPDEST SWAP1 POP PUSH2 0x223 DUP3 DUP3 PUSH2 0x1DD JUMP JUMPDEST SWAP2 SWAP1 POP JUMP JUMPDEST PUSH0 PUSH0 REVERT JUMPDEST PUSH0 DUP2 SWAP1 POP SWAP2 SWAP1 POP JUMP JUMPDEST PUSH2 0x23E DUP2 PUSH2 0x22C JUMP JUMPDEST DUP2 EQ PUSH2 0x248 JUMPI PUSH0 PUSH0 REVERT JUMPDEST POP JUMP JUMPDEST PUSH0 DUP2 CALLDATALOAD SWAP1 POP PUSH2 0x259 DUP2 PUSH2 0x235 JUMP JUMPDEST SWAP3 SWAP2 POP POP JUMP JUMPDEST PUSH0 DUP2 SWAP1 POP SWAP2 SWAP1 POP JUMP JUMPDEST PUSH2 0x271 DUP2 PUSH2 0x25F JUMP JUMPDEST DUP2 EQ PUSH2 0x27B JUMPI PUSH0 PUSH0 REVERT JUMPDEST POP JUMP JUMPDEST PUSH0 DUP2 CALLDATALOAD SWAP1 POP PUSH2 0x28C DUP2 PUSH2 0x268 JUMP JUMPDEST SWAP3 SWAP2 POP POP JUMP JUMPDEST PUSH0 PUSH0 REVERT JUMPDEST PUSH0 PUSH0 REVERT JUMPDEST PUSH0 PUSH8 0xFFFFFFFFFFFFFFFF DUP3 GT ISZERO PUSH2 0x2B4 JUMPI PUSH2 0x2B3 PUSH2 0x1B0 JUMP JUMPDEST JUMPDEST PUSH2 0x2BD DUP3 PUSH2 0x1A0 JUMP JUMPDEST SWAP1 POP PUSH1 0x20 DUP2 ADD SWAP1 POP SWAP2 SWAP1 POP JUMP JUMPDEST DUP3 DUP2 DUP4 CALLDATACOPY PUSH0 DUP4 DUP4 ADD MSTORE POP POP POP JUMP JUMPDEST PUSH0 PUSH2 0x2EA PUSH2 0x2E5 DUP5 PUSH2 0x29A JUMP JUMPDEST PUSH2 0x20E JUMP JUMPDEST SWAP1 POP DUP3 DUP2 MSTORE PUSH1 0x20 DUP2 ADD DUP5 DUP5 DUP5 ADD GT ISZERO PUSH2 0x306 JUMPI PUSH2 0x305 PUSH2 0x296 JUMP JUMPDEST JUMPDEST PUSH2 0x311 DUP5 DUP3 DUP6 PUSH2 0x2CA JUMP JUMPDEST POP SWAP4 SWAP3 POP POP POP JUMP JUMPDEST PUSH0 DUP3 PUSH1 0x1F DUP4 ADD SLT PUSH2 0x32D JUMPI PUSH2 0x32C PUSH2 0x292 JUMP JUMPDEST JUMPDEST DUP2 CALLDATALOAD PUSH2 0x33D DUP5 DUP3 PUSH1 0x20 DUP7 ADD PUSH2 0x2D8 JUMP JUMPDEST SWAP2 POP POP SWAP3 SWAP2 POP POP JUMP JUMPDEST PUSH0 PUSH1 0x80 DUP3 DUP5 SUB SLT ISZERO PUSH2 0x35B JUMPI PUSH2 0x35A PUSH2 0x19C JUMP JUMPDEST JUMPDEST PUSH2 0x365 PUSH1 0x80 PUSH2 0x20E JUMP JUMPDEST SWAP1 POP PUSH0 PUSH2 0x374 DUP5 DUP3 DUP6 ADD PUSH2 0x24B JUMP JUMPDEST PUSH0 DUP4 ADD MSTORE POP PUSH1 0x20 PUSH2 0x387 DUP5 DUP3 DUP6 ADD PUSH2 0x24B JUMP JUMPDEST PUSH1 0x20 DUP4 ADD MSTORE POP PUSH1 0x40 PUSH2 0x39B DUP5 DUP3 DUP6 ADD PUSH2 0x27E JUMP JUMPDEST PUSH1 0x40 DUP4 ADD MSTORE POP PUSH1 0x60 DUP3 ADD CALLDATALOAD PUSH8 0xFFFFFFFFFFFFFFFF DUP2 GT ISZERO PUSH2 0x3BF JUMPI PUSH2 0x3BE PUSH2 0x228 JUMP JUMPDEST JUMPDEST PUSH2 0x3CB DUP5 DUP3 DUP6 ADD PUSH2 0x319 JUMP JUMPDEST PUSH1 0x60 DUP4 ADD MSTORE POP SWAP3 SWAP2 POP POP JUMP JUMPDEST PUSH0 PUSH1 0x20 DUP3 DUP5 SUB SLT ISZERO PUSH2 0x3EC JUMPI PUSH2 0x3EB PUSH2 0x194 JUMP JUMPDEST JUMPDEST PUSH0 DUP3 ADD CALLDATALOAD PUSH8 0xFFFFFFFFFFFFFFFF DUP2 GT ISZERO PUSH2 0x409 JUMPI PUSH2 0x408 PUSH2 0x198 JUMP JUMPDEST JUMPDEST PUSH2 0x415 DUP5 DUP3 DUP6 ADD PUSH2 0x346 JUMP JUMPDEST SWAP2 POP POP SWAP3 SWAP2 POP POP JUMP JUMPDEST PUSH2 0x427 DUP2 PUSH2 0x25F JUMP JUMPDEST DUP3 MSTORE POP POP JUMP JUMPDEST PUSH0 PUSH1 0x20 DUP3 ADD SWAP1 POP PUSH2 0x440 PUSH0 DUP4 ADD DUP5 PUSH2 0x41E JUMP JUMPDEST SWAP3 SWAP2 POP POP JUMP JUMPDEST PUSH32 0x4E487B7100000000000000000000000000000000000000000000000000000000 PUSH0 MSTORE PUSH1 0x11 PUSH1 0x4 MSTORE PUSH1 0x24 PUSH0 REVERT JUMPDEST PUSH0 PUSH2 0x47D DUP3 PUSH2 0x25F JUMP JUMPDEST SWAP2 POP PUSH2 0x488 DUP4 PUSH2 0x25F JUMP JUMPDEST SWAP3 POP DUP3 DUP3 SUB SWAP1 POP DUP2 DUP2 GT ISZERO PUSH2 0x4A0 JUMPI PUSH2 0x49F PUSH2 0x446 JUMP JUMPDEST JUMPDEST SWAP3 SWAP2 POP POP JUMP JUMPDEST PUSH32 0x4E487B7100000000000000000000000000000000000000000000000000000000 PUSH0 MSTORE PUSH1 0x32 PUSH1 0x4 MSTORE PUSH1 0x24 PUSH0 REVERT JUMPDEST PUSH32 0x4E487B7100000000000000000000000000000000000000000000000000000000 PUSH0 MSTORE PUSH1 0x22 PUSH1 0x4 MSTORE PUSH1 0x24 PUSH0 REVERT JUMPDEST PUSH0 PUSH1 0x2 DUP3 DIV SWAP1 POP PUSH1 0x1 DUP3 AND DUP1 PUSH2 0x517 JUMPI PUSH1 0x7F DUP3 AND SWAP2 POP JUMPDEST PUSH1 0x20 DUP3 LT DUP2 SUB PUSH2 0x52A JUMPI PUSH2 0x529 PUSH2 0x4D3 JUMP JUMPDEST JUMPDEST POP SWAP2 SWAP1 POP JUMP INVALID LOG2 PUSH5 0x6970667358 0x22 SLT KECCAK256 PUSH31 0x7BDD0804F2F9FD29193F29979C589502BD62307028765D873EFF74022FBE33 PUSH5 0x736F6C6343 STOP ADDMOD 0x1E STOP CALLER "
				},
				"gasEstimates": {
					"creation": {
						"codeDepositCost": "276400",
						"executionCost": "infinite",
						"totalCost": "infinite"
					},
					"external": {
						"check_block((bytes32,bytes32,uint256,string))": "infinite"
					},
					"internal": {
						"build_block(string memory)": "infinite",
						"hashFunc(string memory)": "infinite"
					}
				},
				"methodIdentifiers": {
					"check_block((bytes32,bytes32,uint256,string))": "4618f42c"
				}
			},
			"storageLayout": {
				"storage": [
					{
						"astId": 274,
						"contract": "blockchain.sol:Blockchain",
						"label": "blockchain",
						"offset": 0,
						"slot": "0",
						"type": "t_array(t_struct(Block)270_storage)dyn_storage"
					},
					{
						"astId": 276,
						"contract": "blockchain.sol:Blockchain",
						"label": "next_block_num",
						"offset": 0,
						"slot": "1",
						"type": "t_uint256"
					}
				],
				"types": {
					"t_array(t_struct(Block)270_storage)dyn_storage": {
						"base": "t_struct(Block)270_storage",
						"encoding": "dynamic_array",
						"label": "struct Blockchain.Block[]",
						"numberOfBytes": "32"
					},
					"t_bytes32": {
						"encoding": "inplace",
						"label": "bytes32",
						"numberOfBytes": "32"
					},
					"t_string_storage": {
						"encoding": "bytes",
						"label": "string",
						"numberOfBytes": "32"
					},
					"t_struct(Block)270_storage": {
						"encoding": "inplace",
						"label": "struct Blockchain.Block",
						"members": [
							{
								"astId": 263,
								"contract": "blockchain.sol:Blockchain",
								"label": "hash",
								"offset": 0,
								"slot": "0",
								"type": "t_bytes32"
							},
							{
								"astId": 265,
								"contract": "blockchain.sol:Blockchain",
								"label": "prevHash",
								"offset": 0,
								"slot": "1",
								"type": "t_bytes32"
							},
							{
								"astId": 267,
								"contract": "blockchain.sol:Blockchain",
								"label": "blockNum",
								"offset": 0,
								"slot": "2",
								"type": "t_uint256"
							},
							{
								"astId": 269,
								"contract": "blockchain.sol:Blockchain",
								"label": "message",
								"offset": 0,
								"slot": "3",
								"type": "t_string_storage"
							}
						],
						"numberOfBytes": "128"
					},
					"t_uint256": {
						"encoding": "inplace",
						"label": "uint256",
						"numberOfBytes": "32"
					}
				}
			},
			"userdoc": {
				"kind": "user",
				"methods": {},
				"version": 1
			}
		}
	}
}