{
	"node.sol": {
		"Node": {
			"abi": [
				{
					"inputs": [
						{
							"internalType": "address[]",
							"name": "list_of_addresses",
							"type": "address[]"
						},
						{
							"internalType": "string",
							"name": "message",
							"type": "string"
						},
						{
							"internalType": "address",
							"name": "_staking",
							"type": "address"
						},
						{
							"internalType": "address",
							"name": "_assigner",
							"type": "address"
						}
					],
					"stateMutability": "nonpayable",
					"type": "constructor"
				},
				{
					"inputs": [
						{
							"internalType": "address",
							"name": "peer",
							"type": "address"
						}
					],
					"name": "add_peer",
					"outputs": [],
					"stateMutability": "nonpayable",
					"type": "function"
				},
				{
					"inputs": [],
					"name": "assigner",
					"outputs": [
						{
							"internalType": "contract Assigner",
							"name": "",
							"type": "address"
						}
					],
					"stateMutability": "view",
					"type": "function"
				},
				{
					"inputs": [
						{
							"components": [
								{
									"internalType": "bytes32",
									"name": "hash",
									"type": "bytes32"
								},
								{
									"internalType": "bytes32",
									"name": "prevHash",
									"type": "bytes32"
								},
								{
									"internalType": "uint256",
									"name": "blockNum",
									"type": "uint256"
								},
								{
									"internalType": "string",
									"name": "message",
									"type": "string"
								}
							],
							"internalType": "struct Blockchain.Block",
							"name": "proposed_block",
							"type": "tuple"
						}
					],
					"name": "check_block",
					"outputs": [
						{
							"internalType": "uint256",
							"name": "",
							"type": "uint256"
						}
					],
					"stateMutability": "view",
					"type": "function"
				},
				{
					"inputs": [],
					"name": "check_block_finality_and_build",
					"outputs": [],
					"stateMutability": "nonpayable",
					"type": "function"
				},
				{
					"inputs": [
						{
							"components": [
								{
									"internalType": "bytes32",
									"name": "hash",
									"type": "bytes32"
								},
								{
									"internalType": "bytes32",
									"name": "prevHash",
									"type": "bytes32"
								},
								{
									"internalType": "uint256",
									"name": "blockNum",
									"type": "uint256"
								},
								{
									"internalType": "string",
									"name": "message",
									"type": "string"
								}
							],
							"internalType": "struct Blockchain.Block",
							"name": "received_block",
							"type": "tuple"
						}
					],
					"name": "finalize_block",
					"outputs": [],
					"stateMutability": "nonpayable",
					"type": "function"
				},
				{
					"inputs": [],
					"name": "propose_block",
					"outputs": [],
					"stateMutability": "payable",
					"type": "function"
				},
				{
					"inputs": [],
					"name": "staking",
					"outputs": [
						{
							"internalType": "contract Staking",
							"name": "",
							"type": "address"
						}
					],
					"stateMutability": "view",
					"type": "function"
				},
				{
					"inputs": [
						{
							"internalType": "string",
							"name": "message",
							"type": "string"
						}
					],
					"name": "user_input",
					"outputs": [],
					"stateMutability": "nonpayable",
					"type": "function"
				}
			],
			"devdoc": {
				"kind": "dev",
				"methods": {
					"constructor": {
						"details": "this function starts the genesis block and manually loads some peers, letting the peers know about the in the process check out what payable does"
					}
				},
				"version": 1
			},
			"evm": {
				"assembly": "    /* \"node.sol\":330:5615  contract Node is Blockchain, Consensus{... */\n  mstore(0x40, 0x80)\n    /* \"node.sol\":1860:2567  constructor(... */\n  callvalue\n  dup1\n  iszero\n  tag_1\n  jumpi\n  revert(0x00, 0x00)\ntag_1:\n  pop\n  mload(0x40)\n  sub(codesize, bytecodeSize)\n  dup1\n  bytecodeSize\n  dup4\n  codecopy\n  dup2\n  dup2\n  add\n  0x40\n  mstore\n  dup2\n  add\n  swap1\n  tag_2\n  swap2\n  swap1\n  tag_3\n  jump\t// in\ntag_2:\n    /* \"node.sol\":2022:2029  message */\n  dup3\n    /* \"blockchain.sol\":1198:1218  Block memory genesis */\n  0x00\n    /* \"blockchain.sol\":1221:1385  Block({... */\n  mload(0x40)\n  dup1\n  0x80\n  add\n  0x40\n  mstore\n  dup1\n    /* \"blockchain.sol\":1248:1277  hashFunc(secret_first_phrase) */\n  tag_7\n    /* \"blockchain.sol\":1257:1276  secret_first_phrase */\n  dup5\n    /* \"blockchain.sol\":1248:1256  hashFunc */\n  shl(0x20, tag_8)\n    /* \"blockchain.sol\":1248:1277  hashFunc(secret_first_phrase) */\n  0x20\n  shr\n  jump\t// in\ntag_7:\n    /* \"blockchain.sol\":1221:1385  Block({... */\n  dup2\n  mstore\n  0x20\n  add\n  0x00\n  dup2\n  mstore\n  0x20\n  add\n    /* \"blockchain.sol\":1329:1330  0 */\n  0x00\n    /* \"blockchain.sol\":1221:1385  Block({... */\n  dup2\n  mstore\n  0x20\n  add\n    /* \"blockchain.sol\":1354:1373  secret_first_phrase */\n  dup4\n    /* \"blockchain.sol\":1221:1385  Block({... */\n  dup2\n  mstore\n  pop\n    /* \"blockchain.sol\":1198:1385  Block memory genesis = Block({... */\n  swap1\n  pop\n    /* \"blockchain.sol\":1413:1414  1 */\n  0x01\n    /* \"blockchain.sol\":1396:1410  next_block_num */\n  dup1\n    /* \"blockchain.sol\":1396:1414  next_block_num = 1 */\n  dup2\n  swap1\n  sstore\n  pop\n    /* \"blockchain.sol\":1425:1435  blockchain */\n  0x00\n    /* \"blockchain.sol\":1441:1448  genesis */\n  dup2\n    /* \"blockchain.sol\":1425:1449  blockchain.push(genesis) */\n  swap1\n  dup1\n  0x01\n  dup2\n  sload\n  add\n  dup1\n  dup3\n  sstore\n  dup1\n  swap2\n  pop\n  pop\n  0x01\n  swap1\n  sub\n  swap1\n  0x00\n  mstore\n  keccak256(0x00, 0x20)\n  swap1\n  0x04\n  mul\n  add\n  0x00\n  swap1\n  swap2\n  swap1\n  swap2\n  swap1\n  swap2\n  pop\n  0x00\n  dup3\n  add\n  mload\n  dup2\n  0x00\n  add\n  sstore\n  0x20\n  dup3\n  add\n  mload\n  dup2\n  0x01\n  add\n  sstore\n  0x40\n  dup3\n  add\n  mload\n  dup2\n  0x02\n  add\n  sstore\n  0x60\n  dup3\n  add\n  mload\n  dup2\n  0x03\n  add\n  swap1\n  dup2\n  tag_10\n  swap2\n  swap1\n  tag_11\n  jump\t// in\ntag_10:\n  pop\n  pop\n  pop\n    /* \"blockchain.sol\":1187:1457  {... */\n  pop\n    /* \"blockchain.sol\":1141:1457  constructor(string memory secret_first_phrase){... */\n  pop\n    /* \"node.sol\":2062:2070  _staking */\n  dup2\n    /* \"node.sol\":2044:2051  staking */\n  0x04\n  0x00\n    /* \"node.sol\":2044:2071  staking = Staking(_staking) */\n  0x0100\n  exp\n  dup2\n  sload\n  dup2\n  0xffffffffffffffffffffffffffffffffffffffff\n  mul\n  not\n  and\n  swap1\n  dup4\n  0xffffffffffffffffffffffffffffffffffffffff\n  and\n  mul\n  or\n  swap1\n  sstore\n  pop\n    /* \"node.sol\":2102:2111  _assigner */\n  dup1\n    /* \"node.sol\":2082:2090  assigner */\n  0x05\n  0x00\n    /* \"node.sol\":2082:2112  assigner = Assigner(_assigner) */\n  0x0100\n  exp\n  dup2\n  sload\n  dup2\n  0xffffffffffffffffffffffffffffffffffffffff\n  mul\n  not\n  and\n  swap1\n  dup4\n  0xffffffffffffffffffffffffffffffffffffffff\n  and\n  mul\n  or\n  swap1\n  sstore\n  pop\n    /* \"node.sol\":2125:2131  uint i */\n  0x00\n    /* \"node.sol\":2134:2151  list_of_addresses */\n  dup5\n    /* \"node.sol\":2134:2158  list_of_addresses.length */\n  mload\n    /* \"node.sol\":2125:2158  uint i = list_of_addresses.length */\n  swap1\n  pop\n    /* \"node.sol\":2169:2560  while (i>0){... */\ntag_13:\n    /* \"node.sol\":2178:2179  0 */\n  0x00\n    /* \"node.sol\":2176:2177  i */\n  dup2\n    /* \"node.sol\":2176:2179  i>0 */\n  gt\n    /* \"node.sol\":2169:2560  while (i>0){... */\n  iszero\n  tag_14\n  jumpi\n    /* \"node.sol\":2240:2254  address target */\n  0x00\n    /* \"node.sol\":2257:2274  list_of_addresses */\n  dup6\n    /* \"node.sol\":2277:2278  1 */\n  0x01\n    /* \"node.sol\":2275:2276  i */\n  dup4\n    /* \"node.sol\":2275:2278  i-1 */\n  tag_15\n  swap2\n  swap1\n  tag_16\n  jump\t// in\ntag_15:\n    /* \"node.sol\":2257:2279  list_of_addresses[i-1] */\n  dup2\n  mload\n  dup2\n  lt\n  tag_17\n  jumpi\n  tag_18\n  tag_19\n  jump\t// in\ntag_18:\ntag_17:\n  0x20\n  mul\n  0x20\n  add\n  add\n  mload\n    /* \"node.sol\":2240:2279  address target = list_of_addresses[i-1] */\n  swap1\n  pop\n    /* \"node.sol\":2350:2366  add_peer(target) */\n  tag_20\n    /* \"node.sol\":2359:2365  target */\n  dup2\n    /* \"node.sol\":2350:2358  add_peer */\n  shl(0x20, tag_21)\n    /* \"node.sol\":2350:2366  add_peer(target) */\n  0x20\n  shr\n  jump\t// in\ntag_20:\n    /* \"node.sol\":2459:2465  target */\n  dup1\n    /* \"node.sol\":2454:2475  Node(target).add_peer */\n  0xffffffffffffffffffffffffffffffffffffffff\n  and\n  0xaefa5128\n    /* \"node.sol\":2484:2488  this */\n  address\n    /* \"node.sol\":2454:2490  Node(target).add_peer(address(this)) */\n  mload(0x40)\n  dup3\n  0xffffffff\n  and\n  0xe0\n  shl\n  dup2\n  mstore\n  0x04\n  add\n  tag_22\n  swap2\n  swap1\n  tag_23\n  jump\t// in\ntag_22:\n  0x00\n  mload(0x40)\n  dup1\n  dup4\n  sub\n  dup2\n  0x00\n  dup8\n  dup1\n  extcodesize\n  iszero\n  dup1\n  iszero\n  tag_24\n  jumpi\n  revert(0x00, 0x00)\ntag_24:\n  pop\n  gas\n  call\n  iszero\n  dup1\n  iszero\n  tag_26\n  jumpi\n  returndatacopy(0x00, 0x00, returndatasize)\n  revert(0x00, returndatasize)\ntag_26:\n  pop\n  pop\n  pop\n  pop\n    /* \"node.sol\":2545:2548  i-- */\n  dup2\n  dup1\n  tag_27\n  swap1\n  tag_28\n  jump\t// in\ntag_27:\n  swap3\n  pop\n  pop\n    /* \"node.sol\":2180:2560  {... */\n  pop\n    /* \"node.sol\":2169:2560  while (i>0){... */\n  jump(tag_13)\ntag_14:\n    /* \"node.sol\":2031:2567  {... */\n  pop\n    /* \"node.sol\":1860:2567  constructor(... */\n  pop\n  pop\n  pop\n  pop\n    /* \"node.sol\":330:5615  contract Node is Blockchain, Consensus{... */\n  jump(tag_29)\n    /* \"blockchain.sol\":1574:2033  function hashFunc(string memory data) private pure returns(bytes32){... */\ntag_8:\n    /* \"blockchain.sol\":1633:1640  bytes32 */\n  0x00\n    /* \"blockchain.sol\":2019:2023  data */\n  dup2\n    /* \"blockchain.sol\":2002:2024  abi.encodePacked(data) */\n  add(0x20, mload(0x40))\n  tag_31\n  swap2\n  swap1\n  tag_32\n  jump\t// in\ntag_31:\n  mload(0x40)\n  0x20\n  dup2\n  dup4\n  sub\n  sub\n  dup2\n  mstore\n  swap1\n  0x40\n  mstore\n    /* \"blockchain.sol\":1992:2025  keccak256(abi.encodePacked(data)) */\n  dup1\n  mload\n  swap1\n  0x20\n  add\n  keccak256\n    /* \"blockchain.sol\":1985:2025  return keccak256(abi.encodePacked(data)) */\n  swap1\n  pop\n    /* \"blockchain.sol\":1574:2033  function hashFunc(string memory data) private pure returns(bytes32){... */\n  swap2\n  swap1\n  pop\n  jump\t// out\n    /* \"consensus.sol\":924:1034  function add_peer(address peer) public{... */\ntag_21:\n    /* \"consensus.sol\":973:996  current_validator_nodes */\n  0x02\n    /* \"consensus.sol\":1002:1006  peer */\n  dup2\n    /* \"consensus.sol\":973:1007  current_validator_nodes.push(peer) */\n  swap1\n  dup1\n  0x01\n  dup2\n  sload\n  add\n  dup1\n  dup3\n  sstore\n  dup1\n  swap2\n  pop\n  pop\n  0x01\n  swap1\n  sub\n  swap1\n  0x00\n  mstore\n  keccak256(0x00, 0x20)\n  add\n  0x00\n  swap1\n  swap2\n  swap1\n  swap2\n  swap1\n  swap2\n  0x0100\n  exp\n  dup2\n  sload\n  dup2\n  0xffffffffffffffffffffffffffffffffffffffff\n  mul\n  not\n  and\n  swap1\n  dup4\n  0xffffffffffffffffffffffffffffffffffffffff\n  and\n  mul\n  or\n  swap1\n  sstore\n  pop\n    /* \"consensus.sol\":1018:1024  quorum */\n  0x03\n  0x00\n    /* \"consensus.sol\":1018:1026  quorum++ */\n  dup2\n  sload\n  dup1\n  swap3\n  swap2\n  swap1\n  tag_35\n  swap1\n  tag_36\n  jump\t// in\ntag_35:\n  swap2\n  swap1\n  pop\n  sstore\n  pop\n    /* \"consensus.sol\":924:1034  function add_peer(address peer) public{... */\n  pop\n  jump\t// out\n    /* \"#utility.yul\":7:82   */\ntag_37:\n    /* \"#utility.yul\":40:46   */\n  0x00\n    /* \"#utility.yul\":73:75   */\n  0x40\n    /* \"#utility.yul\":67:76   */\n  mload\n    /* \"#utility.yul\":57:76   */\n  swap1\n  pop\n    /* \"#utility.yul\":7:82   */\n  swap1\n  jump\t// out\n    /* \"#utility.yul\":88:205   */\ntag_38:\n    /* \"#utility.yul\":197:198   */\n  0x00\n    /* \"#utility.yul\":194:195   */\n  0x00\n    /* \"#utility.yul\":187:199   */\n  revert\n    /* \"#utility.yul\":211:328   */\ntag_39:\n    /* \"#utility.yul\":320:321   */\n  0x00\n    /* \"#utility.yul\":317:318   */\n  0x00\n    /* \"#utility.yul\":310:322   */\n  revert\n    /* \"#utility.yul\":334:451   */\ntag_40:\n    /* \"#utility.yul\":443:444   */\n  0x00\n    /* \"#utility.yul\":440:441   */\n  0x00\n    /* \"#utility.yul\":433:445   */\n  revert\n    /* \"#utility.yul\":457:559   */\ntag_41:\n    /* \"#utility.yul\":498:504   */\n  0x00\n    /* \"#utility.yul\":549:551   */\n  0x1f\n    /* \"#utility.yul\":545:552   */\n  not\n    /* \"#utility.yul\":540:542   */\n  0x1f\n    /* \"#utility.yul\":533:538   */\n  dup4\n    /* \"#utility.yul\":529:543   */\n  add\n    /* \"#utility.yul\":525:553   */\n  and\n    /* \"#utility.yul\":515:553   */\n  swap1\n  pop\n    /* \"#utility.yul\":457:559   */\n  swap2\n  swap1\n  pop\n  jump\t// out\n    /* \"#utility.yul\":565:745   */\ntag_42:\n    /* \"#utility.yul\":613:690   */\n  0x4e487b7100000000000000000000000000000000000000000000000000000000\n    /* \"#utility.yul\":610:611   */\n  0x00\n    /* \"#utility.yul\":603:691   */\n  mstore\n    /* \"#utility.yul\":710:714   */\n  0x41\n    /* \"#utility.yul\":707:708   */\n  0x04\n    /* \"#utility.yul\":700:715   */\n  mstore\n    /* \"#utility.yul\":734:738   */\n  0x24\n    /* \"#utility.yul\":731:732   */\n  0x00\n    /* \"#utility.yul\":724:739   */\n  revert\n    /* \"#utility.yul\":751:1032   */\ntag_43:\n    /* \"#utility.yul\":834:861   */\n  tag_89\n    /* \"#utility.yul\":856:860   */\n  dup3\n    /* \"#utility.yul\":834:861   */\n  tag_41\n  jump\t// in\ntag_89:\n    /* \"#utility.yul\":826:832   */\n  dup2\n    /* \"#utility.yul\":822:862   */\n  add\n    /* \"#utility.yul\":964:970   */\n  dup2\n    /* \"#utility.yul\":952:962   */\n  dup2\n    /* \"#utility.yul\":949:971   */\n  lt\n    /* \"#utility.yul\":928:946   */\n  0xffffffffffffffff\n    /* \"#utility.yul\":916:926   */\n  dup3\n    /* \"#utility.yul\":913:947   */\n  gt\n    /* \"#utility.yul\":910:972   */\n  or\n    /* \"#utility.yul\":907:995   */\n  iszero\n  tag_90\n  jumpi\n    /* \"#utility.yul\":975:993   */\n  tag_91\n  tag_42\n  jump\t// in\ntag_91:\n    /* \"#utility.yul\":907:995   */\ntag_90:\n    /* \"#utility.yul\":1015:1025   */\n  dup1\n    /* \"#utility.yul\":1011:1013   */\n  0x40\n    /* \"#utility.yul\":1004:1026   */\n  mstore\n    /* \"#utility.yul\":794:1032   */\n  pop\n    /* \"#utility.yul\":751:1032   */\n  pop\n  pop\n  jump\t// out\n    /* \"#utility.yul\":1038:1167   */\ntag_44:\n    /* \"#utility.yul\":1072:1078   */\n  0x00\n    /* \"#utility.yul\":1099:1119   */\n  tag_93\n  tag_37\n  jump\t// in\ntag_93:\n    /* \"#utility.yul\":1089:1119   */\n  swap1\n  pop\n    /* \"#utility.yul\":1128:1161   */\n  tag_94\n    /* \"#utility.yul\":1156:1160   */\n  dup3\n    /* \"#utility.yul\":1148:1154   */\n  dup3\n    /* \"#utility.yul\":1128:1161   */\n  tag_43\n  jump\t// in\ntag_94:\n    /* \"#utility.yul\":1038:1167   */\n  swap2\n  swap1\n  pop\n  jump\t// out\n    /* \"#utility.yul\":1173:1484   */\ntag_45:\n    /* \"#utility.yul\":1250:1254   */\n  0x00\n    /* \"#utility.yul\":1340:1358   */\n  0xffffffffffffffff\n    /* \"#utility.yul\":1332:1338   */\n  dup3\n    /* \"#utility.yul\":1329:1359   */\n  gt\n    /* \"#utility.yul\":1326:1382   */\n  iszero\n  tag_96\n  jumpi\n    /* \"#utility.yul\":1362:1380   */\n  tag_97\n  tag_42\n  jump\t// in\ntag_97:\n    /* \"#utility.yul\":1326:1382   */\ntag_96:\n    /* \"#utility.yul\":1412:1416   */\n  0x20\n    /* \"#utility.yul\":1404:1410   */\n  dup3\n    /* \"#utility.yul\":1400:1417   */\n  mul\n    /* \"#utility.yul\":1392:1417   */\n  swap1\n  pop\n    /* \"#utility.yul\":1472:1476   */\n  0x20\n    /* \"#utility.yul\":1466:1470   */\n  dup2\n    /* \"#utility.yul\":1462:1477   */\n  add\n    /* \"#utility.yul\":1454:1477   */\n  swap1\n  pop\n    /* \"#utility.yul\":1173:1484   */\n  swap2\n  swap1\n  pop\n  jump\t// out\n    /* \"#utility.yul\":1490:1607   */\ntag_46:\n    /* \"#utility.yul\":1599:1600   */\n  0x00\n    /* \"#utility.yul\":1596:1597   */\n  0x00\n    /* \"#utility.yul\":1589:1601   */\n  revert\n    /* \"#utility.yul\":1613:1739   */\ntag_47:\n    /* \"#utility.yul\":1650:1657   */\n  0x00\n    /* \"#utility.yul\":1690:1732   */\n  0xffffffffffffffffffffffffffffffffffffffff\n    /* \"#utility.yul\":1683:1688   */\n  dup3\n    /* \"#utility.yul\":1679:1733   */\n  and\n    /* \"#utility.yul\":1668:1733   */\n  swap1\n  pop\n    /* \"#utility.yul\":1613:1739   */\n  swap2\n  swap1\n  pop\n  jump\t// out\n    /* \"#utility.yul\":1745:1841   */\ntag_48:\n    /* \"#utility.yul\":1782:1789   */\n  0x00\n    /* \"#utility.yul\":1811:1835   */\n  tag_101\n    /* \"#utility.yul\":1829:1834   */\n  dup3\n    /* \"#utility.yul\":1811:1835   */\n  tag_47\n  jump\t// in\ntag_101:\n    /* \"#utility.yul\":1800:1835   */\n  swap1\n  pop\n    /* \"#utility.yul\":1745:1841   */\n  swap2\n  swap1\n  pop\n  jump\t// out\n    /* \"#utility.yul\":1847:1969   */\ntag_49:\n    /* \"#utility.yul\":1920:1944   */\n  tag_103\n    /* \"#utility.yul\":1938:1943   */\n  dup2\n    /* \"#utility.yul\":1920:1944   */\n  tag_48\n  jump\t// in\ntag_103:\n    /* \"#utility.yul\":1913:1918   */\n  dup2\n    /* \"#utility.yul\":1910:1945   */\n  eq\n    /* \"#utility.yul\":1900:1963   */\n  tag_104\n  jumpi\n    /* \"#utility.yul\":1959:1960   */\n  0x00\n    /* \"#utility.yul\":1956:1957   */\n  0x00\n    /* \"#utility.yul\":1949:1961   */\n  revert\n    /* \"#utility.yul\":1900:1963   */\ntag_104:\n    /* \"#utility.yul\":1847:1969   */\n  pop\n  jump\t// out\n    /* \"#utility.yul\":1975:2118   */\ntag_50:\n    /* \"#utility.yul\":2032:2037   */\n  0x00\n    /* \"#utility.yul\":2063:2069   */\n  dup2\n    /* \"#utility.yul\":2057:2070   */\n  mload\n    /* \"#utility.yul\":2048:2070   */\n  swap1\n  pop\n    /* \"#utility.yul\":2079:2112   */\n  tag_106\n    /* \"#utility.yul\":2106:2111   */\n  dup2\n    /* \"#utility.yul\":2079:2112   */\n  tag_49\n  jump\t// in\ntag_106:\n    /* \"#utility.yul\":1975:2118   */\n  swap3\n  swap2\n  pop\n  pop\n  jump\t// out\n    /* \"#utility.yul\":2141:2873   */\ntag_51:\n    /* \"#utility.yul\":2248:2253   */\n  0x00\n    /* \"#utility.yul\":2273:2354   */\n  tag_108\n    /* \"#utility.yul\":2289:2353   */\n  tag_109\n    /* \"#utility.yul\":2346:2352   */\n  dup5\n    /* \"#utility.yul\":2289:2353   */\n  tag_45\n  jump\t// in\ntag_109:\n    /* \"#utility.yul\":2273:2354   */\n  tag_44\n  jump\t// in\ntag_108:\n    /* \"#utility.yul\":2264:2354   */\n  swap1\n  pop\n    /* \"#utility.yul\":2374:2379   */\n  dup1\n    /* \"#utility.yul\":2403:2409   */\n  dup4\n    /* \"#utility.yul\":2396:2401   */\n  dup3\n    /* \"#utility.yul\":2389:2410   */\n  mstore\n    /* \"#utility.yul\":2437:2441   */\n  0x20\n    /* \"#utility.yul\":2430:2435   */\n  dup3\n    /* \"#utility.yul\":2426:2442   */\n  add\n    /* \"#utility.yul\":2419:2442   */\n  swap1\n  pop\n    /* \"#utility.yul\":2490:2494   */\n  0x20\n    /* \"#utility.yul\":2482:2488   */\n  dup5\n    /* \"#utility.yul\":2478:2495   */\n  mul\n    /* \"#utility.yul\":2470:2476   */\n  dup4\n    /* \"#utility.yul\":2466:2496   */\n  add\n    /* \"#utility.yul\":2519:2522   */\n  dup6\n    /* \"#utility.yul\":2511:2517   */\n  dup2\n    /* \"#utility.yul\":2508:2523   */\n  gt\n    /* \"#utility.yul\":2505:2627   */\n  iszero\n  tag_110\n  jumpi\n    /* \"#utility.yul\":2538:2617   */\n  tag_111\n  tag_46\n  jump\t// in\ntag_111:\n    /* \"#utility.yul\":2505:2627   */\ntag_110:\n    /* \"#utility.yul\":2653:2659   */\n  dup4\n    /* \"#utility.yul\":2636:2867   */\ntag_112:\n    /* \"#utility.yul\":2670:2676   */\n  dup2\n    /* \"#utility.yul\":2665:2668   */\n  dup2\n    /* \"#utility.yul\":2662:2677   */\n  lt\n    /* \"#utility.yul\":2636:2867   */\n  iszero\n  tag_114\n  jumpi\n    /* \"#utility.yul\":2745:2748   */\n  dup1\n    /* \"#utility.yul\":2774:2822   */\n  tag_115\n    /* \"#utility.yul\":2818:2821   */\n  dup9\n    /* \"#utility.yul\":2806:2816   */\n  dup3\n    /* \"#utility.yul\":2774:2822   */\n  tag_50\n  jump\t// in\ntag_115:\n    /* \"#utility.yul\":2769:2772   */\n  dup5\n    /* \"#utility.yul\":2762:2823   */\n  mstore\n    /* \"#utility.yul\":2852:2856   */\n  0x20\n    /* \"#utility.yul\":2847:2850   */\n  dup5\n    /* \"#utility.yul\":2843:2857   */\n  add\n    /* \"#utility.yul\":2836:2857   */\n  swap4\n  pop\n    /* \"#utility.yul\":2712:2867   */\n  pop\n    /* \"#utility.yul\":2696:2700   */\n  0x20\n    /* \"#utility.yul\":2691:2694   */\n  dup2\n    /* \"#utility.yul\":2687:2701   */\n  add\n    /* \"#utility.yul\":2680:2701   */\n  swap1\n  pop\n    /* \"#utility.yul\":2636:2867   */\n  jump(tag_112)\ntag_114:\n    /* \"#utility.yul\":2640:2661   */\n  pop\n    /* \"#utility.yul\":2254:2873   */\n  pop\n  pop\n    /* \"#utility.yul\":2141:2873   */\n  swap4\n  swap3\n  pop\n  pop\n  pop\n  jump\t// out\n    /* \"#utility.yul\":2896:3281   */\ntag_52:\n    /* \"#utility.yul\":2978:2983   */\n  0x00\n    /* \"#utility.yul\":3027:3030   */\n  dup3\n    /* \"#utility.yul\":3020:3024   */\n  0x1f\n    /* \"#utility.yul\":3012:3018   */\n  dup4\n    /* \"#utility.yul\":3008:3025   */\n  add\n    /* \"#utility.yul\":3004:3031   */\n  slt\n    /* \"#utility.yul\":2994:3116   */\n  tag_117\n  jumpi\n    /* \"#utility.yul\":3035:3114   */\n  tag_118\n  tag_40\n  jump\t// in\ntag_118:\n    /* \"#utility.yul\":2994:3116   */\ntag_117:\n    /* \"#utility.yul\":3145:3151   */\n  dup2\n    /* \"#utility.yul\":3139:3152   */\n  mload\n    /* \"#utility.yul\":3170:3275   */\n  tag_119\n    /* \"#utility.yul\":3271:3274   */\n  dup5\n    /* \"#utility.yul\":3263:3269   */\n  dup3\n    /* \"#utility.yul\":3256:3260   */\n  0x20\n    /* \"#utility.yul\":3248:3254   */\n  dup7\n    /* \"#utility.yul\":3244:3261   */\n  add\n    /* \"#utility.yul\":3170:3275   */\n  tag_51\n  jump\t// in\ntag_119:\n    /* \"#utility.yul\":3161:3275   */\n  swap2\n  pop\n    /* \"#utility.yul\":2984:3281   */\n  pop\n    /* \"#utility.yul\":2896:3281   */\n  swap3\n  swap2\n  pop\n  pop\n  jump\t// out\n    /* \"#utility.yul\":3287:3404   */\ntag_53:\n    /* \"#utility.yul\":3396:3397   */\n  0x00\n    /* \"#utility.yul\":3393:3394   */\n  0x00\n    /* \"#utility.yul\":3386:3398   */\n  revert\n    /* \"#utility.yul\":3410:3718   */\ntag_54:\n    /* \"#utility.yul\":3472:3476   */\n  0x00\n    /* \"#utility.yul\":3562:3580   */\n  0xffffffffffffffff\n    /* \"#utility.yul\":3554:3560   */\n  dup3\n    /* \"#utility.yul\":3551:3581   */\n  gt\n    /* \"#utility.yul\":3548:3604   */\n  iszero\n  tag_122\n  jumpi\n    /* \"#utility.yul\":3584:3602   */\n  tag_123\n  tag_42\n  jump\t// in\ntag_123:\n    /* \"#utility.yul\":3548:3604   */\ntag_122:\n    /* \"#utility.yul\":3622:3651   */\n  tag_124\n    /* \"#utility.yul\":3644:3650   */\n  dup3\n    /* \"#utility.yul\":3622:3651   */\n  tag_41\n  jump\t// in\ntag_124:\n    /* \"#utility.yul\":3614:3651   */\n  swap1\n  pop\n    /* \"#utility.yul\":3706:3710   */\n  0x20\n    /* \"#utility.yul\":3700:3704   */\n  dup2\n    /* \"#utility.yul\":3696:3711   */\n  add\n    /* \"#utility.yul\":3688:3711   */\n  swap1\n  pop\n    /* \"#utility.yul\":3410:3718   */\n  swap2\n  swap1\n  pop\n  jump\t// out\n    /* \"#utility.yul\":3724:3863   */\ntag_55:\n    /* \"#utility.yul\":3813:3819   */\n  dup3\n    /* \"#utility.yul\":3808:3811   */\n  dup2\n    /* \"#utility.yul\":3803:3806   */\n  dup4\n    /* \"#utility.yul\":3797:3820   */\n  mcopy\n    /* \"#utility.yul\":3854:3855   */\n  0x00\n    /* \"#utility.yul\":3845:3851   */\n  dup4\n    /* \"#utility.yul\":3840:3843   */\n  dup4\n    /* \"#utility.yul\":3836:3852   */\n  add\n    /* \"#utility.yul\":3829:3856   */\n  mstore\n    /* \"#utility.yul\":3724:3863   */\n  pop\n  pop\n  pop\n  jump\t// out\n    /* \"#utility.yul\":3869:4303   */\ntag_56:\n    /* \"#utility.yul\":3958:3963   */\n  0x00\n    /* \"#utility.yul\":3983:4049   */\n  tag_127\n    /* \"#utility.yul\":3999:4048   */\n  tag_128\n    /* \"#utility.yul\":4041:4047   */\n  dup5\n    /* \"#utility.yul\":3999:4048   */\n  tag_54\n  jump\t// in\ntag_128:\n    /* \"#utility.yul\":3983:4049   */\n  tag_44\n  jump\t// in\ntag_127:\n    /* \"#utility.yul\":3974:4049   */\n  swap1\n  pop\n    /* \"#utility.yul\":4072:4078   */\n  dup3\n    /* \"#utility.yul\":4065:4070   */\n  dup2\n    /* \"#utility.yul\":4058:4079   */\n  mstore\n    /* \"#utility.yul\":4110:4114   */\n  0x20\n    /* \"#utility.yul\":4103:4108   */\n  dup2\n    /* \"#utility.yul\":4099:4115   */\n  add\n    /* \"#utility.yul\":4148:4151   */\n  dup5\n    /* \"#utility.yul\":4139:4145   */\n  dup5\n    /* \"#utility.yul\":4134:4137   */\n  dup5\n    /* \"#utility.yul\":4130:4146   */\n  add\n    /* \"#utility.yul\":4127:4152   */\n  gt\n    /* \"#utility.yul\":4124:4236   */\n  iszero\n  tag_129\n  jumpi\n    /* \"#utility.yul\":4155:4234   */\n  tag_130\n  tag_53\n  jump\t// in\ntag_130:\n    /* \"#utility.yul\":4124:4236   */\ntag_129:\n    /* \"#utility.yul\":4245:4297   */\n  tag_131\n    /* \"#utility.yul\":4290:4296   */\n  dup5\n    /* \"#utility.yul\":4285:4288   */\n  dup3\n    /* \"#utility.yul\":4280:4283   */\n  dup6\n    /* \"#utility.yul\":4245:4297   */\n  tag_55\n  jump\t// in\ntag_131:\n    /* \"#utility.yul\":3964:4303   */\n  pop\n    /* \"#utility.yul\":3869:4303   */\n  swap4\n  swap3\n  pop\n  pop\n  pop\n  jump\t// out\n    /* \"#utility.yul\":4323:4678   */\ntag_57:\n    /* \"#utility.yul\":4390:4395   */\n  0x00\n    /* \"#utility.yul\":4439:4442   */\n  dup3\n    /* \"#utility.yul\":4432:4436   */\n  0x1f\n    /* \"#utility.yul\":4424:4430   */\n  dup4\n    /* \"#utility.yul\":4420:4437   */\n  add\n    /* \"#utility.yul\":4416:4443   */\n  slt\n    /* \"#utility.yul\":4406:4528   */\n  tag_133\n  jumpi\n    /* \"#utility.yul\":4447:4526   */\n  tag_134\n  tag_40\n  jump\t// in\ntag_134:\n    /* \"#utility.yul\":4406:4528   */\ntag_133:\n    /* \"#utility.yul\":4557:4563   */\n  dup2\n    /* \"#utility.yul\":4551:4564   */\n  mload\n    /* \"#utility.yul\":4582:4672   */\n  tag_135\n    /* \"#utility.yul\":4668:4671   */\n  dup5\n    /* \"#utility.yul\":4660:4666   */\n  dup3\n    /* \"#utility.yul\":4653:4657   */\n  0x20\n    /* \"#utility.yul\":4645:4651   */\n  dup7\n    /* \"#utility.yul\":4641:4658   */\n  add\n    /* \"#utility.yul\":4582:4672   */\n  tag_56\n  jump\t// in\ntag_135:\n    /* \"#utility.yul\":4573:4672   */\n  swap2\n  pop\n    /* \"#utility.yul\":4396:4678   */\n  pop\n    /* \"#utility.yul\":4323:4678   */\n  swap3\n  swap2\n  pop\n  pop\n  jump\t// out\n    /* \"#utility.yul\":4684:5880   */\ntag_3:\n    /* \"#utility.yul\":4816:4822   */\n  0x00\n    /* \"#utility.yul\":4824:4830   */\n  0x00\n    /* \"#utility.yul\":4832:4838   */\n  0x00\n    /* \"#utility.yul\":4840:4846   */\n  0x00\n    /* \"#utility.yul\":4889:4892   */\n  0x80\n    /* \"#utility.yul\":4877:4886   */\n  dup6\n    /* \"#utility.yul\":4868:4875   */\n  dup8\n    /* \"#utility.yul\":4864:4887   */\n  sub\n    /* \"#utility.yul\":4860:4893   */\n  slt\n    /* \"#utility.yul\":4857:4977   */\n  iszero\n  tag_137\n  jumpi\n    /* \"#utility.yul\":4896:4975   */\n  tag_138\n  tag_38\n  jump\t// in\ntag_138:\n    /* \"#utility.yul\":4857:4977   */\ntag_137:\n    /* \"#utility.yul\":5037:5038   */\n  0x00\n    /* \"#utility.yul\":5026:5035   */\n  dup6\n    /* \"#utility.yul\":5022:5039   */\n  add\n    /* \"#utility.yul\":5016:5040   */\n  mload\n    /* \"#utility.yul\":5067:5085   */\n  0xffffffffffffffff\n    /* \"#utility.yul\":5059:5065   */\n  dup2\n    /* \"#utility.yul\":5056:5086   */\n  gt\n    /* \"#utility.yul\":5053:5170   */\n  iszero\n  tag_139\n  jumpi\n    /* \"#utility.yul\":5089:5168   */\n  tag_140\n  tag_39\n  jump\t// in\ntag_140:\n    /* \"#utility.yul\":5053:5170   */\ntag_139:\n    /* \"#utility.yul\":5194:5283   */\n  tag_141\n    /* \"#utility.yul\":5275:5282   */\n  dup8\n    /* \"#utility.yul\":5266:5272   */\n  dup3\n    /* \"#utility.yul\":5255:5264   */\n  dup9\n    /* \"#utility.yul\":5251:5273   */\n  add\n    /* \"#utility.yul\":5194:5283   */\n  tag_52\n  jump\t// in\ntag_141:\n    /* \"#utility.yul\":5184:5283   */\n  swap5\n  pop\n    /* \"#utility.yul\":4987:5293   */\n  pop\n    /* \"#utility.yul\":5353:5355   */\n  0x20\n    /* \"#utility.yul\":5342:5351   */\n  dup6\n    /* \"#utility.yul\":5338:5356   */\n  add\n    /* \"#utility.yul\":5332:5357   */\n  mload\n    /* \"#utility.yul\":5384:5402   */\n  0xffffffffffffffff\n    /* \"#utility.yul\":5376:5382   */\n  dup2\n    /* \"#utility.yul\":5373:5403   */\n  gt\n    /* \"#utility.yul\":5370:5487   */\n  iszero\n  tag_142\n  jumpi\n    /* \"#utility.yul\":5406:5485   */\n  tag_143\n  tag_39\n  jump\t// in\ntag_143:\n    /* \"#utility.yul\":5370:5487   */\ntag_142:\n    /* \"#utility.yul\":5511:5585   */\n  tag_144\n    /* \"#utility.yul\":5577:5584   */\n  dup8\n    /* \"#utility.yul\":5568:5574   */\n  dup3\n    /* \"#utility.yul\":5557:5566   */\n  dup9\n    /* \"#utility.yul\":5553:5575   */\n  add\n    /* \"#utility.yul\":5511:5585   */\n  tag_57\n  jump\t// in\ntag_144:\n    /* \"#utility.yul\":5501:5585   */\n  swap4\n  pop\n    /* \"#utility.yul\":5303:5595   */\n  pop\n    /* \"#utility.yul\":5634:5636   */\n  0x40\n    /* \"#utility.yul\":5660:5724   */\n  tag_145\n    /* \"#utility.yul\":5716:5723   */\n  dup8\n    /* \"#utility.yul\":5707:5713   */\n  dup3\n    /* \"#utility.yul\":5696:5705   */\n  dup9\n    /* \"#utility.yul\":5692:5714   */\n  add\n    /* \"#utility.yul\":5660:5724   */\n  tag_50\n  jump\t// in\ntag_145:\n    /* \"#utility.yul\":5650:5724   */\n  swap3\n  pop\n    /* \"#utility.yul\":5605:5734   */\n  pop\n    /* \"#utility.yul\":5773:5775   */\n  0x60\n    /* \"#utility.yul\":5799:5863   */\n  tag_146\n    /* \"#utility.yul\":5855:5862   */\n  dup8\n    /* \"#utility.yul\":5846:5852   */\n  dup3\n    /* \"#utility.yul\":5835:5844   */\n  dup9\n    /* \"#utility.yul\":5831:5853   */\n  add\n    /* \"#utility.yul\":5799:5863   */\n  tag_50\n  jump\t// in\ntag_146:\n    /* \"#utility.yul\":5789:5863   */\n  swap2\n  pop\n    /* \"#utility.yul\":5744:5873   */\n  pop\n    /* \"#utility.yul\":4684:5880   */\n  swap3\n  swap6\n  swap2\n  swap5\n  pop\n  swap3\n  pop\n  jump\t// out\n    /* \"#utility.yul\":5886:5985   */\ntag_58:\n    /* \"#utility.yul\":5938:5944   */\n  0x00\n    /* \"#utility.yul\":5972:5977   */\n  dup2\n    /* \"#utility.yul\":5966:5978   */\n  mload\n    /* \"#utility.yul\":5956:5978   */\n  swap1\n  pop\n    /* \"#utility.yul\":5886:5985   */\n  swap2\n  swap1\n  pop\n  jump\t// out\n    /* \"#utility.yul\":5991:6171   */\ntag_59:\n    /* \"#utility.yul\":6039:6116   */\n  0x4e487b7100000000000000000000000000000000000000000000000000000000\n    /* \"#utility.yul\":6036:6037   */\n  0x00\n    /* \"#utility.yul\":6029:6117   */\n  mstore\n    /* \"#utility.yul\":6136:6140   */\n  0x22\n    /* \"#utility.yul\":6133:6134   */\n  0x04\n    /* \"#utility.yul\":6126:6141   */\n  mstore\n    /* \"#utility.yul\":6160:6164   */\n  0x24\n    /* \"#utility.yul\":6157:6158   */\n  0x00\n    /* \"#utility.yul\":6150:6165   */\n  revert\n    /* \"#utility.yul\":6177:6497   */\ntag_60:\n    /* \"#utility.yul\":6221:6227   */\n  0x00\n    /* \"#utility.yul\":6258:6259   */\n  0x02\n    /* \"#utility.yul\":6252:6256   */\n  dup3\n    /* \"#utility.yul\":6248:6260   */\n  div\n    /* \"#utility.yul\":6238:6260   */\n  swap1\n  pop\n    /* \"#utility.yul\":6305:6306   */\n  0x01\n    /* \"#utility.yul\":6299:6303   */\n  dup3\n    /* \"#utility.yul\":6295:6307   */\n  and\n    /* \"#utility.yul\":6326:6344   */\n  dup1\n    /* \"#utility.yul\":6316:6397   */\n  tag_150\n  jumpi\n    /* \"#utility.yul\":6382:6386   */\n  0x7f\n    /* \"#utility.yul\":6374:6380   */\n  dup3\n    /* \"#utility.yul\":6370:6387   */\n  and\n    /* \"#utility.yul\":6360:6387   */\n  swap2\n  pop\n    /* \"#utility.yul\":6316:6397   */\ntag_150:\n    /* \"#utility.yul\":6444:6446   */\n  0x20\n    /* \"#utility.yul\":6436:6442   */\n  dup3\n    /* \"#utility.yul\":6433:6447   */\n  lt\n    /* \"#utility.yul\":6413:6431   */\n  dup2\n    /* \"#utility.yul\":6410:6448   */\n  sub\n    /* \"#utility.yul\":6407:6491   */\n  tag_151\n  jumpi\n    /* \"#utility.yul\":6463:6481   */\n  tag_152\n  tag_59\n  jump\t// in\ntag_152:\n    /* \"#utility.yul\":6407:6491   */\ntag_151:\n    /* \"#utility.yul\":6228:6497   */\n  pop\n    /* \"#utility.yul\":6177:6497   */\n  swap2\n  swap1\n  pop\n  jump\t// out\n    /* \"#utility.yul\":6503:6644   */\ntag_61:\n    /* \"#utility.yul\":6552:6556   */\n  0x00\n    /* \"#utility.yul\":6575:6578   */\n  dup2\n    /* \"#utility.yul\":6567:6578   */\n  swap1\n  pop\n    /* \"#utility.yul\":6598:6601   */\n  dup2\n    /* \"#utility.yul\":6595:6596   */\n  0x00\n    /* \"#utility.yul\":6588:6602   */\n  mstore\n    /* \"#utility.yul\":6632:6636   */\n  0x20\n    /* \"#utility.yul\":6629:6630   */\n  0x00\n    /* \"#utility.yul\":6619:6637   */\n  keccak256\n    /* \"#utility.yul\":6611:6637   */\n  swap1\n  pop\n    /* \"#utility.yul\":6503:6644   */\n  swap2\n  swap1\n  pop\n  jump\t// out\n    /* \"#utility.yul\":6650:6743   */\ntag_62:\n    /* \"#utility.yul\":6687:6693   */\n  0x00\n    /* \"#utility.yul\":6734:6736   */\n  0x20\n    /* \"#utility.yul\":6729:6731   */\n  0x1f\n    /* \"#utility.yul\":6722:6727   */\n  dup4\n    /* \"#utility.yul\":6718:6732   */\n  add\n    /* \"#utility.yul\":6714:6737   */\n  div\n    /* \"#utility.yul\":6704:6737   */\n  swap1\n  pop\n    /* \"#utility.yul\":6650:6743   */\n  swap2\n  swap1\n  pop\n  jump\t// out\n    /* \"#utility.yul\":6749:6856   */\ntag_63:\n    /* \"#utility.yul\":6793:6801   */\n  0x00\n    /* \"#utility.yul\":6843:6848   */\n  dup3\n    /* \"#utility.yul\":6837:6841   */\n  dup3\n    /* \"#utility.yul\":6833:6849   */\n  shl\n    /* \"#utility.yul\":6812:6849   */\n  swap1\n  pop\n    /* \"#utility.yul\":6749:6856   */\n  swap3\n  swap2\n  pop\n  pop\n  jump\t// out\n    /* \"#utility.yul\":6862:7255   */\ntag_64:\n    /* \"#utility.yul\":6931:6937   */\n  0x00\n    /* \"#utility.yul\":6981:6982   */\n  0x08\n    /* \"#utility.yul\":6969:6979   */\n  dup4\n    /* \"#utility.yul\":6965:6983   */\n  mul\n    /* \"#utility.yul\":7004:7101   */\n  tag_157\n    /* \"#utility.yul\":7034:7100   */\n  0xffffffffffffffffffffffffffffffffffffffffffffffffffffffffffffffff\n    /* \"#utility.yul\":7023:7032   */\n  dup3\n    /* \"#utility.yul\":7004:7101   */\n  tag_63\n  jump\t// in\ntag_157:\n    /* \"#utility.yul\":7122:7161   */\n  tag_158\n    /* \"#utility.yul\":7152:7160   */\n  dup7\n    /* \"#utility.yul\":7141:7150   */\n  dup4\n    /* \"#utility.yul\":7122:7161   */\n  tag_63\n  jump\t// in\ntag_158:\n    /* \"#utility.yul\":7110:7161   */\n  swap6\n  pop\n    /* \"#utility.yul\":7194:7198   */\n  dup1\n    /* \"#utility.yul\":7190:7199   */\n  not\n    /* \"#utility.yul\":7183:7188   */\n  dup5\n    /* \"#utility.yul\":7179:7200   */\n  and\n    /* \"#utility.yul\":7170:7200   */\n  swap4\n  pop\n    /* \"#utility.yul\":7243:7247   */\n  dup1\n    /* \"#utility.yul\":7233:7241   */\n  dup7\n    /* \"#utility.yul\":7229:7248   */\n  and\n    /* \"#utility.yul\":7222:7227   */\n  dup5\n    /* \"#utility.yul\":7219:7249   */\n  or\n    /* \"#utility.yul\":7209:7249   */\n  swap3\n  pop\n    /* \"#utility.yul\":6938:7255   */\n  pop\n  pop\n    /* \"#utility.yul\":6862:7255   */\n  swap4\n  swap3\n  pop\n  pop\n  pop\n  jump\t// out\n    /* \"#utility.yul\":7261:7338   */\ntag_65:\n    /* \"#utility.yul\":7298:7305   */\n  0x00\n    /* \"#utility.yul\":7327:7332   */\n  dup2\n    /* \"#utility.yul\":7316:7332   */\n  swap1\n  pop\n    /* \"#utility.yul\":7261:7338   */\n  swap2\n  swap1\n  pop\n  jump\t// out\n    /* \"#utility.yul\":7344:7404   */\ntag_66:\n    /* \"#utility.yul\":7372:7375   */\n  0x00\n    /* \"#utility.yul\":7393:7398   */\n  dup2\n    /* \"#utility.yul\":7386:7398   */\n  swap1\n  pop\n    /* \"#utility.yul\":7344:7404   */\n  swap2\n  swap1\n  pop\n  jump\t// out\n    /* \"#utility.yul\":7410:7552   */\ntag_67:\n    /* \"#utility.yul\":7460:7469   */\n  0x00\n    /* \"#utility.yul\":7493:7546   */\n  tag_162\n    /* \"#utility.yul\":7511:7545   */\n  tag_163\n    /* \"#utility.yul\":7520:7544   */\n  tag_164\n    /* \"#utility.yul\":7538:7543   */\n  dup5\n    /* \"#utility.yul\":7520:7544   */\n  tag_65\n  jump\t// in\ntag_164:\n    /* \"#utility.yul\":7511:7545   */\n  tag_66\n  jump\t// in\ntag_163:\n    /* \"#utility.yul\":7493:7546   */\n  tag_65\n  jump\t// in\ntag_162:\n    /* \"#utility.yul\":7480:7546   */\n  swap1\n  pop\n    /* \"#utility.yul\":7410:7552   */\n  swap2\n  swap1\n  pop\n  jump\t// out\n    /* \"#utility.yul\":7558:7633   */\ntag_68:\n    /* \"#utility.yul\":7601:7604   */\n  0x00\n    /* \"#utility.yul\":7622:7627   */\n  dup2\n    /* \"#utility.yul\":7615:7627   */\n  swap1\n  pop\n    /* \"#utility.yul\":7558:7633   */\n  swap2\n  swap1\n  pop\n  jump\t// out\n    /* \"#utility.yul\":7639:7908   */\ntag_69:\n    /* \"#utility.yul\":7749:7788   */\n  tag_167\n    /* \"#utility.yul\":7780:7787   */\n  dup4\n    /* \"#utility.yul\":7749:7788   */\n  tag_67\n  jump\t// in\ntag_167:\n    /* \"#utility.yul\":7810:7901   */\n  tag_168\n    /* \"#utility.yul\":7859:7900   */\n  tag_169\n    /* \"#utility.yul\":7883:7899   */\n  dup3\n    /* \"#utility.yul\":7859:7900   */\n  tag_68\n  jump\t// in\ntag_169:\n    /* \"#utility.yul\":7851:7857   */\n  dup5\n    /* \"#utility.yul\":7844:7848   */\n  dup5\n    /* \"#utility.yul\":7838:7849   */\n  sload\n    /* \"#utility.yul\":7810:7901   */\n  tag_64\n  jump\t// in\ntag_168:\n    /* \"#utility.yul\":7804:7808   */\n  dup3\n    /* \"#utility.yul\":7797:7902   */\n  sstore\n    /* \"#utility.yul\":7715:7908   */\n  pop\n    /* \"#utility.yul\":7639:7908   */\n  pop\n  pop\n  pop\n  jump\t// out\n    /* \"#utility.yul\":7914:7987   */\ntag_70:\n    /* \"#utility.yul\":7959:7962   */\n  0x00\n    /* \"#utility.yul\":7980:7981   */\n  0x00\n    /* \"#utility.yul\":7973:7981   */\n  swap1\n  pop\n    /* \"#utility.yul\":7914:7987   */\n  swap1\n  jump\t// out\n    /* \"#utility.yul\":7993:8182   */\ntag_71:\n    /* \"#utility.yul\":8070:8102   */\n  tag_172\n  tag_70\n  jump\t// in\ntag_172:\n    /* \"#utility.yul\":8111:8176   */\n  tag_173\n    /* \"#utility.yul\":8169:8175   */\n  dup2\n    /* \"#utility.yul\":8161:8167   */\n  dup5\n    /* \"#utility.yul\":8155:8159   */\n  dup5\n    /* \"#utility.yul\":8111:8176   */\n  tag_69\n  jump\t// in\ntag_173:\n    /* \"#utility.yul\":8046:8182   */\n  pop\n    /* \"#utility.yul\":7993:8182   */\n  pop\n  pop\n  jump\t// out\n    /* \"#utility.yul\":8188:8374   */\ntag_72:\n    /* \"#utility.yul\":8248:8368   */\ntag_175:\n    /* \"#utility.yul\":8265:8268   */\n  dup2\n    /* \"#utility.yul\":8258:8263   */\n  dup2\n    /* \"#utility.yul\":8255:8269   */\n  lt\n    /* \"#utility.yul\":8248:8368   */\n  iszero\n  tag_177\n  jumpi\n    /* \"#utility.yul\":8319:8358   */\n  tag_178\n    /* \"#utility.yul\":8356:8357   */\n  0x00\n    /* \"#utility.yul\":8349:8354   */\n  dup3\n    /* \"#utility.yul\":8319:8358   */\n  tag_71\n  jump\t// in\ntag_178:\n    /* \"#utility.yul\":8292:8293   */\n  0x01\n    /* \"#utility.yul\":8285:8290   */\n  dup2\n    /* \"#utility.yul\":8281:8294   */\n  add\n    /* \"#utility.yul\":8272:8294   */\n  swap1\n  pop\n    /* \"#utility.yul\":8248:8368   */\n  jump(tag_175)\ntag_177:\n    /* \"#utility.yul\":8188:8374   */\n  pop\n  pop\n  jump\t// out\n    /* \"#utility.yul\":8380:8923   */\ntag_73:\n    /* \"#utility.yul\":8481:8483   */\n  0x1f\n    /* \"#utility.yul\":8476:8479   */\n  dup3\n    /* \"#utility.yul\":8473:8484   */\n  gt\n    /* \"#utility.yul\":8470:8916   */\n  iszero\n  tag_180\n  jumpi\n    /* \"#utility.yul\":8515:8553   */\n  tag_181\n    /* \"#utility.yul\":8547:8552   */\n  dup2\n    /* \"#utility.yul\":8515:8553   */\n  tag_61\n  jump\t// in\ntag_181:\n    /* \"#utility.yul\":8599:8628   */\n  tag_182\n    /* \"#utility.yul\":8617:8627   */\n  dup5\n    /* \"#utility.yul\":8599:8628   */\n  tag_62\n  jump\t// in\ntag_182:\n    /* \"#utility.yul\":8589:8597   */\n  dup2\n    /* \"#utility.yul\":8585:8629   */\n  add\n    /* \"#utility.yul\":8782:8784   */\n  0x20\n    /* \"#utility.yul\":8770:8780   */\n  dup6\n    /* \"#utility.yul\":8767:8785   */\n  lt\n    /* \"#utility.yul\":8764:8813   */\n  iszero\n  tag_183\n  jumpi\n    /* \"#utility.yul\":8803:8811   */\n  dup2\n    /* \"#utility.yul\":8788:8811   */\n  swap1\n  pop\n    /* \"#utility.yul\":8764:8813   */\ntag_183:\n    /* \"#utility.yul\":8826:8906   */\n  tag_184\n    /* \"#utility.yul\":8882:8904   */\n  tag_185\n    /* \"#utility.yul\":8900:8903   */\n  dup6\n    /* \"#utility.yul\":8882:8904   */\n  tag_62\n  jump\t// in\ntag_185:\n    /* \"#utility.yul\":8872:8880   */\n  dup4\n    /* \"#utility.yul\":8868:8905   */\n  add\n    /* \"#utility.yul\":8855:8866   */\n  dup3\n    /* \"#utility.yul\":8826:8906   */\n  tag_72\n  jump\t// in\ntag_184:\n    /* \"#utility.yul\":8485:8916   */\n  pop\n  pop\n    /* \"#utility.yul\":8470:8916   */\ntag_180:\n    /* \"#utility.yul\":8380:8923   */\n  pop\n  pop\n  pop\n  jump\t// out\n    /* \"#utility.yul\":8929:9046   */\ntag_74:\n    /* \"#utility.yul\":8983:8991   */\n  0x00\n    /* \"#utility.yul\":9033:9038   */\n  dup3\n    /* \"#utility.yul\":9027:9031   */\n  dup3\n    /* \"#utility.yul\":9023:9039   */\n  shr\n    /* \"#utility.yul\":9002:9039   */\n  swap1\n  pop\n    /* \"#utility.yul\":8929:9046   */\n  swap3\n  swap2\n  pop\n  pop\n  jump\t// out\n    /* \"#utility.yul\":9052:9221   */\ntag_75:\n    /* \"#utility.yul\":9096:9102   */\n  0x00\n    /* \"#utility.yul\":9129:9180   */\n  tag_188\n    /* \"#utility.yul\":9177:9178   */\n  0x00\n    /* \"#utility.yul\":9173:9179   */\n  not\n    /* \"#utility.yul\":9165:9170   */\n  dup5\n    /* \"#utility.yul\":9162:9163   */\n  0x08\n    /* \"#utility.yul\":9158:9171   */\n  mul\n    /* \"#utility.yul\":9129:9180   */\n  tag_74\n  jump\t// in\ntag_188:\n    /* \"#utility.yul\":9125:9181   */\n  not\n    /* \"#utility.yul\":9210:9214   */\n  dup1\n    /* \"#utility.yul\":9204:9208   */\n  dup4\n    /* \"#utility.yul\":9200:9215   */\n  and\n    /* \"#utility.yul\":9190:9215   */\n  swap2\n  pop\n    /* \"#utility.yul\":9103:9221   */\n  pop\n    /* \"#utility.yul\":9052:9221   */\n  swap3\n  swap2\n  pop\n  pop\n  jump\t// out\n    /* \"#utility.yul\":9226:9521   */\ntag_76:\n    /* \"#utility.yul\":9302:9306   */\n  0x00\n    /* \"#utility.yul\":9448:9477   */\n  tag_190\n    /* \"#utility.yul\":9473:9476   */\n  dup4\n    /* \"#utility.yul\":9467:9471   */\n  dup4\n    /* \"#utility.yul\":9448:9477   */\n  tag_75\n  jump\t// in\ntag_190:\n    /* \"#utility.yul\":9440:9477   */\n  swap2\n  pop\n    /* \"#utility.yul\":9510:9513   */\n  dup3\n    /* \"#utility.yul\":9507:9508   */\n  0x02\n    /* \"#utility.yul\":9503:9514   */\n  mul\n    /* \"#utility.yul\":9497:9501   */\n  dup3\n    /* \"#utility.yul\":9494:9515   */\n  or\n    /* \"#utility.yul\":9486:9515   */\n  swap1\n  pop\n    /* \"#utility.yul\":9226:9521   */\n  swap3\n  swap2\n  pop\n  pop\n  jump\t// out\n    /* \"#utility.yul\":9526:10921   */\ntag_11:\n    /* \"#utility.yul\":9643:9680   */\n  tag_192\n    /* \"#utility.yul\":9676:9679   */\n  dup3\n    /* \"#utility.yul\":9643:9680   */\n  tag_58\n  jump\t// in\ntag_192:\n    /* \"#utility.yul\":9745:9763   */\n  0xffffffffffffffff\n    /* \"#utility.yul\":9737:9743   */\n  dup2\n    /* \"#utility.yul\":9734:9764   */\n  gt\n    /* \"#utility.yul\":9731:9787   */\n  iszero\n  tag_193\n  jumpi\n    /* \"#utility.yul\":9767:9785   */\n  tag_194\n  tag_42\n  jump\t// in\ntag_194:\n    /* \"#utility.yul\":9731:9787   */\ntag_193:\n    /* \"#utility.yul\":9811:9849   */\n  tag_195\n    /* \"#utility.yul\":9843:9847   */\n  dup3\n    /* \"#utility.yul\":9837:9848   */\n  sload\n    /* \"#utility.yul\":9811:9849   */\n  tag_60\n  jump\t// in\ntag_195:\n    /* \"#utility.yul\":9896:9963   */\n  tag_196\n    /* \"#utility.yul\":9956:9962   */\n  dup3\n    /* \"#utility.yul\":9948:9954   */\n  dup3\n    /* \"#utility.yul\":9942:9946   */\n  dup6\n    /* \"#utility.yul\":9896:9963   */\n  tag_73\n  jump\t// in\ntag_196:\n    /* \"#utility.yul\":9990:9991   */\n  0x00\n    /* \"#utility.yul\":10014:10018   */\n  0x20\n    /* \"#utility.yul\":10001:10018   */\n  swap1\n  pop\n    /* \"#utility.yul\":10046:10048   */\n  0x1f\n    /* \"#utility.yul\":10038:10044   */\n  dup4\n    /* \"#utility.yul\":10035:10049   */\n  gt\n    /* \"#utility.yul\":10063:10064   */\n  0x01\n    /* \"#utility.yul\":10058:10676   */\n  dup2\n  eq\n  tag_198\n  jumpi\n    /* \"#utility.yul\":10720:10721   */\n  0x00\n    /* \"#utility.yul\":10737:10743   */\n  dup5\n    /* \"#utility.yul\":10734:10811   */\n  iszero\n  tag_199\n  jumpi\n    /* \"#utility.yul\":10786:10795   */\n  dup3\n    /* \"#utility.yul\":10781:10784   */\n  dup8\n    /* \"#utility.yul\":10777:10796   */\n  add\n    /* \"#utility.yul\":10771:10797   */\n  mload\n    /* \"#utility.yul\":10762:10797   */\n  swap1\n  pop\n    /* \"#utility.yul\":10734:10811   */\ntag_199:\n    /* \"#utility.yul\":10837:10904   */\n  tag_200\n    /* \"#utility.yul\":10897:10903   */\n  dup6\n    /* \"#utility.yul\":10890:10895   */\n  dup3\n    /* \"#utility.yul\":10837:10904   */\n  tag_76\n  jump\t// in\ntag_200:\n    /* \"#utility.yul\":10831:10835   */\n  dup7\n    /* \"#utility.yul\":10824:10905   */\n  sstore\n    /* \"#utility.yul\":10693:10915   */\n  pop\n    /* \"#utility.yul\":10028:10915   */\n  jump(tag_197)\n    /* \"#utility.yul\":10058:10676   */\ntag_198:\n    /* \"#utility.yul\":10110:10114   */\n  0x1f\n    /* \"#utility.yul\":10106:10115   */\n  not\n    /* \"#utility.yul\":10098:10104   */\n  dup5\n    /* \"#utility.yul\":10094:10116   */\n  and\n    /* \"#utility.yul\":10144:10181   */\n  tag_201\n    /* \"#utility.yul\":10176:10180   */\n  dup7\n    /* \"#utility.yul\":10144:10181   */\n  tag_61\n  jump\t// in\ntag_201:\n    /* \"#utility.yul\":10203:10204   */\n  0x00\n    /* \"#utility.yul\":10217:10425   */\ntag_202:\n    /* \"#utility.yul\":10231:10238   */\n  dup3\n    /* \"#utility.yul\":10228:10229   */\n  dup2\n    /* \"#utility.yul\":10225:10239   */\n  lt\n    /* \"#utility.yul\":10217:10425   */\n  iszero\n  tag_204\n  jumpi\n    /* \"#utility.yul\":10310:10319   */\n  dup5\n    /* \"#utility.yul\":10305:10308   */\n  dup10\n    /* \"#utility.yul\":10301:10320   */\n  add\n    /* \"#utility.yul\":10295:10321   */\n  mload\n    /* \"#utility.yul\":10287:10293   */\n  dup3\n    /* \"#utility.yul\":10280:10322   */\n  sstore\n    /* \"#utility.yul\":10361:10362   */\n  0x01\n    /* \"#utility.yul\":10353:10359   */\n  dup3\n    /* \"#utility.yul\":10349:10363   */\n  add\n    /* \"#utility.yul\":10339:10363   */\n  swap2\n  pop\n    /* \"#utility.yul\":10408:10410   */\n  0x20\n    /* \"#utility.yul\":10397:10406   */\n  dup6\n    /* \"#utility.yul\":10393:10411   */\n  add\n    /* \"#utility.yul\":10380:10411   */\n  swap5\n  pop\n    /* \"#utility.yul\":10254:10258   */\n  0x20\n    /* \"#utility.yul\":10251:10252   */\n  dup2\n    /* \"#utility.yul\":10247:10259   */\n  add\n    /* \"#utility.yul\":10242:10259   */\n  swap1\n  pop\n    /* \"#utility.yul\":10217:10425   */\n  jump(tag_202)\ntag_204:\n    /* \"#utility.yul\":10453:10459   */\n  dup7\n    /* \"#utility.yul\":10444:10451   */\n  dup4\n    /* \"#utility.yul\":10441:10460   */\n  lt\n    /* \"#utility.yul\":10438:10617   */\n  iszero\n  tag_205\n  jumpi\n    /* \"#utility.yul\":10511:10520   */\n  dup5\n    /* \"#utility.yul\":10506:10509   */\n  dup10\n    /* \"#utility.yul\":10502:10521   */\n  add\n    /* \"#utility.yul\":10496:10522   */\n  mload\n    /* \"#utility.yul\":10554:10602   */\n  tag_206\n    /* \"#utility.yul\":10596:10600   */\n  0x1f\n    /* \"#utility.yul\":10588:10594   */\n  dup10\n    /* \"#utility.yul\":10584:10601   */\n  and\n    /* \"#utility.yul\":10573:10582   */\n  dup3\n    /* \"#utility.yul\":10554:10602   */\n  tag_75\n  jump\t// in\ntag_206:\n    /* \"#utility.yul\":10546:10552   */\n  dup4\n    /* \"#utility.yul\":10539:10603   */\n  sstore\n    /* \"#utility.yul\":10461:10617   */\n  pop\n    /* \"#utility.yul\":10438:10617   */\ntag_205:\n    /* \"#utility.yul\":10663:10664   */\n  0x01\n    /* \"#utility.yul\":10659:10660   */\n  0x02\n    /* \"#utility.yul\":10651:10657   */\n  dup9\n    /* \"#utility.yul\":10647:10661   */\n  mul\n    /* \"#utility.yul\":10643:10665   */\n  add\n    /* \"#utility.yul\":10637:10641   */\n  dup9\n    /* \"#utility.yul\":10630:10666   */\n  sstore\n    /* \"#utility.yul\":10065:10676   */\n  pop\n  pop\n  pop\n    /* \"#utility.yul\":10028:10915   */\ntag_197:\n  pop\n    /* \"#utility.yul\":9618:10921   */\n  pop\n  pop\n  pop\n    /* \"#utility.yul\":9526:10921   */\n  pop\n  pop\n  jump\t// out\n    /* \"#utility.yul\":10927:11107   */\ntag_77:\n    /* \"#utility.yul\":10975:11052   */\n  0x4e487b7100000000000000000000000000000000000000000000000000000000\n    /* \"#utility.yul\":10972:10973   */\n  0x00\n    /* \"#utility.yul\":10965:11053   */\n  mstore\n    /* \"#utility.yul\":11072:11076   */\n  0x11\n    /* \"#utility.yul\":11069:11070   */\n  0x04\n    /* \"#utility.yul\":11062:11077   */\n  mstore\n    /* \"#utility.yul\":11096:11100   */\n  0x24\n    /* \"#utility.yul\":11093:11094   */\n  0x00\n    /* \"#utility.yul\":11086:11101   */\n  revert\n    /* \"#utility.yul\":11113:11307   */\ntag_16:\n    /* \"#utility.yul\":11153:11157   */\n  0x00\n    /* \"#utility.yul\":11173:11193   */\n  tag_209\n    /* \"#utility.yul\":11191:11192   */\n  dup3\n    /* \"#utility.yul\":11173:11193   */\n  tag_65\n  jump\t// in\ntag_209:\n    /* \"#utility.yul\":11168:11193   */\n  swap2\n  pop\n    /* \"#utility.yul\":11207:11227   */\n  tag_210\n    /* \"#utility.yul\":11225:11226   */\n  dup4\n    /* \"#utility.yul\":11207:11227   */\n  tag_65\n  jump\t// in\ntag_210:\n    /* \"#utility.yul\":11202:11227   */\n  swap3\n  pop\n    /* \"#utility.yul\":11251:11252   */\n  dup3\n    /* \"#utility.yul\":11248:11249   */\n  dup3\n    /* \"#utility.yul\":11244:11253   */\n  sub\n    /* \"#utility.yul\":11236:11253   */\n  swap1\n  pop\n    /* \"#utility.yul\":11275:11276   */\n  dup2\n    /* \"#utility.yul\":11269:11273   */\n  dup2\n    /* \"#utility.yul\":11266:11277   */\n  gt\n    /* \"#utility.yul\":11263:11300   */\n  iszero\n  tag_211\n  jumpi\n    /* \"#utility.yul\":11280:11298   */\n  tag_212\n  tag_77\n  jump\t// in\ntag_212:\n    /* \"#utility.yul\":11263:11300   */\ntag_211:\n    /* \"#utility.yul\":11113:11307   */\n  swap3\n  swap2\n  pop\n  pop\n  jump\t// out\n    /* \"#utility.yul\":11313:11493   */\ntag_19:\n    /* \"#utility.yul\":11361:11438   */\n  0x4e487b7100000000000000000000000000000000000000000000000000000000\n    /* \"#utility.yul\":11358:11359   */\n  0x00\n    /* \"#utility.yul\":11351:11439   */\n  mstore\n    /* \"#utility.yul\":11458:11462   */\n  0x32\n    /* \"#utility.yul\":11455:11456   */\n  0x04\n    /* \"#utility.yul\":11448:11463   */\n  mstore\n    /* \"#utility.yul\":11482:11486   */\n  0x24\n    /* \"#utility.yul\":11479:11480   */\n  0x00\n    /* \"#utility.yul\":11472:11487   */\n  revert\n    /* \"#utility.yul\":11499:11617   */\ntag_78:\n    /* \"#utility.yul\":11586:11610   */\n  tag_215\n    /* \"#utility.yul\":11604:11609   */\n  dup2\n    /* \"#utility.yul\":11586:11610   */\n  tag_48\n  jump\t// in\ntag_215:\n    /* \"#utility.yul\":11581:11584   */\n  dup3\n    /* \"#utility.yul\":11574:11611   */\n  mstore\n    /* \"#utility.yul\":11499:11617   */\n  pop\n  pop\n  jump\t// out\n    /* \"#utility.yul\":11623:11845   */\ntag_23:\n    /* \"#utility.yul\":11716:11720   */\n  0x00\n    /* \"#utility.yul\":11754:11756   */\n  0x20\n    /* \"#utility.yul\":11743:11752   */\n  dup3\n    /* \"#utility.yul\":11739:11757   */\n  add\n    /* \"#utility.yul\":11731:11757   */\n  swap1\n  pop\n    /* \"#utility.yul\":11767:11838   */\n  tag_217\n    /* \"#utility.yul\":11835:11836   */\n  0x00\n    /* \"#utility.yul\":11824:11833   */\n  dup4\n    /* \"#utility.yul\":11820:11837   */\n  add\n    /* \"#utility.yul\":11811:11817   */\n  dup5\n    /* \"#utility.yul\":11767:11838   */\n  tag_78\n  jump\t// in\ntag_217:\n    /* \"#utility.yul\":11623:11845   */\n  swap3\n  swap2\n  pop\n  pop\n  jump\t// out\n    /* \"#utility.yul\":11851:12022   */\ntag_28:\n    /* \"#utility.yul\":11890:11893   */\n  0x00\n    /* \"#utility.yul\":11913:11937   */\n  tag_219\n    /* \"#utility.yul\":11931:11936   */\n  dup3\n    /* \"#utility.yul\":11913:11937   */\n  tag_65\n  jump\t// in\ntag_219:\n    /* \"#utility.yul\":11904:11937   */\n  swap2\n  pop\n    /* \"#utility.yul\":11959:11963   */\n  0x00\n    /* \"#utility.yul\":11952:11957   */\n  dup3\n    /* \"#utility.yul\":11949:11964   */\n  sub\n    /* \"#utility.yul\":11946:11987   */\n  tag_220\n  jumpi\n    /* \"#utility.yul\":11967:11985   */\n  tag_221\n  tag_77\n  jump\t// in\ntag_221:\n    /* \"#utility.yul\":11946:11987   */\ntag_220:\n    /* \"#utility.yul\":12014:12015   */\n  0x01\n    /* \"#utility.yul\":12007:12012   */\n  dup3\n    /* \"#utility.yul\":12003:12016   */\n  sub\n    /* \"#utility.yul\":11996:12016   */\n  swap1\n  pop\n    /* \"#utility.yul\":11851:12022   */\n  swap2\n  swap1\n  pop\n  jump\t// out\n    /* \"#utility.yul\":12028:12176   */\ntag_79:\n    /* \"#utility.yul\":12130:12141   */\n  0x00\n    /* \"#utility.yul\":12167:12170   */\n  dup2\n    /* \"#utility.yul\":12152:12170   */\n  swap1\n  pop\n    /* \"#utility.yul\":12028:12176   */\n  swap3\n  swap2\n  pop\n  pop\n  jump\t// out\n    /* \"#utility.yul\":12182:12572   */\ntag_80:\n    /* \"#utility.yul\":12288:12291   */\n  0x00\n    /* \"#utility.yul\":12316:12355   */\n  tag_224\n    /* \"#utility.yul\":12349:12354   */\n  dup3\n    /* \"#utility.yul\":12316:12355   */\n  tag_58\n  jump\t// in\ntag_224:\n    /* \"#utility.yul\":12371:12460   */\n  tag_225\n    /* \"#utility.yul\":12453:12459   */\n  dup2\n    /* \"#utility.yul\":12448:12451   */\n  dup6\n    /* \"#utility.yul\":12371:12460   */\n  tag_79\n  jump\t// in\ntag_225:\n    /* \"#utility.yul\":12364:12460   */\n  swap4\n  pop\n    /* \"#utility.yul\":12469:12534   */\n  tag_226\n    /* \"#utility.yul\":12527:12533   */\n  dup2\n    /* \"#utility.yul\":12522:12525   */\n  dup6\n    /* \"#utility.yul\":12515:12519   */\n  0x20\n    /* \"#utility.yul\":12508:12513   */\n  dup7\n    /* \"#utility.yul\":12504:12520   */\n  add\n    /* \"#utility.yul\":12469:12534   */\n  tag_55\n  jump\t// in\ntag_226:\n    /* \"#utility.yul\":12559:12565   */\n  dup1\n    /* \"#utility.yul\":12554:12557   */\n  dup5\n    /* \"#utility.yul\":12550:12566   */\n  add\n    /* \"#utility.yul\":12543:12566   */\n  swap2\n  pop\n    /* \"#utility.yul\":12292:12572   */\n  pop\n    /* \"#utility.yul\":12182:12572   */\n  swap3\n  swap2\n  pop\n  pop\n  jump\t// out\n    /* \"#utility.yul\":12578:12853   */\ntag_32:\n    /* \"#utility.yul\":12710:12713   */\n  0x00\n    /* \"#utility.yul\":12732:12827   */\n  tag_228\n    /* \"#utility.yul\":12823:12826   */\n  dup3\n    /* \"#utility.yul\":12814:12820   */\n  dup5\n    /* \"#utility.yul\":12732:12827   */\n  tag_80\n  jump\t// in\ntag_228:\n    /* \"#utility.yul\":12725:12827   */\n  swap2\n  pop\n    /* \"#utility.yul\":12844:12847   */\n  dup2\n    /* \"#utility.yul\":12837:12847   */\n  swap1\n  pop\n    /* \"#utility.yul\":12578:12853   */\n  swap3\n  swap2\n  pop\n  pop\n  jump\t// out\n    /* \"#utility.yul\":12859:13092   */\ntag_36:\n    /* \"#utility.yul\":12898:12901   */\n  0x00\n    /* \"#utility.yul\":12921:12945   */\n  tag_230\n    /* \"#utility.yul\":12939:12944   */\n  dup3\n    /* \"#utility.yul\":12921:12945   */\n  tag_65\n  jump\t// in\ntag_230:\n    /* \"#utility.yul\":12912:12945   */\n  swap2\n  pop\n    /* \"#utility.yul\":12967:13033   */\n  0xffffffffffffffffffffffffffffffffffffffffffffffffffffffffffffffff\n    /* \"#utility.yul\":12960:12965   */\n  dup3\n    /* \"#utility.yul\":12957:13034   */\n  sub\n    /* \"#utility.yul\":12954:13057   */\n  tag_231\n  jumpi\n    /* \"#utility.yul\":13037:13055   */\n  tag_232\n  tag_77\n  jump\t// in\ntag_232:\n    /* \"#utility.yul\":12954:13057   */\ntag_231:\n    /* \"#utility.yul\":13084:13085   */\n  0x01\n    /* \"#utility.yul\":13077:13082   */\n  dup3\n    /* \"#utility.yul\":13073:13086   */\n  add\n    /* \"#utility.yul\":13066:13086   */\n  swap1\n  pop\n    /* \"#utility.yul\":12859:13092   */\n  swap2\n  swap1\n  pop\n  jump\t// out\n    /* \"node.sol\":330:5615  contract Node is Blockchain, Consensus{... */\ntag_29:\n  dataSize(sub_0)\n  dup1\n  dataOffset(sub_0)\n  0x00\n  codecopy\n  0x00\n  return\nstop\n\nsub_0: assembly {\n        /* \"node.sol\":330:5615  contract Node is Blockchain, Consensus{... */\n      mstore(0x40, 0x80)\n      jumpi(tag_1, lt(calldatasize, 0x04))\n      shr(0xe0, calldataload(0x00))\n      dup1\n      0xabca8e09\n      gt\n      tag_10\n      jumpi\n      dup1\n      0xabca8e09\n      eq\n      tag_6\n      jumpi\n      dup1\n      0xaefa5128\n      eq\n      tag_7\n      jumpi\n      dup1\n      0xb4c67900\n      eq\n      tag_8\n      jumpi\n      dup1\n      0xf09a9fb2\n      eq\n      tag_9\n      jumpi\n      jump(tag_1)\n    tag_10:\n      dup1\n      0x19973261\n      eq\n      tag_2\n      jumpi\n      dup1\n      0x4618f42c\n      eq\n      tag_3\n      jumpi\n      dup1\n      0x4cf088d9\n      eq\n      tag_4\n      jumpi\n      dup1\n      0x75731976\n      eq\n      tag_5\n      jumpi\n    tag_1:\n      revert(0x00, 0x00)\n        /* \"node.sol\":404:428  Assigner public assigner */\n    tag_2:\n      callvalue\n      dup1\n      iszero\n      tag_11\n      jumpi\n      revert(0x00, 0x00)\n    tag_11:\n      pop\n      tag_12\n      tag_13\n      jump\t// in\n    tag_12:\n      mload(0x40)\n      tag_14\n      swap2\n      swap1\n      tag_15\n      jump\t// in\n    tag_14:\n      mload(0x40)\n      dup1\n      swap2\n      sub\n      swap1\n      return\n        /* \"blockchain.sol\":3041:4030  function check_block(Block memory proposed_block) external view returns(uint){ //We changed check_block from public to external because the function is meant to be called by other deployed node contracts rather than from inside the same contract, and the modification allows direct inter-contract calls with lower overhead than a public function, which we need because each node checks a proposed block by calling Node(peer).check_block(current_block)... */\n    tag_3:\n      callvalue\n      dup1\n      iszero\n      tag_16\n      jumpi\n      revert(0x00, 0x00)\n    tag_16:\n      pop\n      tag_17\n      0x04\n      dup1\n      calldatasize\n      sub\n      dup2\n      add\n      swap1\n      tag_18\n      swap2\n      swap1\n      tag_19\n      jump\t// in\n    tag_18:\n      tag_20\n      jump\t// in\n    tag_17:\n      mload(0x40)\n      tag_21\n      swap2\n      swap1\n      tag_22\n      jump\t// in\n    tag_21:\n      mload(0x40)\n      dup1\n      swap2\n      sub\n      swap1\n      return\n        /* \"node.sol\":375:397  Staking public staking */\n    tag_4:\n      callvalue\n      dup1\n      iszero\n      tag_23\n      jumpi\n      revert(0x00, 0x00)\n    tag_23:\n      pop\n      tag_24\n      tag_25\n      jump\t// in\n    tag_24:\n      mload(0x40)\n      tag_26\n      swap2\n      swap1\n      tag_27\n      jump\t// in\n    tag_26:\n      mload(0x40)\n      dup1\n      swap2\n      sub\n      swap1\n      return\n        /* \"node.sol\":3891:5116  function check_block_finality_and_build() external { //We changed check_block_finality_and_build from public to external because the function is intended to be triggered from outside the contract and is not called internally, and the modification allows it to remain callable by users while being slightly more efficient than public visibility, which we need because this function serves as an external entry point for finalizing the block after quorum is reached... */\n    tag_5:\n      callvalue\n      dup1\n      iszero\n      tag_28\n      jumpi\n      revert(0x00, 0x00)\n    tag_28:\n      pop\n      tag_29\n      tag_30\n      jump\t// in\n    tag_29:\n      stop\n        /* \"node.sol\":3153:3730  function propose_block() external payable {... */\n    tag_6:\n      tag_31\n      tag_32\n      jump\t// in\n    tag_31:\n      stop\n        /* \"consensus.sol\":924:1034  function add_peer(address peer) public{... */\n    tag_7:\n      callvalue\n      dup1\n      iszero\n      tag_33\n      jumpi\n      revert(0x00, 0x00)\n    tag_33:\n      pop\n      tag_34\n      0x04\n      dup1\n      calldatasize\n      sub\n      dup2\n      add\n      swap1\n      tag_35\n      swap2\n      swap1\n      tag_36\n      jump\t// in\n    tag_35:\n      tag_37\n      jump\t// in\n    tag_34:\n      stop\n        /* \"node.sol\":5250:5612  function finalize_block(Block memory received_block) external {... */\n    tag_8:\n      callvalue\n      dup1\n      iszero\n      tag_38\n      jumpi\n      revert(0x00, 0x00)\n    tag_38:\n      pop\n      tag_39\n      0x04\n      dup1\n      calldatasize\n      sub\n      dup2\n      add\n      swap1\n      tag_40\n      swap2\n      swap1\n      tag_19\n      jump\t// in\n    tag_40:\n      tag_41\n      jump\t// in\n    tag_39:\n      stop\n        /* \"node.sol\":2777:3067  function user_input(string calldata message) external {... */\n    tag_9:\n      callvalue\n      dup1\n      iszero\n      tag_42\n      jumpi\n      revert(0x00, 0x00)\n    tag_42:\n      pop\n      tag_43\n      0x04\n      dup1\n      calldatasize\n      sub\n      dup2\n      add\n      swap1\n      tag_44\n      swap2\n      swap1\n      tag_45\n      jump\t// in\n    tag_44:\n      tag_46\n      jump\t// in\n    tag_43:\n      stop\n        /* \"node.sol\":404:428  Assigner public assigner */\n    tag_13:\n      0x05\n      0x00\n      swap1\n      sload\n      swap1\n      0x0100\n      exp\n      swap1\n      div\n      0xffffffffffffffffffffffffffffffffffffffff\n      and\n      dup2\n      jump\t// out\n        /* \"blockchain.sol\":3041:4030  function check_block(Block memory proposed_block) external view returns(uint){ //We changed check_block from public to external because the function is meant to be called by other deployed node contracts rather than from inside the same contract, and the modification allows direct inter-contract calls with lower overhead than a public function, which we need because each node checks a proposed block by calling Node(peer).check_block(current_block)... */\n    tag_20:\n        /* \"blockchain.sol\":3113:3117  uint */\n      0x00\n        /* \"blockchain.sol\":3535:3561  Block memory current_block */\n      0x00\n        /* \"blockchain.sol\":3564:3574  blockchain */\n      0x00\n        /* \"blockchain.sol\":3590:3591  1 */\n      0x01\n        /* \"blockchain.sol\":3575:3589  next_block_num */\n      dup1\n      sload\n        /* \"blockchain.sol\":3575:3591  next_block_num-1 */\n      tag_48\n      swap2\n      swap1\n      tag_49\n      jump\t// in\n    tag_48:\n        /* \"blockchain.sol\":3564:3592  blockchain[next_block_num-1] */\n      dup2\n      sload\n      dup2\n      lt\n      tag_50\n      jumpi\n      tag_51\n      tag_52\n      jump\t// in\n    tag_51:\n    tag_50:\n      swap1\n      0x00\n      mstore\n      keccak256(0x00, 0x20)\n      swap1\n      0x04\n      mul\n      add\n        /* \"blockchain.sol\":3535:3592  Block memory current_block = blockchain[next_block_num-1] */\n      mload(0x40)\n      dup1\n      0x80\n      add\n      0x40\n      mstore\n      swap1\n      dup2\n      0x00\n      dup3\n      add\n      sload\n      dup2\n      mstore\n      0x20\n      add\n      0x01\n      dup3\n      add\n      sload\n      dup2\n      mstore\n      0x20\n      add\n      0x02\n      dup3\n      add\n      sload\n      dup2\n      mstore\n      0x20\n      add\n      0x03\n      dup3\n      add\n      dup1\n      sload\n      tag_54\n      swap1\n      tag_55\n      jump\t// in\n    tag_54:\n      dup1\n      0x1f\n      add\n      0x20\n      dup1\n      swap2\n      div\n      mul\n      0x20\n      add\n      mload(0x40)\n      swap1\n      dup2\n      add\n      0x40\n      mstore\n      dup1\n      swap3\n      swap2\n      swap1\n      dup2\n      dup2\n      mstore\n      0x20\n      add\n      dup3\n      dup1\n      sload\n      tag_56\n      swap1\n      tag_55\n      jump\t// in\n    tag_56:\n      dup1\n      iszero\n      tag_57\n      jumpi\n      dup1\n      0x1f\n      lt\n      tag_58\n      jumpi\n      0x0100\n      dup1\n      dup4\n      sload\n      div\n      mul\n      dup4\n      mstore\n      swap2\n      0x20\n      add\n      swap2\n      jump(tag_57)\n    tag_58:\n      dup3\n      add\n      swap2\n      swap1\n      0x00\n      mstore\n      keccak256(0x00, 0x20)\n      swap1\n    tag_59:\n      dup2\n      sload\n      dup2\n      mstore\n      swap1\n      0x01\n      add\n      swap1\n      0x20\n      add\n      dup1\n      dup4\n      gt\n      tag_59\n      jumpi\n      dup3\n      swap1\n      sub\n      0x1f\n      and\n      dup3\n      add\n      swap2\n    tag_57:\n      pop\n      pop\n      pop\n      pop\n      pop\n      dup2\n      mstore\n      pop\n      pop\n      swap1\n      pop\n        /* \"blockchain.sol\":3871:3872  1 */\n      0x01\n        /* \"blockchain.sol\":3845:3858  current_block */\n      dup2\n        /* \"blockchain.sol\":3845:3867  current_block.blockNum */\n      0x40\n      add\n      mload\n        /* \"blockchain.sol\":3819:3833  proposed_block */\n      dup5\n        /* \"blockchain.sol\":3819:3842  proposed_block.blockNum */\n      0x40\n      add\n      mload\n        /* \"blockchain.sol\":3819:3867  proposed_block.blockNum - current_block.blockNum */\n      tag_60\n      swap2\n      swap1\n      tag_49\n      jump\t// in\n    tag_60:\n        /* \"blockchain.sol\":3819:3872  proposed_block.blockNum - current_block.blockNum != 1 */\n      eq\n        /* \"blockchain.sol\":3816:3908  if(proposed_block.blockNum - current_block.blockNum != 1){... */\n      tag_61\n      jumpi\n        /* \"blockchain.sol\":3895:3896  0 */\n      0x00\n        /* \"blockchain.sol\":3888:3896  return 0 */\n      swap2\n      pop\n      pop\n      jump(tag_47)\n        /* \"blockchain.sol\":3816:3908  if(proposed_block.blockNum - current_block.blockNum != 1){... */\n    tag_61:\n        /* \"blockchain.sol\":3948:3961  current_block */\n      dup1\n        /* \"blockchain.sol\":3948:3966  current_block.hash */\n      0x00\n      add\n      mload\n        /* \"blockchain.sol\":3921:3935  proposed_block */\n      dup4\n        /* \"blockchain.sol\":3921:3944  proposed_block.prevHash */\n      0x20\n      add\n      mload\n        /* \"blockchain.sol\":3921:3966  proposed_block.prevHash != current_block.hash */\n      eq\n        /* \"blockchain.sol\":3918:4002  if(proposed_block.prevHash != current_block.hash){... */\n      tag_62\n      jumpi\n        /* \"blockchain.sol\":3989:3990  0 */\n      0x00\n        /* \"blockchain.sol\":3982:3990  return 0 */\n      swap2\n      pop\n      pop\n      jump(tag_47)\n        /* \"blockchain.sol\":3918:4002  if(proposed_block.prevHash != current_block.hash){... */\n    tag_62:\n        /* \"blockchain.sol\":4021:4022  1 */\n      0x01\n        /* \"blockchain.sol\":4014:4022  return 1 */\n      swap2\n      pop\n      pop\n        /* \"blockchain.sol\":3041:4030  function check_block(Block memory proposed_block) external view returns(uint){ //We changed check_block from public to external because the function is meant to be called by other deployed node contracts rather than from inside the same contract, and the modification allows direct inter-contract calls with lower overhead than a public function, which we need because each node checks a proposed block by calling Node(peer).check_block(current_block)... */\n    tag_47:\n      swap2\n      swap1\n      pop\n      jump\t// out\n        /* \"node.sol\":375:397  Staking public staking */\n    tag_25:\n      0x04\n      0x00\n      swap1\n      sload\n      swap1\n      0x0100\n      exp\n      swap1\n      div\n      0xffffffffffffffffffffffffffffffffffffffff\n      and\n      dup2\n      jump\t// out\n        /* \"node.sol\":3891:5116  function check_block_finality_and_build() external { //We changed check_block_finality_and_build from public to external because the function is intended to be triggered from outside the contract and is not called internally, and the modification allows it to remain callable by users while being slightly more efficient than public visibility, which we need because this function serves as an external entry point for finalizing the block after quorum is reached... */\n    tag_30:\n        /* \"node.sol\":4364:4379  uint totalNodes */\n      0x00\n        /* \"node.sol\":4382:4405  current_validator_nodes */\n      0x02\n        /* \"node.sol\":4382:4412  current_validator_nodes.length */\n      dup1\n      sload\n      swap1\n      pop\n        /* \"node.sol\":4364:4412  uint totalNodes = current_validator_nodes.length */\n      swap1\n      pop\n        /* \"node.sol\":4502:4503  2 */\n      0x02\n        /* \"node.sol\":4489:4499  totalNodes */\n      dup2\n        /* \"node.sol\":4489:4503  totalNodes * 2 */\n      tag_64\n      swap2\n      swap1\n      tag_65\n      jump\t// in\n    tag_64:\n        /* \"node.sol\":4484:4485  3 */\n      0x03\n        /* \"node.sol\":4461:4481  current_block_quorum */\n      sload(0x07)\n        /* \"node.sol\":4461:4485  current_block_quorum * 3 */\n      tag_66\n      swap2\n      swap1\n      tag_65\n      jump\t// in\n    tag_66:\n        /* \"node.sol\":4461:4503  current_block_quorum * 3 >= totalNodes * 2 */\n      lt\n        /* \"node.sol\":4458:5109  if(current_block_quorum * 3 >= totalNodes * 2){... */\n      tag_67\n      jumpi\n        /* \"node.sol\":4558:4568  blockchain */\n      0x00\n        /* \"node.sol\":4574:4587  current_block */\n      0x08\n        /* \"node.sol\":4558:4588  blockchain.push(current_block) */\n      swap1\n      dup1\n      0x01\n      dup2\n      sload\n      add\n      dup1\n      dup3\n      sstore\n      dup1\n      swap2\n      pop\n      pop\n      0x01\n      swap1\n      sub\n      swap1\n      0x00\n      mstore\n      keccak256(0x00, 0x20)\n      swap1\n      0x04\n      mul\n      add\n      0x00\n      swap1\n      swap2\n      swap1\n      swap2\n      swap1\n      swap2\n      pop\n      0x00\n      dup3\n      add\n      sload\n      dup2\n      0x00\n      add\n      sstore\n      0x01\n      dup3\n      add\n      sload\n      dup2\n      0x01\n      add\n      sstore\n      0x02\n      dup3\n      add\n      sload\n      dup2\n      0x02\n      add\n      sstore\n      0x03\n      dup3\n      add\n      dup2\n      0x03\n      add\n      swap1\n      dup2\n      tag_69\n      swap2\n      swap1\n      tag_70\n      jump\t// in\n    tag_69:\n      pop\n      pop\n      pop\n        /* \"node.sol\":4603:4617  next_block_num */\n      0x01\n      0x00\n        /* \"node.sol\":4603:4619  next_block_num++ */\n      dup2\n      sload\n      dup1\n      swap3\n      swap2\n      swap1\n      tag_71\n      swap1\n      tag_72\n      jump\t// in\n    tag_71:\n      swap2\n      swap1\n      pop\n      sstore\n      pop\n        /* \"node.sol\":4668:4675  staking */\n      0x04\n      0x00\n      swap1\n      sload\n      swap1\n      0x0100\n      exp\n      swap1\n      div\n      0xffffffffffffffffffffffffffffffffffffffff\n      and\n        /* \"node.sol\":4668:4688  staking.releaseStake */\n      0xffffffffffffffffffffffffffffffffffffffff\n      and\n      0x490740e8\n        /* \"node.sol\":4689:4697  assigner */\n      0x05\n      0x00\n      swap1\n      sload\n      swap1\n      0x0100\n      exp\n      swap1\n      div\n      0xffffffffffffffffffffffffffffffffffffffff\n      and\n        /* \"node.sol\":4689:4716  assigner.getCurrentProposer */\n      0xffffffffffffffffffffffffffffffffffffffff\n      and\n      0x3b10244b\n        /* \"node.sol\":4689:4718  assigner.getCurrentProposer() */\n      mload(0x40)\n      dup2\n      0xffffffff\n      and\n      0xe0\n      shl\n      dup2\n      mstore\n      0x04\n      add\n      0x20\n      mload(0x40)\n      dup1\n      dup4\n      sub\n      dup2\n      dup7\n      gas\n      staticcall\n      iszero\n      dup1\n      iszero\n      tag_74\n      jumpi\n      returndatacopy(0x00, 0x00, returndatasize)\n      revert(0x00, returndatasize)\n    tag_74:\n      pop\n      pop\n      pop\n      pop\n      mload(0x40)\n      returndatasize\n      not(0x1f)\n      0x1f\n      dup3\n      add\n      and\n      dup3\n      add\n      dup1\n      0x40\n      mstore\n      pop\n      dup2\n      add\n      swap1\n      tag_75\n      swap2\n      swap1\n      tag_76\n      jump\t// in\n    tag_75:\n        /* \"node.sol\":4668:4719  staking.releaseStake(assigner.getCurrentProposer()) */\n      mload(0x40)\n      dup3\n      0xffffffff\n      and\n      0xe0\n      shl\n      dup2\n      mstore\n      0x04\n      add\n      tag_77\n      swap2\n      swap1\n      tag_78\n      jump\t// in\n    tag_77:\n      0x00\n      mload(0x40)\n      dup1\n      dup4\n      sub\n      dup2\n      0x00\n      dup8\n      dup1\n      extcodesize\n      iszero\n      dup1\n      iszero\n      tag_79\n      jumpi\n      revert(0x00, 0x00)\n    tag_79:\n      pop\n      gas\n      call\n      iszero\n      dup1\n      iszero\n      tag_81\n      jumpi\n      returndatacopy(0x00, 0x00, returndatasize)\n      revert(0x00, returndatasize)\n    tag_81:\n      pop\n      pop\n      pop\n      pop\n        /* \"node.sol\":4794:4805  uint length */\n      0x00\n        /* \"node.sol\":4808:4831  current_validator_nodes */\n      0x02\n        /* \"node.sol\":4808:4838  current_validator_nodes.length */\n      dup1\n      sload\n      swap1\n      pop\n        /* \"node.sol\":4794:4838  uint length = current_validator_nodes.length */\n      swap1\n      pop\n        /* \"node.sol\":4857:4863  uint i */\n      0x00\n        /* \"node.sol\":4866:4867  0 */\n      0x00\n        /* \"node.sol\":4857:4867  uint i = 0 */\n      swap1\n      pop\n        /* \"node.sol\":4853:4983  for(uint i = 0; i < length; i++ ){... */\n    tag_82:\n        /* \"node.sol\":4873:4879  length */\n      dup2\n        /* \"node.sol\":4869:4870  i */\n      dup2\n        /* \"node.sol\":4869:4879  i < length */\n      lt\n        /* \"node.sol\":4853:4983  for(uint i = 0; i < length; i++ ){... */\n      iszero\n      tag_83\n      jumpi\n        /* \"node.sol\":4910:4933  current_validator_nodes */\n      0x02\n        /* \"node.sol\":4934:4935  i */\n      dup2\n        /* \"node.sol\":4910:4936  current_validator_nodes[i] */\n      dup2\n      sload\n      dup2\n      lt\n      tag_85\n      jumpi\n      tag_86\n      tag_52\n      jump\t// in\n    tag_86:\n    tag_85:\n      swap1\n      0x00\n      mstore\n      keccak256(0x00, 0x20)\n      add\n      0x00\n      swap1\n      sload\n      swap1\n      0x0100\n      exp\n      swap1\n      div\n      0xffffffffffffffffffffffffffffffffffffffff\n      and\n        /* \"node.sol\":4905:4952  Node(current_validator_nodes[i]).finalize_block */\n      0xffffffffffffffffffffffffffffffffffffffff\n      and\n      0xb4c67900\n        /* \"node.sol\":4953:4966  current_block */\n      0x08\n        /* \"node.sol\":4905:4967  Node(current_validator_nodes[i]).finalize_block(current_block) */\n      mload(0x40)\n      dup3\n      0xffffffff\n      and\n      0xe0\n      shl\n      dup2\n      mstore\n      0x04\n      add\n      tag_88\n      swap2\n      swap1\n      tag_89\n      jump\t// in\n    tag_88:\n      0x00\n      mload(0x40)\n      dup1\n      dup4\n      sub\n      dup2\n      0x00\n      dup8\n      dup1\n      extcodesize\n      iszero\n      dup1\n      iszero\n      tag_90\n      jumpi\n      revert(0x00, 0x00)\n    tag_90:\n      pop\n      gas\n      call\n      iszero\n      dup1\n      iszero\n      tag_92\n      jumpi\n      returndatacopy(0x00, 0x00, returndatasize)\n      revert(0x00, returndatasize)\n    tag_92:\n      pop\n      pop\n      pop\n      pop\n        /* \"node.sol\":4881:4884  i++ */\n      dup1\n      dup1\n      0x01\n      add\n      swap2\n      pop\n      pop\n        /* \"node.sol\":4853:4983  for(uint i = 0; i < length; i++ ){... */\n      jump(tag_82)\n    tag_83:\n      pop\n        /* \"node.sol\":4504:4996  {... */\n      pop\n        /* \"node.sol\":4458:5109  if(current_block_quorum * 3 >= totalNodes * 2){... */\n      jump(tag_93)\n    tag_67:\n        /* \"node.sol\":5048:5055  staking */\n      0x04\n      0x00\n      swap1\n      sload\n      swap1\n      0x0100\n      exp\n      swap1\n      div\n      0xffffffffffffffffffffffffffffffffffffffff\n      and\n        /* \"node.sol\":5048:5066  staking.slashStake */\n      0xffffffffffffffffffffffffffffffffffffffff\n      and\n      0xb03b3ef0\n        /* \"node.sol\":5067:5075  assigner */\n      0x05\n      0x00\n      swap1\n      sload\n      swap1\n      0x0100\n      exp\n      swap1\n      div\n      0xffffffffffffffffffffffffffffffffffffffff\n      and\n        /* \"node.sol\":5067:5094  assigner.getCurrentProposer */\n      0xffffffffffffffffffffffffffffffffffffffff\n      and\n      0x3b10244b\n        /* \"node.sol\":5067:5096  assigner.getCurrentProposer() */\n      mload(0x40)\n      dup2\n      0xffffffff\n      and\n      0xe0\n      shl\n      dup2\n      mstore\n      0x04\n      add\n      0x20\n      mload(0x40)\n      dup1\n      dup4\n      sub\n      dup2\n      dup7\n      gas\n      staticcall\n      iszero\n      dup1\n      iszero\n      tag_95\n      jumpi\n      returndatacopy(0x00, 0x00, returndatasize)\n      revert(0x00, returndatasize)\n    tag_95:\n      pop\n      pop\n      pop\n      pop\n      mload(0x40)\n      returndatasize\n      not(0x1f)\n      0x1f\n      dup3\n      add\n      and\n      dup3\n      add\n      dup1\n      0x40\n      mstore\n      pop\n      dup2\n      add\n      swap1\n      tag_96\n      swap2\n      swap1\n      tag_76\n      jump\t// in\n    tag_96:\n        /* \"node.sol\":5048:5097  staking.slashStake(assigner.getCurrentProposer()) */\n      mload(0x40)\n      dup3\n      0xffffffff\n      and\n      0xe0\n      shl\n      dup2\n      mstore\n      0x04\n      add\n      tag_97\n      swap2\n      swap1\n      tag_78\n      jump\t// in\n    tag_97:\n      0x00\n      mload(0x40)\n      dup1\n      dup4\n      sub\n      dup2\n      0x00\n      dup8\n      dup1\n      extcodesize\n      iszero\n      dup1\n      iszero\n      tag_98\n      jumpi\n      revert(0x00, 0x00)\n    tag_98:\n      pop\n      gas\n      call\n      iszero\n      dup1\n      iszero\n      tag_100\n      jumpi\n      returndatacopy(0x00, 0x00, returndatasize)\n      revert(0x00, returndatasize)\n    tag_100:\n      pop\n      pop\n      pop\n      pop\n        /* \"node.sol\":4458:5109  if(current_block_quorum * 3 >= totalNodes * 2){... */\n    tag_93:\n        /* \"node.sol\":3942:5116  { //We changed check_block_finality_and_build from public to external because the function is intended to be triggered from outside the contract and is not called internally, and the modification allows it to remain callable by users while being slightly more efficient than public visibility, which we need because this function serves as an external entry point for finalizing the block after quorum is reached... */\n      pop\n        /* \"node.sol\":3891:5116  function check_block_finality_and_build() external { //We changed check_block_finality_and_build from public to external because the function is intended to be triggered from outside the contract and is not called internally, and the modification allows it to remain callable by users while being slightly more efficient than public visibility, which we need because this function serves as an external entry point for finalizing the block after quorum is reached... */\n      jump\t// out\n        /* \"node.sol\":3153:3730  function propose_block() external payable {... */\n    tag_32:\n        /* \"node.sol\":3269:3277  assigner */\n      0x05\n      0x00\n      swap1\n      sload\n      swap1\n      0x0100\n      exp\n      swap1\n      div\n      0xffffffffffffffffffffffffffffffffffffffff\n      and\n        /* \"node.sol\":3269:3296  assigner.getCurrentProposer */\n      0xffffffffffffffffffffffffffffffffffffffff\n      and\n      0x3b10244b\n        /* \"node.sol\":3269:3298  assigner.getCurrentProposer() */\n      mload(0x40)\n      dup2\n      0xffffffff\n      and\n      0xe0\n      shl\n      dup2\n      mstore\n      0x04\n      add\n      0x20\n      mload(0x40)\n      dup1\n      dup4\n      sub\n      dup2\n      dup7\n      gas\n      staticcall\n      iszero\n      dup1\n      iszero\n      tag_103\n      jumpi\n      returndatacopy(0x00, 0x00, returndatasize)\n      revert(0x00, returndatasize)\n    tag_103:\n      pop\n      pop\n      pop\n      pop\n      mload(0x40)\n      returndatasize\n      not(0x1f)\n      0x1f\n      dup3\n      add\n      and\n      dup3\n      add\n      dup1\n      0x40\n      mstore\n      pop\n      dup2\n      add\n      swap1\n      tag_104\n      swap2\n      swap1\n      tag_76\n      jump\t// in\n    tag_104:\n        /* \"node.sol\":3255:3298  msg.sender == assigner.getCurrentProposer() */\n      0xffffffffffffffffffffffffffffffffffffffff\n      and\n        /* \"node.sol\":3255:3265  msg.sender */\n      caller\n        /* \"node.sol\":3255:3298  msg.sender == assigner.getCurrentProposer() */\n      0xffffffffffffffffffffffffffffffffffffffff\n      and\n      eq\n        /* \"node.sol\":3247:3324  require(msg.sender == assigner.getCurrentProposer(), \"Not selected proposer\") */\n      tag_105\n      jumpi\n      mload(0x40)\n      0x08c379a000000000000000000000000000000000000000000000000000000000\n      dup2\n      mstore\n      0x04\n      add\n      tag_106\n      swap1\n      tag_107\n      jump\t// in\n    tag_106:\n      mload(0x40)\n      dup1\n      swap2\n      sub\n      swap1\n      revert\n    tag_105:\n        /* \"node.sol\":3378:3385  1 ether */\n      0x0de0b6b3a7640000\n        /* \"node.sol\":3365:3374  msg.value */\n      callvalue\n        /* \"node.sol\":3365:3385  msg.value >= 1 ether */\n      lt\n      iszero\n        /* \"node.sol\":3357:3404  require(msg.value >= 1 ether, \"Stake required\") */\n      tag_108\n      jumpi\n      mload(0x40)\n      0x08c379a000000000000000000000000000000000000000000000000000000000\n      dup2\n      mstore\n      0x04\n      add\n      tag_109\n      swap1\n      tag_110\n      jump\t// in\n    tag_109:\n      mload(0x40)\n      dup1\n      swap2\n      sub\n      swap1\n      revert\n    tag_108:\n        /* \"node.sol\":3413:3420  staking */\n      0x04\n      0x00\n      swap1\n      sload\n      swap1\n      0x0100\n      exp\n      swap1\n      div\n      0xffffffffffffffffffffffffffffffffffffffff\n      and\n        /* \"node.sol\":3413:3426  staking.stake */\n      0xffffffffffffffffffffffffffffffffffffffff\n      and\n      0x3a4b66f1\n        /* \"node.sol\":3434:3443  msg.value */\n      callvalue\n        /* \"node.sol\":3413:3446  staking.stake{value: msg.value}() */\n      mload(0x40)\n      dup3\n      0xffffffff\n      and\n      0xe0\n      shl\n      dup2\n      mstore\n      0x04\n      add\n      0x00\n      mload(0x40)\n      dup1\n      dup4\n      sub\n      dup2\n      dup6\n      dup9\n      dup1\n      extcodesize\n      iszero\n      dup1\n      iszero\n      tag_111\n      jumpi\n      revert(0x00, 0x00)\n    tag_111:\n      pop\n      gas\n      call\n      iszero\n      dup1\n      iszero\n      tag_113\n      jumpi\n      returndatacopy(0x00, 0x00, returndatasize)\n      revert(0x00, returndatasize)\n    tag_113:\n      pop\n      pop\n      pop\n      pop\n      pop\n        /* \"node.sol\":3507:3518  uint length */\n      0x00\n        /* \"node.sol\":3521:3544  current_validator_nodes */\n      0x02\n        /* \"node.sol\":3521:3551  current_validator_nodes.length */\n      dup1\n      sload\n      swap1\n      pop\n        /* \"node.sol\":3507:3551  uint length = current_validator_nodes.length */\n      swap1\n      pop\n        /* \"node.sol\":3563:3569  uint i */\n      0x00\n        /* \"node.sol\":3572:3573  0 */\n      0x00\n        /* \"node.sol\":3563:3573  uint i = 0 */\n      swap1\n      pop\n        /* \"node.sol\":3558:3723  for (uint i = 0; i < length; i++){... */\n    tag_114:\n        /* \"node.sol\":3579:3585  length */\n      dup2\n        /* \"node.sol\":3575:3576  i */\n      dup2\n        /* \"node.sol\":3575:3585  i < length */\n      lt\n        /* \"node.sol\":3558:3723  for (uint i = 0; i < length; i++){... */\n      iszero\n      tag_115\n      jumpi\n        /* \"node.sol\":3602:3614  address peer */\n      0x00\n        /* \"node.sol\":3617:3640  current_validator_nodes */\n      0x02\n        /* \"node.sol\":3641:3642  i */\n      dup3\n        /* \"node.sol\":3617:3643  current_validator_nodes[i] */\n      dup2\n      sload\n      dup2\n      lt\n      tag_117\n      jumpi\n      tag_118\n      tag_52\n      jump\t// in\n    tag_118:\n    tag_117:\n      swap1\n      0x00\n      mstore\n      keccak256(0x00, 0x20)\n      add\n      0x00\n      swap1\n      sload\n      swap1\n      0x0100\n      exp\n      swap1\n      div\n      0xffffffffffffffffffffffffffffffffffffffff\n      and\n        /* \"node.sol\":3602:3643  address peer = current_validator_nodes[i] */\n      swap1\n      pop\n        /* \"node.sol\":3683:3687  peer */\n      dup1\n        /* \"node.sol\":3678:3700  Node(peer).check_block */\n      0xffffffffffffffffffffffffffffffffffffffff\n      and\n      0x4618f42c\n        /* \"node.sol\":3701:3714  current_block */\n      0x08\n        /* \"node.sol\":3678:3715  Node(peer).check_block(current_block) */\n      mload(0x40)\n      dup3\n      0xffffffff\n      and\n      0xe0\n      shl\n      dup2\n      mstore\n      0x04\n      add\n      tag_120\n      swap2\n      swap1\n      tag_89\n      jump\t// in\n    tag_120:\n      0x20\n      mload(0x40)\n      dup1\n      dup4\n      sub\n      dup2\n      dup7\n      gas\n      staticcall\n      iszero\n      dup1\n      iszero\n      tag_122\n      jumpi\n      returndatacopy(0x00, 0x00, returndatasize)\n      revert(0x00, returndatasize)\n    tag_122:\n      pop\n      pop\n      pop\n      pop\n      mload(0x40)\n      returndatasize\n      not(0x1f)\n      0x1f\n      dup3\n      add\n      and\n      dup3\n      add\n      dup1\n      0x40\n      mstore\n      pop\n      dup2\n      add\n      swap1\n      tag_123\n      swap2\n      swap1\n      tag_124\n      jump\t// in\n    tag_123:\n        /* \"node.sol\":3654:3674  current_block_quorum */\n      0x07\n      0x00\n        /* \"node.sol\":3654:3715  current_block_quorum += Node(peer).check_block(current_block) */\n      dup3\n      dup3\n      sload\n      tag_125\n      swap2\n      swap1\n      tag_126\n      jump\t// in\n    tag_125:\n      swap3\n      pop\n      pop\n      dup2\n      swap1\n      sstore\n      pop\n        /* \"node.sol\":3591:3723  {... */\n      pop\n        /* \"node.sol\":3587:3590  i++ */\n      dup1\n      dup1\n      0x01\n      add\n      swap2\n      pop\n      pop\n        /* \"node.sol\":3558:3723  for (uint i = 0; i < length; i++){... */\n      jump(tag_114)\n    tag_115:\n      pop\n        /* \"node.sol\":3195:3730  {... */\n      pop\n        /* \"node.sol\":3153:3730  function propose_block() external payable {... */\n      jump\t// out\n        /* \"consensus.sol\":924:1034  function add_peer(address peer) public{... */\n    tag_37:\n        /* \"consensus.sol\":973:996  current_validator_nodes */\n      0x02\n        /* \"consensus.sol\":1002:1006  peer */\n      dup2\n        /* \"consensus.sol\":973:1007  current_validator_nodes.push(peer) */\n      swap1\n      dup1\n      0x01\n      dup2\n      sload\n      add\n      dup1\n      dup3\n      sstore\n      dup1\n      swap2\n      pop\n      pop\n      0x01\n      swap1\n      sub\n      swap1\n      0x00\n      mstore\n      keccak256(0x00, 0x20)\n      add\n      0x00\n      swap1\n      swap2\n      swap1\n      swap2\n      swap1\n      swap2\n      0x0100\n      exp\n      dup2\n      sload\n      dup2\n      0xffffffffffffffffffffffffffffffffffffffff\n      mul\n      not\n      and\n      swap1\n      dup4\n      0xffffffffffffffffffffffffffffffffffffffff\n      and\n      mul\n      or\n      swap1\n      sstore\n      pop\n        /* \"consensus.sol\":1018:1024  quorum */\n      0x03\n      0x00\n        /* \"consensus.sol\":1018:1026  quorum++ */\n      dup2\n      sload\n      dup1\n      swap3\n      swap2\n      swap1\n      tag_129\n      swap1\n      tag_72\n      jump\t// in\n    tag_129:\n      swap2\n      swap1\n      pop\n      sstore\n      pop\n        /* \"consensus.sol\":924:1034  function add_peer(address peer) public{... */\n      pop\n      jump\t// out\n        /* \"node.sol\":5250:5612  function finalize_block(Block memory received_block) external {... */\n    tag_41:\n        /* \"node.sol\":5358:5372  next_block_num */\n      sload(0x01)\n        /* \"node.sol\":5331:5345  received_block */\n      dup2\n        /* \"node.sol\":5331:5354  received_block.blockNum */\n      0x40\n      add\n      mload\n        /* \"node.sol\":5331:5372  received_block.blockNum == next_block_num */\n      eq\n        /* \"node.sol\":5323:5399  require(received_block.blockNum == next_block_num, \"Block proposal failure\") */\n      tag_131\n      jumpi\n      mload(0x40)\n      0x08c379a000000000000000000000000000000000000000000000000000000000\n      dup2\n      mstore\n      0x04\n      add\n      tag_132\n      swap1\n      tag_133\n      jump\t// in\n    tag_132:\n      mload(0x40)\n      dup1\n      swap2\n      sub\n      swap1\n      revert\n    tag_131:\n        /* \"node.sol\":5412:5422  blockchain */\n      0x00\n        /* \"node.sol\":5428:5442  received_block */\n      dup2\n        /* \"node.sol\":5412:5443  blockchain.push(received_block) */\n      swap1\n      dup1\n      0x01\n      dup2\n      sload\n      add\n      dup1\n      dup3\n      sstore\n      dup1\n      swap2\n      pop\n      pop\n      0x01\n      swap1\n      sub\n      swap1\n      0x00\n      mstore\n      keccak256(0x00, 0x20)\n      swap1\n      0x04\n      mul\n      add\n      0x00\n      swap1\n      swap2\n      swap1\n      swap2\n      swap1\n      swap2\n      pop\n      0x00\n      dup3\n      add\n      mload\n      dup2\n      0x00\n      add\n      sstore\n      0x20\n      dup3\n      add\n      mload\n      dup2\n      0x01\n      add\n      sstore\n      0x40\n      dup3\n      add\n      mload\n      dup2\n      0x02\n      add\n      sstore\n      0x60\n      dup3\n      add\n      mload\n      dup2\n      0x03\n      add\n      swap1\n      dup2\n      tag_135\n      swap2\n      swap1\n      tag_136\n      jump\t// in\n    tag_135:\n      pop\n      pop\n      pop\n        /* \"node.sol\":5454:5468  next_block_num */\n      0x01\n      0x00\n        /* \"node.sol\":5454:5470  next_block_num++ */\n      dup2\n      sload\n      dup1\n      swap3\n      swap2\n      swap1\n      tag_137\n      swap1\n      tag_72\n      jump\t// in\n    tag_137:\n      swap2\n      swap1\n      pop\n      sstore\n      pop\n        /* \"node.sol\":5518:5538  current_message = \"\" */\n      mload(0x40)\n      dup1\n      0x20\n      add\n      0x40\n      mstore\n      dup1\n      0x00\n      dup2\n      mstore\n      pop\n        /* \"node.sol\":5518:5533  current_message */\n      0x06\n        /* \"node.sol\":5518:5538  current_message = \"\" */\n      swap1\n      dup2\n      tag_138\n      swap2\n      swap1\n      tag_136\n      jump\t// in\n    tag_138:\n      pop\n        /* \"node.sol\":5572:5573  0 */\n      0x00\n        /* \"node.sol\":5549:5569  current_block_quorum */\n      0x07\n        /* \"node.sol\":5549:5573  current_block_quorum = 0 */\n      dup2\n      swap1\n      sstore\n      pop\n        /* \"node.sol\":5591:5604  current_block */\n      0x08\n      0x00\n        /* \"node.sol\":5584:5604  delete current_block */\n      0x00\n      dup3\n      add\n      0x00\n      swap1\n      sstore\n      0x01\n      dup3\n      add\n      0x00\n      swap1\n      sstore\n      0x02\n      dup3\n      add\n      0x00\n      swap1\n      sstore\n      0x03\n      dup3\n      add\n      0x00\n      tag_139\n      swap2\n      swap1\n      tag_140\n      jump\t// in\n    tag_139:\n      pop\n      pop\n        /* \"node.sol\":5250:5612  function finalize_block(Block memory received_block) external {... */\n      pop\n      jump\t// out\n        /* \"node.sol\":2777:3067  function user_input(string calldata message) external {... */\n    tag_46:\n        /* \"node.sol\":2842:2868  bytes memory converted_msg */\n      0x00\n        /* \"node.sol\":2877:2884  message */\n      dup3\n      dup3\n        /* \"node.sol\":2842:2885  bytes memory converted_msg = bytes(message) */\n      dup1\n      dup1\n      0x1f\n      add\n      0x20\n      dup1\n      swap2\n      div\n      mul\n      0x20\n      add\n      mload(0x40)\n      swap1\n      dup2\n      add\n      0x40\n      mstore\n      dup1\n      swap4\n      swap3\n      swap2\n      swap1\n      dup2\n      dup2\n      mstore\n      0x20\n      add\n      dup4\n      dup4\n      dup1\n      dup3\n      dup5\n      calldatacopy\n      0x00\n      dup2\n      dup5\n      add\n      mstore\n      not(0x1f)\n      0x1f\n      dup3\n      add\n      and\n      swap1\n      pop\n      dup1\n      dup4\n      add\n      swap3\n      pop\n      pop\n      pop\n      pop\n      pop\n      pop\n      pop\n      swap1\n      pop\n        /* \"node.sol\":2928:2929  0 */\n      0x00\n        /* \"node.sol\":2904:2917  converted_msg */\n      dup2\n        /* \"node.sol\":2904:2924  converted_msg.length */\n      mload\n        /* \"node.sol\":2904:2929  converted_msg.length != 0 */\n      sub\n        /* \"node.sol\":2896:2966  require(converted_msg.length != 0, \"Empty data requests not accepted\") */\n      tag_142\n      jumpi\n      mload(0x40)\n      0x08c379a000000000000000000000000000000000000000000000000000000000\n      dup2\n      mstore\n      0x04\n      add\n      tag_143\n      swap1\n      tag_144\n      jump\t// in\n    tag_143:\n      mload(0x40)\n      dup1\n      swap2\n      sub\n      swap1\n      revert\n    tag_142:\n        /* \"node.sol\":2997:3004  message */\n      dup3\n      dup3\n        /* \"node.sol\":2979:2994  current_message */\n      0x06\n        /* \"node.sol\":2979:3004  current_message = message */\n      swap2\n      dup3\n      tag_145\n      swap3\n      swap2\n      swap1\n      tag_146\n      jump\t// in\n    tag_145:\n      pop\n        /* \"node.sol\":3031:3059  build_block(current_message) */\n      tag_147\n        /* \"node.sol\":3043:3058  current_message */\n      0x06\n        /* \"node.sol\":3031:3059  build_block(current_message) */\n      dup1\n      sload\n      tag_148\n      swap1\n      tag_55\n      jump\t// in\n    tag_148:\n      dup1\n      0x1f\n      add\n      0x20\n      dup1\n      swap2\n      div\n      mul\n      0x20\n      add\n      mload(0x40)\n      swap1\n      dup2\n      add\n      0x40\n      mstore\n      dup1\n      swap3\n      swap2\n      swap1\n      dup2\n      dup2\n      mstore\n      0x20\n      add\n      dup3\n      dup1\n      sload\n      tag_149\n      swap1\n      tag_55\n      jump\t// in\n    tag_149:\n      dup1\n      iszero\n      tag_150\n      jumpi\n      dup1\n      0x1f\n      lt\n      tag_151\n      jumpi\n      0x0100\n      dup1\n      dup4\n      sload\n      div\n      mul\n      dup4\n      mstore\n      swap2\n      0x20\n      add\n      swap2\n      jump(tag_150)\n    tag_151:\n      dup3\n      add\n      swap2\n      swap1\n      0x00\n      mstore\n      keccak256(0x00, 0x20)\n      swap1\n    tag_152:\n      dup2\n      sload\n      dup2\n      mstore\n      swap1\n      0x01\n      add\n      swap1\n      0x20\n      add\n      dup1\n      dup4\n      gt\n      tag_152\n      jumpi\n      dup3\n      swap1\n      sub\n      0x1f\n      and\n      dup3\n      add\n      swap2\n    tag_150:\n      pop\n      pop\n      pop\n      pop\n      pop\n        /* \"node.sol\":3031:3042  build_block */\n      tag_153\n        /* \"node.sol\":3031:3059  build_block(current_message) */\n      jump\t// in\n    tag_147:\n        /* \"node.sol\":3015:3028  current_block */\n      0x08\n        /* \"node.sol\":3015:3059  current_block = build_block(current_message) */\n      0x00\n      dup3\n      add\n      mload\n      dup2\n      0x00\n      add\n      sstore\n      0x20\n      dup3\n      add\n      mload\n      dup2\n      0x01\n      add\n      sstore\n      0x40\n      dup3\n      add\n      mload\n      dup2\n      0x02\n      add\n      sstore\n      0x60\n      dup3\n      add\n      mload\n      dup2\n      0x03\n      add\n      swap1\n      dup2\n      tag_154\n      swap2\n      swap1\n      tag_136\n      jump\t// in\n    tag_154:\n      pop\n      swap1\n      pop\n      pop\n        /* \"node.sol\":2831:3067  {... */\n      pop\n        /* \"node.sol\":2777:3067  function user_input(string calldata message) external {... */\n      pop\n      pop\n      jump\t// out\n        /* \"blockchain.sol\":2127:2916  function build_block(string memory message) internal view returns(Block memory){ //We changed build_block from public to internal because the function must be accessible from the child contract Node but is not intended for external users, and the modification allows inherited contracts to reuse the block-construction logic without opening it as a public interface, which we need because Node calls build_block when a user submits a new message... */\n    tag_153:\n        /* \"blockchain.sol\":2193:2205  Block memory */\n      tag_155\n      tag_156\n      jump\t// in\n    tag_155:\n        /* \"blockchain.sol\":2617:2643  Block memory current_block */\n      0x00\n        /* \"blockchain.sol\":2646:2656  blockchain */\n      0x00\n        /* \"blockchain.sol\":2672:2673  1 */\n      0x01\n        /* \"blockchain.sol\":2657:2671  next_block_num */\n      dup1\n      sload\n        /* \"blockchain.sol\":2657:2673  next_block_num-1 */\n      tag_158\n      swap2\n      swap1\n      tag_49\n      jump\t// in\n    tag_158:\n        /* \"blockchain.sol\":2646:2674  blockchain[next_block_num-1] */\n      dup2\n      sload\n      dup2\n      lt\n      tag_159\n      jumpi\n      tag_160\n      tag_52\n      jump\t// in\n    tag_160:\n    tag_159:\n      swap1\n      0x00\n      mstore\n      keccak256(0x00, 0x20)\n      swap1\n      0x04\n      mul\n      add\n        /* \"blockchain.sol\":2617:2674  Block memory current_block = blockchain[next_block_num-1] */\n      mload(0x40)\n      dup1\n      0x80\n      add\n      0x40\n      mstore\n      swap1\n      dup2\n      0x00\n      dup3\n      add\n      sload\n      dup2\n      mstore\n      0x20\n      add\n      0x01\n      dup3\n      add\n      sload\n      dup2\n      mstore\n      0x20\n      add\n      0x02\n      dup3\n      add\n      sload\n      dup2\n      mstore\n      0x20\n      add\n      0x03\n      dup3\n      add\n      dup1\n      sload\n      tag_162\n      swap1\n      tag_55\n      jump\t// in\n    tag_162:\n      dup1\n      0x1f\n      add\n      0x20\n      dup1\n      swap2\n      div\n      mul\n      0x20\n      add\n      mload(0x40)\n      swap1\n      dup2\n      add\n      0x40\n      mstore\n      dup1\n      swap3\n      swap2\n      swap1\n      dup2\n      dup2\n      mstore\n      0x20\n      add\n      dup3\n      dup1\n      sload\n      tag_163\n      swap1\n      tag_55\n      jump\t// in\n    tag_163:\n      dup1\n      iszero\n      tag_164\n      jumpi\n      dup1\n      0x1f\n      lt\n      tag_165\n      jumpi\n      0x0100\n      dup1\n      dup4\n      sload\n      div\n      mul\n      dup4\n      mstore\n      swap2\n      0x20\n      add\n      swap2\n      jump(tag_164)\n    tag_165:\n      dup3\n      add\n      swap2\n      swap1\n      0x00\n      mstore\n      keccak256(0x00, 0x20)\n      swap1\n    tag_166:\n      dup2\n      sload\n      dup2\n      mstore\n      swap1\n      0x01\n      add\n      swap1\n      0x20\n      add\n      dup1\n      dup4\n      gt\n      tag_166\n      jumpi\n      dup3\n      swap1\n      sub\n      0x1f\n      and\n      dup3\n      add\n      swap2\n    tag_164:\n      pop\n      pop\n      pop\n      pop\n      pop\n      dup2\n      mstore\n      pop\n      pop\n      swap1\n      pop\n        /* \"blockchain.sol\":2685:2707  Block memory new_block */\n      0x00\n        /* \"blockchain.sol\":2710:2879  Block({... */\n      mload(0x40)\n      dup1\n      0x80\n      add\n      0x40\n      mstore\n      dup1\n        /* \"blockchain.sol\":2737:2754  hashFunc(message) */\n      tag_167\n        /* \"blockchain.sol\":2746:2753  message */\n      dup7\n        /* \"blockchain.sol\":2737:2745  hashFunc */\n      tag_168\n        /* \"blockchain.sol\":2737:2754  hashFunc(message) */\n      jump\t// in\n    tag_167:\n        /* \"blockchain.sol\":2710:2879  Block({... */\n      dup2\n      mstore\n      0x20\n      add\n        /* \"blockchain.sol\":2779:2792  current_block */\n      dup4\n        /* \"blockchain.sol\":2779:2797  current_block.hash */\n      0x00\n      add\n      mload\n        /* \"blockchain.sol\":2710:2879  Block({... */\n      dup2\n      mstore\n      0x20\n      add\n        /* \"blockchain.sol\":2822:2836  next_block_num */\n      sload(0x01)\n        /* \"blockchain.sol\":2710:2879  Block({... */\n      dup2\n      mstore\n      0x20\n      add\n        /* \"blockchain.sol\":2860:2867  message */\n      dup6\n        /* \"blockchain.sol\":2710:2879  Block({... */\n      dup2\n      mstore\n      pop\n        /* \"blockchain.sol\":2685:2879  Block memory new_block = Block({... */\n      swap1\n      pop\n        /* \"blockchain.sol\":2899:2908  new_block */\n      dup1\n        /* \"blockchain.sol\":2892:2908  return new_block */\n      swap3\n      pop\n      pop\n      pop\n        /* \"blockchain.sol\":2127:2916  function build_block(string memory message) internal view returns(Block memory){ //We changed build_block from public to internal because the function must be accessible from the child contract Node but is not intended for external users, and the modification allows inherited contracts to reuse the block-construction logic without opening it as a public interface, which we need because Node calls build_block when a user submits a new message... */\n      swap2\n      swap1\n      pop\n      jump\t// out\n        /* \"blockchain.sol\":1574:2033  function hashFunc(string memory data) private pure returns(bytes32){... */\n    tag_168:\n        /* \"blockchain.sol\":1633:1640  bytes32 */\n      0x00\n        /* \"blockchain.sol\":2019:2023  data */\n      dup2\n        /* \"blockchain.sol\":2002:2024  abi.encodePacked(data) */\n      add(0x20, mload(0x40))\n      tag_170\n      swap2\n      swap1\n      tag_171\n      jump\t// in\n    tag_170:\n      mload(0x40)\n      0x20\n      dup2\n      dup4\n      sub\n      sub\n      dup2\n      mstore\n      swap1\n      0x40\n      mstore\n        /* \"blockchain.sol\":1992:2025  keccak256(abi.encodePacked(data)) */\n      dup1\n      mload\n      swap1\n      0x20\n      add\n      keccak256\n        /* \"blockchain.sol\":1985:2025  return keccak256(abi.encodePacked(data)) */\n      swap1\n      pop\n        /* \"blockchain.sol\":1574:2033  function hashFunc(string memory data) private pure returns(bytes32){... */\n      swap2\n      swap1\n      pop\n      jump\t// out\n    tag_140:\n      pop\n      dup1\n      sload\n      tag_172\n      swap1\n      tag_55\n      jump\t// in\n    tag_172:\n      0x00\n      dup3\n      sstore\n      dup1\n      0x1f\n      lt\n      tag_174\n      jumpi\n      pop\n      jump(tag_173)\n    tag_174:\n      0x1f\n      add\n      0x20\n      swap1\n      div\n      swap1\n      0x00\n      mstore\n      keccak256(0x00, 0x20)\n      swap1\n      dup2\n      add\n      swap1\n      tag_175\n      swap2\n      swap1\n      tag_176\n      jump\t// in\n    tag_175:\n    tag_173:\n      pop\n      jump\t// out\n    tag_156:\n      mload(0x40)\n      dup1\n      0x80\n      add\n      0x40\n      mstore\n      dup1\n      0x00\n      dup2\n      mstore\n      0x20\n      add\n      0x00\n      dup2\n      mstore\n      0x20\n      add\n      0x00\n      dup2\n      mstore\n      0x20\n      add\n      0x60\n      dup2\n      mstore\n      pop\n      swap1\n      jump\t// out\n    tag_176:\n    tag_177:\n      dup1\n      dup3\n      gt\n      iszero\n      tag_178\n      jumpi\n      0x00\n      dup2\n      0x00\n      swap1\n      sstore\n      pop\n      0x01\n      add\n      jump(tag_177)\n    tag_178:\n      pop\n      swap1\n      jump\t// out\n        /* \"#utility.yul\":7:133   */\n    tag_179:\n        /* \"#utility.yul\":44:51   */\n      0x00\n        /* \"#utility.yul\":84:126   */\n      0xffffffffffffffffffffffffffffffffffffffff\n        /* \"#utility.yul\":77:82   */\n      dup3\n        /* \"#utility.yul\":73:127   */\n      and\n        /* \"#utility.yul\":62:127   */\n      swap1\n      pop\n        /* \"#utility.yul\":7:133   */\n      swap2\n      swap1\n      pop\n      jump\t// out\n        /* \"#utility.yul\":139:199   */\n    tag_180:\n        /* \"#utility.yul\":167:170   */\n      0x00\n        /* \"#utility.yul\":188:193   */\n      dup2\n        /* \"#utility.yul\":181:193   */\n      swap1\n      pop\n        /* \"#utility.yul\":139:199   */\n      swap2\n      swap1\n      pop\n      jump\t// out\n        /* \"#utility.yul\":205:347   */\n    tag_181:\n        /* \"#utility.yul\":255:264   */\n      0x00\n        /* \"#utility.yul\":288:341   */\n      tag_264\n        /* \"#utility.yul\":306:340   */\n      tag_265\n        /* \"#utility.yul\":315:339   */\n      tag_266\n        /* \"#utility.yul\":333:338   */\n      dup5\n        /* \"#utility.yul\":315:339   */\n      tag_179\n      jump\t// in\n    tag_266:\n        /* \"#utility.yul\":306:340   */\n      tag_180\n      jump\t// in\n    tag_265:\n        /* \"#utility.yul\":288:341   */\n      tag_179\n      jump\t// in\n    tag_264:\n        /* \"#utility.yul\":275:341   */\n      swap1\n      pop\n        /* \"#utility.yul\":205:347   */\n      swap2\n      swap1\n      pop\n      jump\t// out\n        /* \"#utility.yul\":353:479   */\n    tag_182:\n        /* \"#utility.yul\":403:412   */\n      0x00\n        /* \"#utility.yul\":436:473   */\n      tag_268\n        /* \"#utility.yul\":467:472   */\n      dup3\n        /* \"#utility.yul\":436:473   */\n      tag_181\n      jump\t// in\n    tag_268:\n        /* \"#utility.yul\":423:473   */\n      swap1\n      pop\n        /* \"#utility.yul\":353:479   */\n      swap2\n      swap1\n      pop\n      jump\t// out\n        /* \"#utility.yul\":485:627   */\n    tag_183:\n        /* \"#utility.yul\":551:560   */\n      0x00\n        /* \"#utility.yul\":584:621   */\n      tag_270\n        /* \"#utility.yul\":615:620   */\n      dup3\n        /* \"#utility.yul\":584:621   */\n      tag_182\n      jump\t// in\n    tag_270:\n        /* \"#utility.yul\":571:621   */\n      swap1\n      pop\n        /* \"#utility.yul\":485:627   */\n      swap2\n      swap1\n      pop\n      jump\t// out\n        /* \"#utility.yul\":633:796   */\n    tag_184:\n        /* \"#utility.yul\":736:789   */\n      tag_272\n        /* \"#utility.yul\":783:788   */\n      dup2\n        /* \"#utility.yul\":736:789   */\n      tag_183\n      jump\t// in\n    tag_272:\n        /* \"#utility.yul\":731:734   */\n      dup3\n        /* \"#utility.yul\":724:790   */\n      mstore\n        /* \"#utility.yul\":633:796   */\n      pop\n      pop\n      jump\t// out\n        /* \"#utility.yul\":802:1056   */\n    tag_15:\n        /* \"#utility.yul\":911:915   */\n      0x00\n        /* \"#utility.yul\":949:951   */\n      0x20\n        /* \"#utility.yul\":938:947   */\n      dup3\n        /* \"#utility.yul\":934:952   */\n      add\n        /* \"#utility.yul\":926:952   */\n      swap1\n      pop\n        /* \"#utility.yul\":962:1049   */\n      tag_274\n        /* \"#utility.yul\":1046:1047   */\n      0x00\n        /* \"#utility.yul\":1035:1044   */\n      dup4\n        /* \"#utility.yul\":1031:1048   */\n      add\n        /* \"#utility.yul\":1022:1028   */\n      dup5\n        /* \"#utility.yul\":962:1049   */\n      tag_184\n      jump\t// in\n    tag_274:\n        /* \"#utility.yul\":802:1056   */\n      swap3\n      swap2\n      pop\n      pop\n      jump\t// out\n        /* \"#utility.yul\":1062:1137   */\n    tag_185:\n        /* \"#utility.yul\":1095:1101   */\n      0x00\n        /* \"#utility.yul\":1128:1130   */\n      0x40\n        /* \"#utility.yul\":1122:1131   */\n      mload\n        /* \"#utility.yul\":1112:1131   */\n      swap1\n      pop\n        /* \"#utility.yul\":1062:1137   */\n      swap1\n      jump\t// out\n        /* \"#utility.yul\":1143:1260   */\n    tag_186:\n        /* \"#utility.yul\":1252:1253   */\n      0x00\n        /* \"#utility.yul\":1249:1250   */\n      0x00\n        /* \"#utility.yul\":1242:1254   */\n      revert\n        /* \"#utility.yul\":1266:1383   */\n    tag_187:\n        /* \"#utility.yul\":1375:1376   */\n      0x00\n        /* \"#utility.yul\":1372:1373   */\n      0x00\n        /* \"#utility.yul\":1365:1377   */\n      revert\n        /* \"#utility.yul\":1389:1506   */\n    tag_188:\n        /* \"#utility.yul\":1498:1499   */\n      0x00\n        /* \"#utility.yul\":1495:1496   */\n      0x00\n        /* \"#utility.yul\":1488:1500   */\n      revert\n        /* \"#utility.yul\":1512:1614   */\n    tag_189:\n        /* \"#utility.yul\":1553:1559   */\n      0x00\n        /* \"#utility.yul\":1604:1606   */\n      0x1f\n        /* \"#utility.yul\":1600:1607   */\n      not\n        /* \"#utility.yul\":1595:1597   */\n      0x1f\n        /* \"#utility.yul\":1588:1593   */\n      dup4\n        /* \"#utility.yul\":1584:1598   */\n      add\n        /* \"#utility.yul\":1580:1608   */\n      and\n        /* \"#utility.yul\":1570:1608   */\n      swap1\n      pop\n        /* \"#utility.yul\":1512:1614   */\n      swap2\n      swap1\n      pop\n      jump\t// out\n        /* \"#utility.yul\":1620:1800   */\n    tag_190:\n        /* \"#utility.yul\":1668:1745   */\n      0x4e487b7100000000000000000000000000000000000000000000000000000000\n        /* \"#utility.yul\":1665:1666   */\n      0x00\n        /* \"#utility.yul\":1658:1746   */\n      mstore\n        /* \"#utility.yul\":1765:1769   */\n      0x41\n        /* \"#utility.yul\":1762:1763   */\n      0x04\n        /* \"#utility.yul\":1755:1770   */\n      mstore\n        /* \"#utility.yul\":1789:1793   */\n      0x24\n        /* \"#utility.yul\":1786:1787   */\n      0x00\n        /* \"#utility.yul\":1779:1794   */\n      revert\n        /* \"#utility.yul\":1806:2087   */\n    tag_191:\n        /* \"#utility.yul\":1889:1916   */\n      tag_282\n        /* \"#utility.yul\":1911:1915   */\n      dup3\n        /* \"#utility.yul\":1889:1916   */\n      tag_189\n      jump\t// in\n    tag_282:\n        /* \"#utility.yul\":1881:1887   */\n      dup2\n        /* \"#utility.yul\":1877:1917   */\n      add\n        /* \"#utility.yul\":2019:2025   */\n      dup2\n        /* \"#utility.yul\":2007:2017   */\n      dup2\n        /* \"#utility.yul\":2004:2026   */\n      lt\n        /* \"#utility.yul\":1983:2001   */\n      0xffffffffffffffff\n        /* \"#utility.yul\":1971:1981   */\n      dup3\n        /* \"#utility.yul\":1968:2002   */\n      gt\n        /* \"#utility.yul\":1965:2027   */\n      or\n        /* \"#utility.yul\":1962:2050   */\n      iszero\n      tag_283\n      jumpi\n        /* \"#utility.yul\":2030:2048   */\n      tag_284\n      tag_190\n      jump\t// in\n    tag_284:\n        /* \"#utility.yul\":1962:2050   */\n    tag_283:\n        /* \"#utility.yul\":2070:2080   */\n      dup1\n        /* \"#utility.yul\":2066:2068   */\n      0x40\n        /* \"#utility.yul\":2059:2081   */\n      mstore\n        /* \"#utility.yul\":1849:2087   */\n      pop\n        /* \"#utility.yul\":1806:2087   */\n      pop\n      pop\n      jump\t// out\n        /* \"#utility.yul\":2093:2222   */\n    tag_192:\n        /* \"#utility.yul\":2127:2133   */\n      0x00\n        /* \"#utility.yul\":2154:2174   */\n      tag_286\n      tag_185\n      jump\t// in\n    tag_286:\n        /* \"#utility.yul\":2144:2174   */\n      swap1\n      pop\n        /* \"#utility.yul\":2183:2216   */\n      tag_287\n        /* \"#utility.yul\":2211:2215   */\n      dup3\n        /* \"#utility.yul\":2203:2209   */\n      dup3\n        /* \"#utility.yul\":2183:2216   */\n      tag_191\n      jump\t// in\n    tag_287:\n        /* \"#utility.yul\":2093:2222   */\n      swap2\n      swap1\n      pop\n      jump\t// out\n        /* \"#utility.yul\":2228:2345   */\n    tag_193:\n        /* \"#utility.yul\":2337:2338   */\n      0x00\n        /* \"#utility.yul\":2334:2335   */\n      0x00\n        /* \"#utility.yul\":2327:2339   */\n      revert\n        /* \"#utility.yul\":2351:2428   */\n    tag_194:\n        /* \"#utility.yul\":2388:2395   */\n      0x00\n        /* \"#utility.yul\":2417:2422   */\n      dup2\n        /* \"#utility.yul\":2406:2422   */\n      swap1\n      pop\n        /* \"#utility.yul\":2351:2428   */\n      swap2\n      swap1\n      pop\n      jump\t// out\n        /* \"#utility.yul\":2434:2556   */\n    tag_195:\n        /* \"#utility.yul\":2507:2531   */\n      tag_291\n        /* \"#utility.yul\":2525:2530   */\n      dup2\n        /* \"#utility.yul\":2507:2531   */\n      tag_194\n      jump\t// in\n    tag_291:\n        /* \"#utility.yul\":2500:2505   */\n      dup2\n        /* \"#utility.yul\":2497:2532   */\n      eq\n        /* \"#utility.yul\":2487:2550   */\n      tag_292\n      jumpi\n        /* \"#utility.yul\":2546:2547   */\n      0x00\n        /* \"#utility.yul\":2543:2544   */\n      0x00\n        /* \"#utility.yul\":2536:2548   */\n      revert\n        /* \"#utility.yul\":2487:2550   */\n    tag_292:\n        /* \"#utility.yul\":2434:2556   */\n      pop\n      jump\t// out\n        /* \"#utility.yul\":2562:2701   */\n    tag_196:\n        /* \"#utility.yul\":2608:2613   */\n      0x00\n        /* \"#utility.yul\":2646:2652   */\n      dup2\n        /* \"#utility.yul\":2633:2653   */\n      calldataload\n        /* \"#utility.yul\":2624:2653   */\n      swap1\n      pop\n        /* \"#utility.yul\":2662:2695   */\n      tag_294\n        /* \"#utility.yul\":2689:2694   */\n      dup2\n        /* \"#utility.yul\":2662:2695   */\n      tag_195\n      jump\t// in\n    tag_294:\n        /* \"#utility.yul\":2562:2701   */\n      swap3\n      swap2\n      pop\n      pop\n      jump\t// out\n        /* \"#utility.yul\":2707:2784   */\n    tag_197:\n        /* \"#utility.yul\":2744:2751   */\n      0x00\n        /* \"#utility.yul\":2773:2778   */\n      dup2\n        /* \"#utility.yul\":2762:2778   */\n      swap1\n      pop\n        /* \"#utility.yul\":2707:2784   */\n      swap2\n      swap1\n      pop\n      jump\t// out\n        /* \"#utility.yul\":2790:2912   */\n    tag_198:\n        /* \"#utility.yul\":2863:2887   */\n      tag_297\n        /* \"#utility.yul\":2881:2886   */\n      dup2\n        /* \"#utility.yul\":2863:2887   */\n      tag_197\n      jump\t// in\n    tag_297:\n        /* \"#utility.yul\":2856:2861   */\n      dup2\n        /* \"#utility.yul\":2853:2888   */\n      eq\n        /* \"#utility.yul\":2843:2906   */\n      tag_298\n      jumpi\n        /* \"#utility.yul\":2902:2903   */\n      0x00\n        /* \"#utility.yul\":2899:2900   */\n      0x00\n        /* \"#utility.yul\":2892:2904   */\n      revert\n        /* \"#utility.yul\":2843:2906   */\n    tag_298:\n        /* \"#utility.yul\":2790:2912   */\n      pop\n      jump\t// out\n        /* \"#utility.yul\":2918:3057   */\n    tag_199:\n        /* \"#utility.yul\":2964:2969   */\n      0x00\n        /* \"#utility.yul\":3002:3008   */\n      dup2\n        /* \"#utility.yul\":2989:3009   */\n      calldataload\n        /* \"#utility.yul\":2980:3009   */\n      swap1\n      pop\n        /* \"#utility.yul\":3018:3051   */\n      tag_300\n        /* \"#utility.yul\":3045:3050   */\n      dup2\n        /* \"#utility.yul\":3018:3051   */\n      tag_198\n      jump\t// in\n    tag_300:\n        /* \"#utility.yul\":2918:3057   */\n      swap3\n      swap2\n      pop\n      pop\n      jump\t// out\n        /* \"#utility.yul\":3063:3180   */\n    tag_200:\n        /* \"#utility.yul\":3172:3173   */\n      0x00\n        /* \"#utility.yul\":3169:3170   */\n      0x00\n        /* \"#utility.yul\":3162:3174   */\n      revert\n        /* \"#utility.yul\":3186:3303   */\n    tag_201:\n        /* \"#utility.yul\":3295:3296   */\n      0x00\n        /* \"#utility.yul\":3292:3293   */\n      0x00\n        /* \"#utility.yul\":3285:3297   */\n      revert\n        /* \"#utility.yul\":3309:3617   */\n    tag_202:\n        /* \"#utility.yul\":3371:3375   */\n      0x00\n        /* \"#utility.yul\":3461:3479   */\n      0xffffffffffffffff\n        /* \"#utility.yul\":3453:3459   */\n      dup3\n        /* \"#utility.yul\":3450:3480   */\n      gt\n        /* \"#utility.yul\":3447:3503   */\n      iszero\n      tag_304\n      jumpi\n        /* \"#utility.yul\":3483:3501   */\n      tag_305\n      tag_190\n      jump\t// in\n    tag_305:\n        /* \"#utility.yul\":3447:3503   */\n    tag_304:\n        /* \"#utility.yul\":3521:3550   */\n      tag_306\n        /* \"#utility.yul\":3543:3549   */\n      dup3\n        /* \"#utility.yul\":3521:3550   */\n      tag_189\n      jump\t// in\n    tag_306:\n        /* \"#utility.yul\":3513:3550   */\n      swap1\n      pop\n        /* \"#utility.yul\":3605:3609   */\n      0x20\n        /* \"#utility.yul\":3599:3603   */\n      dup2\n        /* \"#utility.yul\":3595:3610   */\n      add\n        /* \"#utility.yul\":3587:3610   */\n      swap1\n      pop\n        /* \"#utility.yul\":3309:3617   */\n      swap2\n      swap1\n      pop\n      jump\t// out\n        /* \"#utility.yul\":3623:3771   */\n    tag_203:\n        /* \"#utility.yul\":3721:3727   */\n      dup3\n        /* \"#utility.yul\":3716:3719   */\n      dup2\n        /* \"#utility.yul\":3711:3714   */\n      dup4\n        /* \"#utility.yul\":3698:3728   */\n      calldatacopy\n        /* \"#utility.yul\":3762:3763   */\n      0x00\n        /* \"#utility.yul\":3753:3759   */\n      dup4\n        /* \"#utility.yul\":3748:3751   */\n      dup4\n        /* \"#utility.yul\":3744:3760   */\n      add\n        /* \"#utility.yul\":3737:3764   */\n      mstore\n        /* \"#utility.yul\":3623:3771   */\n      pop\n      pop\n      pop\n      jump\t// out\n        /* \"#utility.yul\":3777:4202   */\n    tag_204:\n        /* \"#utility.yul\":3855:3860   */\n      0x00\n        /* \"#utility.yul\":3880:3946   */\n      tag_309\n        /* \"#utility.yul\":3896:3945   */\n      tag_310\n        /* \"#utility.yul\":3938:3944   */\n      dup5\n        /* \"#utility.yul\":3896:3945   */\n      tag_202\n      jump\t// in\n    tag_310:\n        /* \"#utility.yul\":3880:3946   */\n      tag_192\n      jump\t// in\n    tag_309:\n        /* \"#utility.yul\":3871:3946   */\n      swap1\n      pop\n        /* \"#utility.yul\":3969:3975   */\n      dup3\n        /* \"#utility.yul\":3962:3967   */\n      dup2\n        /* \"#utility.yul\":3955:3976   */\n      mstore\n        /* \"#utility.yul\":4007:4011   */\n      0x20\n        /* \"#utility.yul\":4000:4005   */\n      dup2\n        /* \"#utility.yul\":3996:4012   */\n      add\n        /* \"#utility.yul\":4045:4048   */\n      dup5\n        /* \"#utility.yul\":4036:4042   */\n      dup5\n        /* \"#utility.yul\":4031:4034   */\n      dup5\n        /* \"#utility.yul\":4027:4043   */\n      add\n        /* \"#utility.yul\":4024:4049   */\n      gt\n        /* \"#utility.yul\":4021:4133   */\n      iszero\n      tag_311\n      jumpi\n        /* \"#utility.yul\":4052:4131   */\n      tag_312\n      tag_201\n      jump\t// in\n    tag_312:\n        /* \"#utility.yul\":4021:4133   */\n    tag_311:\n        /* \"#utility.yul\":4142:4196   */\n      tag_313\n        /* \"#utility.yul\":4189:4195   */\n      dup5\n        /* \"#utility.yul\":4184:4187   */\n      dup3\n        /* \"#utility.yul\":4179:4182   */\n      dup6\n        /* \"#utility.yul\":4142:4196   */\n      tag_203\n      jump\t// in\n    tag_313:\n        /* \"#utility.yul\":3861:4202   */\n      pop\n        /* \"#utility.yul\":3777:4202   */\n      swap4\n      swap3\n      pop\n      pop\n      pop\n      jump\t// out\n        /* \"#utility.yul\":4222:4562   */\n    tag_205:\n        /* \"#utility.yul\":4278:4283   */\n      0x00\n        /* \"#utility.yul\":4327:4330   */\n      dup3\n        /* \"#utility.yul\":4320:4324   */\n      0x1f\n        /* \"#utility.yul\":4312:4318   */\n      dup4\n        /* \"#utility.yul\":4308:4325   */\n      add\n        /* \"#utility.yul\":4304:4331   */\n      slt\n        /* \"#utility.yul\":4294:4416   */\n      tag_315\n      jumpi\n        /* \"#utility.yul\":4335:4414   */\n      tag_316\n      tag_200\n      jump\t// in\n    tag_316:\n        /* \"#utility.yul\":4294:4416   */\n    tag_315:\n        /* \"#utility.yul\":4452:4458   */\n      dup2\n        /* \"#utility.yul\":4439:4459   */\n      calldataload\n        /* \"#utility.yul\":4477:4556   */\n      tag_317\n        /* \"#utility.yul\":4552:4555   */\n      dup5\n        /* \"#utility.yul\":4544:4550   */\n      dup3\n        /* \"#utility.yul\":4537:4541   */\n      0x20\n        /* \"#utility.yul\":4529:4535   */\n      dup7\n        /* \"#utility.yul\":4525:4542   */\n      add\n        /* \"#utility.yul\":4477:4556   */\n      tag_204\n      jump\t// in\n    tag_317:\n        /* \"#utility.yul\":4468:4556   */\n      swap2\n      pop\n        /* \"#utility.yul\":4284:4562   */\n      pop\n        /* \"#utility.yul\":4222:4562   */\n      swap3\n      swap2\n      pop\n      pop\n      jump\t// out\n        /* \"#utility.yul\":4599:5673   */\n    tag_206:\n        /* \"#utility.yul\":4670:4675   */\n      0x00\n        /* \"#utility.yul\":4714:4718   */\n      0x80\n        /* \"#utility.yul\":4702:4711   */\n      dup3\n        /* \"#utility.yul\":4697:4700   */\n      dup5\n        /* \"#utility.yul\":4693:4712   */\n      sub\n        /* \"#utility.yul\":4689:4719   */\n      slt\n        /* \"#utility.yul\":4686:4803   */\n      iszero\n      tag_319\n      jumpi\n        /* \"#utility.yul\":4722:4801   */\n      tag_320\n      tag_188\n      jump\t// in\n    tag_320:\n        /* \"#utility.yul\":4686:4803   */\n    tag_319:\n        /* \"#utility.yul\":4821:4842   */\n      tag_321\n        /* \"#utility.yul\":4837:4841   */\n      0x80\n        /* \"#utility.yul\":4821:4842   */\n      tag_192\n      jump\t// in\n    tag_321:\n        /* \"#utility.yul\":4812:4842   */\n      swap1\n      pop\n        /* \"#utility.yul\":4901:4902   */\n      0x00\n        /* \"#utility.yul\":4941:4990   */\n      tag_322\n        /* \"#utility.yul\":4986:4989   */\n      dup5\n        /* \"#utility.yul\":4977:4983   */\n      dup3\n        /* \"#utility.yul\":4966:4975   */\n      dup6\n        /* \"#utility.yul\":4962:4984   */\n      add\n        /* \"#utility.yul\":4941:4990   */\n      tag_196\n      jump\t// in\n    tag_322:\n        /* \"#utility.yul\":4934:4938   */\n      0x00\n        /* \"#utility.yul\":4927:4932   */\n      dup4\n        /* \"#utility.yul\":4923:4939   */\n      add\n        /* \"#utility.yul\":4916:4991   */\n      mstore\n        /* \"#utility.yul\":4852:5002   */\n      pop\n        /* \"#utility.yul\":5065:5067   */\n      0x20\n        /* \"#utility.yul\":5106:5155   */\n      tag_323\n        /* \"#utility.yul\":5151:5154   */\n      dup5\n        /* \"#utility.yul\":5142:5148   */\n      dup3\n        /* \"#utility.yul\":5131:5140   */\n      dup6\n        /* \"#utility.yul\":5127:5149   */\n      add\n        /* \"#utility.yul\":5106:5155   */\n      tag_196\n      jump\t// in\n    tag_323:\n        /* \"#utility.yul\":5099:5103   */\n      0x20\n        /* \"#utility.yul\":5092:5097   */\n      dup4\n        /* \"#utility.yul\":5088:5104   */\n      add\n        /* \"#utility.yul\":5081:5156   */\n      mstore\n        /* \"#utility.yul\":5012:5167   */\n      pop\n        /* \"#utility.yul\":5230:5232   */\n      0x40\n        /* \"#utility.yul\":5271:5320   */\n      tag_324\n        /* \"#utility.yul\":5316:5319   */\n      dup5\n        /* \"#utility.yul\":5307:5313   */\n      dup3\n        /* \"#utility.yul\":5296:5305   */\n      dup6\n        /* \"#utility.yul\":5292:5314   */\n      add\n        /* \"#utility.yul\":5271:5320   */\n      tag_199\n      jump\t// in\n    tag_324:\n        /* \"#utility.yul\":5264:5268   */\n      0x40\n        /* \"#utility.yul\":5257:5262   */\n      dup4\n        /* \"#utility.yul\":5253:5269   */\n      add\n        /* \"#utility.yul\":5246:5321   */\n      mstore\n        /* \"#utility.yul\":5177:5332   */\n      pop\n        /* \"#utility.yul\":5422:5424   */\n      0x60\n        /* \"#utility.yul\":5411:5420   */\n      dup3\n        /* \"#utility.yul\":5407:5425   */\n      add\n        /* \"#utility.yul\":5394:5426   */\n      calldataload\n        /* \"#utility.yul\":5453:5471   */\n      0xffffffffffffffff\n        /* \"#utility.yul\":5445:5451   */\n      dup2\n        /* \"#utility.yul\":5442:5472   */\n      gt\n        /* \"#utility.yul\":5439:5556   */\n      iszero\n      tag_325\n      jumpi\n        /* \"#utility.yul\":5475:5554   */\n      tag_326\n      tag_193\n      jump\t// in\n    tag_326:\n        /* \"#utility.yul\":5439:5556   */\n    tag_325:\n        /* \"#utility.yul\":5595:5654   */\n      tag_327\n        /* \"#utility.yul\":5650:5653   */\n      dup5\n        /* \"#utility.yul\":5641:5647   */\n      dup3\n        /* \"#utility.yul\":5630:5639   */\n      dup6\n        /* \"#utility.yul\":5626:5648   */\n      add\n        /* \"#utility.yul\":5595:5654   */\n      tag_205\n      jump\t// in\n    tag_327:\n        /* \"#utility.yul\":5588:5592   */\n      0x60\n        /* \"#utility.yul\":5581:5586   */\n      dup4\n        /* \"#utility.yul\":5577:5593   */\n      add\n        /* \"#utility.yul\":5570:5655   */\n      mstore\n        /* \"#utility.yul\":5342:5666   */\n      pop\n        /* \"#utility.yul\":4599:5673   */\n      swap3\n      swap2\n      pop\n      pop\n      jump\t// out\n        /* \"#utility.yul\":5679:6212   */\n    tag_19:\n        /* \"#utility.yul\":5760:5766   */\n      0x00\n        /* \"#utility.yul\":5809:5811   */\n      0x20\n        /* \"#utility.yul\":5797:5806   */\n      dup3\n        /* \"#utility.yul\":5788:5795   */\n      dup5\n        /* \"#utility.yul\":5784:5807   */\n      sub\n        /* \"#utility.yul\":5780:5812   */\n      slt\n        /* \"#utility.yul\":5777:5896   */\n      iszero\n      tag_329\n      jumpi\n        /* \"#utility.yul\":5815:5894   */\n      tag_330\n      tag_186\n      jump\t// in\n    tag_330:\n        /* \"#utility.yul\":5777:5896   */\n    tag_329:\n        /* \"#utility.yul\":5963:5964   */\n      0x00\n        /* \"#utility.yul\":5952:5961   */\n      dup3\n        /* \"#utility.yul\":5948:5965   */\n      add\n        /* \"#utility.yul\":5935:5966   */\n      calldataload\n        /* \"#utility.yul\":5993:6011   */\n      0xffffffffffffffff\n        /* \"#utility.yul\":5985:5991   */\n      dup2\n        /* \"#utility.yul\":5982:6012   */\n      gt\n        /* \"#utility.yul\":5979:6096   */\n      iszero\n      tag_331\n      jumpi\n        /* \"#utility.yul\":6015:6094   */\n      tag_332\n      tag_187\n      jump\t// in\n    tag_332:\n        /* \"#utility.yul\":5979:6096   */\n    tag_331:\n        /* \"#utility.yul\":6120:6195   */\n      tag_333\n        /* \"#utility.yul\":6187:6194   */\n      dup5\n        /* \"#utility.yul\":6178:6184   */\n      dup3\n        /* \"#utility.yul\":6167:6176   */\n      dup6\n        /* \"#utility.yul\":6163:6185   */\n      add\n        /* \"#utility.yul\":6120:6195   */\n      tag_206\n      jump\t// in\n    tag_333:\n        /* \"#utility.yul\":6110:6195   */\n      swap2\n      pop\n        /* \"#utility.yul\":5906:6205   */\n      pop\n        /* \"#utility.yul\":5679:6212   */\n      swap3\n      swap2\n      pop\n      pop\n      jump\t// out\n        /* \"#utility.yul\":6218:6336   */\n    tag_207:\n        /* \"#utility.yul\":6305:6329   */\n      tag_335\n        /* \"#utility.yul\":6323:6328   */\n      dup2\n        /* \"#utility.yul\":6305:6329   */\n      tag_197\n      jump\t// in\n    tag_335:\n        /* \"#utility.yul\":6300:6303   */\n      dup3\n        /* \"#utility.yul\":6293:6330   */\n      mstore\n        /* \"#utility.yul\":6218:6336   */\n      pop\n      pop\n      jump\t// out\n        /* \"#utility.yul\":6342:6564   */\n    tag_22:\n        /* \"#utility.yul\":6435:6439   */\n      0x00\n        /* \"#utility.yul\":6473:6475   */\n      0x20\n        /* \"#utility.yul\":6462:6471   */\n      dup3\n        /* \"#utility.yul\":6458:6476   */\n      add\n        /* \"#utility.yul\":6450:6476   */\n      swap1\n      pop\n        /* \"#utility.yul\":6486:6557   */\n      tag_337\n        /* \"#utility.yul\":6554:6555   */\n      0x00\n        /* \"#utility.yul\":6543:6552   */\n      dup4\n        /* \"#utility.yul\":6539:6556   */\n      add\n        /* \"#utility.yul\":6530:6536   */\n      dup5\n        /* \"#utility.yul\":6486:6557   */\n      tag_207\n      jump\t// in\n    tag_337:\n        /* \"#utility.yul\":6342:6564   */\n      swap3\n      swap2\n      pop\n      pop\n      jump\t// out\n        /* \"#utility.yul\":6570:6711   */\n    tag_208:\n        /* \"#utility.yul\":6635:6644   */\n      0x00\n        /* \"#utility.yul\":6668:6705   */\n      tag_339\n        /* \"#utility.yul\":6699:6704   */\n      dup3\n        /* \"#utility.yul\":6668:6705   */\n      tag_182\n      jump\t// in\n    tag_339:\n        /* \"#utility.yul\":6655:6705   */\n      swap1\n      pop\n        /* \"#utility.yul\":6570:6711   */\n      swap2\n      swap1\n      pop\n      jump\t// out\n        /* \"#utility.yul\":6717:6878   */\n    tag_209:\n        /* \"#utility.yul\":6819:6871   */\n      tag_341\n        /* \"#utility.yul\":6865:6870   */\n      dup2\n        /* \"#utility.yul\":6819:6871   */\n      tag_208\n      jump\t// in\n    tag_341:\n        /* \"#utility.yul\":6814:6817   */\n      dup3\n        /* \"#utility.yul\":6807:6872   */\n      mstore\n        /* \"#utility.yul\":6717:6878   */\n      pop\n      pop\n      jump\t// out\n        /* \"#utility.yul\":6884:7136   */\n    tag_27:\n        /* \"#utility.yul\":6992:6996   */\n      0x00\n        /* \"#utility.yul\":7030:7032   */\n      0x20\n        /* \"#utility.yul\":7019:7028   */\n      dup3\n        /* \"#utility.yul\":7015:7033   */\n      add\n        /* \"#utility.yul\":7007:7033   */\n      swap1\n      pop\n        /* \"#utility.yul\":7043:7129   */\n      tag_343\n        /* \"#utility.yul\":7126:7127   */\n      0x00\n        /* \"#utility.yul\":7115:7124   */\n      dup4\n        /* \"#utility.yul\":7111:7128   */\n      add\n        /* \"#utility.yul\":7102:7108   */\n      dup5\n        /* \"#utility.yul\":7043:7129   */\n      tag_209\n      jump\t// in\n    tag_343:\n        /* \"#utility.yul\":6884:7136   */\n      swap3\n      swap2\n      pop\n      pop\n      jump\t// out\n        /* \"#utility.yul\":7142:7238   */\n    tag_210:\n        /* \"#utility.yul\":7179:7186   */\n      0x00\n        /* \"#utility.yul\":7208:7232   */\n      tag_345\n        /* \"#utility.yul\":7226:7231   */\n      dup3\n        /* \"#utility.yul\":7208:7232   */\n      tag_179\n      jump\t// in\n    tag_345:\n        /* \"#utility.yul\":7197:7232   */\n      swap1\n      pop\n        /* \"#utility.yul\":7142:7238   */\n      swap2\n      swap1\n      pop\n      jump\t// out\n        /* \"#utility.yul\":7244:7366   */\n    tag_211:\n        /* \"#utility.yul\":7317:7341   */\n      tag_347\n        /* \"#utility.yul\":7335:7340   */\n      dup2\n        /* \"#utility.yul\":7317:7341   */\n      tag_210\n      jump\t// in\n    tag_347:\n        /* \"#utility.yul\":7310:7315   */\n      dup2\n        /* \"#utility.yul\":7307:7342   */\n      eq\n        /* \"#utility.yul\":7297:7360   */\n      tag_348\n      jumpi\n        /* \"#utility.yul\":7356:7357   */\n      0x00\n        /* \"#utility.yul\":7353:7354   */\n      0x00\n        /* \"#utility.yul\":7346:7358   */\n      revert\n        /* \"#utility.yul\":7297:7360   */\n    tag_348:\n        /* \"#utility.yul\":7244:7366   */\n      pop\n      jump\t// out\n        /* \"#utility.yul\":7372:7511   */\n    tag_212:\n        /* \"#utility.yul\":7418:7423   */\n      0x00\n        /* \"#utility.yul\":7456:7462   */\n      dup2\n        /* \"#utility.yul\":7443:7463   */\n      calldataload\n        /* \"#utility.yul\":7434:7463   */\n      swap1\n      pop\n        /* \"#utility.yul\":7472:7505   */\n      tag_350\n        /* \"#utility.yul\":7499:7504   */\n      dup2\n        /* \"#utility.yul\":7472:7505   */\n      tag_211\n      jump\t// in\n    tag_350:\n        /* \"#utility.yul\":7372:7511   */\n      swap3\n      swap2\n      pop\n      pop\n      jump\t// out\n        /* \"#utility.yul\":7517:7846   */\n    tag_36:\n        /* \"#utility.yul\":7576:7582   */\n      0x00\n        /* \"#utility.yul\":7625:7627   */\n      0x20\n        /* \"#utility.yul\":7613:7622   */\n      dup3\n        /* \"#utility.yul\":7604:7611   */\n      dup5\n        /* \"#utility.yul\":7600:7623   */\n      sub\n        /* \"#utility.yul\":7596:7628   */\n      slt\n        /* \"#utility.yul\":7593:7712   */\n      iszero\n      tag_352\n      jumpi\n        /* \"#utility.yul\":7631:7710   */\n      tag_353\n      tag_186\n      jump\t// in\n    tag_353:\n        /* \"#utility.yul\":7593:7712   */\n    tag_352:\n        /* \"#utility.yul\":7751:7752   */\n      0x00\n        /* \"#utility.yul\":7776:7829   */\n      tag_354\n        /* \"#utility.yul\":7821:7828   */\n      dup5\n        /* \"#utility.yul\":7812:7818   */\n      dup3\n        /* \"#utility.yul\":7801:7810   */\n      dup6\n        /* \"#utility.yul\":7797:7819   */\n      add\n        /* \"#utility.yul\":7776:7829   */\n      tag_212\n      jump\t// in\n    tag_354:\n        /* \"#utility.yul\":7766:7829   */\n      swap2\n      pop\n        /* \"#utility.yul\":7722:7839   */\n      pop\n        /* \"#utility.yul\":7517:7846   */\n      swap3\n      swap2\n      pop\n      pop\n      jump\t// out\n        /* \"#utility.yul\":7852:7969   */\n    tag_213:\n        /* \"#utility.yul\":7961:7962   */\n      0x00\n        /* \"#utility.yul\":7958:7959   */\n      0x00\n        /* \"#utility.yul\":7951:7963   */\n      revert\n        /* \"#utility.yul\":7975:8092   */\n    tag_214:\n        /* \"#utility.yul\":8084:8085   */\n      0x00\n        /* \"#utility.yul\":8081:8082   */\n      0x00\n        /* \"#utility.yul\":8074:8086   */\n      revert\n        /* \"#utility.yul\":8112:8665   */\n    tag_215:\n        /* \"#utility.yul\":8170:8178   */\n      0x00\n        /* \"#utility.yul\":8180:8186   */\n      0x00\n        /* \"#utility.yul\":8230:8233   */\n      dup4\n        /* \"#utility.yul\":8223:8227   */\n      0x1f\n        /* \"#utility.yul\":8215:8221   */\n      dup5\n        /* \"#utility.yul\":8211:8228   */\n      add\n        /* \"#utility.yul\":8207:8234   */\n      slt\n        /* \"#utility.yul\":8197:8319   */\n      tag_358\n      jumpi\n        /* \"#utility.yul\":8238:8317   */\n      tag_359\n      tag_200\n      jump\t// in\n    tag_359:\n        /* \"#utility.yul\":8197:8319   */\n    tag_358:\n        /* \"#utility.yul\":8351:8357   */\n      dup3\n        /* \"#utility.yul\":8338:8358   */\n      calldataload\n        /* \"#utility.yul\":8328:8358   */\n      swap1\n      pop\n        /* \"#utility.yul\":8381:8399   */\n      0xffffffffffffffff\n        /* \"#utility.yul\":8373:8379   */\n      dup2\n        /* \"#utility.yul\":8370:8400   */\n      gt\n        /* \"#utility.yul\":8367:8484   */\n      iszero\n      tag_360\n      jumpi\n        /* \"#utility.yul\":8403:8482   */\n      tag_361\n      tag_213\n      jump\t// in\n    tag_361:\n        /* \"#utility.yul\":8367:8484   */\n    tag_360:\n        /* \"#utility.yul\":8517:8521   */\n      0x20\n        /* \"#utility.yul\":8509:8515   */\n      dup4\n        /* \"#utility.yul\":8505:8522   */\n      add\n        /* \"#utility.yul\":8493:8522   */\n      swap2\n      pop\n        /* \"#utility.yul\":8571:8574   */\n      dup4\n        /* \"#utility.yul\":8563:8567   */\n      0x01\n        /* \"#utility.yul\":8555:8561   */\n      dup3\n        /* \"#utility.yul\":8551:8568   */\n      mul\n        /* \"#utility.yul\":8541:8549   */\n      dup4\n        /* \"#utility.yul\":8537:8569   */\n      add\n        /* \"#utility.yul\":8534:8575   */\n      gt\n        /* \"#utility.yul\":8531:8659   */\n      iszero\n      tag_362\n      jumpi\n        /* \"#utility.yul\":8578:8657   */\n      tag_363\n      tag_214\n      jump\t// in\n    tag_363:\n        /* \"#utility.yul\":8531:8659   */\n    tag_362:\n        /* \"#utility.yul\":8112:8665   */\n      swap3\n      pop\n      swap3\n      swap1\n      pop\n      jump\t// out\n        /* \"#utility.yul\":8671:9200   */\n    tag_45:\n        /* \"#utility.yul\":8742:8748   */\n      0x00\n        /* \"#utility.yul\":8750:8756   */\n      0x00\n        /* \"#utility.yul\":8799:8801   */\n      0x20\n        /* \"#utility.yul\":8787:8796   */\n      dup4\n        /* \"#utility.yul\":8778:8785   */\n      dup6\n        /* \"#utility.yul\":8774:8797   */\n      sub\n        /* \"#utility.yul\":8770:8802   */\n      slt\n        /* \"#utility.yul\":8767:8886   */\n      iszero\n      tag_365\n      jumpi\n        /* \"#utility.yul\":8805:8884   */\n      tag_366\n      tag_186\n      jump\t// in\n    tag_366:\n        /* \"#utility.yul\":8767:8886   */\n    tag_365:\n        /* \"#utility.yul\":8953:8954   */\n      0x00\n        /* \"#utility.yul\":8942:8951   */\n      dup4\n        /* \"#utility.yul\":8938:8955   */\n      add\n        /* \"#utility.yul\":8925:8956   */\n      calldataload\n        /* \"#utility.yul\":8983:9001   */\n      0xffffffffffffffff\n        /* \"#utility.yul\":8975:8981   */\n      dup2\n        /* \"#utility.yul\":8972:9002   */\n      gt\n        /* \"#utility.yul\":8969:9086   */\n      iszero\n      tag_367\n      jumpi\n        /* \"#utility.yul\":9005:9084   */\n      tag_368\n      tag_187\n      jump\t// in\n    tag_368:\n        /* \"#utility.yul\":8969:9086   */\n    tag_367:\n        /* \"#utility.yul\":9118:9183   */\n      tag_369\n        /* \"#utility.yul\":9175:9182   */\n      dup6\n        /* \"#utility.yul\":9166:9172   */\n      dup3\n        /* \"#utility.yul\":9155:9164   */\n      dup7\n        /* \"#utility.yul\":9151:9173   */\n      add\n        /* \"#utility.yul\":9118:9183   */\n      tag_215\n      jump\t// in\n    tag_369:\n        /* \"#utility.yul\":9100:9183   */\n      swap3\n      pop\n      swap3\n      pop\n        /* \"#utility.yul\":8896:9193   */\n      pop\n        /* \"#utility.yul\":8671:9200   */\n      swap3\n      pop\n      swap3\n      swap1\n      pop\n      jump\t// out\n        /* \"#utility.yul\":9206:9386   */\n    tag_216:\n        /* \"#utility.yul\":9254:9331   */\n      0x4e487b7100000000000000000000000000000000000000000000000000000000\n        /* \"#utility.yul\":9251:9252   */\n      0x00\n        /* \"#utility.yul\":9244:9332   */\n      mstore\n        /* \"#utility.yul\":9351:9355   */\n      0x11\n        /* \"#utility.yul\":9348:9349   */\n      0x04\n        /* \"#utility.yul\":9341:9356   */\n      mstore\n        /* \"#utility.yul\":9375:9379   */\n      0x24\n        /* \"#utility.yul\":9372:9373   */\n      0x00\n        /* \"#utility.yul\":9365:9380   */\n      revert\n        /* \"#utility.yul\":9392:9586   */\n    tag_49:\n        /* \"#utility.yul\":9432:9436   */\n      0x00\n        /* \"#utility.yul\":9452:9472   */\n      tag_372\n        /* \"#utility.yul\":9470:9471   */\n      dup3\n        /* \"#utility.yul\":9452:9472   */\n      tag_197\n      jump\t// in\n    tag_372:\n        /* \"#utility.yul\":9447:9472   */\n      swap2\n      pop\n        /* \"#utility.yul\":9486:9506   */\n      tag_373\n        /* \"#utility.yul\":9504:9505   */\n      dup4\n        /* \"#utility.yul\":9486:9506   */\n      tag_197\n      jump\t// in\n    tag_373:\n        /* \"#utility.yul\":9481:9506   */\n      swap3\n      pop\n        /* \"#utility.yul\":9530:9531   */\n      dup3\n        /* \"#utility.yul\":9527:9528   */\n      dup3\n        /* \"#utility.yul\":9523:9532   */\n      sub\n        /* \"#utility.yul\":9515:9532   */\n      swap1\n      pop\n        /* \"#utility.yul\":9554:9555   */\n      dup2\n        /* \"#utility.yul\":9548:9552   */\n      dup2\n        /* \"#utility.yul\":9545:9556   */\n      gt\n        /* \"#utility.yul\":9542:9579   */\n      iszero\n      tag_374\n      jumpi\n        /* \"#utility.yul\":9559:9577   */\n      tag_375\n      tag_216\n      jump\t// in\n    tag_375:\n        /* \"#utility.yul\":9542:9579   */\n    tag_374:\n        /* \"#utility.yul\":9392:9586   */\n      swap3\n      swap2\n      pop\n      pop\n      jump\t// out\n        /* \"#utility.yul\":9592:9772   */\n    tag_52:\n        /* \"#utility.yul\":9640:9717   */\n      0x4e487b7100000000000000000000000000000000000000000000000000000000\n        /* \"#utility.yul\":9637:9638   */\n      0x00\n        /* \"#utility.yul\":9630:9718   */\n      mstore\n        /* \"#utility.yul\":9737:9741   */\n      0x32\n        /* \"#utility.yul\":9734:9735   */\n      0x04\n        /* \"#utility.yul\":9727:9742   */\n      mstore\n        /* \"#utility.yul\":9761:9765   */\n      0x24\n        /* \"#utility.yul\":9758:9759   */\n      0x00\n        /* \"#utility.yul\":9751:9766   */\n      revert\n        /* \"#utility.yul\":9778:9958   */\n    tag_217:\n        /* \"#utility.yul\":9826:9903   */\n      0x4e487b7100000000000000000000000000000000000000000000000000000000\n        /* \"#utility.yul\":9823:9824   */\n      0x00\n        /* \"#utility.yul\":9816:9904   */\n      mstore\n        /* \"#utility.yul\":9923:9927   */\n      0x22\n        /* \"#utility.yul\":9920:9921   */\n      0x04\n        /* \"#utility.yul\":9913:9928   */\n      mstore\n        /* \"#utility.yul\":9947:9951   */\n      0x24\n        /* \"#utility.yul\":9944:9945   */\n      0x00\n        /* \"#utility.yul\":9937:9952   */\n      revert\n        /* \"#utility.yul\":9964:10284   */\n    tag_55:\n        /* \"#utility.yul\":10008:10014   */\n      0x00\n        /* \"#utility.yul\":10045:10046   */\n      0x02\n        /* \"#utility.yul\":10039:10043   */\n      dup3\n        /* \"#utility.yul\":10035:10047   */\n      div\n        /* \"#utility.yul\":10025:10047   */\n      swap1\n      pop\n        /* \"#utility.yul\":10092:10093   */\n      0x01\n        /* \"#utility.yul\":10086:10090   */\n      dup3\n        /* \"#utility.yul\":10082:10094   */\n      and\n        /* \"#utility.yul\":10113:10131   */\n      dup1\n        /* \"#utility.yul\":10103:10184   */\n      tag_379\n      jumpi\n        /* \"#utility.yul\":10169:10173   */\n      0x7f\n        /* \"#utility.yul\":10161:10167   */\n      dup3\n        /* \"#utility.yul\":10157:10174   */\n      and\n        /* \"#utility.yul\":10147:10174   */\n      swap2\n      pop\n        /* \"#utility.yul\":10103:10184   */\n    tag_379:\n        /* \"#utility.yul\":10231:10233   */\n      0x20\n        /* \"#utility.yul\":10223:10229   */\n      dup3\n        /* \"#utility.yul\":10220:10234   */\n      lt\n        /* \"#utility.yul\":10200:10218   */\n      dup2\n        /* \"#utility.yul\":10197:10235   */\n      sub\n        /* \"#utility.yul\":10194:10278   */\n      tag_380\n      jumpi\n        /* \"#utility.yul\":10250:10268   */\n      tag_381\n      tag_217\n      jump\t// in\n    tag_381:\n        /* \"#utility.yul\":10194:10278   */\n    tag_380:\n        /* \"#utility.yul\":10015:10284   */\n      pop\n        /* \"#utility.yul\":9964:10284   */\n      swap2\n      swap1\n      pop\n      jump\t// out\n        /* \"#utility.yul\":10290:10700   */\n    tag_65:\n        /* \"#utility.yul\":10330:10337   */\n      0x00\n        /* \"#utility.yul\":10353:10373   */\n      tag_383\n        /* \"#utility.yul\":10371:10372   */\n      dup3\n        /* \"#utility.yul\":10353:10373   */\n      tag_197\n      jump\t// in\n    tag_383:\n        /* \"#utility.yul\":10348:10373   */\n      swap2\n      pop\n        /* \"#utility.yul\":10387:10407   */\n      tag_384\n        /* \"#utility.yul\":10405:10406   */\n      dup4\n        /* \"#utility.yul\":10387:10407   */\n      tag_197\n      jump\t// in\n    tag_384:\n        /* \"#utility.yul\":10382:10407   */\n      swap3\n      pop\n        /* \"#utility.yul\":10442:10443   */\n      dup3\n        /* \"#utility.yul\":10439:10440   */\n      dup3\n        /* \"#utility.yul\":10435:10444   */\n      mul\n        /* \"#utility.yul\":10464:10494   */\n      tag_385\n        /* \"#utility.yul\":10482:10493   */\n      dup2\n        /* \"#utility.yul\":10464:10494   */\n      tag_197\n      jump\t// in\n    tag_385:\n        /* \"#utility.yul\":10453:10494   */\n      swap2\n      pop\n        /* \"#utility.yul\":10643:10644   */\n      dup3\n        /* \"#utility.yul\":10634:10641   */\n      dup3\n        /* \"#utility.yul\":10630:10645   */\n      div\n        /* \"#utility.yul\":10627:10628   */\n      dup5\n        /* \"#utility.yul\":10624:10646   */\n      eq\n        /* \"#utility.yul\":10604:10605   */\n      dup4\n        /* \"#utility.yul\":10597:10606   */\n      iszero\n        /* \"#utility.yul\":10577:10660   */\n      or\n        /* \"#utility.yul\":10554:10693   */\n      tag_386\n      jumpi\n        /* \"#utility.yul\":10673:10691   */\n      tag_387\n      tag_216\n      jump\t// in\n    tag_387:\n        /* \"#utility.yul\":10554:10693   */\n    tag_386:\n        /* \"#utility.yul\":10338:10700   */\n      pop\n        /* \"#utility.yul\":10290:10700   */\n      swap3\n      swap2\n      pop\n      pop\n      jump\t// out\n        /* \"#utility.yul\":10706:10855   */\n    tag_218:\n        /* \"#utility.yul\":10755:10761   */\n      0x00\n        /* \"#utility.yul\":10789:10794   */\n      dup2\n        /* \"#utility.yul\":10783:10795   */\n      sload\n        /* \"#utility.yul\":10773:10795   */\n      swap1\n      pop\n        /* \"#utility.yul\":10815:10848   */\n      tag_389\n        /* \"#utility.yul\":10841:10847   */\n      dup2\n        /* \"#utility.yul\":10815:10848   */\n      tag_55\n      jump\t// in\n    tag_389:\n        /* \"#utility.yul\":10805:10848   */\n      swap1\n      pop\n        /* \"#utility.yul\":10706:10855   */\n      swap2\n      swap1\n      pop\n      jump\t// out\n        /* \"#utility.yul\":10861:11002   */\n    tag_219:\n        /* \"#utility.yul\":10910:10914   */\n      0x00\n        /* \"#utility.yul\":10933:10936   */\n      dup2\n        /* \"#utility.yul\":10925:10936   */\n      swap1\n      pop\n        /* \"#utility.yul\":10956:10959   */\n      dup2\n        /* \"#utility.yul\":10953:10954   */\n      0x00\n        /* \"#utility.yul\":10946:10960   */\n      mstore\n        /* \"#utility.yul\":10990:10994   */\n      0x20\n        /* \"#utility.yul\":10987:10988   */\n      0x00\n        /* \"#utility.yul\":10977:10995   */\n      keccak256\n        /* \"#utility.yul\":10969:10995   */\n      swap1\n      pop\n        /* \"#utility.yul\":10861:11002   */\n      swap2\n      swap1\n      pop\n      jump\t// out\n        /* \"#utility.yul\":11008:11101   */\n    tag_220:\n        /* \"#utility.yul\":11045:11051   */\n      0x00\n        /* \"#utility.yul\":11092:11094   */\n      0x20\n        /* \"#utility.yul\":11087:11089   */\n      0x1f\n        /* \"#utility.yul\":11080:11085   */\n      dup4\n        /* \"#utility.yul\":11076:11090   */\n      add\n        /* \"#utility.yul\":11072:11095   */\n      div\n        /* \"#utility.yul\":11062:11095   */\n      swap1\n      pop\n        /* \"#utility.yul\":11008:11101   */\n      swap2\n      swap1\n      pop\n      jump\t// out\n        /* \"#utility.yul\":11107:11214   */\n    tag_221:\n        /* \"#utility.yul\":11151:11159   */\n      0x00\n        /* \"#utility.yul\":11201:11206   */\n      dup3\n        /* \"#utility.yul\":11195:11199   */\n      dup3\n        /* \"#utility.yul\":11191:11207   */\n      shl\n        /* \"#utility.yul\":11170:11207   */\n      swap1\n      pop\n        /* \"#utility.yul\":11107:11214   */\n      swap3\n      swap2\n      pop\n      pop\n      jump\t// out\n        /* \"#utility.yul\":11220:11613   */\n    tag_222:\n        /* \"#utility.yul\":11289:11295   */\n      0x00\n        /* \"#utility.yul\":11339:11340   */\n      0x08\n        /* \"#utility.yul\":11327:11337   */\n      dup4\n        /* \"#utility.yul\":11323:11341   */\n      mul\n        /* \"#utility.yul\":11362:11459   */\n      tag_394\n        /* \"#utility.yul\":11392:11458   */\n      0xffffffffffffffffffffffffffffffffffffffffffffffffffffffffffffffff\n        /* \"#utility.yul\":11381:11390   */\n      dup3\n        /* \"#utility.yul\":11362:11459   */\n      tag_221\n      jump\t// in\n    tag_394:\n        /* \"#utility.yul\":11480:11519   */\n      tag_395\n        /* \"#utility.yul\":11510:11518   */\n      dup7\n        /* \"#utility.yul\":11499:11508   */\n      dup4\n        /* \"#utility.yul\":11480:11519   */\n      tag_221\n      jump\t// in\n    tag_395:\n        /* \"#utility.yul\":11468:11519   */\n      swap6\n      pop\n        /* \"#utility.yul\":11552:11556   */\n      dup1\n        /* \"#utility.yul\":11548:11557   */\n      not\n        /* \"#utility.yul\":11541:11546   */\n      dup5\n        /* \"#utility.yul\":11537:11558   */\n      and\n        /* \"#utility.yul\":11528:11558   */\n      swap4\n      pop\n        /* \"#utility.yul\":11601:11605   */\n      dup1\n        /* \"#utility.yul\":11591:11599   */\n      dup7\n        /* \"#utility.yul\":11587:11606   */\n      and\n        /* \"#utility.yul\":11580:11585   */\n      dup5\n        /* \"#utility.yul\":11577:11607   */\n      or\n        /* \"#utility.yul\":11567:11607   */\n      swap3\n      pop\n        /* \"#utility.yul\":11296:11613   */\n      pop\n      pop\n        /* \"#utility.yul\":11220:11613   */\n      swap4\n      swap3\n      pop\n      pop\n      pop\n      jump\t// out\n        /* \"#utility.yul\":11619:11761   */\n    tag_223:\n        /* \"#utility.yul\":11669:11678   */\n      0x00\n        /* \"#utility.yul\":11702:11755   */\n      tag_397\n        /* \"#utility.yul\":11720:11754   */\n      tag_398\n        /* \"#utility.yul\":11729:11753   */\n      tag_399\n        /* \"#utility.yul\":11747:11752   */\n      dup5\n        /* \"#utility.yul\":11729:11753   */\n      tag_197\n      jump\t// in\n    tag_399:\n        /* \"#utility.yul\":11720:11754   */\n      tag_180\n      jump\t// in\n    tag_398:\n        /* \"#utility.yul\":11702:11755   */\n      tag_197\n      jump\t// in\n    tag_397:\n        /* \"#utility.yul\":11689:11755   */\n      swap1\n      pop\n        /* \"#utility.yul\":11619:11761   */\n      swap2\n      swap1\n      pop\n      jump\t// out\n        /* \"#utility.yul\":11767:11842   */\n    tag_224:\n        /* \"#utility.yul\":11810:11813   */\n      0x00\n        /* \"#utility.yul\":11831:11836   */\n      dup2\n        /* \"#utility.yul\":11824:11836   */\n      swap1\n      pop\n        /* \"#utility.yul\":11767:11842   */\n      swap2\n      swap1\n      pop\n      jump\t// out\n        /* \"#utility.yul\":11848:12117   */\n    tag_225:\n        /* \"#utility.yul\":11958:11997   */\n      tag_402\n        /* \"#utility.yul\":11989:11996   */\n      dup4\n        /* \"#utility.yul\":11958:11997   */\n      tag_223\n      jump\t// in\n    tag_402:\n        /* \"#utility.yul\":12019:12110   */\n      tag_403\n        /* \"#utility.yul\":12068:12109   */\n      tag_404\n        /* \"#utility.yul\":12092:12108   */\n      dup3\n        /* \"#utility.yul\":12068:12109   */\n      tag_224\n      jump\t// in\n    tag_404:\n        /* \"#utility.yul\":12060:12066   */\n      dup5\n        /* \"#utility.yul\":12053:12057   */\n      dup5\n        /* \"#utility.yul\":12047:12058   */\n      sload\n        /* \"#utility.yul\":12019:12110   */\n      tag_222\n      jump\t// in\n    tag_403:\n        /* \"#utility.yul\":12013:12017   */\n      dup3\n        /* \"#utility.yul\":12006:12111   */\n      sstore\n        /* \"#utility.yul\":11924:12117   */\n      pop\n        /* \"#utility.yul\":11848:12117   */\n      pop\n      pop\n      pop\n      jump\t// out\n        /* \"#utility.yul\":12123:12196   */\n    tag_226:\n        /* \"#utility.yul\":12168:12171   */\n      0x00\n        /* \"#utility.yul\":12189:12190   */\n      0x00\n        /* \"#utility.yul\":12182:12190   */\n      swap1\n      pop\n        /* \"#utility.yul\":12123:12196   */\n      swap1\n      jump\t// out\n        /* \"#utility.yul\":12202:12391   */\n    tag_227:\n        /* \"#utility.yul\":12279:12311   */\n      tag_407\n      tag_226\n      jump\t// in\n    tag_407:\n        /* \"#utility.yul\":12320:12385   */\n      tag_408\n        /* \"#utility.yul\":12378:12384   */\n      dup2\n        /* \"#utility.yul\":12370:12376   */\n      dup5\n        /* \"#utility.yul\":12364:12368   */\n      dup5\n        /* \"#utility.yul\":12320:12385   */\n      tag_225\n      jump\t// in\n    tag_408:\n        /* \"#utility.yul\":12255:12391   */\n      pop\n        /* \"#utility.yul\":12202:12391   */\n      pop\n      pop\n      jump\t// out\n        /* \"#utility.yul\":12397:12583   */\n    tag_228:\n        /* \"#utility.yul\":12457:12577   */\n    tag_410:\n        /* \"#utility.yul\":12474:12477   */\n      dup2\n        /* \"#utility.yul\":12467:12472   */\n      dup2\n        /* \"#utility.yul\":12464:12478   */\n      lt\n        /* \"#utility.yul\":12457:12577   */\n      iszero\n      tag_412\n      jumpi\n        /* \"#utility.yul\":12528:12567   */\n      tag_413\n        /* \"#utility.yul\":12565:12566   */\n      0x00\n        /* \"#utility.yul\":12558:12563   */\n      dup3\n        /* \"#utility.yul\":12528:12567   */\n      tag_227\n      jump\t// in\n    tag_413:\n        /* \"#utility.yul\":12501:12502   */\n      0x01\n        /* \"#utility.yul\":12494:12499   */\n      dup2\n        /* \"#utility.yul\":12490:12503   */\n      add\n        /* \"#utility.yul\":12481:12503   */\n      swap1\n      pop\n        /* \"#utility.yul\":12457:12577   */\n      jump(tag_410)\n    tag_412:\n        /* \"#utility.yul\":12397:12583   */\n      pop\n      pop\n      jump\t// out\n        /* \"#utility.yul\":12589:13132   */\n    tag_229:\n        /* \"#utility.yul\":12690:12692   */\n      0x1f\n        /* \"#utility.yul\":12685:12688   */\n      dup3\n        /* \"#utility.yul\":12682:12693   */\n      gt\n        /* \"#utility.yul\":12679:13125   */\n      iszero\n      tag_415\n      jumpi\n        /* \"#utility.yul\":12724:12762   */\n      tag_416\n        /* \"#utility.yul\":12756:12761   */\n      dup2\n        /* \"#utility.yul\":12724:12762   */\n      tag_219\n      jump\t// in\n    tag_416:\n        /* \"#utility.yul\":12808:12837   */\n      tag_417\n        /* \"#utility.yul\":12826:12836   */\n      dup5\n        /* \"#utility.yul\":12808:12837   */\n      tag_220\n      jump\t// in\n    tag_417:\n        /* \"#utility.yul\":12798:12806   */\n      dup2\n        /* \"#utility.yul\":12794:12838   */\n      add\n        /* \"#utility.yul\":12991:12993   */\n      0x20\n        /* \"#utility.yul\":12979:12989   */\n      dup6\n        /* \"#utility.yul\":12976:12994   */\n      lt\n        /* \"#utility.yul\":12973:13022   */\n      iszero\n      tag_418\n      jumpi\n        /* \"#utility.yul\":13012:13020   */\n      dup2\n        /* \"#utility.yul\":12997:13020   */\n      swap1\n      pop\n        /* \"#utility.yul\":12973:13022   */\n    tag_418:\n        /* \"#utility.yul\":13035:13115   */\n      tag_419\n        /* \"#utility.yul\":13091:13113   */\n      tag_420\n        /* \"#utility.yul\":13109:13112   */\n      dup6\n        /* \"#utility.yul\":13091:13113   */\n      tag_220\n      jump\t// in\n    tag_420:\n        /* \"#utility.yul\":13081:13089   */\n      dup4\n        /* \"#utility.yul\":13077:13114   */\n      add\n        /* \"#utility.yul\":13064:13075   */\n      dup3\n        /* \"#utility.yul\":13035:13115   */\n      tag_228\n      jump\t// in\n    tag_419:\n        /* \"#utility.yul\":12694:13125   */\n      pop\n      pop\n        /* \"#utility.yul\":12679:13125   */\n    tag_415:\n        /* \"#utility.yul\":12589:13132   */\n      pop\n      pop\n      pop\n      jump\t// out\n        /* \"#utility.yul\":13138:13255   */\n    tag_230:\n        /* \"#utility.yul\":13192:13200   */\n      0x00\n        /* \"#utility.yul\":13242:13247   */\n      dup3\n        /* \"#utility.yul\":13236:13240   */\n      dup3\n        /* \"#utility.yul\":13232:13248   */\n      shr\n        /* \"#utility.yul\":13211:13248   */\n      swap1\n      pop\n        /* \"#utility.yul\":13138:13255   */\n      swap3\n      swap2\n      pop\n      pop\n      jump\t// out\n        /* \"#utility.yul\":13261:13430   */\n    tag_231:\n        /* \"#utility.yul\":13305:13311   */\n      0x00\n        /* \"#utility.yul\":13338:13389   */\n      tag_423\n        /* \"#utility.yul\":13386:13387   */\n      0x00\n        /* \"#utility.yul\":13382:13388   */\n      not\n        /* \"#utility.yul\":13374:13379   */\n      dup5\n        /* \"#utility.yul\":13371:13372   */\n      0x08\n        /* \"#utility.yul\":13367:13380   */\n      mul\n        /* \"#utility.yul\":13338:13389   */\n      tag_230\n      jump\t// in\n    tag_423:\n        /* \"#utility.yul\":13334:13390   */\n      not\n        /* \"#utility.yul\":13419:13423   */\n      dup1\n        /* \"#utility.yul\":13413:13417   */\n      dup4\n        /* \"#utility.yul\":13409:13424   */\n      and\n        /* \"#utility.yul\":13399:13424   */\n      swap2\n      pop\n        /* \"#utility.yul\":13312:13430   */\n      pop\n        /* \"#utility.yul\":13261:13430   */\n      swap3\n      swap2\n      pop\n      pop\n      jump\t// out\n        /* \"#utility.yul\":13435:13730   */\n    tag_232:\n        /* \"#utility.yul\":13511:13515   */\n      0x00\n        /* \"#utility.yul\":13657:13686   */\n      tag_425\n        /* \"#utility.yul\":13682:13685   */\n      dup4\n        /* \"#utility.yul\":13676:13680   */\n      dup4\n        /* \"#utility.yul\":13657:13686   */\n      tag_231\n      jump\t// in\n    tag_425:\n        /* \"#utility.yul\":13649:13686   */\n      swap2\n      pop\n        /* \"#utility.yul\":13719:13722   */\n      dup3\n        /* \"#utility.yul\":13716:13717   */\n      0x02\n        /* \"#utility.yul\":13712:13723   */\n      mul\n        /* \"#utility.yul\":13706:13710   */\n      dup3\n        /* \"#utility.yul\":13703:13724   */\n      or\n        /* \"#utility.yul\":13695:13724   */\n      swap1\n      pop\n        /* \"#utility.yul\":13435:13730   */\n      swap3\n      swap2\n      pop\n      pop\n      jump\t// out\n        /* \"#utility.yul\":13735:15186   */\n    tag_70:\n        /* \"#utility.yul\":13846:13849   */\n      dup2\n        /* \"#utility.yul\":13840:13844   */\n      dup2\n        /* \"#utility.yul\":13837:13850   */\n      sub\n        /* \"#utility.yul\":13834:13860   */\n      tag_427\n      jumpi\n        /* \"#utility.yul\":13853:13858   */\n      pop\n      pop\n      jump(tag_426)\n        /* \"#utility.yul\":13834:13860   */\n    tag_427:\n        /* \"#utility.yul\":13884:13918   */\n      tag_428\n        /* \"#utility.yul\":13914:13917   */\n      dup3\n        /* \"#utility.yul\":13884:13918   */\n      tag_218\n      jump\t// in\n    tag_428:\n        /* \"#utility.yul\":13983:14001   */\n      0xffffffffffffffff\n        /* \"#utility.yul\":13975:13981   */\n      dup2\n        /* \"#utility.yul\":13972:14002   */\n      gt\n        /* \"#utility.yul\":13969:14025   */\n      iszero\n      tag_429\n      jumpi\n        /* \"#utility.yul\":14005:14023   */\n      tag_430\n      tag_190\n      jump\t// in\n    tag_430:\n        /* \"#utility.yul\":13969:14025   */\n    tag_429:\n        /* \"#utility.yul\":14049:14087   */\n      tag_431\n        /* \"#utility.yul\":14081:14085   */\n      dup3\n        /* \"#utility.yul\":14075:14086   */\n      sload\n        /* \"#utility.yul\":14049:14087   */\n      tag_55\n      jump\t// in\n    tag_431:\n        /* \"#utility.yul\":14134:14201   */\n      tag_432\n        /* \"#utility.yul\":14194:14200   */\n      dup3\n        /* \"#utility.yul\":14186:14192   */\n      dup3\n        /* \"#utility.yul\":14180:14184   */\n      dup6\n        /* \"#utility.yul\":14134:14201   */\n      tag_229\n      jump\t// in\n    tag_432:\n        /* \"#utility.yul\":14228:14229   */\n      0x00\n        /* \"#utility.yul\":14257:14259   */\n      0x1f\n        /* \"#utility.yul\":14249:14255   */\n      dup4\n        /* \"#utility.yul\":14246:14260   */\n      gt\n        /* \"#utility.yul\":14274:14275   */\n      0x01\n        /* \"#utility.yul\":14269:14941   */\n      dup2\n      eq\n      tag_434\n      jumpi\n        /* \"#utility.yul\":14985:14986   */\n      0x00\n        /* \"#utility.yul\":15002:15008   */\n      dup5\n        /* \"#utility.yul\":14999:15076   */\n      iszero\n      tag_435\n      jumpi\n        /* \"#utility.yul\":15051:15060   */\n      dup3\n        /* \"#utility.yul\":15046:15049   */\n      dup8\n        /* \"#utility.yul\":15042:15061   */\n      add\n        /* \"#utility.yul\":15036:15062   */\n      sload\n        /* \"#utility.yul\":15027:15062   */\n      swap1\n      pop\n        /* \"#utility.yul\":14999:15076   */\n    tag_435:\n        /* \"#utility.yul\":15102:15169   */\n      tag_436\n        /* \"#utility.yul\":15162:15168   */\n      dup6\n        /* \"#utility.yul\":15155:15160   */\n      dup3\n        /* \"#utility.yul\":15102:15169   */\n      tag_232\n      jump\t// in\n    tag_436:\n        /* \"#utility.yul\":15096:15100   */\n      dup7\n        /* \"#utility.yul\":15089:15170   */\n      sstore\n        /* \"#utility.yul\":14958:15180   */\n      pop\n        /* \"#utility.yul\":14239:15180   */\n      jump(tag_433)\n        /* \"#utility.yul\":14269:14941   */\n    tag_434:\n        /* \"#utility.yul\":14321:14325   */\n      0x1f\n        /* \"#utility.yul\":14317:14326   */\n      not\n        /* \"#utility.yul\":14309:14315   */\n      dup5\n        /* \"#utility.yul\":14305:14327   */\n      and\n        /* \"#utility.yul\":14347:14383   */\n      tag_437\n        /* \"#utility.yul\":14379:14382   */\n      dup8\n        /* \"#utility.yul\":14347:14383   */\n      tag_219\n      jump\t// in\n    tag_437:\n        /* \"#utility.yul\":14340:14383   */\n      swap7\n      pop\n        /* \"#utility.yul\":14410:14447   */\n      tag_438\n        /* \"#utility.yul\":14442:14446   */\n      dup7\n        /* \"#utility.yul\":14410:14447   */\n      tag_219\n      jump\t// in\n    tag_438:\n        /* \"#utility.yul\":14469:14470   */\n      0x00\n        /* \"#utility.yul\":14483:14690   */\n    tag_439:\n        /* \"#utility.yul\":14497:14504   */\n      dup3\n        /* \"#utility.yul\":14494:14495   */\n      dup2\n        /* \"#utility.yul\":14491:14505   */\n      lt\n        /* \"#utility.yul\":14483:14690   */\n      iszero\n      tag_441\n      jumpi\n        /* \"#utility.yul\":14576:14585   */\n      dup5\n        /* \"#utility.yul\":14571:14574   */\n      dup10\n        /* \"#utility.yul\":14567:14586   */\n      add\n        /* \"#utility.yul\":14561:14587   */\n      sload\n        /* \"#utility.yul\":14553:14559   */\n      dup3\n        /* \"#utility.yul\":14546:14588   */\n      sstore\n        /* \"#utility.yul\":14627:14628   */\n      0x01\n        /* \"#utility.yul\":14619:14625   */\n      dup3\n        /* \"#utility.yul\":14615:14629   */\n      add\n        /* \"#utility.yul\":14605:14629   */\n      swap2\n      pop\n        /* \"#utility.yul\":14674:14675   */\n      0x01\n        /* \"#utility.yul\":14663:14672   */\n      dup6\n        /* \"#utility.yul\":14659:14676   */\n      add\n        /* \"#utility.yul\":14646:14676   */\n      swap5\n      pop\n        /* \"#utility.yul\":14520:14524   */\n      0x20\n        /* \"#utility.yul\":14517:14518   */\n      dup2\n        /* \"#utility.yul\":14513:14525   */\n      add\n        /* \"#utility.yul\":14508:14525   */\n      swap1\n      pop\n        /* \"#utility.yul\":14483:14690   */\n      jump(tag_439)\n    tag_441:\n        /* \"#utility.yul\":14718:14724   */\n      dup7\n        /* \"#utility.yul\":14709:14716   */\n      dup4\n        /* \"#utility.yul\":14706:14725   */\n      lt\n        /* \"#utility.yul\":14703:14882   */\n      iszero\n      tag_442\n      jumpi\n        /* \"#utility.yul\":14776:14785   */\n      dup5\n        /* \"#utility.yul\":14771:14774   */\n      dup10\n        /* \"#utility.yul\":14767:14786   */\n      add\n        /* \"#utility.yul\":14761:14787   */\n      sload\n        /* \"#utility.yul\":14819:14867   */\n      tag_443\n        /* \"#utility.yul\":14861:14865   */\n      0x1f\n        /* \"#utility.yul\":14853:14859   */\n      dup10\n        /* \"#utility.yul\":14849:14866   */\n      and\n        /* \"#utility.yul\":14838:14847   */\n      dup3\n        /* \"#utility.yul\":14819:14867   */\n      tag_231\n      jump\t// in\n    tag_443:\n        /* \"#utility.yul\":14811:14817   */\n      dup4\n        /* \"#utility.yul\":14804:14868   */\n      sstore\n        /* \"#utility.yul\":14726:14882   */\n      pop\n        /* \"#utility.yul\":14703:14882   */\n    tag_442:\n        /* \"#utility.yul\":14928:14929   */\n      0x01\n        /* \"#utility.yul\":14924:14925   */\n      0x02\n        /* \"#utility.yul\":14916:14922   */\n      dup9\n        /* \"#utility.yul\":14912:14926   */\n      mul\n        /* \"#utility.yul\":14908:14930   */\n      add\n        /* \"#utility.yul\":14902:14906   */\n      dup9\n        /* \"#utility.yul\":14895:14931   */\n      sstore\n        /* \"#utility.yul\":14276:14941   */\n      pop\n      pop\n      pop\n        /* \"#utility.yul\":14239:15180   */\n    tag_433:\n      pop\n        /* \"#utility.yul\":13824:15186   */\n      pop\n      pop\n      pop\n        /* \"#utility.yul\":13735:15186   */\n      pop\n      pop\n    tag_426:\n      jump\t// out\n        /* \"#utility.yul\":15192:15425   */\n    tag_72:\n        /* \"#utility.yul\":15231:15234   */\n      0x00\n        /* \"#utility.yul\":15254:15278   */\n      tag_445\n        /* \"#utility.yul\":15272:15277   */\n      dup3\n        /* \"#utility.yul\":15254:15278   */\n      tag_197\n      jump\t// in\n    tag_445:\n        /* \"#utility.yul\":15245:15278   */\n      swap2\n      pop\n        /* \"#utility.yul\":15300:15366   */\n      0xffffffffffffffffffffffffffffffffffffffffffffffffffffffffffffffff\n        /* \"#utility.yul\":15293:15298   */\n      dup3\n        /* \"#utility.yul\":15290:15367   */\n      sub\n        /* \"#utility.yul\":15287:15390   */\n      tag_446\n      jumpi\n        /* \"#utility.yul\":15370:15388   */\n      tag_447\n      tag_216\n      jump\t// in\n    tag_447:\n        /* \"#utility.yul\":15287:15390   */\n    tag_446:\n        /* \"#utility.yul\":15417:15418   */\n      0x01\n        /* \"#utility.yul\":15410:15415   */\n      dup3\n        /* \"#utility.yul\":15406:15419   */\n      add\n        /* \"#utility.yul\":15399:15419   */\n      swap1\n      pop\n        /* \"#utility.yul\":15192:15425   */\n      swap2\n      swap1\n      pop\n      jump\t// out\n        /* \"#utility.yul\":15431:15574   */\n    tag_233:\n        /* \"#utility.yul\":15488:15493   */\n      0x00\n        /* \"#utility.yul\":15519:15525   */\n      dup2\n        /* \"#utility.yul\":15513:15526   */\n      mload\n        /* \"#utility.yul\":15504:15526   */\n      swap1\n      pop\n        /* \"#utility.yul\":15535:15568   */\n      tag_449\n        /* \"#utility.yul\":15562:15567   */\n      dup2\n        /* \"#utility.yul\":15535:15568   */\n      tag_211\n      jump\t// in\n    tag_449:\n        /* \"#utility.yul\":15431:15574   */\n      swap3\n      swap2\n      pop\n      pop\n      jump\t// out\n        /* \"#utility.yul\":15580:15931   */\n    tag_76:\n        /* \"#utility.yul\":15650:15656   */\n      0x00\n        /* \"#utility.yul\":15699:15701   */\n      0x20\n        /* \"#utility.yul\":15687:15696   */\n      dup3\n        /* \"#utility.yul\":15678:15685   */\n      dup5\n        /* \"#utility.yul\":15674:15697   */\n      sub\n        /* \"#utility.yul\":15670:15702   */\n      slt\n        /* \"#utility.yul\":15667:15786   */\n      iszero\n      tag_451\n      jumpi\n        /* \"#utility.yul\":15705:15784   */\n      tag_452\n      tag_186\n      jump\t// in\n    tag_452:\n        /* \"#utility.yul\":15667:15786   */\n    tag_451:\n        /* \"#utility.yul\":15825:15826   */\n      0x00\n        /* \"#utility.yul\":15850:15914   */\n      tag_453\n        /* \"#utility.yul\":15906:15913   */\n      dup5\n        /* \"#utility.yul\":15897:15903   */\n      dup3\n        /* \"#utility.yul\":15886:15895   */\n      dup6\n        /* \"#utility.yul\":15882:15904   */\n      add\n        /* \"#utility.yul\":15850:15914   */\n      tag_233\n      jump\t// in\n    tag_453:\n        /* \"#utility.yul\":15840:15914   */\n      swap2\n      pop\n        /* \"#utility.yul\":15796:15924   */\n      pop\n        /* \"#utility.yul\":15580:15931   */\n      swap3\n      swap2\n      pop\n      pop\n      jump\t// out\n        /* \"#utility.yul\":15937:16055   */\n    tag_234:\n        /* \"#utility.yul\":16024:16048   */\n      tag_455\n        /* \"#utility.yul\":16042:16047   */\n      dup2\n        /* \"#utility.yul\":16024:16048   */\n      tag_210\n      jump\t// in\n    tag_455:\n        /* \"#utility.yul\":16019:16022   */\n      dup3\n        /* \"#utility.yul\":16012:16049   */\n      mstore\n        /* \"#utility.yul\":15937:16055   */\n      pop\n      pop\n      jump\t// out\n        /* \"#utility.yul\":16061:16283   */\n    tag_78:\n        /* \"#utility.yul\":16154:16158   */\n      0x00\n        /* \"#utility.yul\":16192:16194   */\n      0x20\n        /* \"#utility.yul\":16181:16190   */\n      dup3\n        /* \"#utility.yul\":16177:16195   */\n      add\n        /* \"#utility.yul\":16169:16195   */\n      swap1\n      pop\n        /* \"#utility.yul\":16205:16276   */\n      tag_457\n        /* \"#utility.yul\":16273:16274   */\n      0x00\n        /* \"#utility.yul\":16262:16271   */\n      dup4\n        /* \"#utility.yul\":16258:16275   */\n      add\n        /* \"#utility.yul\":16249:16255   */\n      dup5\n        /* \"#utility.yul\":16205:16276   */\n      tag_234\n      jump\t// in\n    tag_457:\n        /* \"#utility.yul\":16061:16283   */\n      swap3\n      swap2\n      pop\n      pop\n      jump\t// out\n        /* \"#utility.yul\":16289:16391   */\n    tag_235:\n        /* \"#utility.yul\":16331:16339   */\n      0x00\n        /* \"#utility.yul\":16378:16383   */\n      dup2\n        /* \"#utility.yul\":16375:16376   */\n      0x00\n        /* \"#utility.yul\":16371:16384   */\n      shr\n        /* \"#utility.yul\":16350:16384   */\n      swap1\n      pop\n        /* \"#utility.yul\":16289:16391   */\n      swap2\n      swap1\n      pop\n      jump\t// out\n        /* \"#utility.yul\":16397:16487   */\n    tag_236:\n        /* \"#utility.yul\":16447:16454   */\n      0x00\n        /* \"#utility.yul\":16476:16481   */\n      dup2\n        /* \"#utility.yul\":16465:16481   */\n      swap1\n      pop\n        /* \"#utility.yul\":16397:16487   */\n      swap2\n      swap1\n      pop\n      jump\t// out\n        /* \"#utility.yul\":16493:16660   */\n    tag_237:\n        /* \"#utility.yul\":16563:16568   */\n      0x00\n        /* \"#utility.yul\":16588:16654   */\n      tag_461\n        /* \"#utility.yul\":16619:16653   */\n      tag_462\n        /* \"#utility.yul\":16642:16652   */\n      dup4\n        /* \"#utility.yul\":16619:16653   */\n      tag_235\n      jump\t// in\n    tag_462:\n        /* \"#utility.yul\":16588:16654   */\n      tag_236\n      jump\t// in\n    tag_461:\n        /* \"#utility.yul\":16579:16654   */\n      swap1\n      pop\n        /* \"#utility.yul\":16493:16660   */\n      swap2\n      swap1\n      pop\n      jump\t// out\n        /* \"#utility.yul\":16666:16774   */\n    tag_238:\n        /* \"#utility.yul\":16743:16767   */\n      tag_464\n        /* \"#utility.yul\":16761:16766   */\n      dup2\n        /* \"#utility.yul\":16743:16767   */\n      tag_194\n      jump\t// in\n    tag_464:\n        /* \"#utility.yul\":16738:16741   */\n      dup3\n        /* \"#utility.yul\":16731:16768   */\n      mstore\n        /* \"#utility.yul\":16666:16774   */\n      pop\n      pop\n      jump\t// out\n        /* \"#utility.yul\":16780:16870   */\n    tag_239:\n        /* \"#utility.yul\":16830:16837   */\n      0x00\n        /* \"#utility.yul\":16859:16864   */\n      dup2\n        /* \"#utility.yul\":16848:16864   */\n      swap1\n      pop\n        /* \"#utility.yul\":16780:16870   */\n      swap2\n      swap1\n      pop\n      jump\t// out\n        /* \"#utility.yul\":16876:17043   */\n    tag_240:\n        /* \"#utility.yul\":16946:16951   */\n      0x00\n        /* \"#utility.yul\":16971:17037   */\n      tag_467\n        /* \"#utility.yul\":17002:17036   */\n      tag_468\n        /* \"#utility.yul\":17025:17035   */\n      dup4\n        /* \"#utility.yul\":17002:17036   */\n      tag_235\n      jump\t// in\n    tag_468:\n        /* \"#utility.yul\":16971:17037   */\n      tag_239\n      jump\t// in\n    tag_467:\n        /* \"#utility.yul\":16962:17037   */\n      swap1\n      pop\n        /* \"#utility.yul\":16876:17043   */\n      swap2\n      swap1\n      pop\n      jump\t// out\n        /* \"#utility.yul\":17049:17157   */\n    tag_241:\n        /* \"#utility.yul\":17126:17150   */\n      tag_470\n        /* \"#utility.yul\":17144:17149   */\n      dup2\n        /* \"#utility.yul\":17126:17150   */\n      tag_197\n      jump\t// in\n    tag_470:\n        /* \"#utility.yul\":17121:17124   */\n      dup3\n        /* \"#utility.yul\":17114:17151   */\n      mstore\n        /* \"#utility.yul\":17049:17157   */\n      pop\n      pop\n      jump\t// out\n        /* \"#utility.yul\":17163:17322   */\n    tag_242:\n        /* \"#utility.yul\":17237:17248   */\n      0x00\n        /* \"#utility.yul\":17271:17277   */\n      dup3\n        /* \"#utility.yul\":17266:17269   */\n      dup3\n        /* \"#utility.yul\":17259:17278   */\n      mstore\n        /* \"#utility.yul\":17311:17315   */\n      0x20\n        /* \"#utility.yul\":17306:17309   */\n      dup3\n        /* \"#utility.yul\":17302:17316   */\n      add\n        /* \"#utility.yul\":17287:17316   */\n      swap1\n      pop\n        /* \"#utility.yul\":17163:17322   */\n      swap3\n      swap2\n      pop\n      pop\n      jump\t// out\n        /* \"#utility.yul\":17352:18163   */\n    tag_243:\n        /* \"#utility.yul\":17427:17430   */\n      0x00\n        /* \"#utility.yul\":17464:17469   */\n      dup2\n        /* \"#utility.yul\":17458:17470   */\n      sload\n        /* \"#utility.yul\":17493:17529   */\n      tag_473\n        /* \"#utility.yul\":17519:17528   */\n      dup2\n        /* \"#utility.yul\":17493:17529   */\n      tag_55\n      jump\t// in\n    tag_473:\n        /* \"#utility.yul\":17545:17606   */\n      tag_474\n        /* \"#utility.yul\":17599:17605   */\n      dup2\n        /* \"#utility.yul\":17594:17597   */\n      dup7\n        /* \"#utility.yul\":17545:17606   */\n      tag_242\n      jump\t// in\n    tag_474:\n        /* \"#utility.yul\":17538:17606   */\n      swap5\n      pop\n        /* \"#utility.yul\":17637:17638   */\n      0x01\n        /* \"#utility.yul\":17626:17635   */\n      dup3\n        /* \"#utility.yul\":17622:17639   */\n      and\n        /* \"#utility.yul\":17653:17654   */\n      0x00\n        /* \"#utility.yul\":17648:17812   */\n      dup2\n      eq\n      tag_476\n      jumpi\n        /* \"#utility.yul\":17826:17827   */\n      0x01\n        /* \"#utility.yul\":17821:18157   */\n      dup2\n      eq\n      tag_477\n      jumpi\n        /* \"#utility.yul\":17615:18157   */\n      jump(tag_475)\n        /* \"#utility.yul\":17648:17812   */\n    tag_476:\n        /* \"#utility.yul\":17732:17736   */\n      0xff\n        /* \"#utility.yul\":17728:17737   */\n      not\n        /* \"#utility.yul\":17717:17726   */\n      dup4\n        /* \"#utility.yul\":17713:17738   */\n      and\n        /* \"#utility.yul\":17708:17711   */\n      dup7\n        /* \"#utility.yul\":17701:17739   */\n      mstore\n        /* \"#utility.yul\":17792:17798   */\n      dup2\n        /* \"#utility.yul\":17785:17799   */\n      iszero\n        /* \"#utility.yul\":17778:17800   */\n      iszero\n        /* \"#utility.yul\":17772:17776   */\n      0x20\n        /* \"#utility.yul\":17768:17801   */\n      mul\n        /* \"#utility.yul\":17763:17766   */\n      dup7\n        /* \"#utility.yul\":17759:17802   */\n      add\n        /* \"#utility.yul\":17752:17802   */\n      swap4\n      pop\n        /* \"#utility.yul\":17648:17812   */\n      jump(tag_475)\n        /* \"#utility.yul\":17821:18157   */\n    tag_477:\n        /* \"#utility.yul\":17888:17926   */\n      tag_478\n        /* \"#utility.yul\":17920:17925   */\n      dup6\n        /* \"#utility.yul\":17888:17926   */\n      tag_219\n      jump\t// in\n    tag_478:\n        /* \"#utility.yul\":17948:17949   */\n      0x00\n        /* \"#utility.yul\":17962:18116   */\n    tag_479:\n        /* \"#utility.yul\":17976:17982   */\n      dup4\n        /* \"#utility.yul\":17973:17974   */\n      dup2\n        /* \"#utility.yul\":17970:17983   */\n      lt\n        /* \"#utility.yul\":17962:18116   */\n      iszero\n      tag_481\n      jumpi\n        /* \"#utility.yul\":18050:18057   */\n      dup2\n        /* \"#utility.yul\":18044:18058   */\n      sload\n        /* \"#utility.yul\":18040:18041   */\n      dup2\n        /* \"#utility.yul\":18035:18038   */\n      dup10\n        /* \"#utility.yul\":18031:18042   */\n      add\n        /* \"#utility.yul\":18024:18059   */\n      mstore\n        /* \"#utility.yul\":18100:18101   */\n      0x01\n        /* \"#utility.yul\":18091:18098   */\n      dup3\n        /* \"#utility.yul\":18087:18102   */\n      add\n        /* \"#utility.yul\":18076:18102   */\n      swap2\n      pop\n        /* \"#utility.yul\":17998:18002   */\n      0x20\n        /* \"#utility.yul\":17995:17996   */\n      dup2\n        /* \"#utility.yul\":17991:18003   */\n      add\n        /* \"#utility.yul\":17986:18003   */\n      swap1\n      pop\n        /* \"#utility.yul\":17962:18116   */\n      jump(tag_479)\n    tag_481:\n        /* \"#utility.yul\":18145:18146   */\n      dup1\n        /* \"#utility.yul\":18140:18143   */\n      dup9\n        /* \"#utility.yul\":18136:18147   */\n      add\n        /* \"#utility.yul\":18129:18147   */\n      swap6\n      pop\n        /* \"#utility.yul\":17828:18157   */\n      pop\n      pop\n        /* \"#utility.yul\":17615:18157   */\n    tag_475:\n      pop\n        /* \"#utility.yul\":17431:18163   */\n      pop\n      pop\n        /* \"#utility.yul\":17352:18163   */\n      swap3\n      swap2\n      pop\n      pop\n      jump\t// out\n        /* \"#utility.yul\":18227:19443   */\n    tag_244:\n        /* \"#utility.yul\":18337:18340   */\n      0x00\n        /* \"#utility.yul\":18373:18377   */\n      0x80\n        /* \"#utility.yul\":18368:18371   */\n      dup4\n        /* \"#utility.yul\":18364:18378   */\n      add\n        /* \"#utility.yul\":18404:18405   */\n      0x00\n        /* \"#utility.yul\":18479:18483   */\n      0x00\n        /* \"#utility.yul\":18472:18477   */\n      dup5\n        /* \"#utility.yul\":18468:18484   */\n      add\n        /* \"#utility.yul\":18462:18485   */\n      sload\n        /* \"#utility.yul\":18449:18485   */\n      swap1\n      pop\n        /* \"#utility.yul\":18518:18574   */\n      tag_483\n        /* \"#utility.yul\":18564:18573   */\n      dup2\n        /* \"#utility.yul\":18518:18574   */\n      tag_237\n      jump\t// in\n    tag_483:\n        /* \"#utility.yul\":18587:18650   */\n      tag_484\n        /* \"#utility.yul\":18644:18648   */\n      0x00\n        /* \"#utility.yul\":18639:18642   */\n      dup8\n        /* \"#utility.yul\":18635:18649   */\n      add\n        /* \"#utility.yul\":18621:18633   */\n      dup3\n        /* \"#utility.yul\":18587:18650   */\n      tag_238\n      jump\t// in\n    tag_484:\n        /* \"#utility.yul\":18415:18660   */\n      pop\n        /* \"#utility.yul\":18738:18742   */\n      0x01\n        /* \"#utility.yul\":18731:18736   */\n      dup5\n        /* \"#utility.yul\":18727:18743   */\n      add\n        /* \"#utility.yul\":18721:18744   */\n      sload\n        /* \"#utility.yul\":18708:18744   */\n      swap1\n      pop\n        /* \"#utility.yul\":18777:18833   */\n      tag_485\n        /* \"#utility.yul\":18823:18832   */\n      dup2\n        /* \"#utility.yul\":18777:18833   */\n      tag_237\n      jump\t// in\n    tag_485:\n        /* \"#utility.yul\":18846:18909   */\n      tag_486\n        /* \"#utility.yul\":18903:18907   */\n      0x20\n        /* \"#utility.yul\":18898:18901   */\n      dup8\n        /* \"#utility.yul\":18894:18908   */\n      add\n        /* \"#utility.yul\":18880:18892   */\n      dup3\n        /* \"#utility.yul\":18846:18909   */\n      tag_238\n      jump\t// in\n    tag_486:\n        /* \"#utility.yul\":18670:18919   */\n      pop\n        /* \"#utility.yul\":18997:19001   */\n      0x02\n        /* \"#utility.yul\":18990:18995   */\n      dup5\n        /* \"#utility.yul\":18986:19002   */\n      add\n        /* \"#utility.yul\":18980:19003   */\n      sload\n        /* \"#utility.yul\":18967:19003   */\n      swap1\n      pop\n        /* \"#utility.yul\":19036:19092   */\n      tag_487\n        /* \"#utility.yul\":19082:19091   */\n      dup2\n        /* \"#utility.yul\":19036:19092   */\n      tag_240\n      jump\t// in\n    tag_487:\n        /* \"#utility.yul\":19105:19168   */\n      tag_488\n        /* \"#utility.yul\":19162:19166   */\n      0x40\n        /* \"#utility.yul\":19157:19160   */\n      dup8\n        /* \"#utility.yul\":19153:19167   */\n      add\n        /* \"#utility.yul\":19139:19151   */\n      dup3\n        /* \"#utility.yul\":19105:19168   */\n      tag_241\n      jump\t// in\n    tag_488:\n        /* \"#utility.yul\":18929:19178   */\n      pop\n        /* \"#utility.yul\":19257:19261   */\n      0x03\n        /* \"#utility.yul\":19250:19255   */\n      dup5\n        /* \"#utility.yul\":19246:19262   */\n      add\n        /* \"#utility.yul\":19309:19312   */\n      dup6\n        /* \"#utility.yul\":19303:19307   */\n      dup4\n        /* \"#utility.yul\":19299:19313   */\n      sub\n        /* \"#utility.yul\":19292:19296   */\n      0x60\n        /* \"#utility.yul\":19287:19290   */\n      dup8\n        /* \"#utility.yul\":19283:19297   */\n      add\n        /* \"#utility.yul\":19276:19314   */\n      mstore\n        /* \"#utility.yul\":19335:19405   */\n      tag_489\n        /* \"#utility.yul\":19400:19404   */\n      dup4\n        /* \"#utility.yul\":19386:19398   */\n      dup3\n        /* \"#utility.yul\":19335:19405   */\n      tag_243\n      jump\t// in\n    tag_489:\n        /* \"#utility.yul\":19327:19405   */\n      swap3\n      pop\n        /* \"#utility.yul\":19188:19416   */\n      pop\n        /* \"#utility.yul\":19433:19437   */\n      dup2\n        /* \"#utility.yul\":19426:19437   */\n      swap3\n      pop\n        /* \"#utility.yul\":18342:19443   */\n      pop\n      pop\n        /* \"#utility.yul\":18227:19443   */\n      swap3\n      swap2\n      pop\n      pop\n      jump\t// out\n        /* \"#utility.yul\":19449:19804   */\n    tag_89:\n        /* \"#utility.yul\":19583:19587   */\n      0x00\n        /* \"#utility.yul\":19621:19623   */\n      0x20\n        /* \"#utility.yul\":19610:19619   */\n      dup3\n        /* \"#utility.yul\":19606:19624   */\n      add\n        /* \"#utility.yul\":19598:19624   */\n      swap1\n      pop\n        /* \"#utility.yul\":19670:19679   */\n      dup2\n        /* \"#utility.yul\":19664:19668   */\n      dup2\n        /* \"#utility.yul\":19660:19680   */\n      sub\n        /* \"#utility.yul\":19656:19657   */\n      0x00\n        /* \"#utility.yul\":19645:19654   */\n      dup4\n        /* \"#utility.yul\":19641:19658   */\n      add\n        /* \"#utility.yul\":19634:19681   */\n      mstore\n        /* \"#utility.yul\":19698:19797   */\n      tag_491\n        /* \"#utility.yul\":19792:19796   */\n      dup2\n        /* \"#utility.yul\":19783:19789   */\n      dup5\n        /* \"#utility.yul\":19698:19797   */\n      tag_244\n      jump\t// in\n    tag_491:\n        /* \"#utility.yul\":19690:19797   */\n      swap1\n      pop\n        /* \"#utility.yul\":19449:19804   */\n      swap3\n      swap2\n      pop\n      pop\n      jump\t// out\n        /* \"#utility.yul\":19810:19979   */\n    tag_245:\n        /* \"#utility.yul\":19894:19905   */\n      0x00\n        /* \"#utility.yul\":19928:19934   */\n      dup3\n        /* \"#utility.yul\":19923:19926   */\n      dup3\n        /* \"#utility.yul\":19916:19935   */\n      mstore\n        /* \"#utility.yul\":19968:19972   */\n      0x20\n        /* \"#utility.yul\":19963:19966   */\n      dup3\n        /* \"#utility.yul\":19959:19973   */\n      add\n        /* \"#utility.yul\":19944:19973   */\n      swap1\n      pop\n        /* \"#utility.yul\":19810:19979   */\n      swap3\n      swap2\n      pop\n      pop\n      jump\t// out\n        /* \"#utility.yul\":19985:20156   */\n    tag_246:\n        /* \"#utility.yul\":20125:20148   */\n      0x4e6f742073656c65637465642070726f706f7365720000000000000000000000\n        /* \"#utility.yul\":20121:20122   */\n      0x00\n        /* \"#utility.yul\":20113:20119   */\n      dup3\n        /* \"#utility.yul\":20109:20123   */\n      add\n        /* \"#utility.yul\":20102:20149   */\n      mstore\n        /* \"#utility.yul\":19985:20156   */\n      pop\n      jump\t// out\n        /* \"#utility.yul\":20162:20528   */\n    tag_247:\n        /* \"#utility.yul\":20304:20307   */\n      0x00\n        /* \"#utility.yul\":20325:20392   */\n      tag_495\n        /* \"#utility.yul\":20389:20391   */\n      0x15\n        /* \"#utility.yul\":20384:20387   */\n      dup4\n        /* \"#utility.yul\":20325:20392   */\n      tag_245\n      jump\t// in\n    tag_495:\n        /* \"#utility.yul\":20318:20392   */\n      swap2\n      pop\n        /* \"#utility.yul\":20401:20494   */\n      tag_496\n        /* \"#utility.yul\":20490:20493   */\n      dup3\n        /* \"#utility.yul\":20401:20494   */\n      tag_246\n      jump\t// in\n    tag_496:\n        /* \"#utility.yul\":20519:20521   */\n      0x20\n        /* \"#utility.yul\":20514:20517   */\n      dup3\n        /* \"#utility.yul\":20510:20522   */\n      add\n        /* \"#utility.yul\":20503:20522   */\n      swap1\n      pop\n        /* \"#utility.yul\":20162:20528   */\n      swap2\n      swap1\n      pop\n      jump\t// out\n        /* \"#utility.yul\":20534:20953   */\n    tag_107:\n        /* \"#utility.yul\":20700:20704   */\n      0x00\n        /* \"#utility.yul\":20738:20740   */\n      0x20\n        /* \"#utility.yul\":20727:20736   */\n      dup3\n        /* \"#utility.yul\":20723:20741   */\n      add\n        /* \"#utility.yul\":20715:20741   */\n      swap1\n      pop\n        /* \"#utility.yul\":20787:20796   */\n      dup2\n        /* \"#utility.yul\":20781:20785   */\n      dup2\n        /* \"#utility.yul\":20777:20797   */\n      sub\n        /* \"#utility.yul\":20773:20774   */\n      0x00\n        /* \"#utility.yul\":20762:20771   */\n      dup4\n        /* \"#utility.yul\":20758:20775   */\n      add\n        /* \"#utility.yul\":20751:20798   */\n      mstore\n        /* \"#utility.yul\":20815:20946   */\n      tag_498\n        /* \"#utility.yul\":20941:20945   */\n      dup2\n        /* \"#utility.yul\":20815:20946   */\n      tag_247\n      jump\t// in\n    tag_498:\n        /* \"#utility.yul\":20807:20946   */\n      swap1\n      pop\n        /* \"#utility.yul\":20534:20953   */\n      swap2\n      swap1\n      pop\n      jump\t// out\n        /* \"#utility.yul\":20959:21123   */\n    tag_248:\n        /* \"#utility.yul\":21099:21115   */\n      0x5374616b65207265717569726564000000000000000000000000000000000000\n        /* \"#utility.yul\":21095:21096   */\n      0x00\n        /* \"#utility.yul\":21087:21093   */\n      dup3\n        /* \"#utility.yul\":21083:21097   */\n      add\n        /* \"#utility.yul\":21076:21116   */\n      mstore\n        /* \"#utility.yul\":20959:21123   */\n      pop\n      jump\t// out\n        /* \"#utility.yul\":21129:21495   */\n    tag_249:\n        /* \"#utility.yul\":21271:21274   */\n      0x00\n        /* \"#utility.yul\":21292:21359   */\n      tag_501\n        /* \"#utility.yul\":21356:21358   */\n      0x0e\n        /* \"#utility.yul\":21351:21354   */\n      dup4\n        /* \"#utility.yul\":21292:21359   */\n      tag_245\n      jump\t// in\n    tag_501:\n        /* \"#utility.yul\":21285:21359   */\n      swap2\n      pop\n        /* \"#utility.yul\":21368:21461   */\n      tag_502\n        /* \"#utility.yul\":21457:21460   */\n      dup3\n        /* \"#utility.yul\":21368:21461   */\n      tag_248\n      jump\t// in\n    tag_502:\n        /* \"#utility.yul\":21486:21488   */\n      0x20\n        /* \"#utility.yul\":21481:21484   */\n      dup3\n        /* \"#utility.yul\":21477:21489   */\n      add\n        /* \"#utility.yul\":21470:21489   */\n      swap1\n      pop\n        /* \"#utility.yul\":21129:21495   */\n      swap2\n      swap1\n      pop\n      jump\t// out\n        /* \"#utility.yul\":21501:21920   */\n    tag_110:\n        /* \"#utility.yul\":21667:21671   */\n      0x00\n        /* \"#utility.yul\":21705:21707   */\n      0x20\n        /* \"#utility.yul\":21694:21703   */\n      dup3\n        /* \"#utility.yul\":21690:21708   */\n      add\n        /* \"#utility.yul\":21682:21708   */\n      swap1\n      pop\n        /* \"#utility.yul\":21754:21763   */\n      dup2\n        /* \"#utility.yul\":21748:21752   */\n      dup2\n        /* \"#utility.yul\":21744:21764   */\n      sub\n        /* \"#utility.yul\":21740:21741   */\n      0x00\n        /* \"#utility.yul\":21729:21738   */\n      dup4\n        /* \"#utility.yul\":21725:21742   */\n      add\n        /* \"#utility.yul\":21718:21765   */\n      mstore\n        /* \"#utility.yul\":21782:21913   */\n      tag_504\n        /* \"#utility.yul\":21908:21912   */\n      dup2\n        /* \"#utility.yul\":21782:21913   */\n      tag_249\n      jump\t// in\n    tag_504:\n        /* \"#utility.yul\":21774:21913   */\n      swap1\n      pop\n        /* \"#utility.yul\":21501:21920   */\n      swap2\n      swap1\n      pop\n      jump\t// out\n        /* \"#utility.yul\":21926:22069   */\n    tag_250:\n        /* \"#utility.yul\":21983:21988   */\n      0x00\n        /* \"#utility.yul\":22014:22020   */\n      dup2\n        /* \"#utility.yul\":22008:22021   */\n      mload\n        /* \"#utility.yul\":21999:22021   */\n      swap1\n      pop\n        /* \"#utility.yul\":22030:22063   */\n      tag_506\n        /* \"#utility.yul\":22057:22062   */\n      dup2\n        /* \"#utility.yul\":22030:22063   */\n      tag_198\n      jump\t// in\n    tag_506:\n        /* \"#utility.yul\":21926:22069   */\n      swap3\n      swap2\n      pop\n      pop\n      jump\t// out\n        /* \"#utility.yul\":22075:22426   */\n    tag_124:\n        /* \"#utility.yul\":22145:22151   */\n      0x00\n        /* \"#utility.yul\":22194:22196   */\n      0x20\n        /* \"#utility.yul\":22182:22191   */\n      dup3\n        /* \"#utility.yul\":22173:22180   */\n      dup5\n        /* \"#utility.yul\":22169:22192   */\n      sub\n        /* \"#utility.yul\":22165:22197   */\n      slt\n        /* \"#utility.yul\":22162:22281   */\n      iszero\n      tag_508\n      jumpi\n        /* \"#utility.yul\":22200:22279   */\n      tag_509\n      tag_186\n      jump\t// in\n    tag_509:\n        /* \"#utility.yul\":22162:22281   */\n    tag_508:\n        /* \"#utility.yul\":22320:22321   */\n      0x00\n        /* \"#utility.yul\":22345:22409   */\n      tag_510\n        /* \"#utility.yul\":22401:22408   */\n      dup5\n        /* \"#utility.yul\":22392:22398   */\n      dup3\n        /* \"#utility.yul\":22381:22390   */\n      dup6\n        /* \"#utility.yul\":22377:22399   */\n      add\n        /* \"#utility.yul\":22345:22409   */\n      tag_250\n      jump\t// in\n    tag_510:\n        /* \"#utility.yul\":22335:22409   */\n      swap2\n      pop\n        /* \"#utility.yul\":22291:22419   */\n      pop\n        /* \"#utility.yul\":22075:22426   */\n      swap3\n      swap2\n      pop\n      pop\n      jump\t// out\n        /* \"#utility.yul\":22432:22623   */\n    tag_126:\n        /* \"#utility.yul\":22472:22475   */\n      0x00\n        /* \"#utility.yul\":22491:22511   */\n      tag_512\n        /* \"#utility.yul\":22509:22510   */\n      dup3\n        /* \"#utility.yul\":22491:22511   */\n      tag_197\n      jump\t// in\n    tag_512:\n        /* \"#utility.yul\":22486:22511   */\n      swap2\n      pop\n        /* \"#utility.yul\":22525:22545   */\n      tag_513\n        /* \"#utility.yul\":22543:22544   */\n      dup4\n        /* \"#utility.yul\":22525:22545   */\n      tag_197\n      jump\t// in\n    tag_513:\n        /* \"#utility.yul\":22520:22545   */\n      swap3\n      pop\n        /* \"#utility.yul\":22568:22569   */\n      dup3\n        /* \"#utility.yul\":22565:22566   */\n      dup3\n        /* \"#utility.yul\":22561:22570   */\n      add\n        /* \"#utility.yul\":22554:22570   */\n      swap1\n      pop\n        /* \"#utility.yul\":22589:22592   */\n      dup1\n        /* \"#utility.yul\":22586:22587   */\n      dup3\n        /* \"#utility.yul\":22583:22593   */\n      gt\n        /* \"#utility.yul\":22580:22616   */\n      iszero\n      tag_514\n      jumpi\n        /* \"#utility.yul\":22596:22614   */\n      tag_515\n      tag_216\n      jump\t// in\n    tag_515:\n        /* \"#utility.yul\":22580:22616   */\n    tag_514:\n        /* \"#utility.yul\":22432:22623   */\n      swap3\n      swap2\n      pop\n      pop\n      jump\t// out\n        /* \"#utility.yul\":22629:22801   */\n    tag_251:\n        /* \"#utility.yul\":22769:22793   */\n      0x426c6f636b2070726f706f73616c206661696c75726500000000000000000000\n        /* \"#utility.yul\":22765:22766   */\n      0x00\n        /* \"#utility.yul\":22757:22763   */\n      dup3\n        /* \"#utility.yul\":22753:22767   */\n      add\n        /* \"#utility.yul\":22746:22794   */\n      mstore\n        /* \"#utility.yul\":22629:22801   */\n      pop\n      jump\t// out\n        /* \"#utility.yul\":22807:23173   */\n    tag_252:\n        /* \"#utility.yul\":22949:22952   */\n      0x00\n        /* \"#utility.yul\":22970:23037   */\n      tag_518\n        /* \"#utility.yul\":23034:23036   */\n      0x16\n        /* \"#utility.yul\":23029:23032   */\n      dup4\n        /* \"#utility.yul\":22970:23037   */\n      tag_245\n      jump\t// in\n    tag_518:\n        /* \"#utility.yul\":22963:23037   */\n      swap2\n      pop\n        /* \"#utility.yul\":23046:23139   */\n      tag_519\n        /* \"#utility.yul\":23135:23138   */\n      dup3\n        /* \"#utility.yul\":23046:23139   */\n      tag_251\n      jump\t// in\n    tag_519:\n        /* \"#utility.yul\":23164:23166   */\n      0x20\n        /* \"#utility.yul\":23159:23162   */\n      dup3\n        /* \"#utility.yul\":23155:23167   */\n      add\n        /* \"#utility.yul\":23148:23167   */\n      swap1\n      pop\n        /* \"#utility.yul\":22807:23173   */\n      swap2\n      swap1\n      pop\n      jump\t// out\n        /* \"#utility.yul\":23179:23598   */\n    tag_133:\n        /* \"#utility.yul\":23345:23349   */\n      0x00\n        /* \"#utility.yul\":23383:23385   */\n      0x20\n        /* \"#utility.yul\":23372:23381   */\n      dup3\n        /* \"#utility.yul\":23368:23386   */\n      add\n        /* \"#utility.yul\":23360:23386   */\n      swap1\n      pop\n        /* \"#utility.yul\":23432:23441   */\n      dup2\n        /* \"#utility.yul\":23426:23430   */\n      dup2\n        /* \"#utility.yul\":23422:23442   */\n      sub\n        /* \"#utility.yul\":23418:23419   */\n      0x00\n        /* \"#utility.yul\":23407:23416   */\n      dup4\n        /* \"#utility.yul\":23403:23420   */\n      add\n        /* \"#utility.yul\":23396:23443   */\n      mstore\n        /* \"#utility.yul\":23460:23591   */\n      tag_521\n        /* \"#utility.yul\":23586:23590   */\n      dup2\n        /* \"#utility.yul\":23460:23591   */\n      tag_252\n      jump\t// in\n    tag_521:\n        /* \"#utility.yul\":23452:23591   */\n      swap1\n      pop\n        /* \"#utility.yul\":23179:23598   */\n      swap2\n      swap1\n      pop\n      jump\t// out\n        /* \"#utility.yul\":23604:23703   */\n    tag_253:\n        /* \"#utility.yul\":23656:23662   */\n      0x00\n        /* \"#utility.yul\":23690:23695   */\n      dup2\n        /* \"#utility.yul\":23684:23696   */\n      mload\n        /* \"#utility.yul\":23674:23696   */\n      swap1\n      pop\n        /* \"#utility.yul\":23604:23703   */\n      swap2\n      swap1\n      pop\n      jump\t// out\n        /* \"#utility.yul\":23709:25104   */\n    tag_136:\n        /* \"#utility.yul\":23826:23863   */\n      tag_524\n        /* \"#utility.yul\":23859:23862   */\n      dup3\n        /* \"#utility.yul\":23826:23863   */\n      tag_253\n      jump\t// in\n    tag_524:\n        /* \"#utility.yul\":23928:23946   */\n      0xffffffffffffffff\n        /* \"#utility.yul\":23920:23926   */\n      dup2\n        /* \"#utility.yul\":23917:23947   */\n      gt\n        /* \"#utility.yul\":23914:23970   */\n      iszero\n      tag_525\n      jumpi\n        /* \"#utility.yul\":23950:23968   */\n      tag_526\n      tag_190\n      jump\t// in\n    tag_526:\n        /* \"#utility.yul\":23914:23970   */\n    tag_525:\n        /* \"#utility.yul\":23994:24032   */\n      tag_527\n        /* \"#utility.yul\":24026:24030   */\n      dup3\n        /* \"#utility.yul\":24020:24031   */\n      sload\n        /* \"#utility.yul\":23994:24032   */\n      tag_55\n      jump\t// in\n    tag_527:\n        /* \"#utility.yul\":24079:24146   */\n      tag_528\n        /* \"#utility.yul\":24139:24145   */\n      dup3\n        /* \"#utility.yul\":24131:24137   */\n      dup3\n        /* \"#utility.yul\":24125:24129   */\n      dup6\n        /* \"#utility.yul\":24079:24146   */\n      tag_229\n      jump\t// in\n    tag_528:\n        /* \"#utility.yul\":24173:24174   */\n      0x00\n        /* \"#utility.yul\":24197:24201   */\n      0x20\n        /* \"#utility.yul\":24184:24201   */\n      swap1\n      pop\n        /* \"#utility.yul\":24229:24231   */\n      0x1f\n        /* \"#utility.yul\":24221:24227   */\n      dup4\n        /* \"#utility.yul\":24218:24232   */\n      gt\n        /* \"#utility.yul\":24246:24247   */\n      0x01\n        /* \"#utility.yul\":24241:24859   */\n      dup2\n      eq\n      tag_530\n      jumpi\n        /* \"#utility.yul\":24903:24904   */\n      0x00\n        /* \"#utility.yul\":24920:24926   */\n      dup5\n        /* \"#utility.yul\":24917:24994   */\n      iszero\n      tag_531\n      jumpi\n        /* \"#utility.yul\":24969:24978   */\n      dup3\n        /* \"#utility.yul\":24964:24967   */\n      dup8\n        /* \"#utility.yul\":24960:24979   */\n      add\n        /* \"#utility.yul\":24954:24980   */\n      mload\n        /* \"#utility.yul\":24945:24980   */\n      swap1\n      pop\n        /* \"#utility.yul\":24917:24994   */\n    tag_531:\n        /* \"#utility.yul\":25020:25087   */\n      tag_532\n        /* \"#utility.yul\":25080:25086   */\n      dup6\n        /* \"#utility.yul\":25073:25078   */\n      dup3\n        /* \"#utility.yul\":25020:25087   */\n      tag_232\n      jump\t// in\n    tag_532:\n        /* \"#utility.yul\":25014:25018   */\n      dup7\n        /* \"#utility.yul\":25007:25088   */\n      sstore\n        /* \"#utility.yul\":24876:25098   */\n      pop\n        /* \"#utility.yul\":24211:25098   */\n      jump(tag_529)\n        /* \"#utility.yul\":24241:24859   */\n    tag_530:\n        /* \"#utility.yul\":24293:24297   */\n      0x1f\n        /* \"#utility.yul\":24289:24298   */\n      not\n        /* \"#utility.yul\":24281:24287   */\n      dup5\n        /* \"#utility.yul\":24277:24299   */\n      and\n        /* \"#utility.yul\":24327:24364   */\n      tag_533\n        /* \"#utility.yul\":24359:24363   */\n      dup7\n        /* \"#utility.yul\":24327:24364   */\n      tag_219\n      jump\t// in\n    tag_533:\n        /* \"#utility.yul\":24386:24387   */\n      0x00\n        /* \"#utility.yul\":24400:24608   */\n    tag_534:\n        /* \"#utility.yul\":24414:24421   */\n      dup3\n        /* \"#utility.yul\":24411:24412   */\n      dup2\n        /* \"#utility.yul\":24408:24422   */\n      lt\n        /* \"#utility.yul\":24400:24608   */\n      iszero\n      tag_536\n      jumpi\n        /* \"#utility.yul\":24493:24502   */\n      dup5\n        /* \"#utility.yul\":24488:24491   */\n      dup10\n        /* \"#utility.yul\":24484:24503   */\n      add\n        /* \"#utility.yul\":24478:24504   */\n      mload\n        /* \"#utility.yul\":24470:24476   */\n      dup3\n        /* \"#utility.yul\":24463:24505   */\n      sstore\n        /* \"#utility.yul\":24544:24545   */\n      0x01\n        /* \"#utility.yul\":24536:24542   */\n      dup3\n        /* \"#utility.yul\":24532:24546   */\n      add\n        /* \"#utility.yul\":24522:24546   */\n      swap2\n      pop\n        /* \"#utility.yul\":24591:24593   */\n      0x20\n        /* \"#utility.yul\":24580:24589   */\n      dup6\n        /* \"#utility.yul\":24576:24594   */\n      add\n        /* \"#utility.yul\":24563:24594   */\n      swap5\n      pop\n        /* \"#utility.yul\":24437:24441   */\n      0x20\n        /* \"#utility.yul\":24434:24435   */\n      dup2\n        /* \"#utility.yul\":24430:24442   */\n      add\n        /* \"#utility.yul\":24425:24442   */\n      swap1\n      pop\n        /* \"#utility.yul\":24400:24608   */\n      jump(tag_534)\n    tag_536:\n        /* \"#utility.yul\":24636:24642   */\n      dup7\n        /* \"#utility.yul\":24627:24634   */\n      dup4\n        /* \"#utility.yul\":24624:24643   */\n      lt\n        /* \"#utility.yul\":24621:24800   */\n      iszero\n      tag_537\n      jumpi\n        /* \"#utility.yul\":24694:24703   */\n      dup5\n        /* \"#utility.yul\":24689:24692   */\n      dup10\n        /* \"#utility.yul\":24685:24704   */\n      add\n        /* \"#utility.yul\":24679:24705   */\n      mload\n        /* \"#utility.yul\":24737:24785   */\n      tag_538\n        /* \"#utility.yul\":24779:24783   */\n      0x1f\n        /* \"#utility.yul\":24771:24777   */\n      dup10\n        /* \"#utility.yul\":24767:24784   */\n      and\n        /* \"#utility.yul\":24756:24765   */\n      dup3\n        /* \"#utility.yul\":24737:24785   */\n      tag_231\n      jump\t// in\n    tag_538:\n        /* \"#utility.yul\":24729:24735   */\n      dup4\n        /* \"#utility.yul\":24722:24786   */\n      sstore\n        /* \"#utility.yul\":24644:24800   */\n      pop\n        /* \"#utility.yul\":24621:24800   */\n    tag_537:\n        /* \"#utility.yul\":24846:24847   */\n      0x01\n        /* \"#utility.yul\":24842:24843   */\n      0x02\n        /* \"#utility.yul\":24834:24840   */\n      dup9\n        /* \"#utility.yul\":24830:24844   */\n      mul\n        /* \"#utility.yul\":24826:24848   */\n      add\n        /* \"#utility.yul\":24820:24824   */\n      dup9\n        /* \"#utility.yul\":24813:24849   */\n      sstore\n        /* \"#utility.yul\":24248:24859   */\n      pop\n      pop\n      pop\n        /* \"#utility.yul\":24211:25098   */\n    tag_529:\n      pop\n        /* \"#utility.yul\":23801:25104   */\n      pop\n      pop\n      pop\n        /* \"#utility.yul\":23709:25104   */\n      pop\n      pop\n      jump\t// out\n        /* \"#utility.yul\":25110:25292   */\n    tag_254:\n        /* \"#utility.yul\":25250:25284   */\n      0x456d7074792064617461207265717565737473206e6f74206163636570746564\n        /* \"#utility.yul\":25246:25247   */\n      0x00\n        /* \"#utility.yul\":25238:25244   */\n      dup3\n        /* \"#utility.yul\":25234:25248   */\n      add\n        /* \"#utility.yul\":25227:25285   */\n      mstore\n        /* \"#utility.yul\":25110:25292   */\n      pop\n      jump\t// out\n        /* \"#utility.yul\":25298:25664   */\n    tag_255:\n        /* \"#utility.yul\":25440:25443   */\n      0x00\n        /* \"#utility.yul\":25461:25528   */\n      tag_541\n        /* \"#utility.yul\":25525:25527   */\n      0x20\n        /* \"#utility.yul\":25520:25523   */\n      dup4\n        /* \"#utility.yul\":25461:25528   */\n      tag_245\n      jump\t// in\n    tag_541:\n        /* \"#utility.yul\":25454:25528   */\n      swap2\n      pop\n        /* \"#utility.yul\":25537:25630   */\n      tag_542\n        /* \"#utility.yul\":25626:25629   */\n      dup3\n        /* \"#utility.yul\":25537:25630   */\n      tag_254\n      jump\t// in\n    tag_542:\n        /* \"#utility.yul\":25655:25657   */\n      0x20\n        /* \"#utility.yul\":25650:25653   */\n      dup3\n        /* \"#utility.yul\":25646:25658   */\n      add\n        /* \"#utility.yul\":25639:25658   */\n      swap1\n      pop\n        /* \"#utility.yul\":25298:25664   */\n      swap2\n      swap1\n      pop\n      jump\t// out\n        /* \"#utility.yul\":25670:26089   */\n    tag_144:\n        /* \"#utility.yul\":25836:25840   */\n      0x00\n        /* \"#utility.yul\":25874:25876   */\n      0x20\n        /* \"#utility.yul\":25863:25872   */\n      dup3\n        /* \"#utility.yul\":25859:25877   */\n      add\n        /* \"#utility.yul\":25851:25877   */\n      swap1\n      pop\n        /* \"#utility.yul\":25923:25932   */\n      dup2\n        /* \"#utility.yul\":25917:25921   */\n      dup2\n        /* \"#utility.yul\":25913:25933   */\n      sub\n        /* \"#utility.yul\":25909:25910   */\n      0x00\n        /* \"#utility.yul\":25898:25907   */\n      dup4\n        /* \"#utility.yul\":25894:25911   */\n      add\n        /* \"#utility.yul\":25887:25934   */\n      mstore\n        /* \"#utility.yul\":25951:26082   */\n      tag_544\n        /* \"#utility.yul\":26077:26081   */\n      dup2\n        /* \"#utility.yul\":25951:26082   */\n      tag_255\n      jump\t// in\n    tag_544:\n        /* \"#utility.yul\":25943:26082   */\n      swap1\n      pop\n        /* \"#utility.yul\":25670:26089   */\n      swap2\n      swap1\n      pop\n      jump\t// out\n        /* \"#utility.yul\":26095:26192   */\n    tag_256:\n        /* \"#utility.yul\":26154:26160   */\n      0x00\n        /* \"#utility.yul\":26182:26185   */\n      dup3\n        /* \"#utility.yul\":26172:26185   */\n      swap1\n      pop\n        /* \"#utility.yul\":26095:26192   */\n      swap3\n      swap2\n      pop\n      pop\n      jump\t// out\n        /* \"#utility.yul\":26198:27601   */\n    tag_146:\n        /* \"#utility.yul\":26322:26366   */\n      tag_547\n        /* \"#utility.yul\":26362:26365   */\n      dup4\n        /* \"#utility.yul\":26357:26360   */\n      dup4\n        /* \"#utility.yul\":26322:26366   */\n      tag_256\n      jump\t// in\n    tag_547:\n        /* \"#utility.yul\":26431:26449   */\n      0xffffffffffffffff\n        /* \"#utility.yul\":26423:26429   */\n      dup2\n        /* \"#utility.yul\":26420:26450   */\n      gt\n        /* \"#utility.yul\":26417:26473   */\n      iszero\n      tag_548\n      jumpi\n        /* \"#utility.yul\":26453:26471   */\n      tag_549\n      tag_190\n      jump\t// in\n    tag_549:\n        /* \"#utility.yul\":26417:26473   */\n    tag_548:\n        /* \"#utility.yul\":26497:26535   */\n      tag_550\n        /* \"#utility.yul\":26529:26533   */\n      dup3\n        /* \"#utility.yul\":26523:26534   */\n      sload\n        /* \"#utility.yul\":26497:26535   */\n      tag_55\n      jump\t// in\n    tag_550:\n        /* \"#utility.yul\":26582:26649   */\n      tag_551\n        /* \"#utility.yul\":26642:26648   */\n      dup3\n        /* \"#utility.yul\":26634:26640   */\n      dup3\n        /* \"#utility.yul\":26628:26632   */\n      dup6\n        /* \"#utility.yul\":26582:26649   */\n      tag_229\n      jump\t// in\n    tag_551:\n        /* \"#utility.yul\":26676:26677   */\n      0x00\n        /* \"#utility.yul\":26705:26707   */\n      0x1f\n        /* \"#utility.yul\":26697:26703   */\n      dup4\n        /* \"#utility.yul\":26694:26708   */\n      gt\n        /* \"#utility.yul\":26722:26723   */\n      0x01\n        /* \"#utility.yul\":26717:27349   */\n      dup2\n      eq\n      tag_553\n      jumpi\n        /* \"#utility.yul\":27393:27394   */\n      0x00\n        /* \"#utility.yul\":27410:27416   */\n      dup5\n        /* \"#utility.yul\":27407:27491   */\n      iszero\n      tag_554\n      jumpi\n        /* \"#utility.yul\":27466:27475   */\n      dup3\n        /* \"#utility.yul\":27461:27464   */\n      dup8\n        /* \"#utility.yul\":27457:27476   */\n      add\n        /* \"#utility.yul\":27444:27477   */\n      calldataload\n        /* \"#utility.yul\":27435:27477   */\n      swap1\n      pop\n        /* \"#utility.yul\":27407:27491   */\n    tag_554:\n        /* \"#utility.yul\":27517:27584   */\n      tag_555\n        /* \"#utility.yul\":27577:27583   */\n      dup6\n        /* \"#utility.yul\":27570:27575   */\n      dup3\n        /* \"#utility.yul\":27517:27584   */\n      tag_232\n      jump\t// in\n    tag_555:\n        /* \"#utility.yul\":27511:27515   */\n      dup7\n        /* \"#utility.yul\":27504:27585   */\n      sstore\n        /* \"#utility.yul\":27366:27595   */\n      pop\n        /* \"#utility.yul\":26687:27595   */\n      jump(tag_552)\n        /* \"#utility.yul\":26717:27349   */\n    tag_553:\n        /* \"#utility.yul\":26769:26773   */\n      0x1f\n        /* \"#utility.yul\":26765:26774   */\n      not\n        /* \"#utility.yul\":26757:26763   */\n      dup5\n        /* \"#utility.yul\":26753:26775   */\n      and\n        /* \"#utility.yul\":26803:26840   */\n      tag_556\n        /* \"#utility.yul\":26835:26839   */\n      dup7\n        /* \"#utility.yul\":26803:26840   */\n      tag_219\n      jump\t// in\n    tag_556:\n        /* \"#utility.yul\":26862:26863   */\n      0x00\n        /* \"#utility.yul\":26876:27091   */\n    tag_557:\n        /* \"#utility.yul\":26890:26897   */\n      dup3\n        /* \"#utility.yul\":26887:26888   */\n      dup2\n        /* \"#utility.yul\":26884:26898   */\n      lt\n        /* \"#utility.yul\":26876:27091   */\n      iszero\n      tag_559\n      jumpi\n        /* \"#utility.yul\":26976:26985   */\n      dup5\n        /* \"#utility.yul\":26971:26974   */\n      dup10\n        /* \"#utility.yul\":26967:26986   */\n      add\n        /* \"#utility.yul\":26954:26987   */\n      calldataload\n        /* \"#utility.yul\":26946:26952   */\n      dup3\n        /* \"#utility.yul\":26939:26988   */\n      sstore\n        /* \"#utility.yul\":27027:27028   */\n      0x01\n        /* \"#utility.yul\":27019:27025   */\n      dup3\n        /* \"#utility.yul\":27015:27029   */\n      add\n        /* \"#utility.yul\":27005:27029   */\n      swap2\n      pop\n        /* \"#utility.yul\":27074:27076   */\n      0x20\n        /* \"#utility.yul\":27063:27072   */\n      dup6\n        /* \"#utility.yul\":27059:27077   */\n      add\n        /* \"#utility.yul\":27046:27077   */\n      swap5\n      pop\n        /* \"#utility.yul\":26913:26917   */\n      0x20\n        /* \"#utility.yul\":26910:26911   */\n      dup2\n        /* \"#utility.yul\":26906:26918   */\n      add\n        /* \"#utility.yul\":26901:26918   */\n      swap1\n      pop\n        /* \"#utility.yul\":26876:27091   */\n      jump(tag_557)\n    tag_559:\n        /* \"#utility.yul\":27119:27125   */\n      dup7\n        /* \"#utility.yul\":27110:27117   */\n      dup4\n        /* \"#utility.yul\":27107:27126   */\n      lt\n        /* \"#utility.yul\":27104:27290   */\n      iszero\n      tag_560\n      jumpi\n        /* \"#utility.yul\":27184:27193   */\n      dup5\n        /* \"#utility.yul\":27179:27182   */\n      dup10\n        /* \"#utility.yul\":27175:27194   */\n      add\n        /* \"#utility.yul\":27162:27195   */\n      calldataload\n        /* \"#utility.yul\":27227:27275   */\n      tag_561\n        /* \"#utility.yul\":27269:27273   */\n      0x1f\n        /* \"#utility.yul\":27261:27267   */\n      dup10\n        /* \"#utility.yul\":27257:27274   */\n      and\n        /* \"#utility.yul\":27246:27255   */\n      dup3\n        /* \"#utility.yul\":27227:27275   */\n      tag_231\n      jump\t// in\n    tag_561:\n        /* \"#utility.yul\":27219:27225   */\n      dup4\n        /* \"#utility.yul\":27212:27276   */\n      sstore\n        /* \"#utility.yul\":27127:27290   */\n      pop\n        /* \"#utility.yul\":27104:27290   */\n    tag_560:\n        /* \"#utility.yul\":27336:27337   */\n      0x01\n        /* \"#utility.yul\":27332:27333   */\n      0x02\n        /* \"#utility.yul\":27324:27330   */\n      dup9\n        /* \"#utility.yul\":27320:27334   */\n      mul\n        /* \"#utility.yul\":27316:27338   */\n      add\n        /* \"#utility.yul\":27310:27314   */\n      dup9\n        /* \"#utility.yul\":27303:27339   */\n      sstore\n        /* \"#utility.yul\":26724:27349   */\n      pop\n      pop\n      pop\n        /* \"#utility.yul\":26687:27595   */\n    tag_552:\n      pop\n        /* \"#utility.yul\":26297:27601   */\n      pop\n      pop\n      pop\n        /* \"#utility.yul\":26198:27601   */\n      pop\n      pop\n      pop\n      jump\t// out\n        /* \"#utility.yul\":27607:27755   */\n    tag_257:\n        /* \"#utility.yul\":27709:27720   */\n      0x00\n        /* \"#utility.yul\":27746:27749   */\n      dup2\n        /* \"#utility.yul\":27731:27749   */\n      swap1\n      pop\n        /* \"#utility.yul\":27607:27755   */\n      swap3\n      swap2\n      pop\n      pop\n      jump\t// out\n        /* \"#utility.yul\":27761:27900   */\n    tag_258:\n        /* \"#utility.yul\":27850:27856   */\n      dup3\n        /* \"#utility.yul\":27845:27848   */\n      dup2\n        /* \"#utility.yul\":27840:27843   */\n      dup4\n        /* \"#utility.yul\":27834:27857   */\n      mcopy\n        /* \"#utility.yul\":27891:27892   */\n      0x00\n        /* \"#utility.yul\":27882:27888   */\n      dup4\n        /* \"#utility.yul\":27877:27880   */\n      dup4\n        /* \"#utility.yul\":27873:27889   */\n      add\n        /* \"#utility.yul\":27866:27893   */\n      mstore\n        /* \"#utility.yul\":27761:27900   */\n      pop\n      pop\n      pop\n      jump\t// out\n        /* \"#utility.yul\":27906:28296   */\n    tag_259:\n        /* \"#utility.yul\":28012:28015   */\n      0x00\n        /* \"#utility.yul\":28040:28079   */\n      tag_565\n        /* \"#utility.yul\":28073:28078   */\n      dup3\n        /* \"#utility.yul\":28040:28079   */\n      tag_253\n      jump\t// in\n    tag_565:\n        /* \"#utility.yul\":28095:28184   */\n      tag_566\n        /* \"#utility.yul\":28177:28183   */\n      dup2\n        /* \"#utility.yul\":28172:28175   */\n      dup6\n        /* \"#utility.yul\":28095:28184   */\n      tag_257\n      jump\t// in\n    tag_566:\n        /* \"#utility.yul\":28088:28184   */\n      swap4\n      pop\n        /* \"#utility.yul\":28193:28258   */\n      tag_567\n        /* \"#utility.yul\":28251:28257   */\n      dup2\n        /* \"#utility.yul\":28246:28249   */\n      dup6\n        /* \"#utility.yul\":28239:28243   */\n      0x20\n        /* \"#utility.yul\":28232:28237   */\n      dup7\n        /* \"#utility.yul\":28228:28244   */\n      add\n        /* \"#utility.yul\":28193:28258   */\n      tag_258\n      jump\t// in\n    tag_567:\n        /* \"#utility.yul\":28283:28289   */\n      dup1\n        /* \"#utility.yul\":28278:28281   */\n      dup5\n        /* \"#utility.yul\":28274:28290   */\n      add\n        /* \"#utility.yul\":28267:28290   */\n      swap2\n      pop\n        /* \"#utility.yul\":28016:28296   */\n      pop\n        /* \"#utility.yul\":27906:28296   */\n      swap3\n      swap2\n      pop\n      pop\n      jump\t// out\n        /* \"#utility.yul\":28302:28577   */\n    tag_171:\n        /* \"#utility.yul\":28434:28437   */\n      0x00\n        /* \"#utility.yul\":28456:28551   */\n      tag_569\n        /* \"#utility.yul\":28547:28550   */\n      dup3\n        /* \"#utility.yul\":28538:28544   */\n      dup5\n        /* \"#utility.yul\":28456:28551   */\n      tag_259\n      jump\t// in\n    tag_569:\n        /* \"#utility.yul\":28449:28551   */\n      swap2\n      pop\n        /* \"#utility.yul\":28568:28571   */\n      dup2\n        /* \"#utility.yul\":28561:28571   */\n      swap1\n      pop\n        /* \"#utility.yul\":28302:28577   */\n      swap3\n      swap2\n      pop\n      pop\n      jump\t// out\n\n    auxdata: 0xa264697066735822122001dbfd9a228432da4b56176eb65b7d71e7818b5537df91a6b1ba70959a4a3cc664736f6c634300081e0033\n}\n",
				"bytecode": {
					"linkReferences": {},
					"object": "608060405234801561000f575f5ffd5b5060405161275a38038061275a83398181016040528101906100319190610528565b825f604051806080016040528061004d8461021460201b60201c565b81526020015f81526020015f8152602001838152509050600180819055505f81908060018154018082558091505060019003905f5260205f2090600402015f909190919091505f820151815f0155602082015181600101556040820151816002015560608201518160030190816100c491906107d4565b50505050508160045f6101000a81548173ffffffffffffffffffffffffffffffffffffffff021916908373ffffffffffffffffffffffffffffffffffffffff1602179055508060055f6101000a81548173ffffffffffffffffffffffffffffffffffffffff021916908373ffffffffffffffffffffffffffffffffffffffff1602179055505f845190505b5f81111561020a575f8560018361016691906108d0565b8151811061017757610176610903565b5b602002602001015190506101908161024360201b60201c565b8073ffffffffffffffffffffffffffffffffffffffff1663aefa5128306040518263ffffffff1660e01b81526004016101c9919061093f565b5f604051808303815f87803b1580156101e0575f5ffd5b505af11580156101f2573d5f5f3e3d5ffd5b50505050818061020190610958565b9250505061014f565b5050505050610a16565b5f8160405160200161022691906109b9565b604051602081830303815290604052805190602001209050919050565b600281908060018154018082558091505060019003905f5260205f20015f9091909190916101000a81548173ffffffffffffffffffffffffffffffffffffffff021916908373ffffffffffffffffffffffffffffffffffffffff16021790555060035f8154809291906102b5906109cf565b919050555050565b5f604051905090565b5f5ffd5b5f5ffd5b5f5ffd5b5f601f19601f8301169050919050565b7f4e487b71000000000000000000000000000000000000000000000000000000005f52604160045260245ffd5b610318826102d2565b810181811067ffffffffffffffff82111715610337576103366102e2565b5b80604052505050565b5f6103496102bd565b9050610355828261030f565b919050565b5f67ffffffffffffffff821115610374576103736102e2565b5b602082029050602081019050919050565b5f5ffd5b5f73ffffffffffffffffffffffffffffffffffffffff82169050919050565b5f6103b282610389565b9050919050565b6103c2816103a8565b81146103cc575f5ffd5b50565b5f815190506103dd816103b9565b92915050565b5f6103f56103f08461035a565b610340565b9050808382526020820190506020840283018581111561041857610417610385565b5b835b81811015610441578061042d88826103cf565b84526020840193505060208101905061041a565b5050509392505050565b5f82601f83011261045f5761045e6102ce565b5b815161046f8482602086016103e3565b91505092915050565b5f5ffd5b5f67ffffffffffffffff821115610496576104956102e2565b5b61049f826102d2565b9050602081019050919050565b8281835e5f83830152505050565b5f6104cc6104c78461047c565b610340565b9050828152602081018484840111156104e8576104e7610478565b5b6104f38482856104ac565b509392505050565b5f82601f83011261050f5761050e6102ce565b5b815161051f8482602086016104ba565b91505092915050565b5f5f5f5f608085870312156105405761053f6102c6565b5b5f85015167ffffffffffffffff81111561055d5761055c6102ca565b5b6105698782880161044b565b945050602085015167ffffffffffffffff81111561058a576105896102ca565b5b610596878288016104fb565b93505060406105a7878288016103cf565b92505060606105b8878288016103cf565b91505092959194509250565b5f81519050919050565b7f4e487b71000000000000000000000000000000000000000000000000000000005f52602260045260245ffd5b5f600282049050600182168061061257607f821691505b602082108103610625576106246105ce565b5b50919050565b5f819050815f5260205f209050919050565b5f6020601f8301049050919050565b5f82821b905092915050565b5f600883026106877fffffffffffffffffffffffffffffffffffffffffffffffffffffffffffffffff8261064c565b610691868361064c565b95508019841693508086168417925050509392505050565b5f819050919050565b5f819050919050565b5f6106d56106d06106cb846106a9565b6106b2565b6106a9565b9050919050565b5f819050919050565b6106ee836106bb565b6107026106fa826106dc565b848454610658565b825550505050565b5f5f905090565b61071961070a565b6107248184846106e5565b505050565b5b818110156107475761073c5f82610711565b60018101905061072a565b5050565b601f82111561078c5761075d8161062b565b6107668461063d565b81016020851015610775578190505b6107896107818561063d565b830182610729565b50505b505050565b5f82821c905092915050565b5f6107ac5f1984600802610791565b1980831691505092915050565b5f6107c4838361079d565b9150826002028217905092915050565b6107dd826105c4565b67ffffffffffffffff8111156107f6576107f56102e2565b5b61080082546105fb565b61080b82828561074b565b5f60209050601f83116001811461083c575f841561082a578287015190505b61083485826107b9565b86555061089b565b601f19841661084a8661062b565b5f5b828110156108715784890151825560018201915060208501945060208101905061084c565b8683101561088e578489015161088a601f89168261079d565b8355505b6001600288020188555050505b505050505050565b7f4e487b71000000000000000000000000000000000000000000000000000000005f52601160045260245ffd5b5f6108da826106a9565b91506108e5836106a9565b92508282039050818111156108fd576108fc6108a3565b5b92915050565b7f4e487b71000000000000000000000000000000000000000000000000000000005f52603260045260245ffd5b610939816103a8565b82525050565b5f6020820190506109525f830184610930565b92915050565b5f610962826106a9565b91505f8203610974576109736108a3565b5b600182039050919050565b5f81905092915050565b5f610993826105c4565b61099d818561097f565b93506109ad8185602086016104ac565b80840191505092915050565b5f6109c48284610989565b915081905092915050565b5f6109d9826106a9565b91507fffffffffffffffffffffffffffffffffffffffffffffffffffffffffffffffff8203610a0b57610a0a6108a3565b5b600182019050919050565b611d3780610a235f395ff3fe60806040526004361061007a575f3560e01c8063abca8e091161004d578063abca8e0914610124578063aefa51281461012e578063b4c6790014610156578063f09a9fb21461017e5761007a565b8063199732611461007e5780634618f42c146100a85780634cf088d9146100e4578063757319761461010e575b5f5ffd5b348015610089575f5ffd5b506100926101a6565b60405161009f9190610eac565b60405180910390f35b3480156100b3575f5ffd5b506100ce60048036038101906100c99190611111565b6101cb565b6040516100db9190611167565b60405180910390f35b3480156100ef575f5ffd5b506100f86102f9565b60405161010591906111a0565b60405180910390f35b348015610119575f5ffd5b5061012261031e565b005b61012c6106b3565b005b348015610139575f5ffd5b50610154600480360381019061014f91906111f4565b61096e565b005b348015610161575f5ffd5b5061017c60048036038101906101779190611111565b6109e8565b005b348015610189575f5ffd5b506101a4600480360381019061019f919061127c565b610af3565b005b60055f9054906101000a900473ffffffffffffffffffffffffffffffffffffffff1681565b5f5f5f600180546101dc91906112f4565b815481106101ed576101ec611327565b5b905f5260205f2090600402016040518060800160405290815f8201548152602001600182015481526020016002820154815260200160038201805461023190611381565b80601f016020809104026020016040519081016040528092919081815260200182805461025d90611381565b80156102a85780601f1061027f576101008083540402835291602001916102a8565b820191905f5260205f20905b81548152906001019060200180831161028b57829003601f168201915b50505050508152505090506001816040015184604001516102c991906112f4565b146102d7575f9150506102f4565b805f01518360200151146102ee575f9150506102f4565b60019150505b919050565b60045f9054906101000a900473ffffffffffffffffffffffffffffffffffffffff1681565b5f600280549050905060028161033491906113b1565b600360075461034391906113b1565b1061059b575f6008908060018154018082558091505060019003905f5260205f2090600402015f909190919091505f820154815f01556001820154816001015560028201548160020155600382018160030190816103a1919061159e565b50505060015f8154809291906103b690611683565b919050555060045f9054906101000a900473ffffffffffffffffffffffffffffffffffffffff1673ffffffffffffffffffffffffffffffffffffffff1663490740e860055f9054906101000a900473ffffffffffffffffffffffffffffffffffffffff1673ffffffffffffffffffffffffffffffffffffffff16633b10244b6040518163ffffffff1660e01b8152600401602060405180830381865afa158015610462573d5f5f3e3d5ffd5b505050506040513d601f19601f8201168201806040525081019061048691906116de565b6040518263ffffffff1660e01b81526004016104a29190611718565b5f604051808303815f87803b1580156104b9575f5ffd5b505af11580156104cb573d5f5f3e3d5ffd5b505050505f60028054905090505f5f90505b8181101561059457600281815481106104f9576104f8611327565b5b905f5260205f20015f9054906101000a900473ffffffffffffffffffffffffffffffffffffffff1673ffffffffffffffffffffffffffffffffffffffff1663b4c6790060086040518263ffffffff1660e01b815260040161055a91906118b1565b5f604051808303815f87803b158015610571575f5ffd5b505af1158015610583573d5f5f3e3d5ffd5b5050505080806001019150506104dd565b50506106b0565b60045f9054906101000a900473ffffffffffffffffffffffffffffffffffffffff1673ffffffffffffffffffffffffffffffffffffffff1663b03b3ef060055f9054906101000a900473ffffffffffffffffffffffffffffffffffffffff1673ffffffffffffffffffffffffffffffffffffffff16633b10244b6040518163ffffffff1660e01b8152600401602060405180830381865afa158015610642573d5f5f3e3d5ffd5b505050506040513d601f19601f8201168201806040525081019061066691906116de565b6040518263ffffffff1660e01b81526004016106829190611718565b5f604051808303815f87803b158015610699575f5ffd5b505af11580156106ab573d5f5f3e3d5ffd5b505050505b50565b60055f9054906101000a900473ffffffffffffffffffffffffffffffffffffffff1673ffffffffffffffffffffffffffffffffffffffff16633b10244b6040518163ffffffff1660e01b8152600401602060405180830381865afa15801561071d573d5f5f3e3d5ffd5b505050506040513d601f19601f8201168201806040525081019061074191906116de565b73ffffffffffffffffffffffffffffffffffffffff163373ffffffffffffffffffffffffffffffffffffffff16146107ae576040517f08c379a00000000000000000000000000000000000000000000000000000000081526004016107a59061192b565b60405180910390fd5b670de0b6b3a76400003410156107f9576040517f08c379a00000000000000000000000000000000000000000000000000000000081526004016107f090611993565b60405180910390fd5b60045f9054906101000a900473ffffffffffffffffffffffffffffffffffffffff1673ffffffffffffffffffffffffffffffffffffffff16633a4b66f1346040518263ffffffff1660e01b81526004015f604051808303818588803b158015610860575f5ffd5b505af1158015610872573d5f5f3e3d5ffd5b50505050505f60028054905090505f5f90505b8181101561096a575f600282815481106108a2576108a1611327565b5b905f5260205f20015f9054906101000a900473ffffffffffffffffffffffffffffffffffffffff1690508073ffffffffffffffffffffffffffffffffffffffff16634618f42c60086040518263ffffffff1660e01b815260040161090691906118b1565b602060405180830381865afa158015610921573d5f5f3e3d5ffd5b505050506040513d601f19601f8201168201806040525081019061094591906119c5565b60075f82825461095591906119f0565b92505081905550508080600101915050610885565b5050565b600281908060018154018082558091505060019003905f5260205f20015f9091909190916101000a81548173ffffffffffffffffffffffffffffffffffffffff021916908373ffffffffffffffffffffffffffffffffffffffff16021790555060035f8154809291906109e090611683565b919050555050565b600154816040015114610a30576040517f08c379a0000000000000000000000000000000000000000000000000000000008152600401610a2790611a6d565b60405180910390fd5b5f81908060018154018082558091505060019003905f5260205f2090600402015f909190919091505f820151815f015560208201518160010155604082015181600201556060820151816003019081610a899190611a95565b50505060015f815480929190610a9e90611683565b919050555060405180602001604052805f81525060069081610ac09190611a95565b505f60078190555060085f5f82015f9055600182015f9055600282015f9055600382015f610aee9190610db5565b505050565b5f82828080601f0160208091040260200160405190810160405280939291908181526020018383808284375f81840152601f19601f8201169050808301925050505050505090505f815103610b7d576040517f08c379a0000000000000000000000000000000000000000000000000000000008152600401610b7490611bae565b60405180910390fd5b828260069182610b8e929190611bd6565b50610c2060068054610b9f90611381565b80601f0160208091040260200160405190810160405280929190818152602001828054610bcb90611381565b8015610c165780601f10610bed57610100808354040283529160200191610c16565b820191905f5260205f20905b815481529060010190602001808311610bf957829003601f168201915b5050505050610c5c565b60085f820151815f015560208201518160010155604082015181600201556060820151816003019081610c539190611a95565b50905050505050565b610c64610df2565b5f5f60018054610c7491906112f4565b81548110610c8557610c84611327565b5b905f5260205f2090600402016040518060800160405290815f82015481526020016001820154815260200160028201548152602001600382018054610cc990611381565b80601f0160208091040260200160405190810160405280929190818152602001828054610cf590611381565b8015610d405780601f10610d1757610100808354040283529160200191610d40565b820191905f5260205f20905b815481529060010190602001808311610d2357829003601f168201915b50505050508152505090505f6040518060800160405280610d6086610d86565b8152602001835f0151815260200160015481526020018581525090508092505050919050565b5f81604051602001610d989190611ceb565b604051602081830303815290604052805190602001209050919050565b508054610dc190611381565b5f825580601f10610dd25750610def565b601f0160209004905f5260205f2090810190610dee9190610e17565b5b50565b60405180608001604052805f81526020015f81526020015f8152602001606081525090565b5b80821115610e2e575f815f905550600101610e18565b5090565b5f73ffffffffffffffffffffffffffffffffffffffff82169050919050565b5f819050919050565b5f610e74610e6f610e6a84610e32565b610e51565b610e32565b9050919050565b5f610e8582610e5a565b9050919050565b5f610e9682610e7b565b9050919050565b610ea681610e8c565b82525050565b5f602082019050610ebf5f830184610e9d565b92915050565b5f604051905090565b5f5ffd5b5f5ffd5b5f5ffd5b5f601f19601f8301169050919050565b7f4e487b71000000000000000000000000000000000000000000000000000000005f52604160045260245ffd5b610f2082610eda565b810181811067ffffffffffffffff82111715610f3f57610f3e610eea565b5b80604052505050565b5f610f51610ec5565b9050610f5d8282610f17565b919050565b5f5ffd5b5f819050919050565b610f7881610f66565b8114610f82575f5ffd5b50565b5f81359050610f9381610f6f565b92915050565b5f819050919050565b610fab81610f99565b8114610fb5575f5ffd5b50565b5f81359050610fc681610fa2565b92915050565b5f5ffd5b5f5ffd5b5f67ffffffffffffffff821115610fee57610fed610eea565b5b610ff782610eda565b9050602081019050919050565b828183375f83830152505050565b5f61102461101f84610fd4565b610f48565b9050828152602081018484840111156110405761103f610fd0565b5b61104b848285611004565b509392505050565b5f82601f83011261106757611066610fcc565b5b8135611077848260208601611012565b91505092915050565b5f6080828403121561109557611094610ed6565b5b61109f6080610f48565b90505f6110ae84828501610f85565b5f8301525060206110c184828501610f85565b60208301525060406110d584828501610fb8565b604083015250606082013567ffffffffffffffff8111156110f9576110f8610f62565b5b61110584828501611053565b60608301525092915050565b5f6020828403121561112657611125610ece565b5b5f82013567ffffffffffffffff81111561114357611142610ed2565b5b61114f84828501611080565b91505092915050565b61116181610f99565b82525050565b5f60208201905061117a5f830184611158565b92915050565b5f61118a82610e7b565b9050919050565b61119a81611180565b82525050565b5f6020820190506111b35f830184611191565b92915050565b5f6111c382610e32565b9050919050565b6111d3816111b9565b81146111dd575f5ffd5b50565b5f813590506111ee816111ca565b92915050565b5f6020828403121561120957611208610ece565b5b5f611216848285016111e0565b91505092915050565b5f5ffd5b5f5ffd5b5f5f83601f84011261123c5761123b610fcc565b5b8235905067ffffffffffffffff8111156112595761125861121f565b5b60208301915083600182028301111561127557611274611223565b5b9250929050565b5f5f6020838503121561129257611291610ece565b5b5f83013567ffffffffffffffff8111156112af576112ae610ed2565b5b6112bb85828601611227565b92509250509250929050565b7f4e487b71000000000000000000000000000000000000000000000000000000005f52601160045260245ffd5b5f6112fe82610f99565b915061130983610f99565b9250828203905081811115611321576113206112c7565b5b92915050565b7f4e487b71000000000000000000000000000000000000000000000000000000005f52603260045260245ffd5b7f4e487b71000000000000000000000000000000000000000000000000000000005f52602260045260245ffd5b5f600282049050600182168061139857607f821691505b6020821081036113ab576113aa611354565b5b50919050565b5f6113bb82610f99565b91506113c683610f99565b92508282026113d481610f99565b915082820484148315176113eb576113ea6112c7565b5b5092915050565b5f8154905061140081611381565b9050919050565b5f819050815f5260205f209050919050565b5f6020601f8301049050919050565b5f82821b905092915050565b5f600883026114637fffffffffffffffffffffffffffffffffffffffffffffffffffffffffffffffff82611428565b61146d8683611428565b95508019841693508086168417925050509392505050565b5f61149f61149a61149584610f99565b610e51565b610f99565b9050919050565b5f819050919050565b6114b883611485565b6114cc6114c4826114a6565b848454611434565b825550505050565b5f5f905090565b6114e36114d4565b6114ee8184846114af565b505050565b5b81811015611511576115065f826114db565b6001810190506114f4565b5050565b601f8211156115565761152781611407565b61153084611419565b8101602085101561153f578190505b61155361154b85611419565b8301826114f3565b50505b505050565b5f82821c905092915050565b5f6115765f198460080261155b565b1980831691505092915050565b5f61158e8383611567565b9150826002028217905092915050565b8181036115ac575050611681565b6115b5826113f2565b67ffffffffffffffff8111156115ce576115cd610eea565b5b6115d88254611381565b6115e3828285611515565b5f601f831160018114611610575f84156115fe578287015490505b6116088582611583565b86555061167a565b601f19841661161e87611407565b965061162986611407565b5f5b828110156116505784890154825560018201915060018501945060208101905061162b565b8683101561166d5784890154611669601f891682611567565b8355505b6001600288020188555050505b5050505050505b565b5f61168d82610f99565b91507fffffffffffffffffffffffffffffffffffffffffffffffffffffffffffffffff82036116bf576116be6112c7565b5b600182019050919050565b5f815190506116d8816111ca565b92915050565b5f602082840312156116f3576116f2610ece565b5b5f611700848285016116ca565b91505092915050565b611712816111b9565b82525050565b5f60208201905061172b5f830184611709565b92915050565b5f815f1c9050919050565b5f819050919050565b5f61175761175283611731565b61173c565b9050919050565b61176781610f66565b82525050565b5f819050919050565b5f61178861178383611731565b61176d565b9050919050565b61179881610f99565b82525050565b5f82825260208201905092915050565b5f81546117ba81611381565b6117c4818661179e565b9450600182165f81146117de57600181146117f457611826565b60ff198316865281151560200286019350611826565b6117fd85611407565b5f5b8381101561181e578154818901526001820191506020810190506117ff565b808801955050505b50505092915050565b5f608083015f5f840154905061184481611745565b6118505f87018261175e565b506001840154905061186181611745565b61186e602087018261175e565b506002840154905061187f81611776565b61188c604087018261178f565b506003840185830360608701526118a383826117ae565b925050819250505092915050565b5f6020820190508181035f8301526118c9818461182f565b905092915050565b5f82825260208201905092915050565b7f4e6f742073656c65637465642070726f706f73657200000000000000000000005f82015250565b5f6119156015836118d1565b9150611920826118e1565b602082019050919050565b5f6020820190508181035f83015261194281611909565b9050919050565b7f5374616b652072657175697265640000000000000000000000000000000000005f82015250565b5f61197d600e836118d1565b915061198882611949565b602082019050919050565b5f6020820190508181035f8301526119aa81611971565b9050919050565b5f815190506119bf81610fa2565b92915050565b5f602082840312156119da576119d9610ece565b5b5f6119e7848285016119b1565b91505092915050565b5f6119fa82610f99565b9150611a0583610f99565b9250828201905080821115611a1d57611a1c6112c7565b5b92915050565b7f426c6f636b2070726f706f73616c206661696c757265000000000000000000005f82015250565b5f611a576016836118d1565b9150611a6282611a23565b602082019050919050565b5f6020820190508181035f830152611a8481611a4b565b9050919050565b5f81519050919050565b611a9e82611a8b565b67ffffffffffffffff811115611ab757611ab6610eea565b5b611ac18254611381565b611acc828285611515565b5f60209050601f831160018114611afd575f8415611aeb578287015190505b611af58582611583565b865550611b5c565b601f198416611b0b86611407565b5f5b82811015611b3257848901518255600182019150602085019450602081019050611b0d565b86831015611b4f5784890151611b4b601f891682611567565b8355505b6001600288020188555050505b505050505050565b7f456d7074792064617461207265717565737473206e6f742061636365707465645f82015250565b5f611b986020836118d1565b9150611ba382611b64565b602082019050919050565b5f6020820190508181035f830152611bc581611b8c565b9050919050565b5f82905092915050565b611be08383611bcc565b67ffffffffffffffff811115611bf957611bf8610eea565b5b611c038254611381565b611c0e828285611515565b5f601f831160018114611c3b575f8415611c29578287013590505b611c338582611583565b865550611c9a565b601f198416611c4986611407565b5f5b82811015611c7057848901358255600182019150602085019450602081019050611c4b565b86831015611c8d5784890135611c89601f891682611567565b8355505b6001600288020188555050505b50505050505050565b5f81905092915050565b8281835e5f83830152505050565b5f611cc582611a8b565b611ccf8185611ca3565b9350611cdf818560208601611cad565b80840191505092915050565b5f611cf68284611cbb565b91508190509291505056fea264697066735822122001dbfd9a228432da4b56176eb65b7d71e7818b5537df91a6b1ba70959a4a3cc664736f6c634300081e0033",
					"opcodes": "PUSH1 0x80 PUSH1 0x40 MSTORE CALLVALUE DUP1 ISZERO PUSH2 0xF JUMPI PUSH0 PUSH0 REVERT JUMPDEST POP PUSH1 0x40 MLOAD PUSH2 0x275A CODESIZE SUB DUP1 PUSH2 0x275A DUP4 CODECOPY DUP2 DUP2 ADD PUSH1 0x40 MSTORE DUP2 ADD SWAP1 PUSH2 0x31 SWAP2 SWAP1 PUSH2 0x528 JUMP JUMPDEST DUP3 PUSH0 PUSH1 0x40 MLOAD DUP1 PUSH1 0x80 ADD PUSH1 0x40 MSTORE DUP1 PUSH2 0x4D DUP5 PUSH2 0x214 PUSH1 0x20 SHL PUSH1 0x20 SHR JUMP JUMPDEST DUP2 MSTORE PUSH1 0x20 ADD PUSH0 DUP2 MSTORE PUSH1 0x20 ADD PUSH0 DUP2 MSTORE PUSH1 0x20 ADD DUP4 DUP2 MSTORE POP SWAP1 POP PUSH1 0x1 DUP1 DUP2 SWAP1 SSTORE POP PUSH0 DUP2 SWAP1 DUP1 PUSH1 0x1 DUP2 SLOAD ADD DUP1 DUP3 SSTORE DUP1 SWAP2 POP POP PUSH1 0x1 SWAP1 SUB SWAP1 PUSH0 MSTORE PUSH1 0x20 PUSH0 KECCAK256 SWAP1 PUSH1 0x4 MUL ADD PUSH0 SWAP1 SWAP2 SWAP1 SWAP2 SWAP1 SWAP2 POP PUSH0 DUP3 ADD MLOAD DUP2 PUSH0 ADD SSTORE PUSH1 0x20 DUP3 ADD MLOAD DUP2 PUSH1 0x1 ADD SSTORE PUSH1 0x40 DUP3 ADD MLOAD DUP2 PUSH1 0x2 ADD SSTORE PUSH1 0x60 DUP3 ADD MLOAD DUP2 PUSH1 0x3 ADD SWAP1 DUP2 PUSH2 0xC4 SWAP2 SWAP1 PUSH2 0x7D4 JUMP JUMPDEST POP POP POP POP POP DUP2 PUSH1 0x4 PUSH0 PUSH2 0x100 EXP DUP2 SLOAD DUP2 PUSH20 0xFFFFFFFFFFFFFFFFFFFFFFFFFFFFFFFFFFFFFFFF MUL NOT AND SWAP1 DUP4 PUSH20 0xFFFFFFFFFFFFFFFFFFFFFFFFFFFFFFFFFFFFFFFF AND MUL OR SWAP1 SSTORE POP DUP1 PUSH1 0x5 PUSH0 PUSH2 0x100 EXP DUP2 SLOAD DUP2 PUSH20 0xFFFFFFFFFFFFFFFFFFFFFFFFFFFFFFFFFFFFFFFF MUL NOT AND SWAP1 DUP4 PUSH20 0xFFFFFFFFFFFFFFFFFFFFFFFFFFFFFFFFFFFFFFFF AND MUL OR SWAP1 SSTORE POP PUSH0 DUP5 MLOAD SWAP1 POP JUMPDEST PUSH0 DUP2 GT ISZERO PUSH2 0x20A JUMPI PUSH0 DUP6 PUSH1 0x1 DUP4 PUSH2 0x166 SWAP2 SWAP1 PUSH2 0x8D0 JUMP JUMPDEST DUP2 MLOAD DUP2 LT PUSH2 0x177 JUMPI PUSH2 0x176 PUSH2 0x903 JUMP JUMPDEST JUMPDEST PUSH1 0x20 MUL PUSH1 0x20 ADD ADD MLOAD SWAP1 POP PUSH2 0x190 DUP2 PUSH2 0x243 PUSH1 0x20 SHL PUSH1 0x20 SHR JUMP JUMPDEST DUP1 PUSH20 0xFFFFFFFFFFFFFFFFFFFFFFFFFFFFFFFFFFFFFFFF AND PUSH4 0xAEFA5128 ADDRESS PUSH1 0x40 MLOAD DUP3 PUSH4 0xFFFFFFFF AND PUSH1 0xE0 SHL DUP2 MSTORE PUSH1 0x4 ADD PUSH2 0x1C9 SWAP2 SWAP1 PUSH2 0x93F JUMP JUMPDEST PUSH0 PUSH1 0x40 MLOAD DUP1 DUP4 SUB DUP2 PUSH0 DUP8 DUP1 EXTCODESIZE ISZERO DUP1 ISZERO PUSH2 0x1E0 JUMPI PUSH0 PUSH0 REVERT JUMPDEST POP GAS CALL ISZERO DUP1 ISZERO PUSH2 0x1F2 JUMPI RETURNDATASIZE PUSH0 PUSH0 RETURNDATACOPY RETURNDATASIZE PUSH0 REVERT JUMPDEST POP POP POP POP DUP2 DUP1 PUSH2 0x201 SWAP1 PUSH2 0x958 JUMP JUMPDEST SWAP3 POP POP POP PUSH2 0x14F JUMP JUMPDEST POP POP POP POP POP PUSH2 0xA16 JUMP JUMPDEST PUSH0 DUP2 PUSH1 0x40 MLOAD PUSH1 0x20 ADD PUSH2 0x226 SWAP2 SWAP1 PUSH2 0x9B9 JUMP JUMPDEST PUSH1 0x40 MLOAD PUSH1 0x20 DUP2 DUP4 SUB SUB DUP2 MSTORE SWAP1 PUSH1 0x40 MSTORE DUP1 MLOAD SWAP1 PUSH1 0x20 ADD KECCAK256 SWAP1 POP SWAP2 SWAP1 POP JUMP JUMPDEST PUSH1 0x2 DUP2 SWAP1 DUP1 PUSH1 0x1 DUP2 SLOAD ADD DUP1 DUP3 SSTORE DUP1 SWAP2 POP POP PUSH1 0x1 SWAP1 SUB SWAP1 PUSH0 MSTORE PUSH1 0x20 PUSH0 KECCAK256 ADD PUSH0 SWAP1 SWAP2 SWAP1 SWAP2 SWAP1 SWAP2 PUSH2 0x100 EXP DUP2 SLOAD DUP2 PUSH20 0xFFFFFFFFFFFFFFFFFFFFFFFFFFFFFFFFFFFFFFFF MUL NOT AND SWAP1 DUP4 PUSH20 0xFFFFFFFFFFFFFFFFFFFFFFFFFFFFFFFFFFFFFFFF AND MUL OR SWAP1 SSTORE POP PUSH1 0x3 PUSH0 DUP2 SLOAD DUP1 SWAP3 SWAP2 SWAP1 PUSH2 0x2B5 SWAP1 PUSH2 0x9CF JUMP JUMPDEST SWAP2 SWAP1 POP SSTORE POP POP JUMP JUMPDEST PUSH0 PUSH1 0x40 MLOAD SWAP1 POP SWAP1 JUMP JUMPDEST PUSH0 PUSH0 REVERT JUMPDEST PUSH0 PUSH0 REVERT JUMPDEST PUSH0 PUSH0 REVERT JUMPDEST PUSH0 PUSH1 0x1F NOT PUSH1 0x1F DUP4 ADD AND SWAP1 POP SWAP2 SWAP1 POP JUMP JUMPDEST PUSH32 0x4E487B7100000000000000000000000000000000000000000000000000000000 PUSH0 MSTORE PUSH1 0x41 PUSH1 0x4 MSTORE PUSH1 0x24 PUSH0 REVERT JUMPDEST PUSH2 0x318 DUP3 PUSH2 0x2D2 JUMP JUMPDEST DUP2 ADD DUP2 DUP2 LT PUSH8 0xFFFFFFFFFFFFFFFF DUP3 GT OR ISZERO PUSH2 0x337 JUMPI PUSH2 0x336 PUSH2 0x2E2 JUMP JUMPDEST JUMPDEST DUP1 PUSH1 0x40 MSTORE POP POP POP JUMP JUMPDEST PUSH0 PUSH2 0x349 PUSH2 0x2BD JUMP JUMPDEST SWAP1 POP PUSH2 0x355 DUP3 DUP3 PUSH2 0x30F JUMP JUMPDEST SWAP2 SWAP1 POP JUMP JUMPDEST PUSH0 PUSH8 0xFFFFFFFFFFFFFFFF DUP3 GT ISZERO PUSH2 0x374 JUMPI PUSH2 0x373 PUSH2 0x2E2 JUMP JUMPDEST JUMPDEST PUSH1 0x20 DUP3 MUL SWAP1 POP PUSH1 0x20 DUP2 ADD SWAP1 POP SWAP2 SWAP1 POP JUMP JUMPDEST PUSH0 PUSH0 REVERT JUMPDEST PUSH0 PUSH20 0xFFFFFFFFFFFFFFFFFFFFFFFFFFFFFFFFFFFFFFFF DUP3 AND SWAP1 POP SWAP2 SWAP1 POP JUMP JUMPDEST PUSH0 PUSH2 0x3B2 DUP3 PUSH2 0x389 JUMP JUMPDEST SWAP1 POP SWAP2 SWAP1 POP JUMP JUMPDEST PUSH2 0x3C2 DUP2 PUSH2 0x3A8 JUMP JUMPDEST DUP2 EQ PUSH2 0x3CC JUMPI PUSH0 PUSH0 REVERT JUMPDEST POP JUMP JUMPDEST PUSH0 DUP2 MLOAD SWAP1 POP PUSH2 0x3DD DUP2 PUSH2 0x3B9 JUMP JUMPDEST SWAP3 SWAP2 POP POP JUMP JUMPDEST PUSH0 PUSH2 0x3F5 PUSH2 0x3F0 DUP5 PUSH2 0x35A JUMP JUMPDEST PUSH2 0x340 JUMP JUMPDEST SWAP1 POP DUP1 DUP4 DUP3 MSTORE PUSH1 0x20 DUP3 ADD SWAP1 POP PUSH1 0x20 DUP5 MUL DUP4 ADD DUP6 DUP2 GT ISZERO PUSH2 0x418 JUMPI PUSH2 0x417 PUSH2 0x385 JUMP JUMPDEST JUMPDEST DUP4 JUMPDEST DUP2 DUP2 LT ISZERO PUSH2 0x441 JUMPI DUP1 PUSH2 0x42D DUP9 DUP3 PUSH2 0x3CF JUMP JUMPDEST DUP5 MSTORE PUSH1 0x20 DUP5 ADD SWAP4 POP POP PUSH1 0x20 DUP2 ADD SWAP1 POP PUSH2 0x41A JUMP JUMPDEST POP POP POP SWAP4 SWAP3 POP POP POP JUMP JUMPDEST PUSH0 DUP3 PUSH1 0x1F DUP4 ADD SLT PUSH2 0x45F JUMPI PUSH2 0x45E PUSH2 0x2CE JUMP JUMPDEST JUMPDEST DUP2 MLOAD PUSH2 0x46F DUP5 DUP3 PUSH1 0x20 DUP7 ADD PUSH2 0x3E3 JUMP JUMPDEST SWAP2 POP POP SWAP3 SWAP2 POP POP JUMP JUMPDEST PUSH0 PUSH0 REVERT JUMPDEST PUSH0 PUSH8 0xFFFFFFFFFFFFFFFF DUP3 GT ISZERO PUSH2 0x496 JUMPI PUSH2 0x495 PUSH2 0x2E2 JUMP JUMPDEST JUMPDEST PUSH2 0x49F DUP3 PUSH2 0x2D2 JUMP JUMPDEST SWAP1 POP PUSH1 0x20 DUP2 ADD SWAP1 POP SWAP2 SWAP1 POP JUMP JUMPDEST DUP3 DUP2 DUP4 MCOPY PUSH0 DUP4 DUP4 ADD MSTORE POP POP POP JUMP JUMPDEST PUSH0 PUSH2 0x4CC PUSH2 0x4C7 DUP5 PUSH2 0x47C JUMP JUMPDEST PUSH2 0x340 JUMP JUMPDEST SWAP1 POP DUP3 DUP2 MSTORE PUSH1 0x20 DUP2 ADD DUP5 DUP5 DUP5 ADD GT ISZERO PUSH2 0x4E8 JUMPI PUSH2 0x4E7 PUSH2 0x478 JUMP JUMPDEST JUMPDEST PUSH2 0x4F3 DUP5 DUP3 DUP6 PUSH2 0x4AC JUMP JUMPDEST POP SWAP4 SWAP3 POP POP POP JUMP JUMPDEST PUSH0 DUP3 PUSH1 0x1F DUP4 ADD SLT PUSH2 0x50F JUMPI PUSH2 0x50E PUSH2 0x2CE JUMP JUMPDEST JUMPDEST DUP2 MLOAD PUSH2 0x51F DUP5 DUP3 PUSH1 0x20 DUP7 ADD PUSH2 0x4BA JUMP JUMPDEST SWAP2 POP POP SWAP3 SWAP2 POP POP JUMP JUMPDEST PUSH0 PUSH0 PUSH0 PUSH0 PUSH1 0x80 DUP6 DUP8 SUB SLT ISZERO PUSH2 0x540 JUMPI PUSH2 0x53F PUSH2 0x2C6 JUMP JUMPDEST JUMPDEST PUSH0 DUP6 ADD MLOAD PUSH8 0xFFFFFFFFFFFFFFFF DUP2 GT ISZERO PUSH2 0x55D JUMPI PUSH2 0x55C PUSH2 0x2CA JUMP JUMPDEST JUMPDEST PUSH2 0x569 DUP8 DUP3 DUP9 ADD PUSH2 0x44B JUMP JUMPDEST SWAP5 POP POP PUSH1 0x20 DUP6 ADD MLOAD PUSH8 0xFFFFFFFFFFFFFFFF DUP2 GT ISZERO PUSH2 0x58A JUMPI PUSH2 0x589 PUSH2 0x2CA JUMP JUMPDEST JUMPDEST PUSH2 0x596 DUP8 DUP3 DUP9 ADD PUSH2 0x4FB JUMP JUMPDEST SWAP4 POP POP PUSH1 0x40 PUSH2 0x5A7 DUP8 DUP3 DUP9 ADD PUSH2 0x3CF JUMP JUMPDEST SWAP3 POP POP PUSH1 0x60 PUSH2 0x5B8 DUP8 DUP3 DUP9 ADD PUSH2 0x3CF JUMP JUMPDEST SWAP2 POP POP SWAP3 SWAP6 SWAP2 SWAP5 POP SWAP3 POP JUMP JUMPDEST PUSH0 DUP2 MLOAD SWAP1 POP SWAP2 SWAP1 POP JUMP JUMPDEST PUSH32 0x4E487B7100000000000000000000000000000000000000000000000000000000 PUSH0 MSTORE PUSH1 0x22 PUSH1 0x4 MSTORE PUSH1 0x24 PUSH0 REVERT JUMPDEST PUSH0 PUSH1 0x2 DUP3 DIV SWAP1 POP PUSH1 0x1 DUP3 AND DUP1 PUSH2 0x612 JUMPI PUSH1 0x7F DUP3 AND SWAP2 POP JUMPDEST PUSH1 0x20 DUP3 LT DUP2 SUB PUSH2 0x625 JUMPI PUSH2 0x624 PUSH2 0x5CE JUMP JUMPDEST JUMPDEST POP SWAP2 SWAP1 POP JUMP JUMPDEST PUSH0 DUP2 SWAP1 POP DUP2 PUSH0 MSTORE PUSH1 0x20 PUSH0 KECCAK256 SWAP1 POP SWAP2 SWAP1 POP JUMP JUMPDEST PUSH0 PUSH1 0x20 PUSH1 0x1F DUP4 ADD DIV SWAP1 POP SWAP2 SWAP1 POP JUMP JUMPDEST PUSH0 DUP3 DUP3 SHL SWAP1 POP SWAP3 SWAP2 POP POP JUMP JUMPDEST PUSH0 PUSH1 0x8 DUP4 MUL PUSH2 0x687 PUSH32 0xFFFFFFFFFFFFFFFFFFFFFFFFFFFFFFFFFFFFFFFFFFFFFFFFFFFFFFFFFFFFFFFF DUP3 PUSH2 0x64C JUMP JUMPDEST PUSH2 0x691 DUP7 DUP4 PUSH2 0x64C JUMP JUMPDEST SWAP6 POP DUP1 NOT DUP5 AND SWAP4 POP DUP1 DUP7 AND DUP5 OR SWAP3 POP POP POP SWAP4 SWAP3 POP POP POP JUMP JUMPDEST PUSH0 DUP2 SWAP1 POP SWAP2 SWAP1 POP JUMP JUMPDEST PUSH0 DUP2 SWAP1 POP SWAP2 SWAP1 POP JUMP JUMPDEST PUSH0 PUSH2 0x6D5 PUSH2 0x6D0 PUSH2 0x6CB DUP5 PUSH2 0x6A9 JUMP JUMPDEST PUSH2 0x6B2 JUMP JUMPDEST PUSH2 0x6A9 JUMP JUMPDEST SWAP1 POP SWAP2 SWAP1 POP JUMP JUMPDEST PUSH0 DUP2 SWAP1 POP SWAP2 SWAP1 POP JUMP JUMPDEST PUSH2 0x6EE DUP4 PUSH2 0x6BB JUMP JUMPDEST PUSH2 0x702 PUSH2 0x6FA DUP3 PUSH2 0x6DC JUMP JUMPDEST DUP5 DUP5 SLOAD PUSH2 0x658 JUMP JUMPDEST DUP3 SSTORE POP POP POP POP JUMP JUMPDEST PUSH0 PUSH0 SWAP1 POP SWAP1 JUMP JUMPDEST PUSH2 0x719 PUSH2 0x70A JUMP JUMPDEST PUSH2 0x724 DUP2 DUP5 DUP5 PUSH2 0x6E5 JUMP JUMPDEST POP POP POP JUMP JUMPDEST JUMPDEST DUP2 DUP2 LT ISZERO PUSH2 0x747 JUMPI PUSH2 0x73C PUSH0 DUP3 PUSH2 0x711 JUMP JUMPDEST PUSH1 0x1 DUP2 ADD SWAP1 POP PUSH2 0x72A JUMP JUMPDEST POP POP JUMP JUMPDEST PUSH1 0x1F DUP3 GT ISZERO PUSH2 0x78C JUMPI PUSH2 0x75D DUP2 PUSH2 0x62B JUMP JUMPDEST PUSH2 0x766 DUP5 PUSH2 0x63D JUMP JUMPDEST DUP2 ADD PUSH1 0x20 DUP6 LT ISZERO PUSH2 0x775 JUMPI DUP2 SWAP1 POP JUMPDEST PUSH2 0x789 PUSH2 0x781 DUP6 PUSH2 0x63D JUMP JUMPDEST DUP4 ADD DUP3 PUSH2 0x729 JUMP JUMPDEST POP POP JUMPDEST POP POP POP JUMP JUMPDEST PUSH0 DUP3 DUP3 SHR SWAP1 POP SWAP3 SWAP2 POP POP JUMP JUMPDEST PUSH0 PUSH2 0x7AC PUSH0 NOT DUP5 PUSH1 0x8 MUL PUSH2 0x791 JUMP JUMPDEST NOT DUP1 DUP4 AND SWAP2 POP POP SWAP3 SWAP2 POP POP JUMP JUMPDEST PUSH0 PUSH2 0x7C4 DUP4 DUP4 PUSH2 0x79D JUMP JUMPDEST SWAP2 POP DUP3 PUSH1 0x2 MUL DUP3 OR SWAP1 POP SWAP3 SWAP2 POP POP JUMP JUMPDEST PUSH2 0x7DD DUP3 PUSH2 0x5C4 JUMP JUMPDEST PUSH8 0xFFFFFFFFFFFFFFFF DUP2 GT ISZERO PUSH2 0x7F6 JUMPI PUSH2 0x7F5 PUSH2 0x2E2 JUMP JUMPDEST JUMPDEST PUSH2 0x800 DUP3 SLOAD PUSH2 0x5FB JUMP JUMPDEST PUSH2 0x80B DUP3 DUP3 DUP6 PUSH2 0x74B JUMP JUMPDEST PUSH0 PUSH1 0x20 SWAP1 POP PUSH1 0x1F DUP4 GT PUSH1 0x1 DUP2 EQ PUSH2 0x83C JUMPI PUSH0 DUP5 ISZERO PUSH2 0x82A JUMPI DUP3 DUP8 ADD MLOAD SWAP1 POP JUMPDEST PUSH2 0x834 DUP6 DUP3 PUSH2 0x7B9 JUMP JUMPDEST DUP7 SSTORE POP PUSH2 0x89B JUMP JUMPDEST PUSH1 0x1F NOT DUP5 AND PUSH2 0x84A DUP7 PUSH2 0x62B JUMP JUMPDEST PUSH0 JUMPDEST DUP3 DUP2 LT ISZERO PUSH2 0x871 JUMPI DUP5 DUP10 ADD MLOAD DUP3 SSTORE PUSH1 0x1 DUP3 ADD SWAP2 POP PUSH1 0x20 DUP6 ADD SWAP5 POP PUSH1 0x20 DUP2 ADD SWAP1 POP PUSH2 0x84C JUMP JUMPDEST DUP7 DUP4 LT ISZERO PUSH2 0x88E JUMPI DUP5 DUP10 ADD MLOAD PUSH2 0x88A PUSH1 0x1F DUP10 AND DUP3 PUSH2 0x79D JUMP JUMPDEST DUP4 SSTORE POP JUMPDEST PUSH1 0x1 PUSH1 0x2 DUP9 MUL ADD DUP9 SSTORE POP POP POP JUMPDEST POP POP POP POP POP POP JUMP JUMPDEST PUSH32 0x4E487B7100000000000000000000000000000000000000000000000000000000 PUSH0 MSTORE PUSH1 0x11 PUSH1 0x4 MSTORE PUSH1 0x24 PUSH0 REVERT JUMPDEST PUSH0 PUSH2 0x8DA DUP3 PUSH2 0x6A9 JUMP JUMPDEST SWAP2 POP PUSH2 0x8E5 DUP4 PUSH2 0x6A9 JUMP JUMPDEST SWAP3 POP DUP3 DUP3 SUB SWAP1 POP DUP2 DUP2 GT ISZERO PUSH2 0x8FD JUMPI PUSH2 0x8FC PUSH2 0x8A3 JUMP JUMPDEST JUMPDEST SWAP3 SWAP2 POP POP JUMP JUMPDEST PUSH32 0x4E487B7100000000000000000000000000000000000000000000000000000000 PUSH0 MSTORE PUSH1 0x32 PUSH1 0x4 MSTORE PUSH1 0x24 PUSH0 REVERT JUMPDEST PUSH2 0x939 DUP2 PUSH2 0x3A8 JUMP JUMPDEST DUP3 MSTORE POP POP JUMP JUMPDEST PUSH0 PUSH1 0x20 DUP3 ADD SWAP1 POP PUSH2 0x952 PUSH0 DUP4 ADD DUP5 PUSH2 0x930 JUMP JUMPDEST SWAP3 SWAP2 POP POP JUMP JUMPDEST PUSH0 PUSH2 0x962 DUP3 PUSH2 0x6A9 JUMP JUMPDEST SWAP2 POP PUSH0 DUP3 SUB PUSH2 0x974 JUMPI PUSH2 0x973 PUSH2 0x8A3 JUMP JUMPDEST JUMPDEST PUSH1 0x1 DUP3 SUB SWAP1 POP SWAP2 SWAP1 POP JUMP JUMPDEST PUSH0 DUP2 SWAP1 POP SWAP3 SWAP2 POP POP JUMP JUMPDEST PUSH0 PUSH2 0x993 DUP3 PUSH2 0x5C4 JUMP JUMPDEST PUSH2 0x99D DUP2 DUP6 PUSH2 0x97F JUMP JUMPDEST SWAP4 POP PUSH2 0x9AD DUP2 DUP6 PUSH1 0x20 DUP7 ADD PUSH2 0x4AC JUMP JUMPDEST DUP1 DUP5 ADD SWAP2 POP POP SWAP3 SWAP2 POP POP JUMP JUMPDEST PUSH0 PUSH2 0x9C4 DUP3 DUP5 PUSH2 0x989 JUMP JUMPDEST SWAP2 POP DUP2 SWAP1 POP SWAP3 SWAP2 POP POP JUMP JUMPDEST PUSH0 PUSH2 0x9D9 DUP3 PUSH2 0x6A9 JUMP JUMPDEST SWAP2 POP PUSH32 0xFFFFFFFFFFFFFFFFFFFFFFFFFFFFFFFFFFFFFFFFFFFFFFFFFFFFFFFFFFFFFFFF DUP3 SUB PUSH2 0xA0B JUMPI PUSH2 0xA0A PUSH2 0x8A3 JUMP JUMPDEST JUMPDEST PUSH1 0x1 DUP3 ADD SWAP1 POP SWAP2 SWAP1 POP JUMP JUMPDEST PUSH2 0x1D37 DUP1 PUSH2 0xA23 PUSH0 CODECOPY PUSH0 RETURN INVALID PUSH1 0x80 PUSH1 0x40 MSTORE PUSH1 0x4 CALLDATASIZE LT PUSH2 0x7A JUMPI PUSH0 CALLDATALOAD PUSH1 0xE0 SHR DUP1 PUSH4 0xABCA8E09 GT PUSH2 0x4D JUMPI DUP1 PUSH4 0xABCA8E09 EQ PUSH2 0x124 JUMPI DUP1 PUSH4 0xAEFA5128 EQ PUSH2 0x12E JUMPI DUP1 PUSH4 0xB4C67900 EQ PUSH2 0x156 JUMPI DUP1 PUSH4 0xF09A9FB2 EQ PUSH2 0x17E JUMPI PUSH2 0x7A JUMP JUMPDEST DUP1 PUSH4 0x19973261 EQ PUSH2 0x7E JUMPI DUP1 PUSH4 0x4618F42C EQ PUSH2 0xA8 JUMPI DUP1 PUSH4 0x4CF088D9 EQ PUSH2 0xE4 JUMPI DUP1 PUSH4 0x75731976 EQ PUSH2 0x10E JUMPI JUMPDEST PUSH0 PUSH0 REVERT JUMPDEST CALLVALUE DUP1 ISZERO PUSH2 0x89 JUMPI PUSH0 PUSH0 REVERT JUMPDEST POP PUSH2 0x92 PUSH2 0x1A6 JUMP JUMPDEST PUSH1 0x40 MLOAD PUSH2 0x9F SWAP2 SWAP1 PUSH2 0xEAC JUMP JUMPDEST PUSH1 0x40 MLOAD DUP1 SWAP2 SUB SWAP1 RETURN JUMPDEST CALLVALUE DUP1 ISZERO PUSH2 0xB3 JUMPI PUSH0 PUSH0 REVERT JUMPDEST POP PUSH2 0xCE PUSH1 0x4 DUP1 CALLDATASIZE SUB DUP2 ADD SWAP1 PUSH2 0xC9 SWAP2 SWAP1 PUSH2 0x1111 JUMP JUMPDEST PUSH2 0x1CB JUMP JUMPDEST PUSH1 0x40 MLOAD PUSH2 0xDB SWAP2 SWAP1 PUSH2 0x1167 JUMP JUMPDEST PUSH1 0x40 MLOAD DUP1 SWAP2 SUB SWAP1 RETURN JUMPDEST CALLVALUE DUP1 ISZERO PUSH2 0xEF JUMPI PUSH0 PUSH0 REVERT JUMPDEST POP PUSH2 0xF8 PUSH2 0x2F9 JUMP JUMPDEST PUSH1 0x40 MLOAD PUSH2 0x105 SWAP2 SWAP1 PUSH2 0x11A0 JUMP JUMPDEST PUSH1 0x40 MLOAD DUP1 SWAP2 SUB SWAP1 RETURN JUMPDEST CALLVALUE DUP1 ISZERO PUSH2 0x119 JUMPI PUSH0 PUSH0 REVERT JUMPDEST POP PUSH2 0x122 PUSH2 0x31E JUMP JUMPDEST STOP JUMPDEST PUSH2 0x12C PUSH2 0x6B3 JUMP JUMPDEST STOP JUMPDEST CALLVALUE DUP1 ISZERO PUSH2 0x139 JUMPI PUSH0 PUSH0 REVERT JUMPDEST POP PUSH2 0x154 PUSH1 0x4 DUP1 CALLDATASIZE SUB DUP2 ADD SWAP1 PUSH2 0x14F SWAP2 SWAP1 PUSH2 0x11F4 JUMP JUMPDEST PUSH2 0x96E JUMP JUMPDEST STOP JUMPDEST CALLVALUE DUP1 ISZERO PUSH2 0x161 JUMPI PUSH0 PUSH0 REVERT JUMPDEST POP PUSH2 0x17C PUSH1 0x4 DUP1 CALLDATASIZE SUB DUP2 ADD SWAP1 PUSH2 0x177 SWAP2 SWAP1 PUSH2 0x1111 JUMP JUMPDEST PUSH2 0x9E8 JUMP JUMPDEST STOP JUMPDEST CALLVALUE DUP1 ISZERO PUSH2 0x189 JUMPI PUSH0 PUSH0 REVERT JUMPDEST POP PUSH2 0x1A4 PUSH1 0x4 DUP1 CALLDATASIZE SUB DUP2 ADD SWAP1 PUSH2 0x19F SWAP2 SWAP1 PUSH2 0x127C JUMP JUMPDEST PUSH2 0xAF3 JUMP JUMPDEST STOP JUMPDEST PUSH1 0x5 PUSH0 SWAP1 SLOAD SWAP1 PUSH2 0x100 EXP SWAP1 DIV PUSH20 0xFFFFFFFFFFFFFFFFFFFFFFFFFFFFFFFFFFFFFFFF AND DUP2 JUMP JUMPDEST PUSH0 PUSH0 PUSH0 PUSH1 0x1 DUP1 SLOAD PUSH2 0x1DC SWAP2 SWAP1 PUSH2 0x12F4 JUMP JUMPDEST DUP2 SLOAD DUP2 LT PUSH2 0x1ED JUMPI PUSH2 0x1EC PUSH2 0x1327 JUMP JUMPDEST JUMPDEST SWAP1 PUSH0 MSTORE PUSH1 0x20 PUSH0 KECCAK256 SWAP1 PUSH1 0x4 MUL ADD PUSH1 0x40 MLOAD DUP1 PUSH1 0x80 ADD PUSH1 0x40 MSTORE SWAP1 DUP2 PUSH0 DUP3 ADD SLOAD DUP2 MSTORE PUSH1 0x20 ADD PUSH1 0x1 DUP3 ADD SLOAD DUP2 MSTORE PUSH1 0x20 ADD PUSH1 0x2 DUP3 ADD SLOAD DUP2 MSTORE PUSH1 0x20 ADD PUSH1 0x3 DUP3 ADD DUP1 SLOAD PUSH2 0x231 SWAP1 PUSH2 0x1381 JUMP JUMPDEST DUP1 PUSH1 0x1F ADD PUSH1 0x20 DUP1 SWAP2 DIV MUL PUSH1 0x20 ADD PUSH1 0x40 MLOAD SWAP1 DUP2 ADD PUSH1 0x40 MSTORE DUP1 SWAP3 SWAP2 SWAP1 DUP2 DUP2 MSTORE PUSH1 0x20 ADD DUP3 DUP1 SLOAD PUSH2 0x25D SWAP1 PUSH2 0x1381 JUMP JUMPDEST DUP1 ISZERO PUSH2 0x2A8 JUMPI DUP1 PUSH1 0x1F LT PUSH2 0x27F JUMPI PUSH2 0x100 DUP1 DUP4 SLOAD DIV MUL DUP4 MSTORE SWAP2 PUSH1 0x20 ADD SWAP2 PUSH2 0x2A8 JUMP JUMPDEST DUP3 ADD SWAP2 SWAP1 PUSH0 MSTORE PUSH1 0x20 PUSH0 KECCAK256 SWAP1 JUMPDEST DUP2 SLOAD DUP2 MSTORE SWAP1 PUSH1 0x1 ADD SWAP1 PUSH1 0x20 ADD DUP1 DUP4 GT PUSH2 0x28B JUMPI DUP3 SWAP1 SUB PUSH1 0x1F AND DUP3 ADD SWAP2 JUMPDEST POP POP POP POP POP DUP2 MSTORE POP POP SWAP1 POP PUSH1 0x1 DUP2 PUSH1 0x40 ADD MLOAD DUP5 PUSH1 0x40 ADD MLOAD PUSH2 0x2C9 SWAP2 SWAP1 PUSH2 0x12F4 JUMP JUMPDEST EQ PUSH2 0x2D7 JUMPI PUSH0 SWAP2 POP POP PUSH2 0x2F4 JUMP JUMPDEST DUP1 PUSH0 ADD MLOAD DUP4 PUSH1 0x20 ADD MLOAD EQ PUSH2 0x2EE JUMPI PUSH0 SWAP2 POP POP PUSH2 0x2F4 JUMP JUMPDEST PUSH1 0x1 SWAP2 POP POP JUMPDEST SWAP2 SWAP1 POP JUMP JUMPDEST PUSH1 0x4 PUSH0 SWAP1 SLOAD SWAP1 PUSH2 0x100 EXP SWAP1 DIV PUSH20 0xFFFFFFFFFFFFFFFFFFFFFFFFFFFFFFFFFFFFFFFF AND DUP2 JUMP JUMPDEST PUSH0 PUSH1 0x2 DUP1 SLOAD SWAP1 POP SWAP1 POP PUSH1 0x2 DUP2 PUSH2 0x334 SWAP2 SWAP1 PUSH2 0x13B1 JUMP JUMPDEST PUSH1 0x3 PUSH1 0x7 SLOAD PUSH2 0x343 SWAP2 SWAP1 PUSH2 0x13B1 JUMP JUMPDEST LT PUSH2 0x59B JUMPI PUSH0 PUSH1 0x8 SWAP1 DUP1 PUSH1 0x1 DUP2 SLOAD ADD DUP1 DUP3 SSTORE DUP1 SWAP2 POP POP PUSH1 0x1 SWAP1 SUB SWAP1 PUSH0 MSTORE PUSH1 0x20 PUSH0 KECCAK256 SWAP1 PUSH1 0x4 MUL ADD PUSH0 SWAP1 SWAP2 SWAP1 SWAP2 SWAP1 SWAP2 POP PUSH0 DUP3 ADD SLOAD DUP2 PUSH0 ADD SSTORE PUSH1 0x1 DUP3 ADD SLOAD DUP2 PUSH1 0x1 ADD SSTORE PUSH1 0x2 DUP3 ADD SLOAD DUP2 PUSH1 0x2 ADD SSTORE PUSH1 0x3 DUP3 ADD DUP2 PUSH1 0x3 ADD SWAP1 DUP2 PUSH2 0x3A1 SWAP2 SWAP1 PUSH2 0x159E JUMP JUMPDEST POP POP POP PUSH1 0x1 PUSH0 DUP2 SLOAD DUP1 SWAP3 SWAP2 SWAP1 PUSH2 0x3B6 SWAP1 PUSH2 0x1683 JUMP JUMPDEST SWAP2 SWAP1 POP SSTORE POP PUSH1 0x4 PUSH0 SWAP1 SLOAD SWAP1 PUSH2 0x100 EXP SWAP1 DIV PUSH20 0xFFFFFFFFFFFFFFFFFFFFFFFFFFFFFFFFFFFFFFFF AND PUSH20 0xFFFFFFFFFFFFFFFFFFFFFFFFFFFFFFFFFFFFFFFF AND PUSH4 0x490740E8 PUSH1 0x5 PUSH0 SWAP1 SLOAD SWAP1 PUSH2 0x100 EXP SWAP1 DIV PUSH20 0xFFFFFFFFFFFFFFFFFFFFFFFFFFFFFFFFFFFFFFFF AND PUSH20 0xFFFFFFFFFFFFFFFFFFFFFFFFFFFFFFFFFFFFFFFF AND PUSH4 0x3B10244B PUSH1 0x40 MLOAD DUP2 PUSH4 0xFFFFFFFF AND PUSH1 0xE0 SHL DUP2 MSTORE PUSH1 0x4 ADD PUSH1 0x20 PUSH1 0x40 MLOAD DUP1 DUP4 SUB DUP2 DUP7 GAS STATICCALL ISZERO DUP1 ISZERO PUSH2 0x462 JUMPI RETURNDATASIZE PUSH0 PUSH0 RETURNDATACOPY RETURNDATASIZE PUSH0 REVERT JUMPDEST POP POP POP POP PUSH1 0x40 MLOAD RETURNDATASIZE PUSH1 0x1F NOT PUSH1 0x1F DUP3 ADD AND DUP3 ADD DUP1 PUSH1 0x40 MSTORE POP DUP2 ADD SWAP1 PUSH2 0x486 SWAP2 SWAP1 PUSH2 0x16DE JUMP JUMPDEST PUSH1 0x40 MLOAD DUP3 PUSH4 0xFFFFFFFF AND PUSH1 0xE0 SHL DUP2 MSTORE PUSH1 0x4 ADD PUSH2 0x4A2 SWAP2 SWAP1 PUSH2 0x1718 JUMP JUMPDEST PUSH0 PUSH1 0x40 MLOAD DUP1 DUP4 SUB DUP2 PUSH0 DUP8 DUP1 EXTCODESIZE ISZERO DUP1 ISZERO PUSH2 0x4B9 JUMPI PUSH0 PUSH0 REVERT JUMPDEST POP GAS CALL ISZERO DUP1 ISZERO PUSH2 0x4CB JUMPI RETURNDATASIZE PUSH0 PUSH0 RETURNDATACOPY RETURNDATASIZE PUSH0 REVERT JUMPDEST POP POP POP POP PUSH0 PUSH1 0x2 DUP1 SLOAD SWAP1 POP SWAP1 POP PUSH0 PUSH0 SWAP1 POP JUMPDEST DUP2 DUP2 LT ISZERO PUSH2 0x594 JUMPI PUSH1 0x2 DUP2 DUP2 SLOAD DUP2 LT PUSH2 0x4F9 JUMPI PUSH2 0x4F8 PUSH2 0x1327 JUMP JUMPDEST JUMPDEST SWAP1 PUSH0 MSTORE PUSH1 0x20 PUSH0 KECCAK256 ADD PUSH0 SWAP1 SLOAD SWAP1 PUSH2 0x100 EXP SWAP1 DIV PUSH20 0xFFFFFFFFFFFFFFFFFFFFFFFFFFFFFFFFFFFFFFFF AND PUSH20 0xFFFFFFFFFFFFFFFFFFFFFFFFFFFFFFFFFFFFFFFF AND PUSH4 0xB4C67900 PUSH1 0x8 PUSH1 0x40 MLOAD DUP3 PUSH4 0xFFFFFFFF AND PUSH1 0xE0 SHL DUP2 MSTORE PUSH1 0x4 ADD PUSH2 0x55A SWAP2 SWAP1 PUSH2 0x18B1 JUMP JUMPDEST PUSH0 PUSH1 0x40 MLOAD DUP1 DUP4 SUB DUP2 PUSH0 DUP8 DUP1 EXTCODESIZE ISZERO DUP1 ISZERO PUSH2 0x571 JUMPI PUSH0 PUSH0 REVERT JUMPDEST POP GAS CALL ISZERO DUP1 ISZERO PUSH2 0x583 JUMPI RETURNDATASIZE PUSH0 PUSH0 RETURNDATACOPY RETURNDATASIZE PUSH0 REVERT JUMPDEST POP POP POP POP DUP1 DUP1 PUSH1 0x1 ADD SWAP2 POP POP PUSH2 0x4DD JUMP JUMPDEST POP POP PUSH2 0x6B0 JUMP JUMPDEST PUSH1 0x4 PUSH0 SWAP1 SLOAD SWAP1 PUSH2 0x100 EXP SWAP1 DIV PUSH20 0xFFFFFFFFFFFFFFFFFFFFFFFFFFFFFFFFFFFFFFFF AND PUSH20 0xFFFFFFFFFFFFFFFFFFFFFFFFFFFFFFFFFFFFFFFF AND PUSH4 0xB03B3EF0 PUSH1 0x5 PUSH0 SWAP1 SLOAD SWAP1 PUSH2 0x100 EXP SWAP1 DIV PUSH20 0xFFFFFFFFFFFFFFFFFFFFFFFFFFFFFFFFFFFFFFFF AND PUSH20 0xFFFFFFFFFFFFFFFFFFFFFFFFFFFFFFFFFFFFFFFF AND PUSH4 0x3B10244B PUSH1 0x40 MLOAD DUP2 PUSH4 0xFFFFFFFF AND PUSH1 0xE0 SHL DUP2 MSTORE PUSH1 0x4 ADD PUSH1 0x20 PUSH1 0x40 MLOAD DUP1 DUP4 SUB DUP2 DUP7 GAS STATICCALL ISZERO DUP1 ISZERO PUSH2 0x642 JUMPI RETURNDATASIZE PUSH0 PUSH0 RETURNDATACOPY RETURNDATASIZE PUSH0 REVERT JUMPDEST POP POP POP POP PUSH1 0x40 MLOAD RETURNDATASIZE PUSH1 0x1F NOT PUSH1 0x1F DUP3 ADD AND DUP3 ADD DUP1 PUSH1 0x40 MSTORE POP DUP2 ADD SWAP1 PUSH2 0x666 SWAP2 SWAP1 PUSH2 0x16DE JUMP JUMPDEST PUSH1 0x40 MLOAD DUP3 PUSH4 0xFFFFFFFF AND PUSH1 0xE0 SHL DUP2 MSTORE PUSH1 0x4 ADD PUSH2 0x682 SWAP2 SWAP1 PUSH2 0x1718 JUMP JUMPDEST PUSH0 PUSH1 0x40 MLOAD DUP1 DUP4 SUB DUP2 PUSH0 DUP8 DUP1 EXTCODESIZE ISZERO DUP1 ISZERO PUSH2 0x699 JUMPI PUSH0 PUSH0 REVERT JUMPDEST POP GAS CALL ISZERO DUP1 ISZERO PUSH2 0x6AB JUMPI RETURNDATASIZE PUSH0 PUSH0 RETURNDATACOPY RETURNDATASIZE PUSH0 REVERT JUMPDEST POP POP POP POP JUMPDEST POP JUMP JUMPDEST PUSH1 0x5 PUSH0 SWAP1 SLOAD SWAP1 PUSH2 0x100 EXP SWAP1 DIV PUSH20 0xFFFFFFFFFFFFFFFFFFFFFFFFFFFFFFFFFFFFFFFF AND PUSH20 0xFFFFFFFFFFFFFFFFFFFFFFFFFFFFFFFFFFFFFFFF AND PUSH4 0x3B10244B PUSH1 0x40 MLOAD DUP2 PUSH4 0xFFFFFFFF AND PUSH1 0xE0 SHL DUP2 MSTORE PUSH1 0x4 ADD PUSH1 0x20 PUSH1 0x40 MLOAD DUP1 DUP4 SUB DUP2 DUP7 GAS STATICCALL ISZERO DUP1 ISZERO PUSH2 0x71D JUMPI RETURNDATASIZE PUSH0 PUSH0 RETURNDATACOPY RETURNDATASIZE PUSH0 REVERT JUMPDEST POP POP POP POP PUSH1 0x40 MLOAD RETURNDATASIZE PUSH1 0x1F NOT PUSH1 0x1F DUP3 ADD AND DUP3 ADD DUP1 PUSH1 0x40 MSTORE POP DUP2 ADD SWAP1 PUSH2 0x741 SWAP2 SWAP1 PUSH2 0x16DE JUMP JUMPDEST PUSH20 0xFFFFFFFFFFFFFFFFFFFFFFFFFFFFFFFFFFFFFFFF AND CALLER PUSH20 0xFFFFFFFFFFFFFFFFFFFFFFFFFFFFFFFFFFFFFFFF AND EQ PUSH2 0x7AE JUMPI PUSH1 0x40 MLOAD PUSH32 0x8C379A000000000000000000000000000000000000000000000000000000000 DUP2 MSTORE PUSH1 0x4 ADD PUSH2 0x7A5 SWAP1 PUSH2 0x192B JUMP JUMPDEST PUSH1 0x40 MLOAD DUP1 SWAP2 SUB SWAP1 REVERT JUMPDEST PUSH8 0xDE0B6B3A7640000 CALLVALUE LT ISZERO PUSH2 0x7F9 JUMPI PUSH1 0x40 MLOAD PUSH32 0x8C379A000000000000000000000000000000000000000000000000000000000 DUP2 MSTORE PUSH1 0x4 ADD PUSH2 0x7F0 SWAP1 PUSH2 0x1993 JUMP JUMPDEST PUSH1 0x40 MLOAD DUP1 SWAP2 SUB SWAP1 REVERT JUMPDEST PUSH1 0x4 PUSH0 SWAP1 SLOAD SWAP1 PUSH2 0x100 EXP SWAP1 DIV PUSH20 0xFFFFFFFFFFFFFFFFFFFFFFFFFFFFFFFFFFFFFFFF AND PUSH20 0xFFFFFFFFFFFFFFFFFFFFFFFFFFFFFFFFFFFFFFFF AND PUSH4 0x3A4B66F1 CALLVALUE PUSH1 0x40 MLOAD DUP3 PUSH4 0xFFFFFFFF AND PUSH1 0xE0 SHL DUP2 MSTORE PUSH1 0x4 ADD PUSH0 PUSH1 0x40 MLOAD DUP1 DUP4 SUB DUP2 DUP6 DUP9 DUP1 EXTCODESIZE ISZERO DUP1 ISZERO PUSH2 0x860 JUMPI PUSH0 PUSH0 REVERT JUMPDEST POP GAS CALL ISZERO DUP1 ISZERO PUSH2 0x872 JUMPI RETURNDATASIZE PUSH0 PUSH0 RETURNDATACOPY RETURNDATASIZE PUSH0 REVERT JUMPDEST POP POP POP POP POP PUSH0 PUSH1 0x2 DUP1 SLOAD SWAP1 POP SWAP1 POP PUSH0 PUSH0 SWAP1 POP JUMPDEST DUP2 DUP2 LT ISZERO PUSH2 0x96A JUMPI PUSH0 PUSH1 0x2 DUP3 DUP2 SLOAD DUP2 LT PUSH2 0x8A2 JUMPI PUSH2 0x8A1 PUSH2 0x1327 JUMP JUMPDEST JUMPDEST SWAP1 PUSH0 MSTORE PUSH1 0x20 PUSH0 KECCAK256 ADD PUSH0 SWAP1 SLOAD SWAP1 PUSH2 0x100 EXP SWAP1 DIV PUSH20 0xFFFFFFFFFFFFFFFFFFFFFFFFFFFFFFFFFFFFFFFF AND SWAP1 POP DUP1 PUSH20 0xFFFFFFFFFFFFFFFFFFFFFFFFFFFFFFFFFFFFFFFF AND PUSH4 0x4618F42C PUSH1 0x8 PUSH1 0x40 MLOAD DUP3 PUSH4 0xFFFFFFFF AND PUSH1 0xE0 SHL DUP2 MSTORE PUSH1 0x4 ADD PUSH2 0x906 SWAP2 SWAP1 PUSH2 0x18B1 JUMP JUMPDEST PUSH1 0x20 PUSH1 0x40 MLOAD DUP1 DUP4 SUB DUP2 DUP7 GAS STATICCALL ISZERO DUP1 ISZERO PUSH2 0x921 JUMPI RETURNDATASIZE PUSH0 PUSH0 RETURNDATACOPY RETURNDATASIZE PUSH0 REVERT JUMPDEST POP POP POP POP PUSH1 0x40 MLOAD RETURNDATASIZE PUSH1 0x1F NOT PUSH1 0x1F DUP3 ADD AND DUP3 ADD DUP1 PUSH1 0x40 MSTORE POP DUP2 ADD SWAP1 PUSH2 0x945 SWAP2 SWAP1 PUSH2 0x19C5 JUMP JUMPDEST PUSH1 0x7 PUSH0 DUP3 DUP3 SLOAD PUSH2 0x955 SWAP2 SWAP1 PUSH2 0x19F0 JUMP JUMPDEST SWAP3 POP POP DUP2 SWAP1 SSTORE POP POP DUP1 DUP1 PUSH1 0x1 ADD SWAP2 POP POP PUSH2 0x885 JUMP JUMPDEST POP POP JUMP JUMPDEST PUSH1 0x2 DUP2 SWAP1 DUP1 PUSH1 0x1 DUP2 SLOAD ADD DUP1 DUP3 SSTORE DUP1 SWAP2 POP POP PUSH1 0x1 SWAP1 SUB SWAP1 PUSH0 MSTORE PUSH1 0x20 PUSH0 KECCAK256 ADD PUSH0 SWAP1 SWAP2 SWAP1 SWAP2 SWAP1 SWAP2 PUSH2 0x100 EXP DUP2 SLOAD DUP2 PUSH20 0xFFFFFFFFFFFFFFFFFFFFFFFFFFFFFFFFFFFFFFFF MUL NOT AND SWAP1 DUP4 PUSH20 0xFFFFFFFFFFFFFFFFFFFFFFFFFFFFFFFFFFFFFFFF AND MUL OR SWAP1 SSTORE POP PUSH1 0x3 PUSH0 DUP2 SLOAD DUP1 SWAP3 SWAP2 SWAP1 PUSH2 0x9E0 SWAP1 PUSH2 0x1683 JUMP JUMPDEST SWAP2 SWAP1 POP SSTORE POP POP JUMP JUMPDEST PUSH1 0x1 SLOAD DUP2 PUSH1 0x40 ADD MLOAD EQ PUSH2 0xA30 JUMPI PUSH1 0x40 MLOAD PUSH32 0x8C379A000000000000000000000000000000000000000000000000000000000 DUP2 MSTORE PUSH1 0x4 ADD PUSH2 0xA27 SWAP1 PUSH2 0x1A6D JUMP JUMPDEST PUSH1 0x40 MLOAD DUP1 SWAP2 SUB SWAP1 REVERT JUMPDEST PUSH0 DUP2 SWAP1 DUP1 PUSH1 0x1 DUP2 SLOAD ADD DUP1 DUP3 SSTORE DUP1 SWAP2 POP POP PUSH1 0x1 SWAP1 SUB SWAP1 PUSH0 MSTORE PUSH1 0x20 PUSH0 KECCAK256 SWAP1 PUSH1 0x4 MUL ADD PUSH0 SWAP1 SWAP2 SWAP1 SWAP2 SWAP1 SWAP2 POP PUSH0 DUP3 ADD MLOAD DUP2 PUSH0 ADD SSTORE PUSH1 0x20 DUP3 ADD MLOAD DUP2 PUSH1 0x1 ADD SSTORE PUSH1 0x40 DUP3 ADD MLOAD DUP2 PUSH1 0x2 ADD SSTORE PUSH1 0x60 DUP3 ADD MLOAD DUP2 PUSH1 0x3 ADD SWAP1 DUP2 PUSH2 0xA89 SWAP2 SWAP1 PUSH2 0x1A95 JUMP JUMPDEST POP POP POP PUSH1 0x1 PUSH0 DUP2 SLOAD DUP1 SWAP3 SWAP2 SWAP1 PUSH2 0xA9E SWAP1 PUSH2 0x1683 JUMP JUMPDEST SWAP2 SWAP1 POP SSTORE POP PUSH1 0x40 MLOAD DUP1 PUSH1 0x20 ADD PUSH1 0x40 MSTORE DUP1 PUSH0 DUP2 MSTORE POP PUSH1 0x6 SWAP1 DUP2 PUSH2 0xAC0 SWAP2 SWAP1 PUSH2 0x1A95 JUMP JUMPDEST POP PUSH0 PUSH1 0x7 DUP2 SWAP1 SSTORE POP PUSH1 0x8 PUSH0 PUSH0 DUP3 ADD PUSH0 SWAP1 SSTORE PUSH1 0x1 DUP3 ADD PUSH0 SWAP1 SSTORE PUSH1 0x2 DUP3 ADD PUSH0 SWAP1 SSTORE PUSH1 0x3 DUP3 ADD PUSH0 PUSH2 0xAEE SWAP2 SWAP1 PUSH2 0xDB5 JUMP JUMPDEST POP POP POP JUMP JUMPDEST PUSH0 DUP3 DUP3 DUP1 DUP1 PUSH1 0x1F ADD PUSH1 0x20 DUP1 SWAP2 DIV MUL PUSH1 0x20 ADD PUSH1 0x40 MLOAD SWAP1 DUP2 ADD PUSH1 0x40 MSTORE DUP1 SWAP4 SWAP3 SWAP2 SWAP1 DUP2 DUP2 MSTORE PUSH1 0x20 ADD DUP4 DUP4 DUP1 DUP3 DUP5 CALLDATACOPY PUSH0 DUP2 DUP5 ADD MSTORE PUSH1 0x1F NOT PUSH1 0x1F DUP3 ADD AND SWAP1 POP DUP1 DUP4 ADD SWAP3 POP POP POP POP POP POP POP SWAP1 POP PUSH0 DUP2 MLOAD SUB PUSH2 0xB7D JUMPI PUSH1 0x40 MLOAD PUSH32 0x8C379A000000000000000000000000000000000000000000000000000000000 DUP2 MSTORE PUSH1 0x4 ADD PUSH2 0xB74 SWAP1 PUSH2 0x1BAE JUMP JUMPDEST PUSH1 0x40 MLOAD DUP1 SWAP2 SUB SWAP1 REVERT JUMPDEST DUP3 DUP3 PUSH1 0x6 SWAP2 DUP3 PUSH2 0xB8E SWAP3 SWAP2 SWAP1 PUSH2 0x1BD6 JUMP JUMPDEST POP PUSH2 0xC20 PUSH1 0x6 DUP1 SLOAD PUSH2 0xB9F SWAP1 PUSH2 0x1381 JUMP JUMPDEST DUP1 PUSH1 0x1F ADD PUSH1 0x20 DUP1 SWAP2 DIV MUL PUSH1 0x20 ADD PUSH1 0x40 MLOAD SWAP1 DUP2 ADD PUSH1 0x40 MSTORE DUP1 SWAP3 SWAP2 SWAP1 DUP2 DUP2 MSTORE PUSH1 0x20 ADD DUP3 DUP1 SLOAD PUSH2 0xBCB SWAP1 PUSH2 0x1381 JUMP JUMPDEST DUP1 ISZERO PUSH2 0xC16 JUMPI DUP1 PUSH1 0x1F LT PUSH2 0xBED JUMPI PUSH2 0x100 DUP1 DUP4 SLOAD DIV MUL DUP4 MSTORE SWAP2 PUSH1 0x20 ADD SWAP2 PUSH2 0xC16 JUMP JUMPDEST DUP3 ADD SWAP2 SWAP1 PUSH0 MSTORE PUSH1 0x20 PUSH0 KECCAK256 SWAP1 JUMPDEST DUP2 SLOAD DUP2 MSTORE SWAP1 PUSH1 0x1 ADD SWAP1 PUSH1 0x20 ADD DUP1 DUP4 GT PUSH2 0xBF9 JUMPI DUP3 SWAP1 SUB PUSH1 0x1F AND DUP3 ADD SWAP2 JUMPDEST POP POP POP POP POP PUSH2 0xC5C JUMP JUMPDEST PUSH1 0x8 PUSH0 DUP3 ADD MLOAD DUP2 PUSH0 ADD SSTORE PUSH1 0x20 DUP3 ADD MLOAD DUP2 PUSH1 0x1 ADD SSTORE PUSH1 0x40 DUP3 ADD MLOAD DUP2 PUSH1 0x2 ADD SSTORE PUSH1 0x60 DUP3 ADD MLOAD DUP2 PUSH1 0x3 ADD SWAP1 DUP2 PUSH2 0xC53 SWAP2 SWAP1 PUSH2 0x1A95 JUMP JUMPDEST POP SWAP1 POP POP POP POP POP JUMP JUMPDEST PUSH2 0xC64 PUSH2 0xDF2 JUMP JUMPDEST PUSH0 PUSH0 PUSH1 0x1 DUP1 SLOAD PUSH2 0xC74 SWAP2 SWAP1 PUSH2 0x12F4 JUMP JUMPDEST DUP2 SLOAD DUP2 LT PUSH2 0xC85 JUMPI PUSH2 0xC84 PUSH2 0x1327 JUMP JUMPDEST JUMPDEST SWAP1 PUSH0 MSTORE PUSH1 0x20 PUSH0 KECCAK256 SWAP1 PUSH1 0x4 MUL ADD PUSH1 0x40 MLOAD DUP1 PUSH1 0x80 ADD PUSH1 0x40 MSTORE SWAP1 DUP2 PUSH0 DUP3 ADD SLOAD DUP2 MSTORE PUSH1 0x20 ADD PUSH1 0x1 DUP3 ADD SLOAD DUP2 MSTORE PUSH1 0x20 ADD PUSH1 0x2 DUP3 ADD SLOAD DUP2 MSTORE PUSH1 0x20 ADD PUSH1 0x3 DUP3 ADD DUP1 SLOAD PUSH2 0xCC9 SWAP1 PUSH2 0x1381 JUMP JUMPDEST DUP1 PUSH1 0x1F ADD PUSH1 0x20 DUP1 SWAP2 DIV MUL PUSH1 0x20 ADD PUSH1 0x40 MLOAD SWAP1 DUP2 ADD PUSH1 0x40 MSTORE DUP1 SWAP3 SWAP2 SWAP1 DUP2 DUP2 MSTORE PUSH1 0x20 ADD DUP3 DUP1 SLOAD PUSH2 0xCF5 SWAP1 PUSH2 0x1381 JUMP JUMPDEST DUP1 ISZERO PUSH2 0xD40 JUMPI DUP1 PUSH1 0x1F LT PUSH2 0xD17 JUMPI PUSH2 0x100 DUP1 DUP4 SLOAD DIV MUL DUP4 MSTORE SWAP2 PUSH1 0x20 ADD SWAP2 PUSH2 0xD40 JUMP JUMPDEST DUP3 ADD SWAP2 SWAP1 PUSH0 MSTORE PUSH1 0x20 PUSH0 KECCAK256 SWAP1 JUMPDEST DUP2 SLOAD DUP2 MSTORE SWAP1 PUSH1 0x1 ADD SWAP1 PUSH1 0x20 ADD DUP1 DUP4 GT PUSH2 0xD23 JUMPI DUP3 SWAP1 SUB PUSH1 0x1F AND DUP3 ADD SWAP2 JUMPDEST POP POP POP POP POP DUP2 MSTORE POP POP SWAP1 POP PUSH0 PUSH1 0x40 MLOAD DUP1 PUSH1 0x80 ADD PUSH1 0x40 MSTORE DUP1 PUSH2 0xD60 DUP7 PUSH2 0xD86 JUMP JUMPDEST DUP2 MSTORE PUSH1 0x20 ADD DUP4 PUSH0 ADD MLOAD DUP2 MSTORE PUSH1 0x20 ADD PUSH1 0x1 SLOAD DUP2 MSTORE PUSH1 0x20 ADD DUP6 DUP2 MSTORE POP SWAP1 POP DUP1 SWAP3 POP POP POP SWAP2 SWAP1 POP JUMP JUMPDEST PUSH0 DUP2 PUSH1 0x40 MLOAD PUSH1 0x20 ADD PUSH2 0xD98 SWAP2 SWAP1 PUSH2 0x1CEB JUMP JUMPDEST PUSH1 0x40 MLOAD PUSH1 0x20 DUP2 DUP4 SUB SUB DUP2 MSTORE SWAP1 PUSH1 0x40 MSTORE DUP1 MLOAD SWAP1 PUSH1 0x20 ADD KECCAK256 SWAP1 POP SWAP2 SWAP1 POP JUMP JUMPDEST POP DUP1 SLOAD PUSH2 0xDC1 SWAP1 PUSH2 0x1381 JUMP JUMPDEST PUSH0 DUP3 SSTORE DUP1 PUSH1 0x1F LT PUSH2 0xDD2 JUMPI POP PUSH2 0xDEF JUMP JUMPDEST PUSH1 0x1F ADD PUSH1 0x20 SWAP1 DIV SWAP1 PUSH0 MSTORE PUSH1 0x20 PUSH0 KECCAK256 SWAP1 DUP2 ADD SWAP1 PUSH2 0xDEE SWAP2 SWAP1 PUSH2 0xE17 JUMP JUMPDEST JUMPDEST POP JUMP JUMPDEST PUSH1 0x40 MLOAD DUP1 PUSH1 0x80 ADD PUSH1 0x40 MSTORE DUP1 PUSH0 DUP2 MSTORE PUSH1 0x20 ADD PUSH0 DUP2 MSTORE PUSH1 0x20 ADD PUSH0 DUP2 MSTORE PUSH1 0x20 ADD PUSH1 0x60 DUP2 MSTORE POP SWAP1 JUMP JUMPDEST JUMPDEST DUP1 DUP3 GT ISZERO PUSH2 0xE2E JUMPI PUSH0 DUP2 PUSH0 SWAP1 SSTORE POP PUSH1 0x1 ADD PUSH2 0xE18 JUMP JUMPDEST POP SWAP1 JUMP JUMPDEST PUSH0 PUSH20 0xFFFFFFFFFFFFFFFFFFFFFFFFFFFFFFFFFFFFFFFF DUP3 AND SWAP1 POP SWAP2 SWAP1 POP JUMP JUMPDEST PUSH0 DUP2 SWAP1 POP SWAP2 SWAP1 POP JUMP JUMPDEST PUSH0 PUSH2 0xE74 PUSH2 0xE6F PUSH2 0xE6A DUP5 PUSH2 0xE32 JUMP JUMPDEST PUSH2 0xE51 JUMP JUMPDEST PUSH2 0xE32 JUMP JUMPDEST SWAP1 POP SWAP2 SWAP1 POP JUMP JUMPDEST PUSH0 PUSH2 0xE85 DUP3 PUSH2 0xE5A JUMP JUMPDEST SWAP1 POP SWAP2 SWAP1 POP JUMP JUMPDEST PUSH0 PUSH2 0xE96 DUP3 PUSH2 0xE7B JUMP JUMPDEST SWAP1 POP SWAP2 SWAP1 POP JUMP JUMPDEST PUSH2 0xEA6 DUP2 PUSH2 0xE8C JUMP JUMPDEST DUP3 MSTORE POP POP JUMP JUMPDEST PUSH0 PUSH1 0x20 DUP3 ADD SWAP1 POP PUSH2 0xEBF PUSH0 DUP4 ADD DUP5 PUSH2 0xE9D JUMP JUMPDEST SWAP3 SWAP2 POP POP JUMP JUMPDEST PUSH0 PUSH1 0x40 MLOAD SWAP1 POP SWAP1 JUMP JUMPDEST PUSH0 PUSH0 REVERT JUMPDEST PUSH0 PUSH0 REVERT JUMPDEST PUSH0 PUSH0 REVERT JUMPDEST PUSH0 PUSH1 0x1F NOT PUSH1 0x1F DUP4 ADD AND SWAP1 POP SWAP2 SWAP1 POP JUMP JUMPDEST PUSH32 0x4E487B7100000000000000000000000000000000000000000000000000000000 PUSH0 MSTORE PUSH1 0x41 PUSH1 0x4 MSTORE PUSH1 0x24 PUSH0 REVERT JUMPDEST PUSH2 0xF20 DUP3 PUSH2 0xEDA JUMP JUMPDEST DUP2 ADD DUP2 DUP2 LT PUSH8 0xFFFFFFFFFFFFFFFF DUP3 GT OR ISZERO PUSH2 0xF3F JUMPI PUSH2 0xF3E PUSH2 0xEEA JUMP JUMPDEST JUMPDEST DUP1 PUSH1 0x40 MSTORE POP POP POP JUMP JUMPDEST PUSH0 PUSH2 0xF51 PUSH2 0xEC5 JUMP JUMPDEST SWAP1 POP PUSH2 0xF5D DUP3 DUP3 PUSH2 0xF17 JUMP JUMPDEST SWAP2 SWAP1 POP JUMP JUMPDEST PUSH0 PUSH0 REVERT JUMPDEST PUSH0 DUP2 SWAP1 POP SWAP2 SWAP1 POP JUMP JUMPDEST PUSH2 0xF78 DUP2 PUSH2 0xF66 JUMP JUMPDEST DUP2 EQ PUSH2 0xF82 JUMPI PUSH0 PUSH0 REVERT JUMPDEST POP JUMP JUMPDEST PUSH0 DUP2 CALLDATALOAD SWAP1 POP PUSH2 0xF93 DUP2 PUSH2 0xF6F JUMP JUMPDEST SWAP3 SWAP2 POP POP JUMP JUMPDEST PUSH0 DUP2 SWAP1 POP SWAP2 SWAP1 POP JUMP JUMPDEST PUSH2 0xFAB DUP2 PUSH2 0xF99 JUMP JUMPDEST DUP2 EQ PUSH2 0xFB5 JUMPI PUSH0 PUSH0 REVERT JUMPDEST POP JUMP JUMPDEST PUSH0 DUP2 CALLDATALOAD SWAP1 POP PUSH2 0xFC6 DUP2 PUSH2 0xFA2 JUMP JUMPDEST SWAP3 SWAP2 POP POP JUMP JUMPDEST PUSH0 PUSH0 REVERT JUMPDEST PUSH0 PUSH0 REVERT JUMPDEST PUSH0 PUSH8 0xFFFFFFFFFFFFFFFF DUP3 GT ISZERO PUSH2 0xFEE JUMPI PUSH2 0xFED PUSH2 0xEEA JUMP JUMPDEST JUMPDEST PUSH2 0xFF7 DUP3 PUSH2 0xEDA JUMP JUMPDEST SWAP1 POP PUSH1 0x20 DUP2 ADD SWAP1 POP SWAP2 SWAP1 POP JUMP JUMPDEST DUP3 DUP2 DUP4 CALLDATACOPY PUSH0 DUP4 DUP4 ADD MSTORE POP POP POP JUMP JUMPDEST PUSH0 PUSH2 0x1024 PUSH2 0x101F DUP5 PUSH2 0xFD4 JUMP JUMPDEST PUSH2 0xF48 JUMP JUMPDEST SWAP1 POP DUP3 DUP2 MSTORE PUSH1 0x20 DUP2 ADD DUP5 DUP5 DUP5 ADD GT ISZERO PUSH2 0x1040 JUMPI PUSH2 0x103F PUSH2 0xFD0 JUMP JUMPDEST JUMPDEST PUSH2 0x104B DUP5 DUP3 DUP6 PUSH2 0x1004 JUMP JUMPDEST POP SWAP4 SWAP3 POP POP POP JUMP JUMPDEST PUSH0 DUP3 PUSH1 0x1F DUP4 ADD SLT PUSH2 0x1067 JUMPI PUSH2 0x1066 PUSH2 0xFCC JUMP JUMPDEST JUMPDEST DUP2 CALLDATALOAD PUSH2 0x1077 DUP5 DUP3 PUSH1 0x20 DUP7 ADD PUSH2 0x1012 JUMP JUMPDEST SWAP2 POP POP SWAP3 SWAP2 POP POP JUMP JUMPDEST PUSH0 PUSH1 0x80 DUP3 DUP5 SUB SLT ISZERO PUSH2 0x1095 JUMPI PUSH2 0x1094 PUSH2 0xED6 JUMP JUMPDEST JUMPDEST PUSH2 0x109F PUSH1 0x80 PUSH2 0xF48 JUMP JUMPDEST SWAP1 POP PUSH0 PUSH2 0x10AE DUP5 DUP3 DUP6 ADD PUSH2 0xF85 JUMP JUMPDEST PUSH0 DUP4 ADD MSTORE POP PUSH1 0x20 PUSH2 0x10C1 DUP5 DUP3 DUP6 ADD PUSH2 0xF85 JUMP JUMPDEST PUSH1 0x20 DUP4 ADD MSTORE POP PUSH1 0x40 PUSH2 0x10D5 DUP5 DUP3 DUP6 ADD PUSH2 0xFB8 JUMP JUMPDEST PUSH1 0x40 DUP4 ADD MSTORE POP PUSH1 0x60 DUP3 ADD CALLDATALOAD PUSH8 0xFFFFFFFFFFFFFFFF DUP2 GT ISZERO PUSH2 0x10F9 JUMPI PUSH2 0x10F8 PUSH2 0xF62 JUMP JUMPDEST JUMPDEST PUSH2 0x1105 DUP5 DUP3 DUP6 ADD PUSH2 0x1053 JUMP JUMPDEST PUSH1 0x60 DUP4 ADD MSTORE POP SWAP3 SWAP2 POP POP JUMP JUMPDEST PUSH0 PUSH1 0x20 DUP3 DUP5 SUB SLT ISZERO PUSH2 0x1126 JUMPI PUSH2 0x1125 PUSH2 0xECE JUMP JUMPDEST JUMPDEST PUSH0 DUP3 ADD CALLDATALOAD PUSH8 0xFFFFFFFFFFFFFFFF DUP2 GT ISZERO PUSH2 0x1143 JUMPI PUSH2 0x1142 PUSH2 0xED2 JUMP JUMPDEST JUMPDEST PUSH2 0x114F DUP5 DUP3 DUP6 ADD PUSH2 0x1080 JUMP JUMPDEST SWAP2 POP POP SWAP3 SWAP2 POP POP JUMP JUMPDEST PUSH2 0x1161 DUP2 PUSH2 0xF99 JUMP JUMPDEST DUP3 MSTORE POP POP JUMP JUMPDEST PUSH0 PUSH1 0x20 DUP3 ADD SWAP1 POP PUSH2 0x117A PUSH0 DUP4 ADD DUP5 PUSH2 0x1158 JUMP JUMPDEST SWAP3 SWAP2 POP POP JUMP JUMPDEST PUSH0 PUSH2 0x118A DUP3 PUSH2 0xE7B JUMP JUMPDEST SWAP1 POP SWAP2 SWAP1 POP JUMP JUMPDEST PUSH2 0x119A DUP2 PUSH2 0x1180 JUMP JUMPDEST DUP3 MSTORE POP POP JUMP JUMPDEST PUSH0 PUSH1 0x20 DUP3 ADD SWAP1 POP PUSH2 0x11B3 PUSH0 DUP4 ADD DUP5 PUSH2 0x1191 JUMP JUMPDEST SWAP3 SWAP2 POP POP JUMP JUMPDEST PUSH0 PUSH2 0x11C3 DUP3 PUSH2 0xE32 JUMP JUMPDEST SWAP1 POP SWAP2 SWAP1 POP JUMP JUMPDEST PUSH2 0x11D3 DUP2 PUSH2 0x11B9 JUMP JUMPDEST DUP2 EQ PUSH2 0x11DD JUMPI PUSH0 PUSH0 REVERT JUMPDEST POP JUMP JUMPDEST PUSH0 DUP2 CALLDATALOAD SWAP1 POP PUSH2 0x11EE DUP2 PUSH2 0x11CA JUMP JUMPDEST SWAP3 SWAP2 POP POP JUMP JUMPDEST PUSH0 PUSH1 0x20 DUP3 DUP5 SUB SLT ISZERO PUSH2 0x1209 JUMPI PUSH2 0x1208 PUSH2 0xECE JUMP JUMPDEST JUMPDEST PUSH0 PUSH2 0x1216 DUP5 DUP3 DUP6 ADD PUSH2 0x11E0 JUMP JUMPDEST SWAP2 POP POP SWAP3 SWAP2 POP POP JUMP JUMPDEST PUSH0 PUSH0 REVERT JUMPDEST PUSH0 PUSH0 REVERT JUMPDEST PUSH0 PUSH0 DUP4 PUSH1 0x1F DUP5 ADD SLT PUSH2 0x123C JUMPI PUSH2 0x123B PUSH2 0xFCC JUMP JUMPDEST JUMPDEST DUP3 CALLDATALOAD SWAP1 POP PUSH8 0xFFFFFFFFFFFFFFFF DUP2 GT ISZERO PUSH2 0x1259 JUMPI PUSH2 0x1258 PUSH2 0x121F JUMP JUMPDEST JUMPDEST PUSH1 0x20 DUP4 ADD SWAP2 POP DUP4 PUSH1 0x1 DUP3 MUL DUP4 ADD GT ISZERO PUSH2 0x1275 JUMPI PUSH2 0x1274 PUSH2 0x1223 JUMP JUMPDEST JUMPDEST SWAP3 POP SWAP3 SWAP1 POP JUMP JUMPDEST PUSH0 PUSH0 PUSH1 0x20 DUP4 DUP6 SUB SLT ISZERO PUSH2 0x1292 JUMPI PUSH2 0x1291 PUSH2 0xECE JUMP JUMPDEST JUMPDEST PUSH0 DUP4 ADD CALLDATALOAD PUSH8 0xFFFFFFFFFFFFFFFF DUP2 GT ISZERO PUSH2 0x12AF JUMPI PUSH2 0x12AE PUSH2 0xED2 JUMP JUMPDEST JUMPDEST PUSH2 0x12BB DUP6 DUP3 DUP7 ADD PUSH2 0x1227 JUMP JUMPDEST SWAP3 POP SWAP3 POP POP SWAP3 POP SWAP3 SWAP1 POP JUMP JUMPDEST PUSH32 0x4E487B7100000000000000000000000000000000000000000000000000000000 PUSH0 MSTORE PUSH1 0x11 PUSH1 0x4 MSTORE PUSH1 0x24 PUSH0 REVERT JUMPDEST PUSH0 PUSH2 0x12FE DUP3 PUSH2 0xF99 JUMP JUMPDEST SWAP2 POP PUSH2 0x1309 DUP4 PUSH2 0xF99 JUMP JUMPDEST SWAP3 POP DUP3 DUP3 SUB SWAP1 POP DUP2 DUP2 GT ISZERO PUSH2 0x1321 JUMPI PUSH2 0x1320 PUSH2 0x12C7 JUMP JUMPDEST JUMPDEST SWAP3 SWAP2 POP POP JUMP JUMPDEST PUSH32 0x4E487B7100000000000000000000000000000000000000000000000000000000 PUSH0 MSTORE PUSH1 0x32 PUSH1 0x4 MSTORE PUSH1 0x24 PUSH0 REVERT JUMPDEST PUSH32 0x4E487B7100000000000000000000000000000000000000000000000000000000 PUSH0 MSTORE PUSH1 0x22 PUSH1 0x4 MSTORE PUSH1 0x24 PUSH0 REVERT JUMPDEST PUSH0 PUSH1 0x2 DUP3 DIV SWAP1 POP PUSH1 0x1 DUP3 AND DUP1 PUSH2 0x1398 JUMPI PUSH1 0x7F DUP3 AND SWAP2 POP JUMPDEST PUSH1 0x20 DUP3 LT DUP2 SUB PUSH2 0x13AB JUMPI PUSH2 0x13AA PUSH2 0x1354 JUMP JUMPDEST JUMPDEST POP SWAP2 SWAP1 POP JUMP JUMPDEST PUSH0 PUSH2 0x13BB DUP3 PUSH2 0xF99 JUMP JUMPDEST SWAP2 POP PUSH2 0x13C6 DUP4 PUSH2 0xF99 JUMP JUMPDEST SWAP3 POP DUP3 DUP3 MUL PUSH2 0x13D4 DUP2 PUSH2 0xF99 JUMP JUMPDEST SWAP2 POP DUP3 DUP3 DIV DUP5 EQ DUP4 ISZERO OR PUSH2 0x13EB JUMPI PUSH2 0x13EA PUSH2 0x12C7 JUMP JUMPDEST JUMPDEST POP SWAP3 SWAP2 POP POP JUMP JUMPDEST PUSH0 DUP2 SLOAD SWAP1 POP PUSH2 0x1400 DUP2 PUSH2 0x1381 JUMP JUMPDEST SWAP1 POP SWAP2 SWAP1 POP JUMP JUMPDEST PUSH0 DUP2 SWAP1 POP DUP2 PUSH0 MSTORE PUSH1 0x20 PUSH0 KECCAK256 SWAP1 POP SWAP2 SWAP1 POP JUMP JUMPDEST PUSH0 PUSH1 0x20 PUSH1 0x1F DUP4 ADD DIV SWAP1 POP SWAP2 SWAP1 POP JUMP JUMPDEST PUSH0 DUP3 DUP3 SHL SWAP1 POP SWAP3 SWAP2 POP POP JUMP JUMPDEST PUSH0 PUSH1 0x8 DUP4 MUL PUSH2 0x1463 PUSH32 0xFFFFFFFFFFFFFFFFFFFFFFFFFFFFFFFFFFFFFFFFFFFFFFFFFFFFFFFFFFFFFFFF DUP3 PUSH2 0x1428 JUMP JUMPDEST PUSH2 0x146D DUP7 DUP4 PUSH2 0x1428 JUMP JUMPDEST SWAP6 POP DUP1 NOT DUP5 AND SWAP4 POP DUP1 DUP7 AND DUP5 OR SWAP3 POP POP POP SWAP4 SWAP3 POP POP POP JUMP JUMPDEST PUSH0 PUSH2 0x149F PUSH2 0x149A PUSH2 0x1495 DUP5 PUSH2 0xF99 JUMP JUMPDEST PUSH2 0xE51 JUMP JUMPDEST PUSH2 0xF99 JUMP JUMPDEST SWAP1 POP SWAP2 SWAP1 POP JUMP JUMPDEST PUSH0 DUP2 SWAP1 POP SWAP2 SWAP1 POP JUMP JUMPDEST PUSH2 0x14B8 DUP4 PUSH2 0x1485 JUMP JUMPDEST PUSH2 0x14CC PUSH2 0x14C4 DUP3 PUSH2 0x14A6 JUMP JUMPDEST DUP5 DUP5 SLOAD PUSH2 0x1434 JUMP JUMPDEST DUP3 SSTORE POP POP POP POP JUMP JUMPDEST PUSH0 PUSH0 SWAP1 POP SWAP1 JUMP JUMPDEST PUSH2 0x14E3 PUSH2 0x14D4 JUMP JUMPDEST PUSH2 0x14EE DUP2 DUP5 DUP5 PUSH2 0x14AF JUMP JUMPDEST POP POP POP JUMP JUMPDEST JUMPDEST DUP2 DUP2 LT ISZERO PUSH2 0x1511 JUMPI PUSH2 0x1506 PUSH0 DUP3 PUSH2 0x14DB JUMP JUMPDEST PUSH1 0x1 DUP2 ADD SWAP1 POP PUSH2 0x14F4 JUMP JUMPDEST POP POP JUMP JUMPDEST PUSH1 0x1F DUP3 GT ISZERO PUSH2 0x1556 JUMPI PUSH2 0x1527 DUP2 PUSH2 0x1407 JUMP JUMPDEST PUSH2 0x1530 DUP5 PUSH2 0x1419 JUMP JUMPDEST DUP2 ADD PUSH1 0x20 DUP6 LT ISZERO PUSH2 0x153F JUMPI DUP2 SWAP1 POP JUMPDEST PUSH2 0x1553 PUSH2 0x154B DUP6 PUSH2 0x1419 JUMP JUMPDEST DUP4 ADD DUP3 PUSH2 0x14F3 JUMP JUMPDEST POP POP JUMPDEST POP POP POP JUMP JUMPDEST PUSH0 DUP3 DUP3 SHR SWAP1 POP SWAP3 SWAP2 POP POP JUMP JUMPDEST PUSH0 PUSH2 0x1576 PUSH0 NOT DUP5 PUSH1 0x8 MUL PUSH2 0x155B JUMP JUMPDEST NOT DUP1 DUP4 AND SWAP2 POP POP SWAP3 SWAP2 POP POP JUMP JUMPDEST PUSH0 PUSH2 0x158E DUP4 DUP4 PUSH2 0x1567 JUMP JUMPDEST SWAP2 POP DUP3 PUSH1 0x2 MUL DUP3 OR SWAP1 POP SWAP3 SWAP2 POP POP JUMP JUMPDEST DUP2 DUP2 SUB PUSH2 0x15AC JUMPI POP POP PUSH2 0x1681 JUMP JUMPDEST PUSH2 0x15B5 DUP3 PUSH2 0x13F2 JUMP JUMPDEST PUSH8 0xFFFFFFFFFFFFFFFF DUP2 GT ISZERO PUSH2 0x15CE JUMPI PUSH2 0x15CD PUSH2 0xEEA JUMP JUMPDEST JUMPDEST PUSH2 0x15D8 DUP3 SLOAD PUSH2 0x1381 JUMP JUMPDEST PUSH2 0x15E3 DUP3 DUP3 DUP6 PUSH2 0x1515 JUMP JUMPDEST PUSH0 PUSH1 0x1F DUP4 GT PUSH1 0x1 DUP2 EQ PUSH2 0x1610 JUMPI PUSH0 DUP5 ISZERO PUSH2 0x15FE JUMPI DUP3 DUP8 ADD SLOAD SWAP1 POP JUMPDEST PUSH2 0x1608 DUP6 DUP3 PUSH2 0x1583 JUMP JUMPDEST DUP7 SSTORE POP PUSH2 0x167A JUMP JUMPDEST PUSH1 0x1F NOT DUP5 AND PUSH2 0x161E DUP8 PUSH2 0x1407 JUMP JUMPDEST SWAP7 POP PUSH2 0x1629 DUP7 PUSH2 0x1407 JUMP JUMPDEST PUSH0 JUMPDEST DUP3 DUP2 LT ISZERO PUSH2 0x1650 JUMPI DUP5 DUP10 ADD SLOAD DUP3 SSTORE PUSH1 0x1 DUP3 ADD SWAP2 POP PUSH1 0x1 DUP6 ADD SWAP5 POP PUSH1 0x20 DUP2 ADD SWAP1 POP PUSH2 0x162B JUMP JUMPDEST DUP7 DUP4 LT ISZERO PUSH2 0x166D JUMPI DUP5 DUP10 ADD SLOAD PUSH2 0x1669 PUSH1 0x1F DUP10 AND DUP3 PUSH2 0x1567 JUMP JUMPDEST DUP4 SSTORE POP JUMPDEST PUSH1 0x1 PUSH1 0x2 DUP9 MUL ADD DUP9 SSTORE POP POP POP JUMPDEST POP POP POP POP POP POP JUMPDEST JUMP JUMPDEST PUSH0 PUSH2 0x168D DUP3 PUSH2 0xF99 JUMP JUMPDEST SWAP2 POP PUSH32 0xFFFFFFFFFFFFFFFFFFFFFFFFFFFFFFFFFFFFFFFFFFFFFFFFFFFFFFFFFFFFFFFF DUP3 SUB PUSH2 0x16BF JUMPI PUSH2 0x16BE PUSH2 0x12C7 JUMP JUMPDEST JUMPDEST PUSH1 0x1 DUP3 ADD SWAP1 POP SWAP2 SWAP1 POP JUMP JUMPDEST PUSH0 DUP2 MLOAD SWAP1 POP PUSH2 0x16D8 DUP2 PUSH2 0x11CA JUMP JUMPDEST SWAP3 SWAP2 POP POP JUMP JUMPDEST PUSH0 PUSH1 0x20 DUP3 DUP5 SUB SLT ISZERO PUSH2 0x16F3 JUMPI PUSH2 0x16F2 PUSH2 0xECE JUMP JUMPDEST JUMPDEST PUSH0 PUSH2 0x1700 DUP5 DUP3 DUP6 ADD PUSH2 0x16CA JUMP JUMPDEST SWAP2 POP POP SWAP3 SWAP2 POP POP JUMP JUMPDEST PUSH2 0x1712 DUP2 PUSH2 0x11B9 JUMP JUMPDEST DUP3 MSTORE POP POP JUMP JUMPDEST PUSH0 PUSH1 0x20 DUP3 ADD SWAP1 POP PUSH2 0x172B PUSH0 DUP4 ADD DUP5 PUSH2 0x1709 JUMP JUMPDEST SWAP3 SWAP2 POP POP JUMP JUMPDEST PUSH0 DUP2 PUSH0 SHR SWAP1 POP SWAP2 SWAP1 POP JUMP JUMPDEST PUSH0 DUP2 SWAP1 POP SWAP2 SWAP1 POP JUMP JUMPDEST PUSH0 PUSH2 0x1757 PUSH2 0x1752 DUP4 PUSH2 0x1731 JUMP JUMPDEST PUSH2 0x173C JUMP JUMPDEST SWAP1 POP SWAP2 SWAP1 POP JUMP JUMPDEST PUSH2 0x1767 DUP2 PUSH2 0xF66 JUMP JUMPDEST DUP3 MSTORE POP POP JUMP JUMPDEST PUSH0 DUP2 SWAP1 POP SWAP2 SWAP1 POP JUMP JUMPDEST PUSH0 PUSH2 0x1788 PUSH2 0x1783 DUP4 PUSH2 0x1731 JUMP JUMPDEST PUSH2 0x176D JUMP JUMPDEST SWAP1 POP SWAP2 SWAP1 POP JUMP JUMPDEST PUSH2 0x1798 DUP2 PUSH2 0xF99 JUMP JUMPDEST DUP3 MSTORE POP POP JUMP JUMPDEST PUSH0 DUP3 DUP3 MSTORE PUSH1 0x20 DUP3 ADD SWAP1 POP SWAP3 SWAP2 POP POP JUMP JUMPDEST PUSH0 DUP2 SLOAD PUSH2 0x17BA DUP2 PUSH2 0x1381 JUMP JUMPDEST PUSH2 0x17C4 DUP2 DUP7 PUSH2 0x179E JUMP JUMPDEST SWAP5 POP PUSH1 0x1 DUP3 AND PUSH0 DUP2 EQ PUSH2 0x17DE JUMPI PUSH1 0x1 DUP2 EQ PUSH2 0x17F4 JUMPI PUSH2 0x1826 JUMP JUMPDEST PUSH1 0xFF NOT DUP4 AND DUP7 MSTORE DUP2 ISZERO ISZERO PUSH1 0x20 MUL DUP7 ADD SWAP4 POP PUSH2 0x1826 JUMP JUMPDEST PUSH2 0x17FD DUP6 PUSH2 0x1407 JUMP JUMPDEST PUSH0 JUMPDEST DUP4 DUP2 LT ISZERO PUSH2 0x181E JUMPI DUP2 SLOAD DUP2 DUP10 ADD MSTORE PUSH1 0x1 DUP3 ADD SWAP2 POP PUSH1 0x20 DUP2 ADD SWAP1 POP PUSH2 0x17FF JUMP JUMPDEST DUP1 DUP9 ADD SWAP6 POP POP POP JUMPDEST POP POP POP SWAP3 SWAP2 POP POP JUMP JUMPDEST PUSH0 PUSH1 0x80 DUP4 ADD PUSH0 PUSH0 DUP5 ADD SLOAD SWAP1 POP PUSH2 0x1844 DUP2 PUSH2 0x1745 JUMP JUMPDEST PUSH2 0x1850 PUSH0 DUP8 ADD DUP3 PUSH2 0x175E JUMP JUMPDEST POP PUSH1 0x1 DUP5 ADD SLOAD SWAP1 POP PUSH2 0x1861 DUP2 PUSH2 0x1745 JUMP JUMPDEST PUSH2 0x186E PUSH1 0x20 DUP8 ADD DUP3 PUSH2 0x175E JUMP JUMPDEST POP PUSH1 0x2 DUP5 ADD SLOAD SWAP1 POP PUSH2 0x187F DUP2 PUSH2 0x1776 JUMP JUMPDEST PUSH2 0x188C PUSH1 0x40 DUP8 ADD DUP3 PUSH2 0x178F JUMP JUMPDEST POP PUSH1 0x3 DUP5 ADD DUP6 DUP4 SUB PUSH1 0x60 DUP8 ADD MSTORE PUSH2 0x18A3 DUP4 DUP3 PUSH2 0x17AE JUMP JUMPDEST SWAP3 POP POP DUP2 SWAP3 POP POP POP SWAP3 SWAP2 POP POP JUMP JUMPDEST PUSH0 PUSH1 0x20 DUP3 ADD SWAP1 POP DUP2 DUP2 SUB PUSH0 DUP4 ADD MSTORE PUSH2 0x18C9 DUP2 DUP5 PUSH2 0x182F JUMP JUMPDEST SWAP1 POP SWAP3 SWAP2 POP POP JUMP JUMPDEST PUSH0 DUP3 DUP3 MSTORE PUSH1 0x20 DUP3 ADD SWAP1 POP SWAP3 SWAP2 POP POP JUMP JUMPDEST PUSH32 0x4E6F742073656C65637465642070726F706F7365720000000000000000000000 PUSH0 DUP3 ADD MSTORE POP JUMP JUMPDEST PUSH0 PUSH2 0x1915 PUSH1 0x15 DUP4 PUSH2 0x18D1 JUMP JUMPDEST SWAP2 POP PUSH2 0x1920 DUP3 PUSH2 0x18E1 JUMP JUMPDEST PUSH1 0x20 DUP3 ADD SWAP1 POP SWAP2 SWAP1 POP JUMP JUMPDEST PUSH0 PUSH1 0x20 DUP3 ADD SWAP1 POP DUP2 DUP2 SUB PUSH0 DUP4 ADD MSTORE PUSH2 0x1942 DUP2 PUSH2 0x1909 JUMP JUMPDEST SWAP1 POP SWAP2 SWAP1 POP JUMP JUMPDEST PUSH32 0x5374616B65207265717569726564000000000000000000000000000000000000 PUSH0 DUP3 ADD MSTORE POP JUMP JUMPDEST PUSH0 PUSH2 0x197D PUSH1 0xE DUP4 PUSH2 0x18D1 JUMP JUMPDEST SWAP2 POP PUSH2 0x1988 DUP3 PUSH2 0x1949 JUMP JUMPDEST PUSH1 0x20 DUP3 ADD SWAP1 POP SWAP2 SWAP1 POP JUMP JUMPDEST PUSH0 PUSH1 0x20 DUP3 ADD SWAP1 POP DUP2 DUP2 SUB PUSH0 DUP4 ADD MSTORE PUSH2 0x19AA DUP2 PUSH2 0x1971 JUMP JUMPDEST SWAP1 POP SWAP2 SWAP1 POP JUMP JUMPDEST PUSH0 DUP2 MLOAD SWAP1 POP PUSH2 0x19BF DUP2 PUSH2 0xFA2 JUMP JUMPDEST SWAP3 SWAP2 POP POP JUMP JUMPDEST PUSH0 PUSH1 0x20 DUP3 DUP5 SUB SLT ISZERO PUSH2 0x19DA JUMPI PUSH2 0x19D9 PUSH2 0xECE JUMP JUMPDEST JUMPDEST PUSH0 PUSH2 0x19E7 DUP5 DUP3 DUP6 ADD PUSH2 0x19B1 JUMP JUMPDEST SWAP2 POP POP SWAP3 SWAP2 POP POP JUMP JUMPDEST PUSH0 PUSH2 0x19FA DUP3 PUSH2 0xF99 JUMP JUMPDEST SWAP2 POP PUSH2 0x1A05 DUP4 PUSH2 0xF99 JUMP JUMPDEST SWAP3 POP DUP3 DUP3 ADD SWAP1 POP DUP1 DUP3 GT ISZERO PUSH2 0x1A1D JUMPI PUSH2 0x1A1C PUSH2 0x12C7 JUMP JUMPDEST JUMPDEST SWAP3 SWAP2 POP POP JUMP JUMPDEST PUSH32 0x426C6F636B2070726F706F73616C206661696C75726500000000000000000000 PUSH0 DUP3 ADD MSTORE POP JUMP JUMPDEST PUSH0 PUSH2 0x1A57 PUSH1 0x16 DUP4 PUSH2 0x18D1 JUMP JUMPDEST SWAP2 POP PUSH2 0x1A62 DUP3 PUSH2 0x1A23 JUMP JUMPDEST PUSH1 0x20 DUP3 ADD SWAP1 POP SWAP2 SWAP1 POP JUMP JUMPDEST PUSH0 PUSH1 0x20 DUP3 ADD SWAP1 POP DUP2 DUP2 SUB PUSH0 DUP4 ADD MSTORE PUSH2 0x1A84 DUP2 PUSH2 0x1A4B JUMP JUMPDEST SWAP1 POP SWAP2 SWAP1 POP JUMP JUMPDEST PUSH0 DUP2 MLOAD SWAP1 POP SWAP2 SWAP1 POP JUMP JUMPDEST PUSH2 0x1A9E DUP3 PUSH2 0x1A8B JUMP JUMPDEST PUSH8 0xFFFFFFFFFFFFFFFF DUP2 GT ISZERO PUSH2 0x1AB7 JUMPI PUSH2 0x1AB6 PUSH2 0xEEA JUMP JUMPDEST JUMPDEST PUSH2 0x1AC1 DUP3 SLOAD PUSH2 0x1381 JUMP JUMPDEST PUSH2 0x1ACC DUP3 DUP3 DUP6 PUSH2 0x1515 JUMP JUMPDEST PUSH0 PUSH1 0x20 SWAP1 POP PUSH1 0x1F DUP4 GT PUSH1 0x1 DUP2 EQ PUSH2 0x1AFD JUMPI PUSH0 DUP5 ISZERO PUSH2 0x1AEB JUMPI DUP3 DUP8 ADD MLOAD SWAP1 POP JUMPDEST PUSH2 0x1AF5 DUP6 DUP3 PUSH2 0x1583 JUMP JUMPDEST DUP7 SSTORE POP PUSH2 0x1B5C JUMP JUMPDEST PUSH1 0x1F NOT DUP5 AND PUSH2 0x1B0B DUP7 PUSH2 0x1407 JUMP JUMPDEST PUSH0 JUMPDEST DUP3 DUP2 LT ISZERO PUSH2 0x1B32 JUMPI DUP5 DUP10 ADD MLOAD DUP3 SSTORE PUSH1 0x1 DUP3 ADD SWAP2 POP PUSH1 0x20 DUP6 ADD SWAP5 POP PUSH1 0x20 DUP2 ADD SWAP1 POP PUSH2 0x1B0D JUMP JUMPDEST DUP7 DUP4 LT ISZERO PUSH2 0x1B4F JUMPI DUP5 DUP10 ADD MLOAD PUSH2 0x1B4B PUSH1 0x1F DUP10 AND DUP3 PUSH2 0x1567 JUMP JUMPDEST DUP4 SSTORE POP JUMPDEST PUSH1 0x1 PUSH1 0x2 DUP9 MUL ADD DUP9 SSTORE POP POP POP JUMPDEST POP POP POP POP POP POP JUMP JUMPDEST PUSH32 0x456D7074792064617461207265717565737473206E6F74206163636570746564 PUSH0 DUP3 ADD MSTORE POP JUMP JUMPDEST PUSH0 PUSH2 0x1B98 PUSH1 0x20 DUP4 PUSH2 0x18D1 JUMP JUMPDEST SWAP2 POP PUSH2 0x1BA3 DUP3 PUSH2 0x1B64 JUMP JUMPDEST PUSH1 0x20 DUP3 ADD SWAP1 POP SWAP2 SWAP1 POP JUMP JUMPDEST PUSH0 PUSH1 0x20 DUP3 ADD SWAP1 POP DUP2 DUP2 SUB PUSH0 DUP4 ADD MSTORE PUSH2 0x1BC5 DUP2 PUSH2 0x1B8C JUMP JUMPDEST SWAP1 POP SWAP2 SWAP1 POP JUMP JUMPDEST PUSH0 DUP3 SWAP1 POP SWAP3 SWAP2 POP POP JUMP JUMPDEST PUSH2 0x1BE0 DUP4 DUP4 PUSH2 0x1BCC JUMP JUMPDEST PUSH8 0xFFFFFFFFFFFFFFFF DUP2 GT ISZERO PUSH2 0x1BF9 JUMPI PUSH2 0x1BF8 PUSH2 0xEEA JUMP JUMPDEST JUMPDEST PUSH2 0x1C03 DUP3 SLOAD PUSH2 0x1381 JUMP JUMPDEST PUSH2 0x1C0E DUP3 DUP3 DUP6 PUSH2 0x1515 JUMP JUMPDEST PUSH0 PUSH1 0x1F DUP4 GT PUSH1 0x1 DUP2 EQ PUSH2 0x1C3B JUMPI PUSH0 DUP5 ISZERO PUSH2 0x1C29 JUMPI DUP3 DUP8 ADD CALLDATALOAD SWAP1 POP JUMPDEST PUSH2 0x1C33 DUP6 DUP3 PUSH2 0x1583 JUMP JUMPDEST DUP7 SSTORE POP PUSH2 0x1C9A JUMP JUMPDEST PUSH1 0x1F NOT DUP5 AND PUSH2 0x1C49 DUP7 PUSH2 0x1407 JUMP JUMPDEST PUSH0 JUMPDEST DUP3 DUP2 LT ISZERO PUSH2 0x1C70 JUMPI DUP5 DUP10 ADD CALLDATALOAD DUP3 SSTORE PUSH1 0x1 DUP3 ADD SWAP2 POP PUSH1 0x20 DUP6 ADD SWAP5 POP PUSH1 0x20 DUP2 ADD SWAP1 POP PUSH2 0x1C4B JUMP JUMPDEST DUP7 DUP4 LT ISZERO PUSH2 0x1C8D JUMPI DUP5 DUP10 ADD CALLDATALOAD PUSH2 0x1C89 PUSH1 0x1F DUP10 AND DUP3 PUSH2 0x1567 JUMP JUMPDEST DUP4 SSTORE POP JUMPDEST PUSH1 0x1 PUSH1 0x2 DUP9 MUL ADD DUP9 SSTORE POP POP POP JUMPDEST POP POP POP POP POP POP POP JUMP JUMPDEST PUSH0 DUP2 SWAP1 POP SWAP3 SWAP2 POP POP JUMP JUMPDEST DUP3 DUP2 DUP4 MCOPY PUSH0 DUP4 DUP4 ADD MSTORE POP POP POP JUMP JUMPDEST PUSH0 PUSH2 0x1CC5 DUP3 PUSH2 0x1A8B JUMP JUMPDEST PUSH2 0x1CCF DUP2 DUP6 PUSH2 0x1CA3 JUMP JUMPDEST SWAP4 POP PUSH2 0x1CDF DUP2 DUP6 PUSH1 0x20 DUP7 ADD PUSH2 0x1CAD JUMP JUMPDEST DUP1 DUP5 ADD SWAP2 POP POP SWAP3 SWAP2 POP POP JUMP JUMPDEST PUSH0 PUSH2 0x1CF6 DUP3 DUP5 PUSH2 0x1CBB JUMP JUMPDEST SWAP2 POP DUP2 SWAP1 POP SWAP3 SWAP2 POP POP JUMP INVALID LOG2 PUSH5 0x6970667358 0x22 SLT KECCAK256 ADD 0xDB REVERT SWAP11 0x22 DUP5 ORIGIN 0xDA 0x4B JUMP OR PUSH15 0xB65B7D71E7818B5537DF91A6B1BA70 SWAP6 SWAP11 BLOBBASEFEE EXTCODECOPY 0xC6 PUSH5 0x736F6C6343 STOP ADDMOD 0x1E STOP CALLER "
				},
				"gasEstimates": {
					"creation": {
						"codeDepositCost": "1495800",
						"executionCost": "infinite",
						"totalCost": "infinite"
					},
					"external": {
						"add_peer(address)": "73401",
						"assigner()": "infinite",
						"check_block((bytes32,bytes32,uint256,string))": "infinite",
						"check_block_finality_and_build()": "infinite",
						"finalize_block((bytes32,bytes32,uint256,string))": "infinite",
						"propose_block()": "infinite",
						"staking()": "infinite",
						"user_input(string)": "infinite"
					}
				},
				"methodIdentifiers": {
					"add_peer(address)": "aefa5128",
					"assigner()": "19973261",
					"check_block((bytes32,bytes32,uint256,string))": "4618f42c",
					"check_block_finality_and_build()": "75731976",
					"finalize_block((bytes32,bytes32,uint256,string))": "b4c67900",
					"propose_block()": "abca8e09",
					"staking()": "4cf088d9",
					"user_input(string)": "f09a9fb2"
				}
			},
			"storageLayout": {
				"storage": [
					{
						"astId": 274,
						"contract": "node.sol:Node",
						"label": "blockchain",
						"offset": 0,
						"slot": "0",
						"type": "t_array(t_struct(Block)270_storage)dyn_storage"
					},
					{
						"astId": 276,
						"contract": "node.sol:Node",
						"label": "next_block_num",
						"offset": 0,
						"slot": "1",
						"type": "t_uint256"
					},
					{
						"astId": 398,
						"contract": "node.sol:Node",
						"label": "current_validator_nodes",
						"offset": 0,
						"slot": "2",
						"type": "t_array(t_address)dyn_storage"
					},
					{
						"astId": 400,
						"contract": "node.sol:Node",
						"label": "quorum",
						"offset": 0,
						"slot": "3",
						"type": "t_uint256"
					},
					{
						"astId": 429,
						"contract": "node.sol:Node",
						"label": "staking",
						"offset": 0,
						"slot": "4",
						"type": "t_contract(Staking)259"
					},
					{
						"astId": 432,
						"contract": "node.sol:Node",
						"label": "assigner",
						"offset": 0,
						"slot": "5",
						"type": "t_contract(Assigner)133"
					},
					{
						"astId": 434,
						"contract": "node.sol:Node",
						"label": "current_message",
						"offset": 0,
						"slot": "6",
						"type": "t_string_storage"
					},
					{
						"astId": 436,
						"contract": "node.sol:Node",
						"label": "current_block_quorum",
						"offset": 0,
						"slot": "7",
						"type": "t_uint256"
					},
					{
						"astId": 439,
						"contract": "node.sol:Node",
						"label": "current_block",
						"offset": 0,
						"slot": "8",
						"type": "t_struct(Block)270_storage"
					}
				],
				"types": {
					"t_address": {
						"encoding": "inplace",
						"label": "address",
						"numberOfBytes": "20"
					},
					"t_array(t_address)dyn_storage": {
						"base": "t_address",
						"encoding": "dynamic_array",
						"label": "address[]",
						"numberOfBytes": "32"
					},
					"t_array(t_struct(Block)270_storage)dyn_storage": {
						"base": "t_struct(Block)270_storage",
						"encoding": "dynamic_array",
						"label": "struct Blockchain.Block[]",
						"numberOfBytes": "32"
					},
					"t_bytes32": {
						"encoding": "inplace",
						"label": "bytes32",
						"numberOfBytes": "32"
					},
					"t_contract(Assigner)133": {
						"encoding": "inplace",
						"label": "contract Assigner",
						"numberOfBytes": "20"
					},
					"t_contract(Staking)259": {
						"encoding": "inplace",
						"label": "contract Staking",
						"numberOfBytes": "20"
					},
					"t_string_storage": {
						"encoding": "bytes",
						"label": "string",
						"numberOfBytes": "32"
					},
					"t_struct(Block)270_storage": {
						"encoding": "inplace",
						"label": "struct Blockchain.Block",
						"members": [
							{
								"astId": 263,
								"contract": "node.sol:Node",
								"label": "hash",
								"offset": 0,
								"slot": "0",
								"type": "t_bytes32"
							},
							{
								"astId": 265,
								"contract": "node.sol:Node",
								"label": "prevHash",
								"offset": 0,
								"slot": "1",
								"type": "t_bytes32"
							},
							{
								"astId": 267,
								"contract": "node.sol:Node",
								"label": "blockNum",
								"offset": 0,
								"slot": "2",
								"type": "t_uint256"
							},
							{
								"astId": 269,
								"contract": "node.sol:Node",
								"label": "message",
								"offset": 0,
								"slot": "3",
								"type": "t_string_storage"
							}
						],
						"numberOfBytes": "128"
					},
					"t_uint256": {
						"encoding": "inplace",
						"label": "uint256",
						"numberOfBytes": "32"
					}
				}
			},
			"userdoc": {
				"kind": "user",
				"methods": {},
				"version": 1
			}
		}
	}
}