{
	"Assigner.sol": {
		"Assigner": {
			"abi": [
				{
					"inputs": [
						{
							"internalType": "address",
							"name": "nodeAddress",
							"type": "address"
						}
					],
					"name": "assignPeer",
					"outputs": [],
					"stateMutability": "nonpayable",
					"type": "function"
				},
				{
					"inputs": [],
					"name": "currentProposer",
					"outputs": [
						{
							"internalType": "address",
							"name": "",
							"type": "address"
						}
					],
					"stateMutability": "view",
					"type": "function"
				},
				{
					"inputs": [],
					"name": "getCurrentProposer",
					"outputs": [
						{
							"internalType": "address",
							"name": "",
							"type": "address"
						}
					],
					"stateMutability": "view",
					"type": "function"
				},
				{
					"inputs": [
						{
							"internalType": "uint256",
							"name": "",
							"type": "uint256"
						}
					],
					"name": "nodes",
					"outputs": [
						{
							"internalType": "address",
							"name": "",
							"type": "address"
						}
					],
					"stateMutability": "view",
					"type": "function"
				},
				{
					"inputs": [
						{
							"internalType": "address",
							"name": "nodeAddress",
							"type": "address"
						}
					],
					"name": "registerNode",
					"outputs": [],
					"stateMutability": "nonpayable",
					"type": "function"
				},
				{
					"inputs": [
						{
							"internalType": "uint256",
							"name": "random",
							"type": "uint256"
						}
					],
					"name": "selectProposer",
					"outputs": [],
					"stateMutability": "nonpayable",
					"type": "function"
				}
			],
			"devdoc": {
				"kind": "dev",
				"methods": {},
				"version": 1
			},
			"evm": {
				"assembly": "    /* \"Assigner.sol\":79:1187  contract Assigner {... */\n  mstore(0x40, 0x80)\n  callvalue\n  dup1\n  iszero\n  tag_1\n  jumpi\n  revert(0x00, 0x00)\ntag_1:\n  pop\n  dataSize(sub_0)\n  dup1\n  dataOffset(sub_0)\n  0x00\n  codecopy\n  0x00\n  return\nstop\n\nsub_0: assembly {\n        /* \"Assigner.sol\":79:1187  contract Assigner {... */\n      mstore(0x40, 0x80)\n      callvalue\n      dup1\n      iszero\n      tag_1\n      jumpi\n      revert(0x00, 0x00)\n    tag_1:\n      pop\n      jumpi(tag_2, lt(calldatasize, 0x04))\n      shr(0xe0, calldataload(0x00))\n      dup1\n      0x1c53c280\n      eq\n      tag_3\n      jumpi\n      dup1\n      0x2b26e623\n      eq\n      tag_4\n      jumpi\n      dup1\n      0x3b10244b\n      eq\n      tag_5\n      jumpi\n      dup1\n      0x672d7a0d\n      eq\n      tag_6\n      jumpi\n      dup1\n      0x86a5017c\n      eq\n      tag_7\n      jumpi\n      dup1\n      0xfe82d082\n      eq\n      tag_8\n      jumpi\n    tag_2:\n      revert(0x00, 0x00)\n        /* \"Assigner.sol\":104:126  address[] public nodes */\n    tag_3:\n      tag_9\n      0x04\n      dup1\n      calldatasize\n      sub\n      dup2\n      add\n      swap1\n      tag_10\n      swap2\n      swap1\n      tag_11\n      jump\t// in\n    tag_10:\n      tag_12\n      jump\t// in\n    tag_9:\n      mload(0x40)\n      tag_13\n      swap2\n      swap1\n      tag_14\n      jump\t// in\n    tag_13:\n      mload(0x40)\n      dup1\n      swap2\n      sub\n      swap1\n      return\n        /* \"Assigner.sol\":403:881  function assignPeer(address nodeAddress) external {... */\n    tag_4:\n      tag_15\n      0x04\n      dup1\n      calldatasize\n      sub\n      dup2\n      add\n      swap1\n      tag_16\n      swap2\n      swap1\n      tag_17\n      jump\t// in\n    tag_16:\n      tag_18\n      jump\t// in\n    tag_15:\n      stop\n        /* \"Assigner.sol\":1086:1185  function getCurrentProposer() public view returns (address) {... */\n    tag_5:\n      tag_19\n      tag_20\n      jump\t// in\n    tag_19:\n      mload(0x40)\n      tag_21\n      swap2\n      swap1\n      tag_14\n      jump\t// in\n    tag_21:\n      mload(0x40)\n      dup1\n      swap2\n      sub\n      swap1\n      return\n        /* \"Assigner.sol\":194:354  function registerNode(address nodeAddress) external {... */\n    tag_6:\n      tag_22\n      0x04\n      dup1\n      calldatasize\n      sub\n      dup2\n      add\n      swap1\n      tag_23\n      swap2\n      swap1\n      tag_17\n      jump\t// in\n    tag_23:\n      tag_24\n      jump\t// in\n    tag_22:\n      stop\n        /* \"Assigner.sol\":887:1080  function selectProposer(uint random) public {... */\n    tag_7:\n      tag_25\n      0x04\n      dup1\n      calldatasize\n      sub\n      dup2\n      add\n      swap1\n      tag_26\n      swap2\n      swap1\n      tag_11\n      jump\t// in\n    tag_26:\n      tag_27\n      jump\t// in\n    tag_25:\n      stop\n        /* \"Assigner.sol\":132:162  address public currentProposer */\n    tag_8:\n      tag_28\n      tag_29\n      jump\t// in\n    tag_28:\n      mload(0x40)\n      tag_30\n      swap2\n      swap1\n      tag_14\n      jump\t// in\n    tag_30:\n      mload(0x40)\n      dup1\n      swap2\n      sub\n      swap1\n      return\n        /* \"Assigner.sol\":104:126  address[] public nodes */\n    tag_12:\n      0x00\n      dup2\n      dup2\n      sload\n      dup2\n      lt\n      tag_31\n      jumpi\n      0x00\n      dup1\n      revert\n    tag_31:\n      swap1\n      0x00\n      mstore\n      keccak256(0x00, 0x20)\n      add\n      0x00\n      swap2\n      pop\n      sload\n      swap1\n      0x0100\n      exp\n      swap1\n      div\n      0xffffffffffffffffffffffffffffffffffffffff\n      and\n      dup2\n      jump\t// out\n        /* \"Assigner.sol\":403:881  function assignPeer(address nodeAddress) external {... */\n    tag_18:\n        /* \"Assigner.sol\":486:487  0 */\n      0x00\n        /* \"Assigner.sol\":471:476  nodes */\n      0x00\n        /* \"Assigner.sol\":471:483  nodes.length */\n      dup1\n      sload\n      swap1\n      pop\n        /* \"Assigner.sol\":471:487  nodes.length > 0 */\n      gt\n        /* \"Assigner.sol\":463:511  require(nodes.length > 0, \"No nodes registered\") */\n      tag_34\n      jumpi\n      mload(0x40)\n      0x08c379a000000000000000000000000000000000000000000000000000000000\n      dup2\n      mstore\n      0x04\n      add\n      tag_35\n      swap1\n      tag_36\n      jump\t// in\n    tag_35:\n      mload(0x40)\n      dup1\n      swap2\n      sub\n      swap1\n      revert\n    tag_34:\n        /* \"Assigner.sol\":521:531  uint total */\n      0x00\n        /* \"Assigner.sol\":534:539  nodes */\n      0x00\n        /* \"Assigner.sol\":534:546  nodes.length */\n      dup1\n      sload\n      swap1\n      pop\n        /* \"Assigner.sol\":521:546  uint total = nodes.length */\n      swap1\n      pop\n        /* \"Assigner.sol\":570:571  1 */\n      0x01\n        /* \"Assigner.sol\":561:566  total */\n      dup2\n        /* \"Assigner.sol\":561:571  total == 1 */\n      sub\n        /* \"Assigner.sol\":557:875  if (total == 1) {... */\n      tag_37\n      jumpi\n        /* \"Assigner.sol\":592:603  nodeAddress */\n      dup2\n        /* \"Assigner.sol\":587:613  Node(nodeAddress).add_peer */\n      0xffffffffffffffffffffffffffffffffffffffff\n      and\n      0xaefa5128\n        /* \"Assigner.sol\":614:625  nodeAddress */\n      dup4\n        /* \"Assigner.sol\":587:626  Node(nodeAddress).add_peer(nodeAddress) */\n      mload(0x40)\n      dup3\n      0xffffffff\n      and\n      0xe0\n      shl\n      dup2\n      mstore\n      0x04\n      add\n      tag_38\n      swap2\n      swap1\n      tag_14\n      jump\t// in\n    tag_38:\n      0x00\n      mload(0x40)\n      dup1\n      dup4\n      sub\n      dup2\n      0x00\n      dup8\n      dup1\n      extcodesize\n      iszero\n      dup1\n      iszero\n      tag_39\n      jumpi\n      revert(0x00, 0x00)\n    tag_39:\n      pop\n      gas\n      call\n      iszero\n      dup1\n      iszero\n      tag_41\n      jumpi\n      returndatacopy(0x00, 0x00, returndatasize)\n      revert(0x00, returndatasize)\n    tag_41:\n      pop\n      pop\n      pop\n      pop\n        /* \"Assigner.sol\":557:875  if (total == 1) {... */\n      jump(tag_42)\n    tag_37:\n        /* \"Assigner.sol\":657:669  address head */\n      0x00\n        /* \"Assigner.sol\":672:677  nodes */\n      0x00\n        /* \"Assigner.sol\":678:679  0 */\n      0x00\n        /* \"Assigner.sol\":672:680  nodes[0] */\n      dup2\n      sload\n      dup2\n      lt\n      tag_43\n      jumpi\n      tag_44\n      tag_45\n      jump\t// in\n    tag_44:\n    tag_43:\n      swap1\n      0x00\n      mstore\n      keccak256(0x00, 0x20)\n      add\n      0x00\n      swap1\n      sload\n      swap1\n      0x0100\n      exp\n      swap1\n      div\n      0xffffffffffffffffffffffffffffffffffffffff\n      and\n        /* \"Assigner.sol\":657:680  address head = nodes[0] */\n      swap1\n      pop\n        /* \"Assigner.sol\":694:709  address newTail */\n      0x00\n        /* \"Assigner.sol\":712:717  nodes */\n      0x00\n        /* \"Assigner.sol\":726:727  1 */\n      0x01\n        /* \"Assigner.sol\":718:723  total */\n      dup5\n        /* \"Assigner.sol\":718:727  total - 1 */\n      tag_47\n      swap2\n      swap1\n      tag_48\n      jump\t// in\n    tag_47:\n        /* \"Assigner.sol\":712:728  nodes[total - 1] */\n      dup2\n      sload\n      dup2\n      lt\n      tag_49\n      jumpi\n      tag_50\n      tag_45\n      jump\t// in\n    tag_50:\n    tag_49:\n      swap1\n      0x00\n      mstore\n      keccak256(0x00, 0x20)\n      add\n      0x00\n      swap1\n      sload\n      swap1\n      0x0100\n      exp\n      swap1\n      div\n      0xffffffffffffffffffffffffffffffffffffffff\n      and\n        /* \"Assigner.sol\":694:728  address newTail = nodes[total - 1] */\n      swap1\n      pop\n        /* \"Assigner.sol\":742:757  address oldTail */\n      0x00\n        /* \"Assigner.sol\":760:765  nodes */\n      0x00\n        /* \"Assigner.sol\":774:775  2 */\n      0x02\n        /* \"Assigner.sol\":766:771  total */\n      dup6\n        /* \"Assigner.sol\":766:775  total - 2 */\n      tag_52\n      swap2\n      swap1\n      tag_48\n      jump\t// in\n    tag_52:\n        /* \"Assigner.sol\":760:776  nodes[total - 2] */\n      dup2\n      sload\n      dup2\n      lt\n      tag_53\n      jumpi\n      tag_54\n      tag_45\n      jump\t// in\n    tag_54:\n    tag_53:\n      swap1\n      0x00\n      mstore\n      keccak256(0x00, 0x20)\n      add\n      0x00\n      swap1\n      sload\n      swap1\n      0x0100\n      exp\n      swap1\n      div\n      0xffffffffffffffffffffffffffffffffffffffff\n      and\n        /* \"Assigner.sol\":742:776  address oldTail = nodes[total - 2] */\n      swap1\n      pop\n        /* \"Assigner.sol\":796:803  oldTail */\n      dup1\n        /* \"Assigner.sol\":791:813  Node(oldTail).add_peer */\n      0xffffffffffffffffffffffffffffffffffffffff\n      and\n      0xaefa5128\n        /* \"Assigner.sol\":814:821  newTail */\n      dup4\n        /* \"Assigner.sol\":791:822  Node(oldTail).add_peer(newTail) */\n      mload(0x40)\n      dup3\n      0xffffffff\n      and\n      0xe0\n      shl\n      dup2\n      mstore\n      0x04\n      add\n      tag_56\n      swap2\n      swap1\n      tag_14\n      jump\t// in\n    tag_56:\n      0x00\n      mload(0x40)\n      dup1\n      dup4\n      sub\n      dup2\n      0x00\n      dup8\n      dup1\n      extcodesize\n      iszero\n      dup1\n      iszero\n      tag_57\n      jumpi\n      revert(0x00, 0x00)\n    tag_57:\n      pop\n      gas\n      call\n      iszero\n      dup1\n      iszero\n      tag_59\n      jumpi\n      returndatacopy(0x00, 0x00, returndatasize)\n      revert(0x00, returndatasize)\n    tag_59:\n      pop\n      pop\n      pop\n      pop\n        /* \"Assigner.sol\":841:848  newTail */\n      dup2\n        /* \"Assigner.sol\":836:858  Node(newTail).add_peer */\n      0xffffffffffffffffffffffffffffffffffffffff\n      and\n      0xaefa5128\n        /* \"Assigner.sol\":859:863  head */\n      dup5\n        /* \"Assigner.sol\":836:864  Node(newTail).add_peer(head) */\n      mload(0x40)\n      dup3\n      0xffffffff\n      and\n      0xe0\n      shl\n      dup2\n      mstore\n      0x04\n      add\n      tag_60\n      swap2\n      swap1\n      tag_14\n      jump\t// in\n    tag_60:\n      0x00\n      mload(0x40)\n      dup1\n      dup4\n      sub\n      dup2\n      0x00\n      dup8\n      dup1\n      extcodesize\n      iszero\n      dup1\n      iszero\n      tag_61\n      jumpi\n      revert(0x00, 0x00)\n    tag_61:\n      pop\n      gas\n      call\n      iszero\n      dup1\n      iszero\n      tag_63\n      jumpi\n      returndatacopy(0x00, 0x00, returndatasize)\n      revert(0x00, returndatasize)\n    tag_63:\n      pop\n      pop\n      pop\n      pop\n        /* \"Assigner.sol\":643:875  {... */\n      pop\n      pop\n      pop\n        /* \"Assigner.sol\":557:875  if (total == 1) {... */\n    tag_42:\n        /* \"Assigner.sol\":453:881  {... */\n      pop\n        /* \"Assigner.sol\":403:881  function assignPeer(address nodeAddress) external {... */\n      pop\n      jump\t// out\n        /* \"Assigner.sol\":1086:1185  function getCurrentProposer() public view returns (address) {... */\n    tag_20:\n        /* \"Assigner.sol\":1137:1144  address */\n      0x00\n        /* \"Assigner.sol\":1163:1178  currentProposer */\n      0x01\n      0x00\n      swap1\n      sload\n      swap1\n      0x0100\n      exp\n      swap1\n      div\n      0xffffffffffffffffffffffffffffffffffffffff\n      and\n        /* \"Assigner.sol\":1156:1178  return currentProposer */\n      swap1\n      pop\n        /* \"Assigner.sol\":1086:1185  function getCurrentProposer() public view returns (address) {... */\n      swap1\n      jump\t// out\n        /* \"Assigner.sol\":194:354  function registerNode(address nodeAddress) external {... */\n    tag_24:\n        /* \"Assigner.sol\":287:288  0 */\n      0x00\n        /* \"Assigner.sol\":264:289  nodeAddress != address(0) */\n      0xffffffffffffffffffffffffffffffffffffffff\n      and\n        /* \"Assigner.sol\":264:275  nodeAddress */\n      dup2\n        /* \"Assigner.sol\":264:289  nodeAddress != address(0) */\n      0xffffffffffffffffffffffffffffffffffffffff\n      and\n      sub\n        /* \"Assigner.sol\":256:314  require(nodeAddress != address(0), \"Invalid node address\") */\n      tag_66\n      jumpi\n      mload(0x40)\n      0x08c379a000000000000000000000000000000000000000000000000000000000\n      dup2\n      mstore\n      0x04\n      add\n      tag_67\n      swap1\n      tag_68\n      jump\t// in\n    tag_67:\n      mload(0x40)\n      dup1\n      swap2\n      sub\n      swap1\n      revert\n    tag_66:\n        /* \"Assigner.sol\":324:329  nodes */\n      0x00\n        /* \"Assigner.sol\":335:346  nodeAddress */\n      dup2\n        /* \"Assigner.sol\":324:347  nodes.push(nodeAddress) */\n      swap1\n      dup1\n      0x01\n      dup2\n      sload\n      add\n      dup1\n      dup3\n      sstore\n      dup1\n      swap2\n      pop\n      pop\n      0x01\n      swap1\n      sub\n      swap1\n      0x00\n      mstore\n      keccak256(0x00, 0x20)\n      add\n      0x00\n      swap1\n      swap2\n      swap1\n      swap2\n      swap1\n      swap2\n      0x0100\n      exp\n      dup2\n      sload\n      dup2\n      0xffffffffffffffffffffffffffffffffffffffff\n      mul\n      not\n      and\n      swap1\n      dup4\n      0xffffffffffffffffffffffffffffffffffffffff\n      and\n      mul\n      or\n      swap1\n      sstore\n      pop\n        /* \"Assigner.sol\":194:354  function registerNode(address nodeAddress) external {... */\n      pop\n      jump\t// out\n        /* \"Assigner.sol\":887:1080  function selectProposer(uint random) public {... */\n    tag_27:\n        /* \"Assigner.sol\":964:965  0 */\n      0x00\n        /* \"Assigner.sol\":949:954  nodes */\n      0x00\n        /* \"Assigner.sol\":949:961  nodes.length */\n      dup1\n      sload\n      swap1\n      pop\n        /* \"Assigner.sol\":949:965  nodes.length > 0 */\n      gt\n        /* \"Assigner.sol\":941:988  require(nodes.length > 0, \"No nodes available\") */\n      tag_71\n      jumpi\n      mload(0x40)\n      0x08c379a000000000000000000000000000000000000000000000000000000000\n      dup2\n      mstore\n      0x04\n      add\n      tag_72\n      swap1\n      tag_73\n      jump\t// in\n    tag_72:\n      mload(0x40)\n      dup1\n      swap2\n      sub\n      swap1\n      revert\n    tag_71:\n        /* \"Assigner.sol\":999:1009  uint index */\n      0x00\n        /* \"Assigner.sol\":1021:1026  nodes */\n      0x00\n        /* \"Assigner.sol\":1021:1033  nodes.length */\n      dup1\n      sload\n      swap1\n      pop\n        /* \"Assigner.sol\":1012:1018  random */\n      dup3\n        /* \"Assigner.sol\":1012:1033  random % nodes.length */\n      tag_74\n      swap2\n      swap1\n      tag_75\n      jump\t// in\n    tag_74:\n        /* \"Assigner.sol\":999:1033  uint index = random % nodes.length */\n      swap1\n      pop\n        /* \"Assigner.sol\":1061:1066  nodes */\n      0x00\n        /* \"Assigner.sol\":1067:1072  index */\n      dup2\n        /* \"Assigner.sol\":1061:1073  nodes[index] */\n      dup2\n      sload\n      dup2\n      lt\n      tag_76\n      jumpi\n      tag_77\n      tag_45\n      jump\t// in\n    tag_77:\n    tag_76:\n      swap1\n      0x00\n      mstore\n      keccak256(0x00, 0x20)\n      add\n      0x00\n      swap1\n      sload\n      swap1\n      0x0100\n      exp\n      swap1\n      div\n      0xffffffffffffffffffffffffffffffffffffffff\n      and\n        /* \"Assigner.sol\":1043:1058  currentProposer */\n      0x01\n      0x00\n        /* \"Assigner.sol\":1043:1073  currentProposer = nodes[index] */\n      0x0100\n      exp\n      dup2\n      sload\n      dup2\n      0xffffffffffffffffffffffffffffffffffffffff\n      mul\n      not\n      and\n      swap1\n      dup4\n      0xffffffffffffffffffffffffffffffffffffffff\n      and\n      mul\n      or\n      swap1\n      sstore\n      pop\n        /* \"Assigner.sol\":931:1080  {... */\n      pop\n        /* \"Assigner.sol\":887:1080  function selectProposer(uint random) public {... */\n      pop\n      jump\t// out\n        /* \"Assigner.sol\":132:162  address public currentProposer */\n    tag_29:\n      0x01\n      0x00\n      swap1\n      sload\n      swap1\n      0x0100\n      exp\n      swap1\n      div\n      0xffffffffffffffffffffffffffffffffffffffff\n      and\n      dup2\n      jump\t// out\n        /* \"#utility.yul\":88:205   */\n    tag_80:\n        /* \"#utility.yul\":197:198   */\n      0x00\n        /* \"#utility.yul\":194:195   */\n      0x00\n        /* \"#utility.yul\":187:199   */\n      revert\n        /* \"#utility.yul\":334:411   */\n    tag_82:\n        /* \"#utility.yul\":371:378   */\n      0x00\n        /* \"#utility.yul\":400:405   */\n      dup2\n        /* \"#utility.yul\":389:405   */\n      swap1\n      pop\n        /* \"#utility.yul\":334:411   */\n      swap2\n      swap1\n      pop\n      jump\t// out\n        /* \"#utility.yul\":417:539   */\n    tag_83:\n        /* \"#utility.yul\":490:514   */\n      tag_105\n        /* \"#utility.yul\":508:513   */\n      dup2\n        /* \"#utility.yul\":490:514   */\n      tag_82\n      jump\t// in\n    tag_105:\n        /* \"#utility.yul\":483:488   */\n      dup2\n        /* \"#utility.yul\":480:515   */\n      eq\n        /* \"#utility.yul\":470:533   */\n      tag_106\n      jumpi\n        /* \"#utility.yul\":529:530   */\n      0x00\n        /* \"#utility.yul\":526:527   */\n      0x00\n        /* \"#utility.yul\":519:531   */\n      revert\n        /* \"#utility.yul\":470:533   */\n    tag_106:\n        /* \"#utility.yul\":417:539   */\n      pop\n      jump\t// out\n        /* \"#utility.yul\":545:684   */\n    tag_84:\n        /* \"#utility.yul\":591:596   */\n      0x00\n        /* \"#utility.yul\":629:635   */\n      dup2\n        /* \"#utility.yul\":616:636   */\n      calldataload\n        /* \"#utility.yul\":607:636   */\n      swap1\n      pop\n        /* \"#utility.yul\":645:678   */\n      tag_108\n        /* \"#utility.yul\":672:677   */\n      dup2\n        /* \"#utility.yul\":645:678   */\n      tag_83\n      jump\t// in\n    tag_108:\n        /* \"#utility.yul\":545:684   */\n      swap3\n      swap2\n      pop\n      pop\n      jump\t// out\n        /* \"#utility.yul\":690:1019   */\n    tag_11:\n        /* \"#utility.yul\":749:755   */\n      0x00\n        /* \"#utility.yul\":798:800   */\n      0x20\n        /* \"#utility.yul\":786:795   */\n      dup3\n        /* \"#utility.yul\":777:784   */\n      dup5\n        /* \"#utility.yul\":773:796   */\n      sub\n        /* \"#utility.yul\":769:801   */\n      slt\n        /* \"#utility.yul\":766:885   */\n      iszero\n      tag_110\n      jumpi\n        /* \"#utility.yul\":804:883   */\n      tag_111\n      tag_80\n      jump\t// in\n    tag_111:\n        /* \"#utility.yul\":766:885   */\n    tag_110:\n        /* \"#utility.yul\":924:925   */\n      0x00\n        /* \"#utility.yul\":949:1002   */\n      tag_112\n        /* \"#utility.yul\":994:1001   */\n      dup5\n        /* \"#utility.yul\":985:991   */\n      dup3\n        /* \"#utility.yul\":974:983   */\n      dup6\n        /* \"#utility.yul\":970:992   */\n      add\n        /* \"#utility.yul\":949:1002   */\n      tag_84\n      jump\t// in\n    tag_112:\n        /* \"#utility.yul\":939:1002   */\n      swap2\n      pop\n        /* \"#utility.yul\":895:1012   */\n      pop\n        /* \"#utility.yul\":690:1019   */\n      swap3\n      swap2\n      pop\n      pop\n      jump\t// out\n        /* \"#utility.yul\":1025:1151   */\n    tag_85:\n        /* \"#utility.yul\":1062:1069   */\n      0x00\n        /* \"#utility.yul\":1102:1144   */\n      0xffffffffffffffffffffffffffffffffffffffff\n        /* \"#utility.yul\":1095:1100   */\n      dup3\n        /* \"#utility.yul\":1091:1145   */\n      and\n        /* \"#utility.yul\":1080:1145   */\n      swap1\n      pop\n        /* \"#utility.yul\":1025:1151   */\n      swap2\n      swap1\n      pop\n      jump\t// out\n        /* \"#utility.yul\":1157:1253   */\n    tag_86:\n        /* \"#utility.yul\":1194:1201   */\n      0x00\n        /* \"#utility.yul\":1223:1247   */\n      tag_115\n        /* \"#utility.yul\":1241:1246   */\n      dup3\n        /* \"#utility.yul\":1223:1247   */\n      tag_85\n      jump\t// in\n    tag_115:\n        /* \"#utility.yul\":1212:1247   */\n      swap1\n      pop\n        /* \"#utility.yul\":1157:1253   */\n      swap2\n      swap1\n      pop\n      jump\t// out\n        /* \"#utility.yul\":1259:1377   */\n    tag_87:\n        /* \"#utility.yul\":1346:1370   */\n      tag_117\n        /* \"#utility.yul\":1364:1369   */\n      dup2\n        /* \"#utility.yul\":1346:1370   */\n      tag_86\n      jump\t// in\n    tag_117:\n        /* \"#utility.yul\":1341:1344   */\n      dup3\n        /* \"#utility.yul\":1334:1371   */\n      mstore\n        /* \"#utility.yul\":1259:1377   */\n      pop\n      pop\n      jump\t// out\n        /* \"#utility.yul\":1383:1605   */\n    tag_14:\n        /* \"#utility.yul\":1476:1480   */\n      0x00\n        /* \"#utility.yul\":1514:1516   */\n      0x20\n        /* \"#utility.yul\":1503:1512   */\n      dup3\n        /* \"#utility.yul\":1499:1517   */\n      add\n        /* \"#utility.yul\":1491:1517   */\n      swap1\n      pop\n        /* \"#utility.yul\":1527:1598   */\n      tag_119\n        /* \"#utility.yul\":1595:1596   */\n      0x00\n        /* \"#utility.yul\":1584:1593   */\n      dup4\n        /* \"#utility.yul\":1580:1597   */\n      add\n        /* \"#utility.yul\":1571:1577   */\n      dup5\n        /* \"#utility.yul\":1527:1598   */\n      tag_87\n      jump\t// in\n    tag_119:\n        /* \"#utility.yul\":1383:1605   */\n      swap3\n      swap2\n      pop\n      pop\n      jump\t// out\n        /* \"#utility.yul\":1611:1733   */\n    tag_88:\n        /* \"#utility.yul\":1684:1708   */\n      tag_121\n        /* \"#utility.yul\":1702:1707   */\n      dup2\n        /* \"#utility.yul\":1684:1708   */\n      tag_86\n      jump\t// in\n    tag_121:\n        /* \"#utility.yul\":1677:1682   */\n      dup2\n        /* \"#utility.yul\":1674:1709   */\n      eq\n        /* \"#utility.yul\":1664:1727   */\n      tag_122\n      jumpi\n        /* \"#utility.yul\":1723:1724   */\n      0x00\n        /* \"#utility.yul\":1720:1721   */\n      0x00\n        /* \"#utility.yul\":1713:1725   */\n      revert\n        /* \"#utility.yul\":1664:1727   */\n    tag_122:\n        /* \"#utility.yul\":1611:1733   */\n      pop\n      jump\t// out\n        /* \"#utility.yul\":1739:1878   */\n    tag_89:\n        /* \"#utility.yul\":1785:1790   */\n      0x00\n        /* \"#utility.yul\":1823:1829   */\n      dup2\n        /* \"#utility.yul\":1810:1830   */\n      calldataload\n        /* \"#utility.yul\":1801:1830   */\n      swap1\n      pop\n        /* \"#utility.yul\":1839:1872   */\n      tag_124\n        /* \"#utility.yul\":1866:1871   */\n      dup2\n        /* \"#utility.yul\":1839:1872   */\n      tag_88\n      jump\t// in\n    tag_124:\n        /* \"#utility.yul\":1739:1878   */\n      swap3\n      swap2\n      pop\n      pop\n      jump\t// out\n        /* \"#utility.yul\":1884:2213   */\n    tag_17:\n        /* \"#utility.yul\":1943:1949   */\n      0x00\n        /* \"#utility.yul\":1992:1994   */\n      0x20\n        /* \"#utility.yul\":1980:1989   */\n      dup3\n        /* \"#utility.yul\":1971:1978   */\n      dup5\n        /* \"#utility.yul\":1967:1990   */\n      sub\n        /* \"#utility.yul\":1963:1995   */\n      slt\n        /* \"#utility.yul\":1960:2079   */\n      iszero\n      tag_126\n      jumpi\n        /* \"#utility.yul\":1998:2077   */\n      tag_127\n      tag_80\n      jump\t// in\n    tag_127:\n        /* \"#utility.yul\":1960:2079   */\n    tag_126:\n        /* \"#utility.yul\":2118:2119   */\n      0x00\n        /* \"#utility.yul\":2143:2196   */\n      tag_128\n        /* \"#utility.yul\":2188:2195   */\n      dup5\n        /* \"#utility.yul\":2179:2185   */\n      dup3\n        /* \"#utility.yul\":2168:2177   */\n      dup6\n        /* \"#utility.yul\":2164:2186   */\n      add\n        /* \"#utility.yul\":2143:2196   */\n      tag_89\n      jump\t// in\n    tag_128:\n        /* \"#utility.yul\":2133:2196   */\n      swap2\n      pop\n        /* \"#utility.yul\":2089:2206   */\n      pop\n        /* \"#utility.yul\":1884:2213   */\n      swap3\n      swap2\n      pop\n      pop\n      jump\t// out\n        /* \"#utility.yul\":2219:2388   */\n    tag_90:\n        /* \"#utility.yul\":2303:2314   */\n      0x00\n        /* \"#utility.yul\":2337:2343   */\n      dup3\n        /* \"#utility.yul\":2332:2335   */\n      dup3\n        /* \"#utility.yul\":2325:2344   */\n      mstore\n        /* \"#utility.yul\":2377:2381   */\n      0x20\n        /* \"#utility.yul\":2372:2375   */\n      dup3\n        /* \"#utility.yul\":2368:2382   */\n      add\n        /* \"#utility.yul\":2353:2382   */\n      swap1\n      pop\n        /* \"#utility.yul\":2219:2388   */\n      swap3\n      swap2\n      pop\n      pop\n      jump\t// out\n        /* \"#utility.yul\":2394:2563   */\n    tag_91:\n        /* \"#utility.yul\":2534:2555   */\n      0x4e6f206e6f646573207265676973746572656400000000000000000000000000\n        /* \"#utility.yul\":2530:2531   */\n      0x00\n        /* \"#utility.yul\":2522:2528   */\n      dup3\n        /* \"#utility.yul\":2518:2532   */\n      add\n        /* \"#utility.yul\":2511:2556   */\n      mstore\n        /* \"#utility.yul\":2394:2563   */\n      pop\n      jump\t// out\n        /* \"#utility.yul\":2569:2935   */\n    tag_92:\n        /* \"#utility.yul\":2711:2714   */\n      0x00\n        /* \"#utility.yul\":2732:2799   */\n      tag_132\n        /* \"#utility.yul\":2796:2798   */\n      0x13\n        /* \"#utility.yul\":2791:2794   */\n      dup4\n        /* \"#utility.yul\":2732:2799   */\n      tag_90\n      jump\t// in\n    tag_132:\n        /* \"#utility.yul\":2725:2799   */\n      swap2\n      pop\n        /* \"#utility.yul\":2808:2901   */\n      tag_133\n        /* \"#utility.yul\":2897:2900   */\n      dup3\n        /* \"#utility.yul\":2808:2901   */\n      tag_91\n      jump\t// in\n    tag_133:\n        /* \"#utility.yul\":2926:2928   */\n      0x20\n        /* \"#utility.yul\":2921:2924   */\n      dup3\n        /* \"#utility.yul\":2917:2929   */\n      add\n        /* \"#utility.yul\":2910:2929   */\n      swap1\n      pop\n        /* \"#utility.yul\":2569:2935   */\n      swap2\n      swap1\n      pop\n      jump\t// out\n        /* \"#utility.yul\":2941:3360   */\n    tag_36:\n        /* \"#utility.yul\":3107:3111   */\n      0x00\n        /* \"#utility.yul\":3145:3147   */\n      0x20\n        /* \"#utility.yul\":3134:3143   */\n      dup3\n        /* \"#utility.yul\":3130:3148   */\n      add\n        /* \"#utility.yul\":3122:3148   */\n      swap1\n      pop\n        /* \"#utility.yul\":3194:3203   */\n      dup2\n        /* \"#utility.yul\":3188:3192   */\n      dup2\n        /* \"#utility.yul\":3184:3204   */\n      sub\n        /* \"#utility.yul\":3180:3181   */\n      0x00\n        /* \"#utility.yul\":3169:3178   */\n      dup4\n        /* \"#utility.yul\":3165:3182   */\n      add\n        /* \"#utility.yul\":3158:3205   */\n      mstore\n        /* \"#utility.yul\":3222:3353   */\n      tag_135\n        /* \"#utility.yul\":3348:3352   */\n      dup2\n        /* \"#utility.yul\":3222:3353   */\n      tag_92\n      jump\t// in\n    tag_135:\n        /* \"#utility.yul\":3214:3353   */\n      swap1\n      pop\n        /* \"#utility.yul\":2941:3360   */\n      swap2\n      swap1\n      pop\n      jump\t// out\n        /* \"#utility.yul\":3366:3546   */\n    tag_45:\n        /* \"#utility.yul\":3414:3491   */\n      0x4e487b7100000000000000000000000000000000000000000000000000000000\n        /* \"#utility.yul\":3411:3412   */\n      0x00\n        /* \"#utility.yul\":3404:3492   */\n      mstore\n        /* \"#utility.yul\":3511:3515   */\n      0x32\n        /* \"#utility.yul\":3508:3509   */\n      0x04\n        /* \"#utility.yul\":3501:3516   */\n      mstore\n        /* \"#utility.yul\":3535:3539   */\n      0x24\n        /* \"#utility.yul\":3532:3533   */\n      0x00\n        /* \"#utility.yul\":3525:3540   */\n      revert\n        /* \"#utility.yul\":3552:3732   */\n    tag_93:\n        /* \"#utility.yul\":3600:3677   */\n      0x4e487b7100000000000000000000000000000000000000000000000000000000\n        /* \"#utility.yul\":3597:3598   */\n      0x00\n        /* \"#utility.yul\":3590:3678   */\n      mstore\n        /* \"#utility.yul\":3697:3701   */\n      0x11\n        /* \"#utility.yul\":3694:3695   */\n      0x04\n        /* \"#utility.yul\":3687:3702   */\n      mstore\n        /* \"#utility.yul\":3721:3725   */\n      0x24\n        /* \"#utility.yul\":3718:3719   */\n      0x00\n        /* \"#utility.yul\":3711:3726   */\n      revert\n        /* \"#utility.yul\":3738:3932   */\n    tag_48:\n        /* \"#utility.yul\":3778:3782   */\n      0x00\n        /* \"#utility.yul\":3798:3818   */\n      tag_139\n        /* \"#utility.yul\":3816:3817   */\n      dup3\n        /* \"#utility.yul\":3798:3818   */\n      tag_82\n      jump\t// in\n    tag_139:\n        /* \"#utility.yul\":3793:3818   */\n      swap2\n      pop\n        /* \"#utility.yul\":3832:3852   */\n      tag_140\n        /* \"#utility.yul\":3850:3851   */\n      dup4\n        /* \"#utility.yul\":3832:3852   */\n      tag_82\n      jump\t// in\n    tag_140:\n        /* \"#utility.yul\":3827:3852   */\n      swap3\n      pop\n        /* \"#utility.yul\":3876:3877   */\n      dup3\n        /* \"#utility.yul\":3873:3874   */\n      dup3\n        /* \"#utility.yul\":3869:3878   */\n      sub\n        /* \"#utility.yul\":3861:3878   */\n      swap1\n      pop\n        /* \"#utility.yul\":3900:3901   */\n      dup2\n        /* \"#utility.yul\":3894:3898   */\n      dup2\n        /* \"#utility.yul\":3891:3902   */\n      gt\n        /* \"#utility.yul\":3888:3925   */\n      iszero\n      tag_141\n      jumpi\n        /* \"#utility.yul\":3905:3923   */\n      tag_142\n      tag_93\n      jump\t// in\n    tag_142:\n        /* \"#utility.yul\":3888:3925   */\n    tag_141:\n        /* \"#utility.yul\":3738:3932   */\n      swap3\n      swap2\n      pop\n      pop\n      jump\t// out\n        /* \"#utility.yul\":3938:4108   */\n    tag_94:\n        /* \"#utility.yul\":4078:4100   */\n      0x496e76616c6964206e6f64652061646472657373000000000000000000000000\n        /* \"#utility.yul\":4074:4075   */\n      0x00\n        /* \"#utility.yul\":4066:4072   */\n      dup3\n        /* \"#utility.yul\":4062:4076   */\n      add\n        /* \"#utility.yul\":4055:4101   */\n      mstore\n        /* \"#utility.yul\":3938:4108   */\n      pop\n      jump\t// out\n        /* \"#utility.yul\":4114:4480   */\n    tag_95:\n        /* \"#utility.yul\":4256:4259   */\n      0x00\n        /* \"#utility.yul\":4277:4344   */\n      tag_145\n        /* \"#utility.yul\":4341:4343   */\n      0x14\n        /* \"#utility.yul\":4336:4339   */\n      dup4\n        /* \"#utility.yul\":4277:4344   */\n      tag_90\n      jump\t// in\n    tag_145:\n        /* \"#utility.yul\":4270:4344   */\n      swap2\n      pop\n        /* \"#utility.yul\":4353:4446   */\n      tag_146\n        /* \"#utility.yul\":4442:4445   */\n      dup3\n        /* \"#utility.yul\":4353:4446   */\n      tag_94\n      jump\t// in\n    tag_146:\n        /* \"#utility.yul\":4471:4473   */\n      0x20\n        /* \"#utility.yul\":4466:4469   */\n      dup3\n        /* \"#utility.yul\":4462:4474   */\n      add\n        /* \"#utility.yul\":4455:4474   */\n      swap1\n      pop\n        /* \"#utility.yul\":4114:4480   */\n      swap2\n      swap1\n      pop\n      jump\t// out\n        /* \"#utility.yul\":4486:4905   */\n    tag_68:\n        /* \"#utility.yul\":4652:4656   */\n      0x00\n        /* \"#utility.yul\":4690:4692   */\n      0x20\n        /* \"#utility.yul\":4679:4688   */\n      dup3\n        /* \"#utility.yul\":4675:4693   */\n      add\n        /* \"#utility.yul\":4667:4693   */\n      swap1\n      pop\n        /* \"#utility.yul\":4739:4748   */\n      dup2\n        /* \"#utility.yul\":4733:4737   */\n      dup2\n        /* \"#utility.yul\":4729:4749   */\n      sub\n        /* \"#utility.yul\":4725:4726   */\n      0x00\n        /* \"#utility.yul\":4714:4723   */\n      dup4\n        /* \"#utility.yul\":4710:4727   */\n      add\n        /* \"#utility.yul\":4703:4750   */\n      mstore\n        /* \"#utility.yul\":4767:4898   */\n      tag_148\n        /* \"#utility.yul\":4893:4897   */\n      dup2\n        /* \"#utility.yul\":4767:4898   */\n      tag_95\n      jump\t// in\n    tag_148:\n        /* \"#utility.yul\":4759:4898   */\n      swap1\n      pop\n        /* \"#utility.yul\":4486:4905   */\n      swap2\n      swap1\n      pop\n      jump\t// out\n        /* \"#utility.yul\":4911:5079   */\n    tag_96:\n        /* \"#utility.yul\":5051:5071   */\n      0x4e6f206e6f64657320617661696c61626c650000000000000000000000000000\n        /* \"#utility.yul\":5047:5048   */\n      0x00\n        /* \"#utility.yul\":5039:5045   */\n      dup3\n        /* \"#utility.yul\":5035:5049   */\n      add\n        /* \"#utility.yul\":5028:5072   */\n      mstore\n        /* \"#utility.yul\":4911:5079   */\n      pop\n      jump\t// out\n        /* \"#utility.yul\":5085:5451   */\n    tag_97:\n        /* \"#utility.yul\":5227:5230   */\n      0x00\n        /* \"#utility.yul\":5248:5315   */\n      tag_151\n        /* \"#utility.yul\":5312:5314   */\n      0x12\n        /* \"#utility.yul\":5307:5310   */\n      dup4\n        /* \"#utility.yul\":5248:5315   */\n      tag_90\n      jump\t// in\n    tag_151:\n        /* \"#utility.yul\":5241:5315   */\n      swap2\n      pop\n        /* \"#utility.yul\":5324:5417   */\n      tag_152\n        /* \"#utility.yul\":5413:5416   */\n      dup3\n        /* \"#utility.yul\":5324:5417   */\n      tag_96\n      jump\t// in\n    tag_152:\n        /* \"#utility.yul\":5442:5444   */\n      0x20\n        /* \"#utility.yul\":5437:5440   */\n      dup3\n        /* \"#utility.yul\":5433:5445   */\n      add\n        /* \"#utility.yul\":5426:5445   */\n      swap1\n      pop\n        /* \"#utility.yul\":5085:5451   */\n      swap2\n      swap1\n      pop\n      jump\t// out\n        /* \"#utility.yul\":5457:5876   */\n    tag_73:\n        /* \"#utility.yul\":5623:5627   */\n      0x00\n        /* \"#utility.yul\":5661:5663   */\n      0x20\n        /* \"#utility.yul\":5650:5659   */\n      dup3\n        /* \"#utility.yul\":5646:5664   */\n      add\n        /* \"#utility.yul\":5638:5664   */\n      swap1\n      pop\n        /* \"#utility.yul\":5710:5719   */\n      dup2\n        /* \"#utility.yul\":5704:5708   */\n      dup2\n        /* \"#utility.yul\":5700:5720   */\n      sub\n        /* \"#utility.yul\":5696:5697   */\n      0x00\n        /* \"#utility.yul\":5685:5694   */\n      dup4\n        /* \"#utility.yul\":5681:5698   */\n      add\n        /* \"#utility.yul\":5674:5721   */\n      mstore\n        /* \"#utility.yul\":5738:5869   */\n      tag_154\n        /* \"#utility.yul\":5864:5868   */\n      dup2\n        /* \"#utility.yul\":5738:5869   */\n      tag_97\n      jump\t// in\n    tag_154:\n        /* \"#utility.yul\":5730:5869   */\n      swap1\n      pop\n        /* \"#utility.yul\":5457:5876   */\n      swap2\n      swap1\n      pop\n      jump\t// out\n        /* \"#utility.yul\":5882:6062   */\n    tag_98:\n        /* \"#utility.yul\":5930:6007   */\n      0x4e487b7100000000000000000000000000000000000000000000000000000000\n        /* \"#utility.yul\":5927:5928   */\n      0x00\n        /* \"#utility.yul\":5920:6008   */\n      mstore\n        /* \"#utility.yul\":6027:6031   */\n      0x12\n        /* \"#utility.yul\":6024:6025   */\n      0x04\n        /* \"#utility.yul\":6017:6032   */\n      mstore\n        /* \"#utility.yul\":6051:6055   */\n      0x24\n        /* \"#utility.yul\":6048:6049   */\n      0x00\n        /* \"#utility.yul\":6041:6056   */\n      revert\n        /* \"#utility.yul\":6068:6244   */\n    tag_75:\n        /* \"#utility.yul\":6100:6101   */\n      0x00\n        /* \"#utility.yul\":6117:6137   */\n      tag_157\n        /* \"#utility.yul\":6135:6136   */\n      dup3\n        /* \"#utility.yul\":6117:6137   */\n      tag_82\n      jump\t// in\n    tag_157:\n        /* \"#utility.yul\":6112:6137   */\n      swap2\n      pop\n        /* \"#utility.yul\":6151:6171   */\n      tag_158\n        /* \"#utility.yul\":6169:6170   */\n      dup4\n        /* \"#utility.yul\":6151:6171   */\n      tag_82\n      jump\t// in\n    tag_158:\n        /* \"#utility.yul\":6146:6171   */\n      swap3\n      pop\n        /* \"#utility.yul\":6190:6191   */\n      dup3\n        /* \"#utility.yul\":6180:6215   */\n      tag_159\n      jumpi\n        /* \"#utility.yul\":6195:6213   */\n      tag_160\n      tag_98\n      jump\t// in\n    tag_160:\n        /* \"#utility.yul\":6180:6215   */\n    tag_159:\n        /* \"#utility.yul\":6236:6237   */\n      dup3\n        /* \"#utility.yul\":6233:6234   */\n      dup3\n        /* \"#utility.yul\":6229:6238   */\n      mod\n        /* \"#utility.yul\":6224:6238   */\n      swap1\n      pop\n        /* \"#utility.yul\":6068:6244   */\n      swap3\n      swap2\n      pop\n      pop\n      jump\t// out\n\n    auxdata: 0xa264697066735822122061c2666a4470c14277b1d2b38c23513cbd9ca30850a3b7009e755d6b62f16c3b64736f6c634300081e0033\n}\n",
				"bytecode": {
					"linkReferences": {},
					"object": "6080604052348015600e575f5ffd5b506109308061001c5f395ff3fe608060405234801561000f575f5ffd5b5060043610610060575f3560e01c80631c53c280146100645780632b26e623146100945780633b10244b146100b0578063672d7a0d146100ce57806386a5017c146100ea578063fe82d08214610106575b5f5ffd5b61007e600480360381019061007991906105f0565b610124565b60405161008b919061065a565b60405180910390f35b6100ae60048036038101906100a9919061069d565b61015e565b005b6100b86103c5565b6040516100c5919061065a565b60405180910390f35b6100e860048036038101906100e3919061069d565b6103ed565b005b61010460048036038101906100ff91906105f0565b6104bd565b005b61010e610594565b60405161011b919061065a565b60405180910390f35b5f8181548110610132575f80fd5b905f5260205f20015f915054906101000a900473ffffffffffffffffffffffffffffffffffffffff1681565b5f5f80549050116101a4576040517f08c379a000000000000000000000000000000000000000000000000000000000815260040161019b90610722565b60405180910390fd5b5f5f8054905090506001810361021f578173ffffffffffffffffffffffffffffffffffffffff1663aefa5128836040518263ffffffff1660e01b81526004016101ed919061065a565b5f604051808303815f87803b158015610204575f5ffd5b505af1158015610216573d5f5f3e3d5ffd5b505050506103c1565b5f5f5f8154811061023357610232610740565b5b905f5260205f20015f9054906101000a900473ffffffffffffffffffffffffffffffffffffffff1690505f5f60018461026c919061079a565b8154811061027d5761027c610740565b5b905f5260205f20015f9054906101000a900473ffffffffffffffffffffffffffffffffffffffff1690505f5f6002856102b6919061079a565b815481106102c7576102c6610740565b5b905f5260205f20015f9054906101000a900473ffffffffffffffffffffffffffffffffffffffff1690508073ffffffffffffffffffffffffffffffffffffffff1663aefa5128836040518263ffffffff1660e01b815260040161032a919061065a565b5f604051808303815f87803b158015610341575f5ffd5b505af1158015610353573d5f5f3e3d5ffd5b505050508173ffffffffffffffffffffffffffffffffffffffff1663aefa5128846040518263ffffffff1660e01b8152600401610390919061065a565b5f604051808303815f87803b1580156103a7575f5ffd5b505af11580156103b9573d5f5f3e3d5ffd5b505050505050505b5050565b5f60015f9054906101000a900473ffffffffffffffffffffffffffffffffffffffff16905090565b5f73ffffffffffffffffffffffffffffffffffffffff168173ffffffffffffffffffffffffffffffffffffffff160361045b576040517f08c379a000000000000000000000000000000000000000000000000000000000815260040161045290610817565b60405180910390fd5b5f81908060018154018082558091505060019003905f5260205f20015f9091909190916101000a81548173ffffffffffffffffffffffffffffffffffffffff021916908373ffffffffffffffffffffffffffffffffffffffff16021790555050565b5f5f8054905011610503576040517f08c379a00000000000000000000000000000000000000000000000000000000081526004016104fa9061087f565b60405180910390fd5b5f5f805490508261051491906108ca565b90505f818154811061052957610528610740565b5b905f5260205f20015f9054906101000a900473ffffffffffffffffffffffffffffffffffffffff1660015f6101000a81548173ffffffffffffffffffffffffffffffffffffffff021916908373ffffffffffffffffffffffffffffffffffffffff1602179055505050565b60015f9054906101000a900473ffffffffffffffffffffffffffffffffffffffff1681565b5f5ffd5b5f819050919050565b6105cf816105bd565b81146105d9575f5ffd5b50565b5f813590506105ea816105c6565b92915050565b5f60208284031215610605576106046105b9565b5b5f610612848285016105dc565b91505092915050565b5f73ffffffffffffffffffffffffffffffffffffffff82169050919050565b5f6106448261061b565b9050919050565b6106548161063a565b82525050565b5f60208201905061066d5f83018461064b565b92915050565b61067c8161063a565b8114610686575f5ffd5b50565b5f8135905061069781610673565b92915050565b5f602082840312156106b2576106b16105b9565b5b5f6106bf84828501610689565b91505092915050565b5f82825260208201905092915050565b7f4e6f206e6f6465732072656769737465726564000000000000000000000000005f82015250565b5f61070c6013836106c8565b9150610717826106d8565b602082019050919050565b5f6020820190508181035f83015261073981610700565b9050919050565b7f4e487b71000000000000000000000000000000000000000000000000000000005f52603260045260245ffd5b7f4e487b71000000000000000000000000000000000000000000000000000000005f52601160045260245ffd5b5f6107a4826105bd565b91506107af836105bd565b92508282039050818111156107c7576107c661076d565b5b92915050565b7f496e76616c6964206e6f646520616464726573730000000000000000000000005f82015250565b5f6108016014836106c8565b915061080c826107cd565b602082019050919050565b5f6020820190508181035f83015261082e816107f5565b9050919050565b7f4e6f206e6f64657320617661696c61626c6500000000000000000000000000005f82015250565b5f6108696012836106c8565b915061087482610835565b602082019050919050565b5f6020820190508181035f8301526108968161085d565b9050919050565b7f4e487b71000000000000000000000000000000000000000000000000000000005f52601260045260245ffd5b5f6108d4826105bd565b91506108df836105bd565b9250826108ef576108ee61089d565b5b82820690509291505056fea264697066735822122061c2666a4470c14277b1d2b38c23513cbd9ca30850a3b7009e755d6b62f16c3b64736f6c634300081e0033",
					"opcodes": "PUSH1 0x80 PUSH1 0x40 MSTORE CALLVALUE DUP1 ISZERO PUSH1 0xE JUMPI PUSH0 PUSH0 REVERT JUMPDEST POP PUSH2 0x930 DUP1 PUSH2 0x1C PUSH0 CODECOPY PUSH0 RETURN INVALID PUSH1 0x80 PUSH1 0x40 MSTORE CALLVALUE DUP1 ISZERO PUSH2 0xF JUMPI PUSH0 PUSH0 REVERT JUMPDEST POP PUSH1 0x4 CALLDATASIZE LT PUSH2 0x60 JUMPI PUSH0 CALLDATALOAD PUSH1 0xE0 SHR DUP1 PUSH4 0x1C53C280 EQ PUSH2 0x64 JUMPI DUP1 PUSH4 0x2B26E623 EQ PUSH2 0x94 JUMPI DUP1 PUSH4 0x3B10244B EQ PUSH2 0xB0 JUMPI DUP1 PUSH4 0x672D7A0D EQ PUSH2 0xCE JUMPI DUP1 PUSH4 0x86A5017C EQ PUSH2 0xEA JUMPI DUP1 PUSH4 0xFE82D082 EQ PUSH2 0x106 JUMPI JUMPDEST PUSH0 PUSH0 REVERT JUMPDEST PUSH2 0x7E PUSH1 0x4 DUP1 CALLDATASIZE SUB DUP2 ADD SWAP1 PUSH2 0x79 SWAP2 SWAP1 PUSH2 0x5F0 JUMP JUMPDEST PUSH2 0x124 JUMP JUMPDEST PUSH1 0x40 MLOAD PUSH2 0x8B SWAP2 SWAP1 PUSH2 0x65A JUMP JUMPDEST PUSH1 0x40 MLOAD DUP1 SWAP2 SUB SWAP1 RETURN JUMPDEST PUSH2 0xAE PUSH1 0x4 DUP1 CALLDATASIZE SUB DUP2 ADD SWAP1 PUSH2 0xA9 SWAP2 SWAP1 PUSH2 0x69D JUMP JUMPDEST PUSH2 0x15E JUMP JUMPDEST STOP JUMPDEST PUSH2 0xB8 PUSH2 0x3C5 JUMP JUMPDEST PUSH1 0x40 MLOAD PUSH2 0xC5 SWAP2 SWAP1 PUSH2 0x65A JUMP JUMPDEST PUSH1 0x40 MLOAD DUP1 SWAP2 SUB SWAP1 RETURN JUMPDEST PUSH2 0xE8 PUSH1 0x4 DUP1 CALLDATASIZE SUB DUP2 ADD SWAP1 PUSH2 0xE3 SWAP2 SWAP1 PUSH2 0x69D JUMP JUMPDEST PUSH2 0x3ED JUMP JUMPDEST STOP JUMPDEST PUSH2 0x104 PUSH1 0x4 DUP1 CALLDATASIZE SUB DUP2 ADD SWAP1 PUSH2 0xFF SWAP2 SWAP1 PUSH2 0x5F0 JUMP JUMPDEST PUSH2 0x4BD JUMP JUMPDEST STOP JUMPDEST PUSH2 0x10E PUSH2 0x594 JUMP JUMPDEST PUSH1 0x40 MLOAD PUSH2 0x11B SWAP2 SWAP1 PUSH2 0x65A JUMP JUMPDEST PUSH1 0x40 MLOAD DUP1 SWAP2 SUB SWAP1 RETURN JUMPDEST PUSH0 DUP2 DUP2 SLOAD DUP2 LT PUSH2 0x132 JUMPI PUSH0 DUP1 REVERT JUMPDEST SWAP1 PUSH0 MSTORE PUSH1 0x20 PUSH0 KECCAK256 ADD PUSH0 SWAP2 POP SLOAD SWAP1 PUSH2 0x100 EXP SWAP1 DIV PUSH20 0xFFFFFFFFFFFFFFFFFFFFFFFFFFFFFFFFFFFFFFFF AND DUP2 JUMP JUMPDEST PUSH0 PUSH0 DUP1 SLOAD SWAP1 POP GT PUSH2 0x1A4 JUMPI PUSH1 0x40 MLOAD PUSH32 0x8C379A000000000000000000000000000000000000000000000000000000000 DUP2 MSTORE PUSH1 0x4 ADD PUSH2 0x19B SWAP1 PUSH2 0x722 JUMP JUMPDEST PUSH1 0x40 MLOAD DUP1 SWAP2 SUB SWAP1 REVERT JUMPDEST PUSH0 PUSH0 DUP1 SLOAD SWAP1 POP SWAP1 POP PUSH1 0x1 DUP2 SUB PUSH2 0x21F JUMPI DUP2 PUSH20 0xFFFFFFFFFFFFFFFFFFFFFFFFFFFFFFFFFFFFFFFF AND PUSH4 0xAEFA5128 DUP4 PUSH1 0x40 MLOAD DUP3 PUSH4 0xFFFFFFFF AND PUSH1 0xE0 SHL DUP2 MSTORE PUSH1 0x4 ADD PUSH2 0x1ED SWAP2 SWAP1 PUSH2 0x65A JUMP JUMPDEST PUSH0 PUSH1 0x40 MLOAD DUP1 DUP4 SUB DUP2 PUSH0 DUP8 DUP1 EXTCODESIZE ISZERO DUP1 ISZERO PUSH2 0x204 JUMPI PUSH0 PUSH0 REVERT JUMPDEST POP GAS CALL ISZERO DUP1 ISZERO PUSH2 0x216 JUMPI RETURNDATASIZE PUSH0 PUSH0 RETURNDATACOPY RETURNDATASIZE PUSH0 REVERT JUMPDEST POP POP POP POP PUSH2 0x3C1 JUMP JUMPDEST PUSH0 PUSH0 PUSH0 DUP2 SLOAD DUP2 LT PUSH2 0x233 JUMPI PUSH2 0x232 PUSH2 0x740 JUMP JUMPDEST JUMPDEST SWAP1 PUSH0 MSTORE PUSH1 0x20 PUSH0 KECCAK256 ADD PUSH0 SWAP1 SLOAD SWAP1 PUSH2 0x100 EXP SWAP1 DIV PUSH20 0xFFFFFFFFFFFFFFFFFFFFFFFFFFFFFFFFFFFFFFFF AND SWAP1 POP PUSH0 PUSH0 PUSH1 0x1 DUP5 PUSH2 0x26C SWAP2 SWAP1 PUSH2 0x79A JUMP JUMPDEST DUP2 SLOAD DUP2 LT PUSH2 0x27D JUMPI PUSH2 0x27C PUSH2 0x740 JUMP JUMPDEST JUMPDEST SWAP1 PUSH0 MSTORE PUSH1 0x20 PUSH0 KECCAK256 ADD PUSH0 SWAP1 SLOAD SWAP1 PUSH2 0x100 EXP SWAP1 DIV PUSH20 0xFFFFFFFFFFFFFFFFFFFFFFFFFFFFFFFFFFFFFFFF AND SWAP1 POP PUSH0 PUSH0 PUSH1 0x2 DUP6 PUSH2 0x2B6 SWAP2 SWAP1 PUSH2 0x79A JUMP JUMPDEST DUP2 SLOAD DUP2 LT PUSH2 0x2C7 JUMPI PUSH2 0x2C6 PUSH2 0x740 JUMP JUMPDEST JUMPDEST SWAP1 PUSH0 MSTORE PUSH1 0x20 PUSH0 KECCAK256 ADD PUSH0 SWAP1 SLOAD SWAP1 PUSH2 0x100 EXP SWAP1 DIV PUSH20 0xFFFFFFFFFFFFFFFFFFFFFFFFFFFFFFFFFFFFFFFF AND SWAP1 POP DUP1 PUSH20 0xFFFFFFFFFFFFFFFFFFFFFFFFFFFFFFFFFFFFFFFF AND PUSH4 0xAEFA5128 DUP4 PUSH1 0x40 MLOAD DUP3 PUSH4 0xFFFFFFFF AND PUSH1 0xE0 SHL DUP2 MSTORE PUSH1 0x4 ADD PUSH2 0x32A SWAP2 SWAP1 PUSH2 0x65A JUMP JUMPDEST PUSH0 PUSH1 0x40 MLOAD DUP1 DUP4 SUB DUP2 PUSH0 DUP8 DUP1 EXTCODESIZE ISZERO DUP1 ISZERO PUSH2 0x341 JUMPI PUSH0 PUSH0 REVERT JUMPDEST POP GAS CALL ISZERO DUP1 ISZERO PUSH2 0x353 JUMPI RETURNDATASIZE PUSH0 PUSH0 RETURNDATACOPY RETURNDATASIZE PUSH0 REVERT JUMPDEST POP POP POP POP DUP2 PUSH20 0xFFFFFFFFFFFFFFFFFFFFFFFFFFFFFFFFFFFFFFFF AND PUSH4 0xAEFA5128 DUP5 PUSH1 0x40 MLOAD DUP3 PUSH4 0xFFFFFFFF AND PUSH1 0xE0 SHL DUP2 MSTORE PUSH1 0x4 ADD PUSH2 0x390 SWAP2 SWAP1 PUSH2 0x65A JUMP JUMPDEST PUSH0 PUSH1 0x40 MLOAD DUP1 DUP4 SUB DUP2 PUSH0 DUP8 DUP1 EXTCODESIZE ISZERO DUP1 ISZERO PUSH2 0x3A7 JUMPI PUSH0 PUSH0 REVERT JUMPDEST POP GAS CALL ISZERO DUP1 ISZERO PUSH2 0x3B9 JUMPI RETURNDATASIZE PUSH0 PUSH0 RETURNDATACOPY RETURNDATASIZE PUSH0 REVERT JUMPDEST POP POP POP POP POP POP POP JUMPDEST POP POP JUMP JUMPDEST PUSH0 PUSH1 0x1 PUSH0 SWAP1 SLOAD SWAP1 PUSH2 0x100 EXP SWAP1 DIV PUSH20 0xFFFFFFFFFFFFFFFFFFFFFFFFFFFFFFFFFFFFFFFF AND SWAP1 POP SWAP1 JUMP JUMPDEST PUSH0 PUSH20 0xFFFFFFFFFFFFFFFFFFFFFFFFFFFFFFFFFFFFFFFF AND DUP2 PUSH20 0xFFFFFFFFFFFFFFFFFFFFFFFFFFFFFFFFFFFFFFFF AND SUB PUSH2 0x45B JUMPI PUSH1 0x40 MLOAD PUSH32 0x8C379A000000000000000000000000000000000000000000000000000000000 DUP2 MSTORE PUSH1 0x4 ADD PUSH2 0x452 SWAP1 PUSH2 0x817 JUMP JUMPDEST PUSH1 0x40 MLOAD DUP1 SWAP2 SUB SWAP1 REVERT JUMPDEST PUSH0 DUP2 SWAP1 DUP1 PUSH1 0x1 DUP2 SLOAD ADD DUP1 DUP3 SSTORE DUP1 SWAP2 POP POP PUSH1 0x1 SWAP1 SUB SWAP1 PUSH0 MSTORE PUSH1 0x20 PUSH0 KECCAK256 ADD PUSH0 SWAP1 SWAP2 SWAP1 SWAP2 SWAP1 SWAP2 PUSH2 0x100 EXP DUP2 SLOAD DUP2 PUSH20 0xFFFFFFFFFFFFFFFFFFFFFFFFFFFFFFFFFFFFFFFF MUL NOT AND SWAP1 DUP4 PUSH20 0xFFFFFFFFFFFFFFFFFFFFFFFFFFFFFFFFFFFFFFFF AND MUL OR SWAP1 SSTORE POP POP JUMP JUMPDEST PUSH0 PUSH0 DUP1 SLOAD SWAP1 POP GT PUSH2 0x503 JUMPI PUSH1 0x40 MLOAD PUSH32 0x8C379A000000000000000000000000000000000000000000000000000000000 DUP2 MSTORE PUSH1 0x4 ADD PUSH2 0x4FA SWAP1 PUSH2 0x87F JUMP JUMPDEST PUSH1 0x40 MLOAD DUP1 SWAP2 SUB SWAP1 REVERT JUMPDEST PUSH0 PUSH0 DUP1 SLOAD SWAP1 POP DUP3 PUSH2 0x514 SWAP2 SWAP1 PUSH2 0x8CA JUMP JUMPDEST SWAP1 POP PUSH0 DUP2 DUP2 SLOAD DUP2 LT PUSH2 0x529 JUMPI PUSH2 0x528 PUSH2 0x740 JUMP JUMPDEST JUMPDEST SWAP1 PUSH0 MSTORE PUSH1 0x20 PUSH0 KECCAK256 ADD PUSH0 SWAP1 SLOAD SWAP1 PUSH2 0x100 EXP SWAP1 DIV PUSH20 0xFFFFFFFFFFFFFFFFFFFFFFFFFFFFFFFFFFFFFFFF AND PUSH1 0x1 PUSH0 PUSH2 0x100 EXP DUP2 SLOAD DUP2 PUSH20 0xFFFFFFFFFFFFFFFFFFFFFFFFFFFFFFFFFFFFFFFF MUL NOT AND SWAP1 DUP4 PUSH20 0xFFFFFFFFFFFFFFFFFFFFFFFFFFFFFFFFFFFFFFFF AND MUL OR SWAP1 SSTORE POP POP POP JUMP JUMPDEST PUSH1 0x1 PUSH0 SWAP1 SLOAD SWAP1 PUSH2 0x100 EXP SWAP1 DIV PUSH20 0xFFFFFFFFFFFFFFFFFFFFFFFFFFFFFFFFFFFFFFFF AND DUP2 JUMP JUMPDEST PUSH0 PUSH0 REVERT JUMPDEST PUSH0 DUP2 SWAP1 POP SWAP2 SWAP1 POP JUMP JUMPDEST PUSH2 0x5CF DUP2 PUSH2 0x5BD JUMP JUMPDEST DUP2 EQ PUSH2 0x5D9 JUMPI PUSH0 PUSH0 REVERT JUMPDEST POP JUMP JUMPDEST PUSH0 DUP2 CALLDATALOAD SWAP1 POP PUSH2 0x5EA DUP2 PUSH2 0x5C6 JUMP JUMPDEST SWAP3 SWAP2 POP POP JUMP JUMPDEST PUSH0 PUSH1 0x20 DUP3 DUP5 SUB SLT ISZERO PUSH2 0x605 JUMPI PUSH2 0x604 PUSH2 0x5B9 JUMP JUMPDEST JUMPDEST PUSH0 PUSH2 0x612 DUP5 DUP3 DUP6 ADD PUSH2 0x5DC JUMP JUMPDEST SWAP2 POP POP SWAP3 SWAP2 POP POP JUMP JUMPDEST PUSH0 PUSH20 0xFFFFFFFFFFFFFFFFFFFFFFFFFFFFFFFFFFFFFFFF DUP3 AND SWAP1 POP SWAP2 SWAP1 POP JUMP JUMPDEST PUSH0 PUSH2 0x644 DUP3 PUSH2 0x61B JUMP JUMPDEST SWAP1 POP SWAP2 SWAP1 POP JUMP JUMPDEST PUSH2 0x654 DUP2 PUSH2 0x63A JUMP JUMPDEST DUP3 MSTORE POP POP JUMP JUMPDEST PUSH0 PUSH1 0x20 DUP3 ADD SWAP1 POP PUSH2 0x66D PUSH0 DUP4 ADD DUP5 PUSH2 0x64B JUMP JUMPDEST SWAP3 SWAP2 POP POP JUMP JUMPDEST PUSH2 0x67C DUP2 PUSH2 0x63A JUMP JUMPDEST DUP2 EQ PUSH2 0x686 JUMPI PUSH0 PUSH0 REVERT JUMPDEST POP JUMP JUMPDEST PUSH0 DUP2 CALLDATALOAD SWAP1 POP PUSH2 0x697 DUP2 PUSH2 0x673 JUMP JUMPDEST SWAP3 SWAP2 POP POP JUMP JUMPDEST PUSH0 PUSH1 0x20 DUP3 DUP5 SUB SLT ISZERO PUSH2 0x6B2 JUMPI PUSH2 0x6B1 PUSH2 0x5B9 JUMP JUMPDEST JUMPDEST PUSH0 PUSH2 0x6BF DUP5 DUP3 DUP6 ADD PUSH2 0x689 JUMP JUMPDEST SWAP2 POP POP SWAP3 SWAP2 POP POP JUMP JUMPDEST PUSH0 DUP3 DUP3 MSTORE PUSH1 0x20 DUP3 ADD SWAP1 POP SWAP3 SWAP2 POP POP JUMP JUMPDEST PUSH32 0x4E6F206E6F646573207265676973746572656400000000000000000000000000 PUSH0 DUP3 ADD MSTORE POP JUMP JUMPDEST PUSH0 PUSH2 0x70C PUSH1 0x13 DUP4 PUSH2 0x6C8 JUMP JUMPDEST SWAP2 POP PUSH2 0x717 DUP3 PUSH2 0x6D8 JUMP JUMPDEST PUSH1 0x20 DUP3 ADD SWAP1 POP SWAP2 SWAP1 POP JUMP JUMPDEST PUSH0 PUSH1 0x20 DUP3 ADD SWAP1 POP DUP2 DUP2 SUB PUSH0 DUP4 ADD MSTORE PUSH2 0x739 DUP2 PUSH2 0x700 JUMP JUMPDEST SWAP1 POP SWAP2 SWAP1 POP JUMP JUMPDEST PUSH32 0x4E487B7100000000000000000000000000000000000000000000000000000000 PUSH0 MSTORE PUSH1 0x32 PUSH1 0x4 MSTORE PUSH1 0x24 PUSH0 REVERT JUMPDEST PUSH32 0x4E487B7100000000000000000000000000000000000000000000000000000000 PUSH0 MSTORE PUSH1 0x11 PUSH1 0x4 MSTORE PUSH1 0x24 PUSH0 REVERT JUMPDEST PUSH0 PUSH2 0x7A4 DUP3 PUSH2 0x5BD JUMP JUMPDEST SWAP2 POP PUSH2 0x7AF DUP4 PUSH2 0x5BD JUMP JUMPDEST SWAP3 POP DUP3 DUP3 SUB SWAP1 POP DUP2 DUP2 GT ISZERO PUSH2 0x7C7 JUMPI PUSH2 0x7C6 PUSH2 0x76D JUMP JUMPDEST JUMPDEST SWAP3 SWAP2 POP POP JUMP JUMPDEST PUSH32 0x496E76616C6964206E6F64652061646472657373000000000000000000000000 PUSH0 DUP3 ADD MSTORE POP JUMP JUMPDEST PUSH0 PUSH2 0x801 PUSH1 0x14 DUP4 PUSH2 0x6C8 JUMP JUMPDEST SWAP2 POP PUSH2 0x80C DUP3 PUSH2 0x7CD JUMP JUMPDEST PUSH1 0x20 DUP3 ADD SWAP1 POP SWAP2 SWAP1 POP JUMP JUMPDEST PUSH0 PUSH1 0x20 DUP3 ADD SWAP1 POP DUP2 DUP2 SUB PUSH0 DUP4 ADD MSTORE PUSH2 0x82E DUP2 PUSH2 0x7F5 JUMP JUMPDEST SWAP1 POP SWAP2 SWAP1 POP JUMP JUMPDEST PUSH32 0x4E6F206E6F64657320617661696C61626C650000000000000000000000000000 PUSH0 DUP3 ADD MSTORE POP JUMP JUMPDEST PUSH0 PUSH2 0x869 PUSH1 0x12 DUP4 PUSH2 0x6C8 JUMP JUMPDEST SWAP2 POP PUSH2 0x874 DUP3 PUSH2 0x835 JUMP JUMPDEST PUSH1 0x20 DUP3 ADD SWAP1 POP SWAP2 SWAP1 POP JUMP JUMPDEST PUSH0 PUSH1 0x20 DUP3 ADD SWAP1 POP DUP2 DUP2 SUB PUSH0 DUP4 ADD MSTORE PUSH2 0x896 DUP2 PUSH2 0x85D JUMP JUMPDEST SWAP1 POP SWAP2 SWAP1 POP JUMP JUMPDEST PUSH32 0x4E487B7100000000000000000000000000000000000000000000000000000000 PUSH0 MSTORE PUSH1 0x12 PUSH1 0x4 MSTORE PUSH1 0x24 PUSH0 REVERT JUMPDEST PUSH0 PUSH2 0x8D4 DUP3 PUSH2 0x5BD JUMP JUMPDEST SWAP2 POP PUSH2 0x8DF DUP4 PUSH2 0x5BD JUMP JUMPDEST SWAP3 POP DUP3 PUSH2 0x8EF JUMPI PUSH2 0x8EE PUSH2 0x89D JUMP JUMPDEST JUMPDEST DUP3 DUP3 MOD SWAP1 POP SWAP3 SWAP2 POP POP JUMP INVALID LOG2 PUSH5 0x6970667358 0x22 SLT KECCAK256 PUSH2 0xC266 PUSH11 0x4470C14277B1D2B38C2351 EXTCODECOPY 0xBD SWAP13 LOG3 ADDMOD POP LOG3 0xB7 STOP SWAP15 PUSH22 0x5D6B62F16C3B64736F6C634300081E00330000000000 "
				},
				"gasEstimates": {
					"creation": {
						"codeDepositCost": "470400",
						"executionCost": "503",
						"totalCost": "470903"
					},
					"external": {
						"assignPeer(address)": "infinite",
						"currentProposer()": "2596",
						"getCurrentProposer()": "2537",
						"nodes(uint256)": "4921",
						"registerNode(address)": "49102",
						"selectProposer(uint256)": "infinite"
					}
				},
				"methodIdentifiers": {
					"assignPeer(address)": "2b26e623",
					"currentProposer()": "fe82d082",
					"getCurrentProposer()": "3b10244b",
					"nodes(uint256)": "1c53c280",
					"registerNode(address)": "672d7a0d",
					"selectProposer(uint256)": "86a5017c"
				}
			},
			"storageLayout": {
				"storage": [
					{
						"astId": 5,
						"contract": "Assigner.sol:Assigner",
						"label": "nodes",
						"offset": 0,
						"slot": "0",
						"type": "t_array(t_address)dyn_storage"
					},
					{
						"astId": 7,
						"contract": "Assigner.sol:Assigner",
						"label": "currentProposer",
						"offset": 0,
						"slot": "1",
						"type": "t_address"
					}
				],
				"types": {
					"t_address": {
						"encoding": "inplace",
						"label": "address",
						"numberOfBytes": "20"
					},
					"t_array(t_address)dyn_storage": {
						"base": "t_address",
						"encoding": "dynamic_array",
						"label": "address[]",
						"numberOfBytes": "32"
					}
				}
			},
			"userdoc": {
				"kind": "user",
				"methods": {},
				"version": 1
			}
		}
	}
}