{
	"data": {
		"bytecode": {
			"linkReferences": {},
			"object": "608060405234801561000f575f5ffd5b50604051612a2f380380612a2f83398181016040528101906100319190610450565b825f604051806080016040528061004d846101b660201b60201c565b81526020015f81526020015f8152602001838152509050600180819055505f81908060018154018082558091505060019003905f5260205f2090600402015f909190919091505f820151815f0155602082015181600101556040820151816002015560608201518160030190816100c491906106fc565b50505050508160055f6101000a81548173ffffffffffffffffffffffffffffffffffffffff021916908373ffffffffffffffffffffffffffffffffffffffff1602179055508060065f6101000a81548173ffffffffffffffffffffffffffffffffffffffff021916908373ffffffffffffffffffffffffffffffffffffffff1602179055505f845111156101ad57835f81518110610165576101646107cb565b5b602002602001015160045f6101000a81548173ffffffffffffffffffffffffffffffffffffffff021916908373ffffffffffffffffffffffffffffffffffffffff1602179055505b50505050610848565b5f816040516020016101c89190610832565b604051602081830303815290604052805190602001209050919050565b5f604051905090565b5f5ffd5b5f5ffd5b5f5ffd5b5f601f19601f8301169050919050565b7f4e487b71000000000000000000000000000000000000000000000000000000005f52604160045260245ffd5b610240826101fa565b810181811067ffffffffffffffff8211171561025f5761025e61020a565b5b80604052505050565b5f6102716101e5565b905061027d8282610237565b919050565b5f67ffffffffffffffff82111561029c5761029b61020a565b5b602082029050602081019050919050565b5f5ffd5b5f73ffffffffffffffffffffffffffffffffffffffff82169050919050565b5f6102da826102b1565b9050919050565b6102ea816102d0565b81146102f4575f5ffd5b50565b5f81519050610305816102e1565b92915050565b5f61031d61031884610282565b610268565b905080838252602082019050602084028301858111156103405761033f6102ad565b5b835b81811015610369578061035588826102f7565b845260208401935050602081019050610342565b5050509392505050565b5f82601f830112610387576103866101f6565b5b815161039784826020860161030b565b91505092915050565b5f5ffd5b5f67ffffffffffffffff8211156103be576103bd61020a565b5b6103c7826101fa565b9050602081019050919050565b8281835e5f83830152505050565b5f6103f46103ef846103a4565b610268565b9050828152602081018484840111156104105761040f6103a0565b5b61041b8482856103d4565b509392505050565b5f82601f830112610437576104366101f6565b5b81516104478482602086016103e2565b91505092915050565b5f5f5f5f60808587031215610468576104676101ee565b5b5f85015167ffffffffffffffff811115610485576104846101f2565b5b61049187828801610373565b945050602085015167ffffffffffffffff8111156104b2576104b16101f2565b5b6104be87828801610423565b93505060406104cf878288016102f7565b92505060606104e0878288016102f7565b91505092959194509250565b5f81519050919050565b7f4e487b71000000000000000000000000000000000000000000000000000000005f52602260045260245ffd5b5f600282049050600182168061053a57607f821691505b60208210810361054d5761054c6104f6565b5b50919050565b5f819050815f5260205f209050919050565b5f6020601f8301049050919050565b5f82821b905092915050565b5f600883026105af7fffffffffffffffffffffffffffffffffffffffffffffffffffffffffffffffff82610574565b6105b98683610574565b95508019841693508086168417925050509392505050565b5f819050919050565b5f819050919050565b5f6105fd6105f86105f3846105d1565b6105da565b6105d1565b9050919050565b5f819050919050565b610616836105e3565b61062a61062282610604565b848454610580565b825550505050565b5f5f905090565b610641610632565b61064c81848461060d565b505050565b5b8181101561066f576106645f82610639565b600181019050610652565b5050565b601f8211156106b45761068581610553565b61068e84610565565b8101602085101561069d578190505b6106b16106a985610565565b830182610651565b50505b505050565b5f82821c905092915050565b5f6106d45f19846008026106b9565b1980831691505092915050565b5f6106ec83836106c5565b9150826002028217905092915050565b610705826104ec565b67ffffffffffffffff81111561071e5761071d61020a565b5b6107288254610523565b610733828285610673565b5f60209050601f831160018114610764575f8415610752578287015190505b61075c85826106e1565b8655506107c3565b601f19841661077286610553565b5f5b8281101561079957848901518255600182019150602085019450602081019050610774565b868310156107b657848901516107b2601f8916826106c5565b8355505b6001600288020188555050505b505050505050565b7f4e487b71000000000000000000000000000000000000000000000000000000005f52603260045260245ffd5b5f81905092915050565b5f61080c826104ec565b61081681856107f8565b93506108268185602086016103d4565b80840191505092915050565b5f61083d8284610802565b915081905092915050565b6121da806108555f395ff3fe6080604052600436106100a6575f3560e01c806383e12c831161006357806383e12c83146101a25780639af7a48c146101ca578063abca8e09146101f4578063aefa5128146101fe578063b4c6790014610226578063f09a9fb21461024e576100a6565b806304b0d07e146100aa57806319973261146100d25780634618f42c146100fc5780634cf088d91461013857806373373d9f14610162578063757319761461018c575b5f5ffd5b3480156100b5575f5ffd5b506100d060048036038101906100cb9190611334565b610276565b005b3480156100dd575f5ffd5b506100e6610369565b6040516100f391906113e9565b60405180910390f35b348015610107575f5ffd5b50610122600480360381019061011d9190611501565b61038e565b60405161012f9190611557565b60405180910390f35b348015610143575f5ffd5b5061014c6104bc565b6040516101599190611590565b60405180910390f35b34801561016d575f5ffd5b506101766104e1565b60405161018391906115b8565b60405180910390f35b348015610197575f5ffd5b506101a0610506565b005b3480156101ad575f5ffd5b506101c860048036038101906101c391906115d1565b6108a7565b005b3480156101d5575f5ffd5b506101de6108ea565b6040516101eb919061165c565b60405180910390f35b6101fc61097a565b005b348015610209575f5ffd5b50610224600480360381019061021f91906115d1565b610c7c565b005b348015610231575f5ffd5b5061024c60048036038101906102479190611501565b610cf6565b005b348015610259575f5ffd5b50610274600480360381019061026f91906116d9565b610e01565b005b80600790816102859190611918565b508173ffffffffffffffffffffffffffffffffffffffff1660045f9054906101000a900473ffffffffffffffffffffffffffffffffffffffff1673ffffffffffffffffffffffffffffffffffffffff1603156103655760045f9054906101000a900473ffffffffffffffffffffffffffffffffffffffff1673ffffffffffffffffffffffffffffffffffffffff166304b0d07e83836040518363ffffffff1660e01b81526004016103379291906119e7565b5f604051808303815f87803b15801561034e575f5ffd5b505af1158015610360573d5f5f3e3d5ffd5b505050505b5050565b60065f9054906101000a900473ffffffffffffffffffffffffffffffffffffffff1681565b5f5f5f6001805461039f9190611a42565b815481106103b0576103af611a75565b5b905f5260205f2090600402016040518060800160405290815f820154815260200160018201548152602001600282015481526020016003820180546103f490611751565b80601f016020809104026020016040519081016040528092919081815260200182805461042090611751565b801561046b5780601f106104425761010080835404028352916020019161046b565b820191905f5260205f20905b81548152906001019060200180831161044e57829003601f168201915b505050505081525050905060018160400151846040015161048c9190611a42565b1461049a575f9150506104b7565b805f01518360200151146104b1575f9150506104b7565b60019150505b919050565b60055f9054906101000a900473ffffffffffffffffffffffffffffffffffffffff1681565b60045f9054906101000a900473ffffffffffffffffffffffffffffffffffffffff1681565b5f60016002805490506105199190611aa2565b90506002816105289190611ad5565b60036008546105379190611ad5565b1061078f575f6009908060018154018082558091505060019003905f5260205f2090600402015f909190919091505f820154815f01556001820154816001015560028201548160020155600382018160030190816105959190611b2b565b50505060015f8154809291906105aa90611c10565b919050555060055f9054906101000a900473ffffffffffffffffffffffffffffffffffffffff1673ffffffffffffffffffffffffffffffffffffffff1663490740e860065f9054906101000a900473ffffffffffffffffffffffffffffffffffffffff1673ffffffffffffffffffffffffffffffffffffffff16633b10244b6040518163ffffffff1660e01b8152600401602060405180830381865afa158015610656573d5f5f3e3d5ffd5b505050506040513d601f19601f8201168201806040525081019061067a9190611c6b565b6040518263ffffffff1660e01b815260040161069691906115b8565b5f604051808303815f87803b1580156106ad575f5ffd5b505af11580156106bf573d5f5f3e3d5ffd5b505050505f60028054905090505f5f90505b8181101561078857600281815481106106ed576106ec611a75565b5b905f5260205f20015f9054906101000a900473ffffffffffffffffffffffffffffffffffffffff1673ffffffffffffffffffffffffffffffffffffffff1663b4c6790060096040518263ffffffff1660e01b815260040161074e9190611e16565b5f604051808303815f87803b158015610765575f5ffd5b505af1158015610777573d5f5f3e3d5ffd5b5050505080806001019150506106d1565b50506108a4565b60055f9054906101000a900473ffffffffffffffffffffffffffffffffffffffff1673ffffffffffffffffffffffffffffffffffffffff1663b03b3ef060065f9054906101000a900473ffffffffffffffffffffffffffffffffffffffff1673ffffffffffffffffffffffffffffffffffffffff16633b10244b6040518163ffffffff1660e01b8152600401602060405180830381865afa158015610836573d5f5f3e3d5ffd5b505050506040513d601f19601f8201168201806040525081019061085a9190611c6b565b6040518263ffffffff1660e01b815260040161087691906115b8565b5f604051808303815f87803b15801561088d575f5ffd5b505af115801561089f573d5f5f3e3d5ffd5b505050505b50565b8060045f6101000a81548173ffffffffffffffffffffffffffffffffffffffff021916908373ffffffffffffffffffffffffffffffffffffffff16021790555050565b6060600780546108f990611751565b80601f016020809104026020016040519081016040528092919081815260200182805461092590611751565b80156109705780601f1061094757610100808354040283529160200191610970565b820191905f5260205f20905b81548152906001019060200180831161095357829003601f168201915b5050505050905090565b5f600960020154036109c1576040517f08c379a00000000000000000000000000000000000000000000000000000000081526004016109b890611e80565b60405180910390fd5b60065f9054906101000a900473ffffffffffffffffffffffffffffffffffffffff1673ffffffffffffffffffffffffffffffffffffffff16633b10244b6040518163ffffffff1660e01b8152600401602060405180830381865afa158015610a2b573d5f5f3e3d5ffd5b505050506040513d601f19601f82011682018060405250810190610a4f9190611c6b565b73ffffffffffffffffffffffffffffffffffffffff163373ffffffffffffffffffffffffffffffffffffffff1614610abc576040517f08c379a0000000000000000000000000000000000000000000000000000000008152600401610ab390611ee8565b60405180910390fd5b670de0b6b3a7640000341015610b07576040517f08c379a0000000000000000000000000000000000000000000000000000000008152600401610afe90611f50565b60405180910390fd5b60055f9054906101000a900473ffffffffffffffffffffffffffffffffffffffff1673ffffffffffffffffffffffffffffffffffffffff16633a4b66f1346040518263ffffffff1660e01b81526004015f604051808303818588803b158015610b6e575f5ffd5b505af1158015610b80573d5f5f3e3d5ffd5b50505050505f60028054905090505f5f90505b81811015610c78575f60028281548110610bb057610baf611a75565b5b905f5260205f20015f9054906101000a900473ffffffffffffffffffffffffffffffffffffffff1690508073ffffffffffffffffffffffffffffffffffffffff16634618f42c60096040518263ffffffff1660e01b8152600401610c149190611e16565b602060405180830381865afa158015610c2f573d5f5f3e3d5ffd5b505050506040513d601f19601f82011682018060405250810190610c539190611f82565b60085f828254610c639190611aa2565b92505081905550508080600101915050610b93565b5050565b600281908060018154018082558091505060019003905f5260205f20015f9091909190916101000a81548173ffffffffffffffffffffffffffffffffffffffff021916908373ffffffffffffffffffffffffffffffffffffffff16021790555060035f815480929190610cee90611c10565b919050555050565b600154816040015114610d3e576040517f08c379a0000000000000000000000000000000000000000000000000000000008152600401610d3590611ff7565b60405180910390fd5b5f81908060018154018082558091505060019003905f5260205f2090600402015f909190919091505f820151815f015560208201518160010155604082015181600201556060820151816003019081610d979190611918565b50505060015f815480929190610dac90611c10565b919050555060405180602001604052805f81525060079081610dce9190611918565b505f60088190555060095f5f82015f9055600182015f9055600282015f9055600382015f610dfc9190611110565b505050565b5f82828080601f0160208091040260200160405190810160405280939291908181526020018383808284375f81840152601f19601f8201169050808301925050505050505090505f815103610e8b576040517f08c379a0000000000000000000000000000000000000000000000000000000008152600401610e829061205f565b60405180910390fd5b828260079182610e9c929190612087565b50610f2e60078054610ead90611751565b80601f0160208091040260200160405190810160405280929190818152602001828054610ed990611751565b8015610f245780601f10610efb57610100808354040283529160200191610f24565b820191905f5260205f20905b815481529060010190602001808311610f0757829003601f168201915b5050505050610fb7565b60095f820151815f015560208201518160010155604082015181600201556060820151816003019081610f619190611918565b50905050610fb23084848080601f0160208091040260200160405190810160405280939291908181526020018383808284375f81840152601f19601f82011690508083019250505050505050610276565b505050565b610fbf61114d565b5f5f60018054610fcf9190611a42565b81548110610fe057610fdf611a75565b5b905f5260205f2090600402016040518060800160405290815f8201548152602001600182015481526020016002820154815260200160038201805461102490611751565b80601f016020809104026020016040519081016040528092919081815260200182805461105090611751565b801561109b5780601f106110725761010080835404028352916020019161109b565b820191905f5260205f20905b81548152906001019060200180831161107e57829003601f168201915b50505050508152505090505f60405180608001604052806110bb866110e1565b8152602001835f0151815260200160015481526020018581525090508092505050919050565b5f816040516020016110f3919061218e565b604051602081830303815290604052805190602001209050919050565b50805461111c90611751565b5f825580601f1061112d575061114a565b601f0160209004905f5260205f20908101906111499190611172565b5b50565b60405180608001604052805f81526020015f81526020015f8152602001606081525090565b5b80821115611189575f815f905550600101611173565b5090565b5f604051905090565b5f5ffd5b5f5ffd5b5f73ffffffffffffffffffffffffffffffffffffffff82169050919050565b5f6111c78261119e565b9050919050565b6111d7816111bd565b81146111e1575f5ffd5b50565b5f813590506111f2816111ce565b92915050565b5f5ffd5b5f5ffd5b5f601f19601f8301169050919050565b7f4e487b71000000000000000000000000000000000000000000000000000000005f52604160045260245ffd5b61124682611200565b810181811067ffffffffffffffff8211171561126557611264611210565b5b80604052505050565b5f61127761118d565b9050611283828261123d565b919050565b5f67ffffffffffffffff8211156112a2576112a1611210565b5b6112ab82611200565b9050602081019050919050565b828183375f83830152505050565b5f6112d86112d384611288565b61126e565b9050828152602081018484840111156112f4576112f36111fc565b5b6112ff8482856112b8565b509392505050565b5f82601f83011261131b5761131a6111f8565b5b813561132b8482602086016112c6565b91505092915050565b5f5f6040838503121561134a57611349611196565b5b5f611357858286016111e4565b925050602083013567ffffffffffffffff8111156113785761137761119a565b5b61138485828601611307565b9150509250929050565b5f819050919050565b5f6113b16113ac6113a78461119e565b61138e565b61119e565b9050919050565b5f6113c282611397565b9050919050565b5f6113d3826113b8565b9050919050565b6113e3816113c9565b82525050565b5f6020820190506113fc5f8301846113da565b92915050565b5f5ffd5b5f5ffd5b5f819050919050565b61141c8161140a565b8114611426575f5ffd5b50565b5f8135905061143781611413565b92915050565b5f819050919050565b61144f8161143d565b8114611459575f5ffd5b50565b5f8135905061146a81611446565b92915050565b5f6080828403121561148557611484611402565b5b61148f608061126e565b90505f61149e84828501611429565b5f8301525060206114b184828501611429565b60208301525060406114c58482850161145c565b604083015250606082013567ffffffffffffffff8111156114e9576114e8611406565b5b6114f584828501611307565b60608301525092915050565b5f6020828403121561151657611515611196565b5b5f82013567ffffffffffffffff8111156115335761153261119a565b5b61153f84828501611470565b91505092915050565b6115518161143d565b82525050565b5f60208201905061156a5f830184611548565b92915050565b5f61157a826113b8565b9050919050565b61158a81611570565b82525050565b5f6020820190506115a35f830184611581565b92915050565b6115b2816111bd565b82525050565b5f6020820190506115cb5f8301846115a9565b92915050565b5f602082840312156115e6576115e5611196565b5b5f6115f3848285016111e4565b91505092915050565b5f81519050919050565b5f82825260208201905092915050565b8281835e5f83830152505050565b5f61162e826115fc565b6116388185611606565b9350611648818560208601611616565b61165181611200565b840191505092915050565b5f6020820190508181035f8301526116748184611624565b905092915050565b5f5ffd5b5f5ffd5b5f5f83601f840112611699576116986111f8565b5b8235905067ffffffffffffffff8111156116b6576116b561167c565b5b6020830191508360018202830111156116d2576116d1611680565b5b9250929050565b5f5f602083850312156116ef576116ee611196565b5b5f83013567ffffffffffffffff81111561170c5761170b61119a565b5b61171885828601611684565b92509250509250929050565b7f4e487b71000000000000000000000000000000000000000000000000000000005f52602260045260245ffd5b5f600282049050600182168061176857607f821691505b60208210810361177b5761177a611724565b5b50919050565b5f819050815f5260205f209050919050565b5f6020601f8301049050919050565b5f82821b905092915050565b5f600883026117dd7fffffffffffffffffffffffffffffffffffffffffffffffffffffffffffffffff826117a2565b6117e786836117a2565b95508019841693508086168417925050509392505050565b5f61181961181461180f8461143d565b61138e565b61143d565b9050919050565b5f819050919050565b611832836117ff565b61184661183e82611820565b8484546117ae565b825550505050565b5f5f905090565b61185d61184e565b611868818484611829565b505050565b5b8181101561188b576118805f82611855565b60018101905061186e565b5050565b601f8211156118d0576118a181611781565b6118aa84611793565b810160208510156118b9578190505b6118cd6118c585611793565b83018261186d565b50505b505050565b5f82821c905092915050565b5f6118f05f19846008026118d5565b1980831691505092915050565b5f61190883836118e1565b9150826002028217905092915050565b611921826115fc565b67ffffffffffffffff81111561193a57611939611210565b5b6119448254611751565b61194f82828561188f565b5f60209050601f831160018114611980575f841561196e578287015190505b61197885826118fd565b8655506119df565b601f19841661198e86611781565b5f5b828110156119b557848901518255600182019150602085019450602081019050611990565b868310156119d257848901516119ce601f8916826118e1565b8355505b6001600288020188555050505b505050505050565b5f6040820190506119fa5f8301856115a9565b8181036020830152611a0c8184611624565b90509392505050565b7f4e487b71000000000000000000000000000000000000000000000000000000005f52601160045260245ffd5b5f611a4c8261143d565b9150611a578361143d565b9250828203905081811115611a6f57611a6e611a15565b5b92915050565b7f4e487b71000000000000000000000000000000000000000000000000000000005f52603260045260245ffd5b5f611aac8261143d565b9150611ab78361143d565b9250828201905080821115611acf57611ace611a15565b5b92915050565b5f611adf8261143d565b9150611aea8361143d565b9250828202611af88161143d565b91508282048414831517611b0f57611b0e611a15565b5b5092915050565b5f81549050611b2481611751565b9050919050565b818103611b39575050611c0e565b611b4282611b16565b67ffffffffffffffff811115611b5b57611b5a611210565b5b611b658254611751565b611b7082828561188f565b5f601f831160018114611b9d575f8415611b8b578287015490505b611b9585826118fd565b865550611c07565b601f198416611bab87611781565b9650611bb686611781565b5f5b82811015611bdd57848901548255600182019150600185019450602081019050611bb8565b86831015611bfa5784890154611bf6601f8916826118e1565b8355505b6001600288020188555050505b5050505050505b565b5f611c1a8261143d565b91507fffffffffffffffffffffffffffffffffffffffffffffffffffffffffffffffff8203611c4c57611c4b611a15565b5b600182019050919050565b5f81519050611c65816111ce565b92915050565b5f60208284031215611c8057611c7f611196565b5b5f611c8d84828501611c57565b91505092915050565b5f815f1c9050919050565b5f819050919050565b5f611cbc611cb783611c96565b611ca1565b9050919050565b611ccc8161140a565b82525050565b5f819050919050565b5f611ced611ce883611c96565b611cd2565b9050919050565b611cfd8161143d565b82525050565b5f82825260208201905092915050565b5f8154611d1f81611751565b611d298186611d03565b9450600182165f8114611d435760018114611d5957611d8b565b60ff198316865281151560200286019350611d8b565b611d6285611781565b5f5b83811015611d8357815481890152600182019150602081019050611d64565b808801955050505b50505092915050565b5f608083015f5f8401549050611da981611caa565b611db55f870182611cc3565b5060018401549050611dc681611caa565b611dd36020870182611cc3565b5060028401549050611de481611cdb565b611df16040870182611cf4565b50600384018583036060870152611e088382611d13565b925050819250505092915050565b5f6020820190508181035f830152611e2e8184611d94565b905092915050565b7f4e6f20626c6f636b2070726f706f7365640000000000000000000000000000005f82015250565b5f611e6a601183611606565b9150611e7582611e36565b602082019050919050565b5f6020820190508181035f830152611e9781611e5e565b9050919050565b7f4e6f742073656c65637465642070726f706f73657200000000000000000000005f82015250565b5f611ed2601583611606565b9150611edd82611e9e565b602082019050919050565b5f6020820190508181035f830152611eff81611ec6565b9050919050565b7f5374616b652072657175697265640000000000000000000000000000000000005f82015250565b5f611f3a600e83611606565b9150611f4582611f06565b602082019050919050565b5f6020820190508181035f830152611f6781611f2e565b9050919050565b5f81519050611f7c81611446565b92915050565b5f60208284031215611f9757611f96611196565b5b5f611fa484828501611f6e565b91505092915050565b7f426c6f636b2070726f706f73616c206661696c757265000000000000000000005f82015250565b5f611fe1601683611606565b9150611fec82611fad565b602082019050919050565b5f6020820190508181035f83015261200e81611fd5565b9050919050565b7f456d7074792064617461207265717565737473206e6f742061636365707465645f82015250565b5f612049602083611606565b915061205482612015565b602082019050919050565b5f6020820190508181035f8301526120768161203d565b9050919050565b5f82905092915050565b612091838361207d565b67ffffffffffffffff8111156120aa576120a9611210565b5b6120b48254611751565b6120bf82828561188f565b5f601f8311600181146120ec575f84156120da578287013590505b6120e485826118fd565b86555061214b565b601f1984166120fa86611781565b5f5b82811015612121578489013582556001820191506020850194506020810190506120fc565b8683101561213e578489013561213a601f8916826118e1565b8355505b6001600288020188555050505b50505050505050565b5f81905092915050565b5f612168826115fc565b6121728185612154565b9350612182818560208601611616565b80840191505092915050565b5f612199828461215e565b91508190509291505056fea2646970667358221220654adf46c285102156fa5b10e73d6b11b181959ea19b0005ddeece61cbb65c6964736f6c634300081e0033",
			"opcodes": "PUSH1 0x80 PUSH1 0x40 MSTORE CALLVALUE DUP1 ISZERO PUSH2 0xF JUMPI PUSH0 PUSH0 REVERT JUMPDEST POP PUSH1 0x40 MLOAD PUSH2 0x2A2F CODESIZE SUB DUP1 PUSH2 0x2A2F DUP4 CODECOPY DUP2 DUP2 ADD PUSH1 0x40 MSTORE DUP2 ADD SWAP1 PUSH2 0x31 SWAP2 SWAP1 PUSH2 0x450 JUMP JUMPDEST DUP3 PUSH0 PUSH1 0x40 MLOAD DUP1 PUSH1 0x80 ADD PUSH1 0x40 MSTORE DUP1 PUSH2 0x4D DUP5 PUSH2 0x1B6 PUSH1 0x20 SHL PUSH1 0x20 SHR JUMP JUMPDEST DUP2 MSTORE PUSH1 0x20 ADD PUSH0 DUP2 MSTORE PUSH1 0x20 ADD PUSH0 DUP2 MSTORE PUSH1 0x20 ADD DUP4 DUP2 MSTORE POP SWAP1 POP PUSH1 0x1 DUP1 DUP2 SWAP1 SSTORE POP PUSH0 DUP2 SWAP1 DUP1 PUSH1 0x1 DUP2 SLOAD ADD DUP1 DUP3 SSTORE DUP1 SWAP2 POP POP PUSH1 0x1 SWAP1 SUB SWAP1 PUSH0 MSTORE PUSH1 0x20 PUSH0 KECCAK256 SWAP1 PUSH1 0x4 MUL ADD PUSH0 SWAP1 SWAP2 SWAP1 SWAP2 SWAP1 SWAP2 POP PUSH0 DUP3 ADD MLOAD DUP2 PUSH0 ADD SSTORE PUSH1 0x20 DUP3 ADD MLOAD DUP2 PUSH1 0x1 ADD SSTORE PUSH1 0x40 DUP3 ADD MLOAD DUP2 PUSH1 0x2 ADD SSTORE PUSH1 0x60 DUP3 ADD MLOAD DUP2 PUSH1 0x3 ADD SWAP1 DUP2 PUSH2 0xC4 SWAP2 SWAP1 PUSH2 0x6FC JUMP JUMPDEST POP POP POP POP POP DUP2 PUSH1 0x5 PUSH0 PUSH2 0x100 EXP DUP2 SLOAD DUP2 PUSH20 0xFFFFFFFFFFFFFFFFFFFFFFFFFFFFFFFFFFFFFFFF MUL NOT AND SWAP1 DUP4 PUSH20 0xFFFFFFFFFFFFFFFFFFFFFFFFFFFFFFFFFFFFFFFF AND MUL OR SWAP1 SSTORE POP DUP1 PUSH1 0x6 PUSH0 PUSH2 0x100 EXP DUP2 SLOAD DUP2 PUSH20 0xFFFFFFFFFFFFFFFFFFFFFFFFFFFFFFFFFFFFFFFF MUL NOT AND SWAP1 DUP4 PUSH20 0xFFFFFFFFFFFFFFFFFFFFFFFFFFFFFFFFFFFFFFFF AND MUL OR SWAP1 SSTORE POP PUSH0 DUP5 MLOAD GT ISZERO PUSH2 0x1AD JUMPI DUP4 PUSH0 DUP2 MLOAD DUP2 LT PUSH2 0x165 JUMPI PUSH2 0x164 PUSH2 0x7CB JUMP JUMPDEST JUMPDEST PUSH1 0x20 MUL PUSH1 0x20 ADD ADD MLOAD PUSH1 0x4 PUSH0 PUSH2 0x100 EXP DUP2 SLOAD DUP2 PUSH20 0xFFFFFFFFFFFFFFFFFFFFFFFFFFFFFFFFFFFFFFFF MUL NOT AND SWAP1 DUP4 PUSH20 0xFFFFFFFFFFFFFFFFFFFFFFFFFFFFFFFFFFFFFFFF AND MUL OR SWAP1 SSTORE POP JUMPDEST POP POP POP POP PUSH2 0x848 JUMP JUMPDEST PUSH0 DUP2 PUSH1 0x40 MLOAD PUSH1 0x20 ADD PUSH2 0x1C8 SWAP2 SWAP1 PUSH2 0x832 JUMP JUMPDEST PUSH1 0x40 MLOAD PUSH1 0x20 DUP2 DUP4 SUB SUB DUP2 MSTORE SWAP1 PUSH1 0x40 MSTORE DUP1 MLOAD SWAP1 PUSH1 0x20 ADD KECCAK256 SWAP1 POP SWAP2 SWAP1 POP JUMP JUMPDEST PUSH0 PUSH1 0x40 MLOAD SWAP1 POP SWAP1 JUMP JUMPDEST PUSH0 PUSH0 REVERT JUMPDEST PUSH0 PUSH0 REVERT JUMPDEST PUSH0 PUSH0 REVERT JUMPDEST PUSH0 PUSH1 0x1F NOT PUSH1 0x1F DUP4 ADD AND SWAP1 POP SWAP2 SWAP1 POP JUMP JUMPDEST PUSH32 0x4E487B7100000000000000000000000000000000000000000000000000000000 PUSH0 MSTORE PUSH1 0x41 PUSH1 0x4 MSTORE PUSH1 0x24 PUSH0 REVERT JUMPDEST PUSH2 0x240 DUP3 PUSH2 0x1FA JUMP JUMPDEST DUP2 ADD DUP2 DUP2 LT PUSH8 0xFFFFFFFFFFFFFFFF DUP3 GT OR ISZERO PUSH2 0x25F JUMPI PUSH2 0x25E PUSH2 0x20A JUMP JUMPDEST JUMPDEST DUP1 PUSH1 0x40 MSTORE POP POP POP JUMP JUMPDEST PUSH0 PUSH2 0x271 PUSH2 0x1E5 JUMP JUMPDEST SWAP1 POP PUSH2 0x27D DUP3 DUP3 PUSH2 0x237 JUMP JUMPDEST SWAP2 SWAP1 POP JUMP JUMPDEST PUSH0 PUSH8 0xFFFFFFFFFFFFFFFF DUP3 GT ISZERO PUSH2 0x29C JUMPI PUSH2 0x29B PUSH2 0x20A JUMP JUMPDEST JUMPDEST PUSH1 0x20 DUP3 MUL SWAP1 POP PUSH1 0x20 DUP2 ADD SWAP1 POP SWAP2 SWAP1 POP JUMP JUMPDEST PUSH0 PUSH0 REVERT JUMPDEST PUSH0 PUSH20 0xFFFFFFFFFFFFFFFFFFFFFFFFFFFFFFFFFFFFFFFF DUP3 AND SWAP1 POP SWAP2 SWAP1 POP JUMP JUMPDEST PUSH0 PUSH2 0x2DA DUP3 PUSH2 0x2B1 JUMP JUMPDEST SWAP1 POP SWAP2 SWAP1 POP JUMP JUMPDEST PUSH2 0x2EA DUP2 PUSH2 0x2D0 JUMP JUMPDEST DUP2 EQ PUSH2 0x2F4 JUMPI PUSH0 PUSH0 REVERT JUMPDEST POP JUMP JUMPDEST PUSH0 DUP2 MLOAD SWAP1 POP PUSH2 0x305 DUP2 PUSH2 0x2E1 JUMP JUMPDEST SWAP3 SWAP2 POP POP JUMP JUMPDEST PUSH0 PUSH2 0x31D PUSH2 0x318 DUP5 PUSH2 0x282 JUMP JUMPDEST PUSH2 0x268 JUMP JUMPDEST SWAP1 POP DUP1 DUP4 DUP3 MSTORE PUSH1 0x20 DUP3 ADD SWAP1 POP PUSH1 0x20 DUP5 MUL DUP4 ADD DUP6 DUP2 GT ISZERO PUSH2 0x340 JUMPI PUSH2 0x33F PUSH2 0x2AD JUMP JUMPDEST JUMPDEST DUP4 JUMPDEST DUP2 DUP2 LT ISZERO PUSH2 0x369 JUMPI DUP1 PUSH2 0x355 DUP9 DUP3 PUSH2 0x2F7 JUMP JUMPDEST DUP5 MSTORE PUSH1 0x20 DUP5 ADD SWAP4 POP POP PUSH1 0x20 DUP2 ADD SWAP1 POP PUSH2 0x342 JUMP JUMPDEST POP POP POP SWAP4 SWAP3 POP POP POP JUMP JUMPDEST PUSH0 DUP3 PUSH1 0x1F DUP4 ADD SLT PUSH2 0x387 JUMPI PUSH2 0x386 PUSH2 0x1F6 JUMP JUMPDEST JUMPDEST DUP2 MLOAD PUSH2 0x397 DUP5 DUP3 PUSH1 0x20 DUP7 ADD PUSH2 0x30B JUMP JUMPDEST SWAP2 POP POP SWAP3 SWAP2 POP POP JUMP JUMPDEST PUSH0 PUSH0 REVERT JUMPDEST PUSH0 PUSH8 0xFFFFFFFFFFFFFFFF DUP3 GT ISZERO PUSH2 0x3BE JUMPI PUSH2 0x3BD PUSH2 0x20A JUMP JUMPDEST JUMPDEST PUSH2 0x3C7 DUP3 PUSH2 0x1FA JUMP JUMPDEST SWAP1 POP PUSH1 0x20 DUP2 ADD SWAP1 POP SWAP2 SWAP1 POP JUMP JUMPDEST DUP3 DUP2 DUP4 MCOPY PUSH0 DUP4 DUP4 ADD MSTORE POP POP POP JUMP JUMPDEST PUSH0 PUSH2 0x3F4 PUSH2 0x3EF DUP5 PUSH2 0x3A4 JUMP JUMPDEST PUSH2 0x268 JUMP JUMPDEST SWAP1 POP DUP3 DUP2 MSTORE PUSH1 0x20 DUP2 ADD DUP5 DUP5 DUP5 ADD GT ISZERO PUSH2 0x410 JUMPI PUSH2 0x40F PUSH2 0x3A0 JUMP JUMPDEST JUMPDEST PUSH2 0x41B DUP5 DUP3 DUP6 PUSH2 0x3D4 JUMP JUMPDEST POP SWAP4 SWAP3 POP POP POP JUMP JUMPDEST PUSH0 DUP3 PUSH1 0x1F DUP4 ADD SLT PUSH2 0x437 JUMPI PUSH2 0x436 PUSH2 0x1F6 JUMP JUMPDEST JUMPDEST DUP2 MLOAD PUSH2 0x447 DUP5 DUP3 PUSH1 0x20 DUP7 ADD PUSH2 0x3E2 JUMP JUMPDEST SWAP2 POP POP SWAP3 SWAP2 POP POP JUMP JUMPDEST PUSH0 PUSH0 PUSH0 PUSH0 PUSH1 0x80 DUP6 DUP8 SUB SLT ISZERO PUSH2 0x468 JUMPI PUSH2 0x467 PUSH2 0x1EE JUMP JUMPDEST JUMPDEST PUSH0 DUP6 ADD MLOAD PUSH8 0xFFFFFFFFFFFFFFFF DUP2 GT ISZERO PUSH2 0x485 JUMPI PUSH2 0x484 PUSH2 0x1F2 JUMP JUMPDEST JUMPDEST PUSH2 0x491 DUP8 DUP3 DUP9 ADD PUSH2 0x373 JUMP JUMPDEST SWAP5 POP POP PUSH1 0x20 DUP6 ADD MLOAD PUSH8 0xFFFFFFFFFFFFFFFF DUP2 GT ISZERO PUSH2 0x4B2 JUMPI PUSH2 0x4B1 PUSH2 0x1F2 JUMP JUMPDEST JUMPDEST PUSH2 0x4BE DUP8 DUP3 DUP9 ADD PUSH2 0x423 JUMP JUMPDEST SWAP4 POP POP PUSH1 0x40 PUSH2 0x4CF DUP8 DUP3 DUP9 ADD PUSH2 0x2F7 JUMP JUMPDEST SWAP3 POP POP PUSH1 0x60 PUSH2 0x4E0 DUP8 DUP3 DUP9 ADD PUSH2 0x2F7 JUMP JUMPDEST SWAP2 POP POP SWAP3 SWAP6 SWAP2 SWAP5 POP SWAP3 POP JUMP JUMPDEST PUSH0 DUP2 MLOAD SWAP1 POP SWAP2 SWAP1 POP JUMP JUMPDEST PUSH32 0x4E487B7100000000000000000000000000000000000000000000000000000000 PUSH0 MSTORE PUSH1 0x22 PUSH1 0x4 MSTORE PUSH1 0x24 PUSH0 REVERT JUMPDEST PUSH0 PUSH1 0x2 DUP3 DIV SWAP1 POP PUSH1 0x1 DUP3 AND DUP1 PUSH2 0x53A JUMPI PUSH1 0x7F DUP3 AND SWAP2 POP JUMPDEST PUSH1 0x20 DUP3 LT DUP2 SUB PUSH2 0x54D JUMPI PUSH2 0x54C PUSH2 0x4F6 JUMP JUMPDEST JUMPDEST POP SWAP2 SWAP1 POP JUMP JUMPDEST PUSH0 DUP2 SWAP1 POP DUP2 PUSH0 MSTORE PUSH1 0x20 PUSH0 KECCAK256 SWAP1 POP SWAP2 SWAP1 POP JUMP JUMPDEST PUSH0 PUSH1 0x20 PUSH1 0x1F DUP4 ADD DIV SWAP1 POP SWAP2 SWAP1 POP JUMP JUMPDEST PUSH0 DUP3 DUP3 SHL SWAP1 POP SWAP3 SWAP2 POP POP JUMP JUMPDEST PUSH0 PUSH1 0x8 DUP4 MUL PUSH2 0x5AF PUSH32 0xFFFFFFFFFFFFFFFFFFFFFFFFFFFFFFFFFFFFFFFFFFFFFFFFFFFFFFFFFFFFFFFF DUP3 PUSH2 0x574 JUMP JUMPDEST PUSH2 0x5B9 DUP7 DUP4 PUSH2 0x574 JUMP JUMPDEST SWAP6 POP DUP1 NOT DUP5 AND SWAP4 POP DUP1 DUP7 AND DUP5 OR SWAP3 POP POP POP SWAP4 SWAP3 POP POP POP JUMP JUMPDEST PUSH0 DUP2 SWAP1 POP SWAP2 SWAP1 POP JUMP JUMPDEST PUSH0 DUP2 SWAP1 POP SWAP2 SWAP1 POP JUMP JUMPDEST PUSH0 PUSH2 0x5FD PUSH2 0x5F8 PUSH2 0x5F3 DUP5 PUSH2 0x5D1 JUMP JUMPDEST PUSH2 0x5DA JUMP JUMPDEST PUSH2 0x5D1 JUMP JUMPDEST SWAP1 POP SWAP2 SWAP1 POP JUMP JUMPDEST PUSH0 DUP2 SWAP1 POP SWAP2 SWAP1 POP JUMP JUMPDEST PUSH2 0x616 DUP4 PUSH2 0x5E3 JUMP JUMPDEST PUSH2 0x62A PUSH2 0x622 DUP3 PUSH2 0x604 JUMP JUMPDEST DUP5 DUP5 SLOAD PUSH2 0x580 JUMP JUMPDEST DUP3 SSTORE POP POP POP POP JUMP JUMPDEST PUSH0 PUSH0 SWAP1 POP SWAP1 JUMP JUMPDEST PUSH2 0x641 PUSH2 0x632 JUMP JUMPDEST PUSH2 0x64C DUP2 DUP5 DUP5 PUSH2 0x60D JUMP JUMPDEST POP POP POP JUMP JUMPDEST JUMPDEST DUP2 DUP2 LT ISZERO PUSH2 0x66F JUMPI PUSH2 0x664 PUSH0 DUP3 PUSH2 0x639 JUMP JUMPDEST PUSH1 0x1 DUP2 ADD SWAP1 POP PUSH2 0x652 JUMP JUMPDEST POP POP JUMP JUMPDEST PUSH1 0x1F DUP3 GT ISZERO PUSH2 0x6B4 JUMPI PUSH2 0x685 DUP2 PUSH2 0x553 JUMP JUMPDEST PUSH2 0x68E DUP5 PUSH2 0x565 JUMP JUMPDEST DUP2 ADD PUSH1 0x20 DUP6 LT ISZERO PUSH2 0x69D JUMPI DUP2 SWAP1 POP JUMPDEST PUSH2 0x6B1 PUSH2 0x6A9 DUP6 PUSH2 0x565 JUMP JUMPDEST DUP4 ADD DUP3 PUSH2 0x651 JUMP JUMPDEST POP POP JUMPDEST POP POP POP JUMP JUMPDEST PUSH0 DUP3 DUP3 SHR SWAP1 POP SWAP3 SWAP2 POP POP JUMP JUMPDEST PUSH0 PUSH2 0x6D4 PUSH0 NOT DUP5 PUSH1 0x8 MUL PUSH2 0x6B9 JUMP JUMPDEST NOT DUP1 DUP4 AND SWAP2 POP POP SWAP3 SWAP2 POP POP JUMP JUMPDEST PUSH0 PUSH2 0x6EC DUP4 DUP4 PUSH2 0x6C5 JUMP JUMPDEST SWAP2 POP DUP3 PUSH1 0x2 MUL DUP3 OR SWAP1 POP SWAP3 SWAP2 POP POP JUMP JUMPDEST PUSH2 0x705 DUP3 PUSH2 0x4EC JUMP JUMPDEST PUSH8 0xFFFFFFFFFFFFFFFF DUP2 GT ISZERO PUSH2 0x71E JUMPI PUSH2 0x71D PUSH2 0x20A JUMP JUMPDEST JUMPDEST PUSH2 0x728 DUP3 SLOAD PUSH2 0x523 JUMP JUMPDEST PUSH2 0x733 DUP3 DUP3 DUP6 PUSH2 0x673 JUMP JUMPDEST PUSH0 PUSH1 0x20 SWAP1 POP PUSH1 0x1F DUP4 GT PUSH1 0x1 DUP2 EQ PUSH2 0x764 JUMPI PUSH0 DUP5 ISZERO PUSH2 0x752 JUMPI DUP3 DUP8 ADD MLOAD SWAP1 POP JUMPDEST PUSH2 0x75C DUP6 DUP3 PUSH2 0x6E1 JUMP JUMPDEST DUP7 SSTORE POP PUSH2 0x7C3 JUMP JUMPDEST PUSH1 0x1F NOT DUP5 AND PUSH2 0x772 DUP7 PUSH2 0x553 JUMP JUMPDEST PUSH0 JUMPDEST DUP3 DUP2 LT ISZERO PUSH2 0x799 JUMPI DUP5 DUP10 ADD MLOAD DUP3 SSTORE PUSH1 0x1 DUP3 ADD SWAP2 POP PUSH1 0x20 DUP6 ADD SWAP5 POP PUSH1 0x20 DUP2 ADD SWAP1 POP PUSH2 0x774 JUMP JUMPDEST DUP7 DUP4 LT ISZERO PUSH2 0x7B6 JUMPI DUP5 DUP10 ADD MLOAD PUSH2 0x7B2 PUSH1 0x1F DUP10 AND DUP3 PUSH2 0x6C5 JUMP JUMPDEST DUP4 SSTORE POP JUMPDEST PUSH1 0x1 PUSH1 0x2 DUP9 MUL ADD DUP9 SSTORE POP POP POP JUMPDEST POP POP POP POP POP POP JUMP JUMPDEST PUSH32 0x4E487B7100000000000000000000000000000000000000000000000000000000 PUSH0 MSTORE PUSH1 0x32 PUSH1 0x4 MSTORE PUSH1 0x24 PUSH0 REVERT JUMPDEST PUSH0 DUP2 SWAP1 POP SWAP3 SWAP2 POP POP JUMP JUMPDEST PUSH0 PUSH2 0x80C DUP3 PUSH2 0x4EC JUMP JUMPDEST PUSH2 0x816 DUP2 DUP6 PUSH2 0x7F8 JUMP JUMPDEST SWAP4 POP PUSH2 0x826 DUP2 DUP6 PUSH1 0x20 DUP7 ADD PUSH2 0x3D4 JUMP JUMPDEST DUP1 DUP5 ADD SWAP2 POP POP SWAP3 SWAP2 POP POP JUMP JUMPDEST PUSH0 PUSH2 0x83D DUP3 DUP5 PUSH2 0x802 JUMP JUMPDEST SWAP2 POP DUP2 SWAP1 POP SWAP3 SWAP2 POP POP JUMP JUMPDEST PUSH2 0x21DA DUP1 PUSH2 0x855 PUSH0 CODECOPY PUSH0 RETURN INVALID PUSH1 0x80 PUSH1 0x40 MSTORE PUSH1 0x4 CALLDATASIZE LT PUSH2 0xA6 JUMPI PUSH0 CALLDATALOAD PUSH1 0xE0 SHR DUP1 PUSH4 0x83E12C83 GT PUSH2 0x63 JUMPI DUP1 PUSH4 0x83E12C83 EQ PUSH2 0x1A2 JUMPI DUP1 PUSH4 0x9AF7A48C EQ PUSH2 0x1CA JUMPI DUP1 PUSH4 0xABCA8E09 EQ PUSH2 0x1F4 JUMPI DUP1 PUSH4 0xAEFA5128 EQ PUSH2 0x1FE JUMPI DUP1 PUSH4 0xB4C67900 EQ PUSH2 0x226 JUMPI DUP1 PUSH4 0xF09A9FB2 EQ PUSH2 0x24E JUMPI PUSH2 0xA6 JUMP JUMPDEST DUP1 PUSH4 0x4B0D07E EQ PUSH2 0xAA JUMPI DUP1 PUSH4 0x19973261 EQ PUSH2 0xD2 JUMPI DUP1 PUSH4 0x4618F42C EQ PUSH2 0xFC JUMPI DUP1 PUSH4 0x4CF088D9 EQ PUSH2 0x138 JUMPI DUP1 PUSH4 0x73373D9F EQ PUSH2 0x162 JUMPI DUP1 PUSH4 0x75731976 EQ PUSH2 0x18C JUMPI JUMPDEST PUSH0 PUSH0 REVERT JUMPDEST CALLVALUE DUP1 ISZERO PUSH2 0xB5 JUMPI PUSH0 PUSH0 REVERT JUMPDEST POP PUSH2 0xD0 PUSH1 0x4 DUP1 CALLDATASIZE SUB DUP2 ADD SWAP1 PUSH2 0xCB SWAP2 SWAP1 PUSH2 0x1334 JUMP JUMPDEST PUSH2 0x276 JUMP JUMPDEST STOP JUMPDEST CALLVALUE DUP1 ISZERO PUSH2 0xDD JUMPI PUSH0 PUSH0 REVERT JUMPDEST POP PUSH2 0xE6 PUSH2 0x369 JUMP JUMPDEST PUSH1 0x40 MLOAD PUSH2 0xF3 SWAP2 SWAP1 PUSH2 0x13E9 JUMP JUMPDEST PUSH1 0x40 MLOAD DUP1 SWAP2 SUB SWAP1 RETURN JUMPDEST CALLVALUE DUP1 ISZERO PUSH2 0x107 JUMPI PUSH0 PUSH0 REVERT JUMPDEST POP PUSH2 0x122 PUSH1 0x4 DUP1 CALLDATASIZE SUB DUP2 ADD SWAP1 PUSH2 0x11D SWAP2 SWAP1 PUSH2 0x1501 JUMP JUMPDEST PUSH2 0x38E JUMP JUMPDEST PUSH1 0x40 MLOAD PUSH2 0x12F SWAP2 SWAP1 PUSH2 0x1557 JUMP JUMPDEST PUSH1 0x40 MLOAD DUP1 SWAP2 SUB SWAP1 RETURN JUMPDEST CALLVALUE DUP1 ISZERO PUSH2 0x143 JUMPI PUSH0 PUSH0 REVERT JUMPDEST POP PUSH2 0x14C PUSH2 0x4BC JUMP JUMPDEST PUSH1 0x40 MLOAD PUSH2 0x159 SWAP2 SWAP1 PUSH2 0x1590 JUMP JUMPDEST PUSH1 0x40 MLOAD DUP1 SWAP2 SUB SWAP1 RETURN JUMPDEST CALLVALUE DUP1 ISZERO PUSH2 0x16D JUMPI PUSH0 PUSH0 REVERT JUMPDEST POP PUSH2 0x176 PUSH2 0x4E1 JUMP JUMPDEST PUSH1 0x40 MLOAD PUSH2 0x183 SWAP2 SWAP1 PUSH2 0x15B8 JUMP JUMPDEST PUSH1 0x40 MLOAD DUP1 SWAP2 SUB SWAP1 RETURN JUMPDEST CALLVALUE DUP1 ISZERO PUSH2 0x197 JUMPI PUSH0 PUSH0 REVERT JUMPDEST POP PUSH2 0x1A0 PUSH2 0x506 JUMP JUMPDEST STOP JUMPDEST CALLVALUE DUP1 ISZERO PUSH2 0x1AD JUMPI PUSH0 PUSH0 REVERT JUMPDEST POP PUSH2 0x1C8 PUSH1 0x4 DUP1 CALLDATASIZE SUB DUP2 ADD SWAP1 PUSH2 0x1C3 SWAP2 SWAP1 PUSH2 0x15D1 JUMP JUMPDEST PUSH2 0x8A7 JUMP JUMPDEST STOP JUMPDEST CALLVALUE DUP1 ISZERO PUSH2 0x1D5 JUMPI PUSH0 PUSH0 REVERT JUMPDEST POP PUSH2 0x1DE PUSH2 0x8EA JUMP JUMPDEST PUSH1 0x40 MLOAD PUSH2 0x1EB SWAP2 SWAP1 PUSH2 0x165C JUMP JUMPDEST PUSH1 0x40 MLOAD DUP1 SWAP2 SUB SWAP1 RETURN JUMPDEST PUSH2 0x1FC PUSH2 0x97A JUMP JUMPDEST STOP JUMPDEST CALLVALUE DUP1 ISZERO PUSH2 0x209 JUMPI PUSH0 PUSH0 REVERT JUMPDEST POP PUSH2 0x224 PUSH1 0x4 DUP1 CALLDATASIZE SUB DUP2 ADD SWAP1 PUSH2 0x21F SWAP2 SWAP1 PUSH2 0x15D1 JUMP JUMPDEST PUSH2 0xC7C JUMP JUMPDEST STOP JUMPDEST CALLVALUE DUP1 ISZERO PUSH2 0x231 JUMPI PUSH0 PUSH0 REVERT JUMPDEST POP PUSH2 0x24C PUSH1 0x4 DUP1 CALLDATASIZE SUB DUP2 ADD SWAP1 PUSH2 0x247 SWAP2 SWAP1 PUSH2 0x1501 JUMP JUMPDEST PUSH2 0xCF6 JUMP JUMPDEST STOP JUMPDEST CALLVALUE DUP1 ISZERO PUSH2 0x259 JUMPI PUSH0 PUSH0 REVERT JUMPDEST POP PUSH2 0x274 PUSH1 0x4 DUP1 CALLDATASIZE SUB DUP2 ADD SWAP1 PUSH2 0x26F SWAP2 SWAP1 PUSH2 0x16D9 JUMP JUMPDEST PUSH2 0xE01 JUMP JUMPDEST STOP JUMPDEST DUP1 PUSH1 0x7 SWAP1 DUP2 PUSH2 0x285 SWAP2 SWAP1 PUSH2 0x1918 JUMP JUMPDEST POP DUP2 PUSH20 0xFFFFFFFFFFFFFFFFFFFFFFFFFFFFFFFFFFFFFFFF AND PUSH1 0x4 PUSH0 SWAP1 SLOAD SWAP1 PUSH2 0x100 EXP SWAP1 DIV PUSH20 0xFFFFFFFFFFFFFFFFFFFFFFFFFFFFFFFFFFFFFFFF AND PUSH20 0xFFFFFFFFFFFFFFFFFFFFFFFFFFFFFFFFFFFFFFFF AND SUB ISZERO PUSH2 0x365 JUMPI PUSH1 0x4 PUSH0 SWAP1 SLOAD SWAP1 PUSH2 0x100 EXP SWAP1 DIV PUSH20 0xFFFFFFFFFFFFFFFFFFFFFFFFFFFFFFFFFFFFFFFF AND PUSH20 0xFFFFFFFFFFFFFFFFFFFFFFFFFFFFFFFFFFFFFFFF AND PUSH4 0x4B0D07E DUP4 DUP4 PUSH1 0x40 MLOAD DUP4 PUSH4 0xFFFFFFFF AND PUSH1 0xE0 SHL DUP2 MSTORE PUSH1 0x4 ADD PUSH2 0x337 SWAP3 SWAP2 SWAP1 PUSH2 0x19E7 JUMP JUMPDEST PUSH0 PUSH1 0x40 MLOAD DUP1 DUP4 SUB DUP2 PUSH0 DUP8 DUP1 EXTCODESIZE ISZERO DUP1 ISZERO PUSH2 0x34E JUMPI PUSH0 PUSH0 REVERT JUMPDEST POP GAS CALL ISZERO DUP1 ISZERO PUSH2 0x360 JUMPI RETURNDATASIZE PUSH0 PUSH0 RETURNDATACOPY RETURNDATASIZE PUSH0 REVERT JUMPDEST POP POP POP POP JUMPDEST POP POP JUMP JUMPDEST PUSH1 0x6 PUSH0 SWAP1 SLOAD SWAP1 PUSH2 0x100 EXP SWAP1 DIV PUSH20 0xFFFFFFFFFFFFFFFFFFFFFFFFFFFFFFFFFFFFFFFF AND DUP2 JUMP JUMPDEST PUSH0 PUSH0 PUSH0 PUSH1 0x1 DUP1 SLOAD PUSH2 0x39F SWAP2 SWAP1 PUSH2 0x1A42 JUMP JUMPDEST DUP2 SLOAD DUP2 LT PUSH2 0x3B0 JUMPI PUSH2 0x3AF PUSH2 0x1A75 JUMP JUMPDEST JUMPDEST SWAP1 PUSH0 MSTORE PUSH1 0x20 PUSH0 KECCAK256 SWAP1 PUSH1 0x4 MUL ADD PUSH1 0x40 MLOAD DUP1 PUSH1 0x80 ADD PUSH1 0x40 MSTORE SWAP1 DUP2 PUSH0 DUP3 ADD SLOAD DUP2 MSTORE PUSH1 0x20 ADD PUSH1 0x1 DUP3 ADD SLOAD DUP2 MSTORE PUSH1 0x20 ADD PUSH1 0x2 DUP3 ADD SLOAD DUP2 MSTORE PUSH1 0x20 ADD PUSH1 0x3 DUP3 ADD DUP1 SLOAD PUSH2 0x3F4 SWAP1 PUSH2 0x1751 JUMP JUMPDEST DUP1 PUSH1 0x1F ADD PUSH1 0x20 DUP1 SWAP2 DIV MUL PUSH1 0x20 ADD PUSH1 0x40 MLOAD SWAP1 DUP2 ADD PUSH1 0x40 MSTORE DUP1 SWAP3 SWAP2 SWAP1 DUP2 DUP2 MSTORE PUSH1 0x20 ADD DUP3 DUP1 SLOAD PUSH2 0x420 SWAP1 PUSH2 0x1751 JUMP JUMPDEST DUP1 ISZERO PUSH2 0x46B JUMPI DUP1 PUSH1 0x1F LT PUSH2 0x442 JUMPI PUSH2 0x100 DUP1 DUP4 SLOAD DIV MUL DUP4 MSTORE SWAP2 PUSH1 0x20 ADD SWAP2 PUSH2 0x46B JUMP JUMPDEST DUP3 ADD SWAP2 SWAP1 PUSH0 MSTORE PUSH1 0x20 PUSH0 KECCAK256 SWAP1 JUMPDEST DUP2 SLOAD DUP2 MSTORE SWAP1 PUSH1 0x1 ADD SWAP1 PUSH1 0x20 ADD DUP1 DUP4 GT PUSH2 0x44E JUMPI DUP3 SWAP1 SUB PUSH1 0x1F AND DUP3 ADD SWAP2 JUMPDEST POP POP POP POP POP DUP2 MSTORE POP POP SWAP1 POP PUSH1 0x1 DUP2 PUSH1 0x40 ADD MLOAD DUP5 PUSH1 0x40 ADD MLOAD PUSH2 0x48C SWAP2 SWAP1 PUSH2 0x1A42 JUMP JUMPDEST EQ PUSH2 0x49A JUMPI PUSH0 SWAP2 POP POP PUSH2 0x4B7 JUMP JUMPDEST DUP1 PUSH0 ADD MLOAD DUP4 PUSH1 0x20 ADD MLOAD EQ PUSH2 0x4B1 JUMPI PUSH0 SWAP2 POP POP PUSH2 0x4B7 JUMP JUMPDEST PUSH1 0x1 SWAP2 POP POP JUMPDEST SWAP2 SWAP1 POP JUMP JUMPDEST PUSH1 0x5 PUSH0 SWAP1 SLOAD SWAP1 PUSH2 0x100 EXP SWAP1 DIV PUSH20 0xFFFFFFFFFFFFFFFFFFFFFFFFFFFFFFFFFFFFFFFF AND DUP2 JUMP JUMPDEST PUSH1 0x4 PUSH0 SWAP1 SLOAD SWAP1 PUSH2 0x100 EXP SWAP1 DIV PUSH20 0xFFFFFFFFFFFFFFFFFFFFFFFFFFFFFFFFFFFFFFFF AND DUP2 JUMP JUMPDEST PUSH0 PUSH1 0x1 PUSH1 0x2 DUP1 SLOAD SWAP1 POP PUSH2 0x519 SWAP2 SWAP1 PUSH2 0x1AA2 JUMP JUMPDEST SWAP1 POP PUSH1 0x2 DUP2 PUSH2 0x528 SWAP2 SWAP1 PUSH2 0x1AD5 JUMP JUMPDEST PUSH1 0x3 PUSH1 0x8 SLOAD PUSH2 0x537 SWAP2 SWAP1 PUSH2 0x1AD5 JUMP JUMPDEST LT PUSH2 0x78F JUMPI PUSH0 PUSH1 0x9 SWAP1 DUP1 PUSH1 0x1 DUP2 SLOAD ADD DUP1 DUP3 SSTORE DUP1 SWAP2 POP POP PUSH1 0x1 SWAP1 SUB SWAP1 PUSH0 MSTORE PUSH1 0x20 PUSH0 KECCAK256 SWAP1 PUSH1 0x4 MUL ADD PUSH0 SWAP1 SWAP2 SWAP1 SWAP2 SWAP1 SWAP2 POP PUSH0 DUP3 ADD SLOAD DUP2 PUSH0 ADD SSTORE PUSH1 0x1 DUP3 ADD SLOAD DUP2 PUSH1 0x1 ADD SSTORE PUSH1 0x2 DUP3 ADD SLOAD DUP2 PUSH1 0x2 ADD SSTORE PUSH1 0x3 DUP3 ADD DUP2 PUSH1 0x3 ADD SWAP1 DUP2 PUSH2 0x595 SWAP2 SWAP1 PUSH2 0x1B2B JUMP JUMPDEST POP POP POP PUSH1 0x1 PUSH0 DUP2 SLOAD DUP1 SWAP3 SWAP2 SWAP1 PUSH2 0x5AA SWAP1 PUSH2 0x1C10 JUMP JUMPDEST SWAP2 SWAP1 POP SSTORE POP PUSH1 0x5 PUSH0 SWAP1 SLOAD SWAP1 PUSH2 0x100 EXP SWAP1 DIV PUSH20 0xFFFFFFFFFFFFFFFFFFFFFFFFFFFFFFFFFFFFFFFF AND PUSH20 0xFFFFFFFFFFFFFFFFFFFFFFFFFFFFFFFFFFFFFFFF AND PUSH4 0x490740E8 PUSH1 0x6 PUSH0 SWAP1 SLOAD SWAP1 PUSH2 0x100 EXP SWAP1 DIV PUSH20 0xFFFFFFFFFFFFFFFFFFFFFFFFFFFFFFFFFFFFFFFF AND PUSH20 0xFFFFFFFFFFFFFFFFFFFFFFFFFFFFFFFFFFFFFFFF AND PUSH4 0x3B10244B PUSH1 0x40 MLOAD DUP2 PUSH4 0xFFFFFFFF AND PUSH1 0xE0 SHL DUP2 MSTORE PUSH1 0x4 ADD PUSH1 0x20 PUSH1 0x40 MLOAD DUP1 DUP4 SUB DUP2 DUP7 GAS STATICCALL ISZERO DUP1 ISZERO PUSH2 0x656 JUMPI RETURNDATASIZE PUSH0 PUSH0 RETURNDATACOPY RETURNDATASIZE PUSH0 REVERT JUMPDEST POP POP POP POP PUSH1 0x40 MLOAD RETURNDATASIZE PUSH1 0x1F NOT PUSH1 0x1F DUP3 ADD AND DUP3 ADD DUP1 PUSH1 0x40 MSTORE POP DUP2 ADD SWAP1 PUSH2 0x67A SWAP2 SWAP1 PUSH2 0x1C6B JUMP JUMPDEST PUSH1 0x40 MLOAD DUP3 PUSH4 0xFFFFFFFF AND PUSH1 0xE0 SHL DUP2 MSTORE PUSH1 0x4 ADD PUSH2 0x696 SWAP2 SWAP1 PUSH2 0x15B8 JUMP JUMPDEST PUSH0 PUSH1 0x40 MLOAD DUP1 DUP4 SUB DUP2 PUSH0 DUP8 DUP1 EXTCODESIZE ISZERO DUP1 ISZERO PUSH2 0x6AD JUMPI PUSH0 PUSH0 REVERT JUMPDEST POP GAS CALL ISZERO DUP1 ISZERO PUSH2 0x6BF JUMPI RETURNDATASIZE PUSH0 PUSH0 RETURNDATACOPY RETURNDATASIZE PUSH0 REVERT JUMPDEST POP POP POP POP PUSH0 PUSH1 0x2 DUP1 SLOAD SWAP1 POP SWAP1 POP PUSH0 PUSH0 SWAP1 POP JUMPDEST DUP2 DUP2 LT ISZERO PUSH2 0x788 JUMPI PUSH1 0x2 DUP2 DUP2 SLOAD DUP2 LT PUSH2 0x6ED JUMPI PUSH2 0x6EC PUSH2 0x1A75 JUMP JUMPDEST JUMPDEST SWAP1 PUSH0 MSTORE PUSH1 0x20 PUSH0 KECCAK256 ADD PUSH0 SWAP1 SLOAD SWAP1 PUSH2 0x100 EXP SWAP1 DIV PUSH20 0xFFFFFFFFFFFFFFFFFFFFFFFFFFFFFFFFFFFFFFFF AND PUSH20 0xFFFFFFFFFFFFFFFFFFFFFFFFFFFFFFFFFFFFFFFF AND PUSH4 0xB4C67900 PUSH1 0x9 PUSH1 0x40 MLOAD DUP3 PUSH4 0xFFFFFFFF AND PUSH1 0xE0 SHL DUP2 MSTORE PUSH1 0x4 ADD PUSH2 0x74E SWAP2 SWAP1 PUSH2 0x1E16 JUMP JUMPDEST PUSH0 PUSH1 0x40 MLOAD DUP1 DUP4 SUB DUP2 PUSH0 DUP8 DUP1 EXTCODESIZE ISZERO DUP1 ISZERO PUSH2 0x765 JUMPI PUSH0 PUSH0 REVERT JUMPDEST POP GAS CALL ISZERO DUP1 ISZERO PUSH2 0x777 JUMPI RETURNDATASIZE PUSH0 PUSH0 RETURNDATACOPY RETURNDATASIZE PUSH0 REVERT JUMPDEST POP POP POP POP DUP1 DUP1 PUSH1 0x1 ADD SWAP2 POP POP PUSH2 0x6D1 JUMP JUMPDEST POP POP PUSH2 0x8A4 JUMP JUMPDEST PUSH1 0x5 PUSH0 SWAP1 SLOAD SWAP1 PUSH2 0x100 EXP SWAP1 DIV PUSH20 0xFFFFFFFFFFFFFFFFFFFFFFFFFFFFFFFFFFFFFFFF AND PUSH20 0xFFFFFFFFFFFFFFFFFFFFFFFFFFFFFFFFFFFFFFFF AND PUSH4 0xB03B3EF0 PUSH1 0x6 PUSH0 SWAP1 SLOAD SWAP1 PUSH2 0x100 EXP SWAP1 DIV PUSH20 0xFFFFFFFFFFFFFFFFFFFFFFFFFFFFFFFFFFFFFFFF AND PUSH20 0xFFFFFFFFFFFFFFFFFFFFFFFFFFFFFFFFFFFFFFFF AND PUSH4 0x3B10244B PUSH1 0x40 MLOAD DUP2 PUSH4 0xFFFFFFFF AND PUSH1 0xE0 SHL DUP2 MSTORE PUSH1 0x4 ADD PUSH1 0x20 PUSH1 0x40 MLOAD DUP1 DUP4 SUB DUP2 DUP7 GAS STATICCALL ISZERO DUP1 ISZERO PUSH2 0x836 JUMPI RETURNDATASIZE PUSH0 PUSH0 RETURNDATACOPY RETURNDATASIZE PUSH0 REVERT JUMPDEST POP POP POP POP PUSH1 0x40 MLOAD RETURNDATASIZE PUSH1 0x1F NOT PUSH1 0x1F DUP3 ADD AND DUP3 ADD DUP1 PUSH1 0x40 MSTORE POP DUP2 ADD SWAP1 PUSH2 0x85A SWAP2 SWAP1 PUSH2 0x1C6B JUMP JUMPDEST PUSH1 0x40 MLOAD DUP3 PUSH4 0xFFFFFFFF AND PUSH1 0xE0 SHL DUP2 MSTORE PUSH1 0x4 ADD PUSH2 0x876 SWAP2 SWAP1 PUSH2 0x15B8 JUMP JUMPDEST PUSH0 PUSH1 0x40 MLOAD DUP1 DUP4 SUB DUP2 PUSH0 DUP8 DUP1 EXTCODESIZE ISZERO DUP1 ISZERO PUSH2 0x88D JUMPI PUSH0 PUSH0 REVERT JUMPDEST POP GAS CALL ISZERO DUP1 ISZERO PUSH2 0x89F JUMPI RETURNDATASIZE PUSH0 PUSH0 RETURNDATACOPY RETURNDATASIZE PUSH0 REVERT JUMPDEST POP POP POP POP JUMPDEST POP JUMP JUMPDEST DUP1 PUSH1 0x4 PUSH0 PUSH2 0x100 EXP DUP2 SLOAD DUP2 PUSH20 0xFFFFFFFFFFFFFFFFFFFFFFFFFFFFFFFFFFFFFFFF MUL NOT AND SWAP1 DUP4 PUSH20 0xFFFFFFFFFFFFFFFFFFFFFFFFFFFFFFFFFFFFFFFF AND MUL OR SWAP1 SSTORE POP POP JUMP JUMPDEST PUSH1 0x60 PUSH1 0x7 DUP1 SLOAD PUSH2 0x8F9 SWAP1 PUSH2 0x1751 JUMP JUMPDEST DUP1 PUSH1 0x1F ADD PUSH1 0x20 DUP1 SWAP2 DIV MUL PUSH1 0x20 ADD PUSH1 0x40 MLOAD SWAP1 DUP2 ADD PUSH1 0x40 MSTORE DUP1 SWAP3 SWAP2 SWAP1 DUP2 DUP2 MSTORE PUSH1 0x20 ADD DUP3 DUP1 SLOAD PUSH2 0x925 SWAP1 PUSH2 0x1751 JUMP JUMPDEST DUP1 ISZERO PUSH2 0x970 JUMPI DUP1 PUSH1 0x1F LT PUSH2 0x947 JUMPI PUSH2 0x100 DUP1 DUP4 SLOAD DIV MUL DUP4 MSTORE SWAP2 PUSH1 0x20 ADD SWAP2 PUSH2 0x970 JUMP JUMPDEST DUP3 ADD SWAP2 SWAP1 PUSH0 MSTORE PUSH1 0x20 PUSH0 KECCAK256 SWAP1 JUMPDEST DUP2 SLOAD DUP2 MSTORE SWAP1 PUSH1 0x1 ADD SWAP1 PUSH1 0x20 ADD DUP1 DUP4 GT PUSH2 0x953 JUMPI DUP3 SWAP1 SUB PUSH1 0x1F AND DUP3 ADD SWAP2 JUMPDEST POP POP POP POP POP SWAP1 POP SWAP1 JUMP JUMPDEST PUSH0 PUSH1 0x9 PUSH1 0x2 ADD SLOAD SUB PUSH2 0x9C1 JUMPI PUSH1 0x40 MLOAD PUSH32 0x8C379A000000000000000000000000000000000000000000000000000000000 DUP2 MSTORE PUSH1 0x4 ADD PUSH2 0x9B8 SWAP1 PUSH2 0x1E80 JUMP JUMPDEST PUSH1 0x40 MLOAD DUP1 SWAP2 SUB SWAP1 REVERT JUMPDEST PUSH1 0x6 PUSH0 SWAP1 SLOAD SWAP1 PUSH2 0x100 EXP SWAP1 DIV PUSH20 0xFFFFFFFFFFFFFFFFFFFFFFFFFFFFFFFFFFFFFFFF AND PUSH20 0xFFFFFFFFFFFFFFFFFFFFFFFFFFFFFFFFFFFFFFFF AND PUSH4 0x3B10244B PUSH1 0x40 MLOAD DUP2 PUSH4 0xFFFFFFFF AND PUSH1 0xE0 SHL DUP2 MSTORE PUSH1 0x4 ADD PUSH1 0x20 PUSH1 0x40 MLOAD DUP1 DUP4 SUB DUP2 DUP7 GAS STATICCALL ISZERO DUP1 ISZERO PUSH2 0xA2B JUMPI RETURNDATASIZE PUSH0 PUSH0 RETURNDATACOPY RETURNDATASIZE PUSH0 REVERT JUMPDEST POP POP POP POP PUSH1 0x40 MLOAD RETURNDATASIZE PUSH1 0x1F NOT PUSH1 0x1F DUP3 ADD AND DUP3 ADD DUP1 PUSH1 0x40 MSTORE POP DUP2 ADD SWAP1 PUSH2 0xA4F SWAP2 SWAP1 PUSH2 0x1C6B JUMP JUMPDEST PUSH20 0xFFFFFFFFFFFFFFFFFFFFFFFFFFFFFFFFFFFFFFFF AND CALLER PUSH20 0xFFFFFFFFFFFFFFFFFFFFFFFFFFFFFFFFFFFFFFFF AND EQ PUSH2 0xABC JUMPI PUSH1 0x40 MLOAD PUSH32 0x8C379A000000000000000000000000000000000000000000000000000000000 DUP2 MSTORE PUSH1 0x4 ADD PUSH2 0xAB3 SWAP1 PUSH2 0x1EE8 JUMP JUMPDEST PUSH1 0x40 MLOAD DUP1 SWAP2 SUB SWAP1 REVERT JUMPDEST PUSH8 0xDE0B6B3A7640000 CALLVALUE LT ISZERO PUSH2 0xB07 JUMPI PUSH1 0x40 MLOAD PUSH32 0x8C379A000000000000000000000000000000000000000000000000000000000 DUP2 MSTORE PUSH1 0x4 ADD PUSH2 0xAFE SWAP1 PUSH2 0x1F50 JUMP JUMPDEST PUSH1 0x40 MLOAD DUP1 SWAP2 SUB SWAP1 REVERT JUMPDEST PUSH1 0x5 PUSH0 SWAP1 SLOAD SWAP1 PUSH2 0x100 EXP SWAP1 DIV PUSH20 0xFFFFFFFFFFFFFFFFFFFFFFFFFFFFFFFFFFFFFFFF AND PUSH20 0xFFFFFFFFFFFFFFFFFFFFFFFFFFFFFFFFFFFFFFFF AND PUSH4 0x3A4B66F1 CALLVALUE PUSH1 0x40 MLOAD DUP3 PUSH4 0xFFFFFFFF AND PUSH1 0xE0 SHL DUP2 MSTORE PUSH1 0x4 ADD PUSH0 PUSH1 0x40 MLOAD DUP1 DUP4 SUB DUP2 DUP6 DUP9 DUP1 EXTCODESIZE ISZERO DUP1 ISZERO PUSH2 0xB6E JUMPI PUSH0 PUSH0 REVERT JUMPDEST POP GAS CALL ISZERO DUP1 ISZERO PUSH2 0xB80 JUMPI RETURNDATASIZE PUSH0 PUSH0 RETURNDATACOPY RETURNDATASIZE PUSH0 REVERT JUMPDEST POP POP POP POP POP PUSH0 PUSH1 0x2 DUP1 SLOAD SWAP1 POP SWAP1 POP PUSH0 PUSH0 SWAP1 POP JUMPDEST DUP2 DUP2 LT ISZERO PUSH2 0xC78 JUMPI PUSH0 PUSH1 0x2 DUP3 DUP2 SLOAD DUP2 LT PUSH2 0xBB0 JUMPI PUSH2 0xBAF PUSH2 0x1A75 JUMP JUMPDEST JUMPDEST SWAP1 PUSH0 MSTORE PUSH1 0x20 PUSH0 KECCAK256 ADD PUSH0 SWAP1 SLOAD SWAP1 PUSH2 0x100 EXP SWAP1 DIV PUSH20 0xFFFFFFFFFFFFFFFFFFFFFFFFFFFFFFFFFFFFFFFF AND SWAP1 POP DUP1 PUSH20 0xFFFFFFFFFFFFFFFFFFFFFFFFFFFFFFFFFFFFFFFF AND PUSH4 0x4618F42C PUSH1 0x9 PUSH1 0x40 MLOAD DUP3 PUSH4 0xFFFFFFFF AND PUSH1 0xE0 SHL DUP2 MSTORE PUSH1 0x4 ADD PUSH2 0xC14 SWAP2 SWAP1 PUSH2 0x1E16 JUMP JUMPDEST PUSH1 0x20 PUSH1 0x40 MLOAD DUP1 DUP4 SUB DUP2 DUP7 GAS STATICCALL ISZERO DUP1 ISZERO PUSH2 0xC2F JUMPI RETURNDATASIZE PUSH0 PUSH0 RETURNDATACOPY RETURNDATASIZE PUSH0 REVERT JUMPDEST POP POP POP POP PUSH1 0x40 MLOAD RETURNDATASIZE PUSH1 0x1F NOT PUSH1 0x1F DUP3 ADD AND DUP3 ADD DUP1 PUSH1 0x40 MSTORE POP DUP2 ADD SWAP1 PUSH2 0xC53 SWAP2 SWAP1 PUSH2 0x1F82 JUMP JUMPDEST PUSH1 0x8 PUSH0 DUP3 DUP3 SLOAD PUSH2 0xC63 SWAP2 SWAP1 PUSH2 0x1AA2 JUMP JUMPDEST SWAP3 POP POP DUP2 SWAP1 SSTORE POP POP DUP1 DUP1 PUSH1 0x1 ADD SWAP2 POP POP PUSH2 0xB93 JUMP JUMPDEST POP POP JUMP JUMPDEST PUSH1 0x2 DUP2 SWAP1 DUP1 PUSH1 0x1 DUP2 SLOAD ADD DUP1 DUP3 SSTORE DUP1 SWAP2 POP POP PUSH1 0x1 SWAP1 SUB SWAP1 PUSH0 MSTORE PUSH1 0x20 PUSH0 KECCAK256 ADD PUSH0 SWAP1 SWAP2 SWAP1 SWAP2 SWAP1 SWAP2 PUSH2 0x100 EXP DUP2 SLOAD DUP2 PUSH20 0xFFFFFFFFFFFFFFFFFFFFFFFFFFFFFFFFFFFFFFFF MUL NOT AND SWAP1 DUP4 PUSH20 0xFFFFFFFFFFFFFFFFFFFFFFFFFFFFFFFFFFFFFFFF AND MUL OR SWAP1 SSTORE POP PUSH1 0x3 PUSH0 DUP2 SLOAD DUP1 SWAP3 SWAP2 SWAP1 PUSH2 0xCEE SWAP1 PUSH2 0x1C10 JUMP JUMPDEST SWAP2 SWAP1 POP SSTORE POP POP JUMP JUMPDEST PUSH1 0x1 SLOAD DUP2 PUSH1 0x40 ADD MLOAD EQ PUSH2 0xD3E JUMPI PUSH1 0x40 MLOAD PUSH32 0x8C379A000000000000000000000000000000000000000000000000000000000 DUP2 MSTORE PUSH1 0x4 ADD PUSH2 0xD35 SWAP1 PUSH2 0x1FF7 JUMP JUMPDEST PUSH1 0x40 MLOAD DUP1 SWAP2 SUB SWAP1 REVERT JUMPDEST PUSH0 DUP2 SWAP1 DUP1 PUSH1 0x1 DUP2 SLOAD ADD DUP1 DUP3 SSTORE DUP1 SWAP2 POP POP PUSH1 0x1 SWAP1 SUB SWAP1 PUSH0 MSTORE PUSH1 0x20 PUSH0 KECCAK256 SWAP1 PUSH1 0x4 MUL ADD PUSH0 SWAP1 SWAP2 SWAP1 SWAP2 SWAP1 SWAP2 POP PUSH0 DUP3 ADD MLOAD DUP2 PUSH0 ADD SSTORE PUSH1 0x20 DUP3 ADD MLOAD DUP2 PUSH1 0x1 ADD SSTORE PUSH1 0x40 DUP3 ADD MLOAD DUP2 PUSH1 0x2 ADD SSTORE PUSH1 0x60 DUP3 ADD MLOAD DUP2 PUSH1 0x3 ADD SWAP1 DUP2 PUSH2 0xD97 SWAP2 SWAP1 PUSH2 0x1918 JUMP JUMPDEST POP POP POP PUSH1 0x1 PUSH0 DUP2 SLOAD DUP1 SWAP3 SWAP2 SWAP1 PUSH2 0xDAC SWAP1 PUSH2 0x1C10 JUMP JUMPDEST SWAP2 SWAP1 POP SSTORE POP PUSH1 0x40 MLOAD DUP1 PUSH1 0x20 ADD PUSH1 0x40 MSTORE DUP1 PUSH0 DUP2 MSTORE POP PUSH1 0x7 SWAP1 DUP2 PUSH2 0xDCE SWAP2 SWAP1 PUSH2 0x1918 JUMP JUMPDEST POP PUSH0 PUSH1 0x8 DUP2 SWAP1 SSTORE POP PUSH1 0x9 PUSH0 PUSH0 DUP3 ADD PUSH0 SWAP1 SSTORE PUSH1 0x1 DUP3 ADD PUSH0 SWAP1 SSTORE PUSH1 0x2 DUP3 ADD PUSH0 SWAP1 SSTORE PUSH1 0x3 DUP3 ADD PUSH0 PUSH2 0xDFC SWAP2 SWAP1 PUSH2 0x1110 JUMP JUMPDEST POP POP POP JUMP JUMPDEST PUSH0 DUP3 DUP3 DUP1 DUP1 PUSH1 0x1F ADD PUSH1 0x20 DUP1 SWAP2 DIV MUL PUSH1 0x20 ADD PUSH1 0x40 MLOAD SWAP1 DUP2 ADD PUSH1 0x40 MSTORE DUP1 SWAP4 SWAP3 SWAP2 SWAP1 DUP2 DUP2 MSTORE PUSH1 0x20 ADD DUP4 DUP4 DUP1 DUP3 DUP5 CALLDATACOPY PUSH0 DUP2 DUP5 ADD MSTORE PUSH1 0x1F NOT PUSH1 0x1F DUP3 ADD AND SWAP1 POP DUP1 DUP4 ADD SWAP3 POP POP POP POP POP POP POP SWAP1 POP PUSH0 DUP2 MLOAD SUB PUSH2 0xE8B JUMPI PUSH1 0x40 MLOAD PUSH32 0x8C379A000000000000000000000000000000000000000000000000000000000 DUP2 MSTORE PUSH1 0x4 ADD PUSH2 0xE82 SWAP1 PUSH2 0x205F JUMP JUMPDEST PUSH1 0x40 MLOAD DUP1 SWAP2 SUB SWAP1 REVERT JUMPDEST DUP3 DUP3 PUSH1 0x7 SWAP2 DUP3 PUSH2 0xE9C SWAP3 SWAP2 SWAP1 PUSH2 0x2087 JUMP JUMPDEST POP PUSH2 0xF2E PUSH1 0x7 DUP1 SLOAD PUSH2 0xEAD SWAP1 PUSH2 0x1751 JUMP JUMPDEST DUP1 PUSH1 0x1F ADD PUSH1 0x20 DUP1 SWAP2 DIV MUL PUSH1 0x20 ADD PUSH1 0x40 MLOAD SWAP1 DUP2 ADD PUSH1 0x40 MSTORE DUP1 SWAP3 SWAP2 SWAP1 DUP2 DUP2 MSTORE PUSH1 0x20 ADD DUP3 DUP1 SLOAD PUSH2 0xED9 SWAP1 PUSH2 0x1751 JUMP JUMPDEST DUP1 ISZERO PUSH2 0xF24 JUMPI DUP1 PUSH1 0x1F LT PUSH2 0xEFB JUMPI PUSH2 0x100 DUP1 DUP4 SLOAD DIV MUL DUP4 MSTORE SWAP2 PUSH1 0x20 ADD SWAP2 PUSH2 0xF24 JUMP JUMPDEST DUP3 ADD SWAP2 SWAP1 PUSH0 MSTORE PUSH1 0x20 PUSH0 KECCAK256 SWAP1 JUMPDEST DUP2 SLOAD DUP2 MSTORE SWAP1 PUSH1 0x1 ADD SWAP1 PUSH1 0x20 ADD DUP1 DUP4 GT PUSH2 0xF07 JUMPI DUP3 SWAP1 SUB PUSH1 0x1F AND DUP3 ADD SWAP2 JUMPDEST POP POP POP POP POP PUSH2 0xFB7 JUMP JUMPDEST PUSH1 0x9 PUSH0 DUP3 ADD MLOAD DUP2 PUSH0 ADD SSTORE PUSH1 0x20 DUP3 ADD MLOAD DUP2 PUSH1 0x1 ADD SSTORE PUSH1 0x40 DUP3 ADD MLOAD DUP2 PUSH1 0x2 ADD SSTORE PUSH1 0x60 DUP3 ADD MLOAD DUP2 PUSH1 0x3 ADD SWAP1 DUP2 PUSH2 0xF61 SWAP2 SWAP1 PUSH2 0x1918 JUMP JUMPDEST POP SWAP1 POP POP PUSH2 0xFB2 ADDRESS DUP5 DUP5 DUP1 DUP1 PUSH1 0x1F ADD PUSH1 0x20 DUP1 SWAP2 DIV MUL PUSH1 0x20 ADD PUSH1 0x40 MLOAD SWAP1 DUP2 ADD PUSH1 0x40 MSTORE DUP1 SWAP4 SWAP3 SWAP2 SWAP1 DUP2 DUP2 MSTORE PUSH1 0x20 ADD DUP4 DUP4 DUP1 DUP3 DUP5 CALLDATACOPY PUSH0 DUP2 DUP5 ADD MSTORE PUSH1 0x1F NOT PUSH1 0x1F DUP3 ADD AND SWAP1 POP DUP1 DUP4 ADD SWAP3 POP POP POP POP POP POP POP PUSH2 0x276 JUMP JUMPDEST POP POP POP JUMP JUMPDEST PUSH2 0xFBF PUSH2 0x114D JUMP JUMPDEST PUSH0 PUSH0 PUSH1 0x1 DUP1 SLOAD PUSH2 0xFCF SWAP2 SWAP1 PUSH2 0x1A42 JUMP JUMPDEST DUP2 SLOAD DUP2 LT PUSH2 0xFE0 JUMPI PUSH2 0xFDF PUSH2 0x1A75 JUMP JUMPDEST JUMPDEST SWAP1 PUSH0 MSTORE PUSH1 0x20 PUSH0 KECCAK256 SWAP1 PUSH1 0x4 MUL ADD PUSH1 0x40 MLOAD DUP1 PUSH1 0x80 ADD PUSH1 0x40 MSTORE SWAP1 DUP2 PUSH0 DUP3 ADD SLOAD DUP2 MSTORE PUSH1 0x20 ADD PUSH1 0x1 DUP3 ADD SLOAD DUP2 MSTORE PUSH1 0x20 ADD PUSH1 0x2 DUP3 ADD SLOAD DUP2 MSTORE PUSH1 0x20 ADD PUSH1 0x3 DUP3 ADD DUP1 SLOAD PUSH2 0x1024 SWAP1 PUSH2 0x1751 JUMP JUMPDEST DUP1 PUSH1 0x1F ADD PUSH1 0x20 DUP1 SWAP2 DIV MUL PUSH1 0x20 ADD PUSH1 0x40 MLOAD SWAP1 DUP2 ADD PUSH1 0x40 MSTORE DUP1 SWAP3 SWAP2 SWAP1 DUP2 DUP2 MSTORE PUSH1 0x20 ADD DUP3 DUP1 SLOAD PUSH2 0x1050 SWAP1 PUSH2 0x1751 JUMP JUMPDEST DUP1 ISZERO PUSH2 0x109B JUMPI DUP1 PUSH1 0x1F LT PUSH2 0x1072 JUMPI PUSH2 0x100 DUP1 DUP4 SLOAD DIV MUL DUP4 MSTORE SWAP2 PUSH1 0x20 ADD SWAP2 PUSH2 0x109B JUMP JUMPDEST DUP3 ADD SWAP2 SWAP1 PUSH0 MSTORE PUSH1 0x20 PUSH0 KECCAK256 SWAP1 JUMPDEST DUP2 SLOAD DUP2 MSTORE SWAP1 PUSH1 0x1 ADD SWAP1 PUSH1 0x20 ADD DUP1 DUP4 GT PUSH2 0x107E JUMPI DUP3 SWAP1 SUB PUSH1 0x1F AND DUP3 ADD SWAP2 JUMPDEST POP POP POP POP POP DUP2 MSTORE POP POP SWAP1 POP PUSH0 PUSH1 0x40 MLOAD DUP1 PUSH1 0x80 ADD PUSH1 0x40 MSTORE DUP1 PUSH2 0x10BB DUP7 PUSH2 0x10E1 JUMP JUMPDEST DUP2 MSTORE PUSH1 0x20 ADD DUP4 PUSH0 ADD MLOAD DUP2 MSTORE PUSH1 0x20 ADD PUSH1 0x1 SLOAD DUP2 MSTORE PUSH1 0x20 ADD DUP6 DUP2 MSTORE POP SWAP1 POP DUP1 SWAP3 POP POP POP SWAP2 SWAP1 POP JUMP JUMPDEST PUSH0 DUP2 PUSH1 0x40 MLOAD PUSH1 0x20 ADD PUSH2 0x10F3 SWAP2 SWAP1 PUSH2 0x218E JUMP JUMPDEST PUSH1 0x40 MLOAD PUSH1 0x20 DUP2 DUP4 SUB SUB DUP2 MSTORE SWAP1 PUSH1 0x40 MSTORE DUP1 MLOAD SWAP1 PUSH1 0x20 ADD KECCAK256 SWAP1 POP SWAP2 SWAP1 POP JUMP JUMPDEST POP DUP1 SLOAD PUSH2 0x111C SWAP1 PUSH2 0x1751 JUMP JUMPDEST PUSH0 DUP3 SSTORE DUP1 PUSH1 0x1F LT PUSH2 0x112D JUMPI POP PUSH2 0x114A JUMP JUMPDEST PUSH1 0x1F ADD PUSH1 0x20 SWAP1 DIV SWAP1 PUSH0 MSTORE PUSH1 0x20 PUSH0 KECCAK256 SWAP1 DUP2 ADD SWAP1 PUSH2 0x1149 SWAP2 SWAP1 PUSH2 0x1172 JUMP JUMPDEST JUMPDEST POP JUMP JUMPDEST PUSH1 0x40 MLOAD DUP1 PUSH1 0x80 ADD PUSH1 0x40 MSTORE DUP1 PUSH0 DUP2 MSTORE PUSH1 0x20 ADD PUSH0 DUP2 MSTORE PUSH1 0x20 ADD PUSH0 DUP2 MSTORE PUSH1 0x20 ADD PUSH1 0x60 DUP2 MSTORE POP SWAP1 JUMP JUMPDEST JUMPDEST DUP1 DUP3 GT ISZERO PUSH2 0x1189 JUMPI PUSH0 DUP2 PUSH0 SWAP1 SSTORE POP PUSH1 0x1 ADD PUSH2 0x1173 JUMP JUMPDEST POP SWAP1 JUMP JUMPDEST PUSH0 PUSH1 0x40 MLOAD SWAP1 POP SWAP1 JUMP JUMPDEST PUSH0 PUSH0 REVERT JUMPDEST PUSH0 PUSH0 REVERT JUMPDEST PUSH0 PUSH20 0xFFFFFFFFFFFFFFFFFFFFFFFFFFFFFFFFFFFFFFFF DUP3 AND SWAP1 POP SWAP2 SWAP1 POP JUMP JUMPDEST PUSH0 PUSH2 0x11C7 DUP3 PUSH2 0x119E JUMP JUMPDEST SWAP1 POP SWAP2 SWAP1 POP JUMP JUMPDEST PUSH2 0x11D7 DUP2 PUSH2 0x11BD JUMP JUMPDEST DUP2 EQ PUSH2 0x11E1 JUMPI PUSH0 PUSH0 REVERT JUMPDEST POP JUMP JUMPDEST PUSH0 DUP2 CALLDATALOAD SWAP1 POP PUSH2 0x11F2 DUP2 PUSH2 0x11CE JUMP JUMPDEST SWAP3 SWAP2 POP POP JUMP JUMPDEST PUSH0 PUSH0 REVERT JUMPDEST PUSH0 PUSH0 REVERT JUMPDEST PUSH0 PUSH1 0x1F NOT PUSH1 0x1F DUP4 ADD AND SWAP1 POP SWAP2 SWAP1 POP JUMP JUMPDEST PUSH32 0x4E487B7100000000000000000000000000000000000000000000000000000000 PUSH0 MSTORE PUSH1 0x41 PUSH1 0x4 MSTORE PUSH1 0x24 PUSH0 REVERT JUMPDEST PUSH2 0x1246 DUP3 PUSH2 0x1200 JUMP JUMPDEST DUP2 ADD DUP2 DUP2 LT PUSH8 0xFFFFFFFFFFFFFFFF DUP3 GT OR ISZERO PUSH2 0x1265 JUMPI PUSH2 0x1264 PUSH2 0x1210 JUMP JUMPDEST JUMPDEST DUP1 PUSH1 0x40 MSTORE POP POP POP JUMP JUMPDEST PUSH0 PUSH2 0x1277 PUSH2 0x118D JUMP JUMPDEST SWAP1 POP PUSH2 0x1283 DUP3 DUP3 PUSH2 0x123D JUMP JUMPDEST SWAP2 SWAP1 POP JUMP JUMPDEST PUSH0 PUSH8 0xFFFFFFFFFFFFFFFF DUP3 GT ISZERO PUSH2 0x12A2 JUMPI PUSH2 0x12A1 PUSH2 0x1210 JUMP JUMPDEST JUMPDEST PUSH2 0x12AB DUP3 PUSH2 0x1200 JUMP JUMPDEST SWAP1 POP PUSH1 0x20 DUP2 ADD SWAP1 POP SWAP2 SWAP1 POP JUMP JUMPDEST DUP3 DUP2 DUP4 CALLDATACOPY PUSH0 DUP4 DUP4 ADD MSTORE POP POP POP JUMP JUMPDEST PUSH0 PUSH2 0x12D8 PUSH2 0x12D3 DUP5 PUSH2 0x1288 JUMP JUMPDEST PUSH2 0x126E JUMP JUMPDEST SWAP1 POP DUP3 DUP2 MSTORE PUSH1 0x20 DUP2 ADD DUP5 DUP5 DUP5 ADD GT ISZERO PUSH2 0x12F4 JUMPI PUSH2 0x12F3 PUSH2 0x11FC JUMP JUMPDEST JUMPDEST PUSH2 0x12FF DUP5 DUP3 DUP6 PUSH2 0x12B8 JUMP JUMPDEST POP SWAP4 SWAP3 POP POP POP JUMP JUMPDEST PUSH0 DUP3 PUSH1 0x1F DUP4 ADD SLT PUSH2 0x131B JUMPI PUSH2 0x131A PUSH2 0x11F8 JUMP JUMPDEST JUMPDEST DUP2 CALLDATALOAD PUSH2 0x132B DUP5 DUP3 PUSH1 0x20 DUP7 ADD PUSH2 0x12C6 JUMP JUMPDEST SWAP2 POP POP SWAP3 SWAP2 POP POP JUMP JUMPDEST PUSH0 PUSH0 PUSH1 0x40 DUP4 DUP6 SUB SLT ISZERO PUSH2 0x134A JUMPI PUSH2 0x1349 PUSH2 0x1196 JUMP JUMPDEST JUMPDEST PUSH0 PUSH2 0x1357 DUP6 DUP3 DUP7 ADD PUSH2 0x11E4 JUMP JUMPDEST SWAP3 POP POP PUSH1 0x20 DUP4 ADD CALLDATALOAD PUSH8 0xFFFFFFFFFFFFFFFF DUP2 GT ISZERO PUSH2 0x1378 JUMPI PUSH2 0x1377 PUSH2 0x119A JUMP JUMPDEST JUMPDEST PUSH2 0x1384 DUP6 DUP3 DUP7 ADD PUSH2 0x1307 JUMP JUMPDEST SWAP2 POP POP SWAP3 POP SWAP3 SWAP1 POP JUMP JUMPDEST PUSH0 DUP2 SWAP1 POP SWAP2 SWAP1 POP JUMP JUMPDEST PUSH0 PUSH2 0x13B1 PUSH2 0x13AC PUSH2 0x13A7 DUP5 PUSH2 0x119E JUMP JUMPDEST PUSH2 0x138E JUMP JUMPDEST PUSH2 0x119E JUMP JUMPDEST SWAP1 POP SWAP2 SWAP1 POP JUMP JUMPDEST PUSH0 PUSH2 0x13C2 DUP3 PUSH2 0x1397 JUMP JUMPDEST SWAP1 POP SWAP2 SWAP1 POP JUMP JUMPDEST PUSH0 PUSH2 0x13D3 DUP3 PUSH2 0x13B8 JUMP JUMPDEST SWAP1 POP SWAP2 SWAP1 POP JUMP JUMPDEST PUSH2 0x13E3 DUP2 PUSH2 0x13C9 JUMP JUMPDEST DUP3 MSTORE POP POP JUMP JUMPDEST PUSH0 PUSH1 0x20 DUP3 ADD SWAP1 POP PUSH2 0x13FC PUSH0 DUP4 ADD DUP5 PUSH2 0x13DA JUMP JUMPDEST SWAP3 SWAP2 POP POP JUMP JUMPDEST PUSH0 PUSH0 REVERT JUMPDEST PUSH0 PUSH0 REVERT JUMPDEST PUSH0 DUP2 SWAP1 POP SWAP2 SWAP1 POP JUMP JUMPDEST PUSH2 0x141C DUP2 PUSH2 0x140A JUMP JUMPDEST DUP2 EQ PUSH2 0x1426 JUMPI PUSH0 PUSH0 REVERT JUMPDEST POP JUMP JUMPDEST PUSH0 DUP2 CALLDATALOAD SWAP1 POP PUSH2 0x1437 DUP2 PUSH2 0x1413 JUMP JUMPDEST SWAP3 SWAP2 POP POP JUMP JUMPDEST PUSH0 DUP2 SWAP1 POP SWAP2 SWAP1 POP JUMP JUMPDEST PUSH2 0x144F DUP2 PUSH2 0x143D JUMP JUMPDEST DUP2 EQ PUSH2 0x1459 JUMPI PUSH0 PUSH0 REVERT JUMPDEST POP JUMP JUMPDEST PUSH0 DUP2 CALLDATALOAD SWAP1 POP PUSH2 0x146A DUP2 PUSH2 0x1446 JUMP JUMPDEST SWAP3 SWAP2 POP POP JUMP JUMPDEST PUSH0 PUSH1 0x80 DUP3 DUP5 SUB SLT ISZERO PUSH2 0x1485 JUMPI PUSH2 0x1484 PUSH2 0x1402 JUMP JUMPDEST JUMPDEST PUSH2 0x148F PUSH1 0x80 PUSH2 0x126E JUMP JUMPDEST SWAP1 POP PUSH0 PUSH2 0x149E DUP5 DUP3 DUP6 ADD PUSH2 0x1429 JUMP JUMPDEST PUSH0 DUP4 ADD MSTORE POP PUSH1 0x20 PUSH2 0x14B1 DUP5 DUP3 DUP6 ADD PUSH2 0x1429 JUMP JUMPDEST PUSH1 0x20 DUP4 ADD MSTORE POP PUSH1 0x40 PUSH2 0x14C5 DUP5 DUP3 DUP6 ADD PUSH2 0x145C JUMP JUMPDEST PUSH1 0x40 DUP4 ADD MSTORE POP PUSH1 0x60 DUP3 ADD CALLDATALOAD PUSH8 0xFFFFFFFFFFFFFFFF DUP2 GT ISZERO PUSH2 0x14E9 JUMPI PUSH2 0x14E8 PUSH2 0x1406 JUMP JUMPDEST JUMPDEST PUSH2 0x14F5 DUP5 DUP3 DUP6 ADD PUSH2 0x1307 JUMP JUMPDEST PUSH1 0x60 DUP4 ADD MSTORE POP SWAP3 SWAP2 POP POP JUMP JUMPDEST PUSH0 PUSH1 0x20 DUP3 DUP5 SUB SLT ISZERO PUSH2 0x1516 JUMPI PUSH2 0x1515 PUSH2 0x1196 JUMP JUMPDEST JUMPDEST PUSH0 DUP3 ADD CALLDATALOAD PUSH8 0xFFFFFFFFFFFFFFFF DUP2 GT ISZERO PUSH2 0x1533 JUMPI PUSH2 0x1532 PUSH2 0x119A JUMP JUMPDEST JUMPDEST PUSH2 0x153F DUP5 DUP3 DUP6 ADD PUSH2 0x1470 JUMP JUMPDEST SWAP2 POP POP SWAP3 SWAP2 POP POP JUMP JUMPDEST PUSH2 0x1551 DUP2 PUSH2 0x143D JUMP JUMPDEST DUP3 MSTORE POP POP JUMP JUMPDEST PUSH0 PUSH1 0x20 DUP3 ADD SWAP1 POP PUSH2 0x156A PUSH0 DUP4 ADD DUP5 PUSH2 0x1548 JUMP JUMPDEST SWAP3 SWAP2 POP POP JUMP JUMPDEST PUSH0 PUSH2 0x157A DUP3 PUSH2 0x13B8 JUMP JUMPDEST SWAP1 POP SWAP2 SWAP1 POP JUMP JUMPDEST PUSH2 0x158A DUP2 PUSH2 0x1570 JUMP JUMPDEST DUP3 MSTORE POP POP JUMP JUMPDEST PUSH0 PUSH1 0x20 DUP3 ADD SWAP1 POP PUSH2 0x15A3 PUSH0 DUP4 ADD DUP5 PUSH2 0x1581 JUMP JUMPDEST SWAP3 SWAP2 POP POP JUMP JUMPDEST PUSH2 0x15B2 DUP2 PUSH2 0x11BD JUMP JUMPDEST DUP3 MSTORE POP POP JUMP JUMPDEST PUSH0 PUSH1 0x20 DUP3 ADD SWAP1 POP PUSH2 0x15CB PUSH0 DUP4 ADD DUP5 PUSH2 0x15A9 JUMP JUMPDEST SWAP3 SWAP2 POP POP JUMP JUMPDEST PUSH0 PUSH1 0x20 DUP3 DUP5 SUB SLT ISZERO PUSH2 0x15E6 JUMPI PUSH2 0x15E5 PUSH2 0x1196 JUMP JUMPDEST JUMPDEST PUSH0 PUSH2 0x15F3 DUP5 DUP3 DUP6 ADD PUSH2 0x11E4 JUMP JUMPDEST SWAP2 POP POP SWAP3 SWAP2 POP POP JUMP JUMPDEST PUSH0 DUP2 MLOAD SWAP1 POP SWAP2 SWAP1 POP JUMP JUMPDEST PUSH0 DUP3 DUP3 MSTORE PUSH1 0x20 DUP3 ADD SWAP1 POP SWAP3 SWAP2 POP POP JUMP JUMPDEST DUP3 DUP2 DUP4 MCOPY PUSH0 DUP4 DUP4 ADD MSTORE POP POP POP JUMP JUMPDEST PUSH0 PUSH2 0x162E DUP3 PUSH2 0x15FC JUMP JUMPDEST PUSH2 0x1638 DUP2 DUP6 PUSH2 0x1606 JUMP JUMPDEST SWAP4 POP PUSH2 0x1648 DUP2 DUP6 PUSH1 0x20 DUP7 ADD PUSH2 0x1616 JUMP JUMPDEST PUSH2 0x1651 DUP2 PUSH2 0x1200 JUMP JUMPDEST DUP5 ADD SWAP2 POP POP SWAP3 SWAP2 POP POP JUMP JUMPDEST PUSH0 PUSH1 0x20 DUP3 ADD SWAP1 POP DUP2 DUP2 SUB PUSH0 DUP4 ADD MSTORE PUSH2 0x1674 DUP2 DUP5 PUSH2 0x1624 JUMP JUMPDEST SWAP1 POP SWAP3 SWAP2 POP POP JUMP JUMPDEST PUSH0 PUSH0 REVERT JUMPDEST PUSH0 PUSH0 REVERT JUMPDEST PUSH0 PUSH0 DUP4 PUSH1 0x1F DUP5 ADD SLT PUSH2 0x1699 JUMPI PUSH2 0x1698 PUSH2 0x11F8 JUMP JUMPDEST JUMPDEST DUP3 CALLDATALOAD SWAP1 POP PUSH8 0xFFFFFFFFFFFFFFFF DUP2 GT ISZERO PUSH2 0x16B6 JUMPI PUSH2 0x16B5 PUSH2 0x167C JUMP JUMPDEST JUMPDEST PUSH1 0x20 DUP4 ADD SWAP2 POP DUP4 PUSH1 0x1 DUP3 MUL DUP4 ADD GT ISZERO PUSH2 0x16D2 JUMPI PUSH2 0x16D1 PUSH2 0x1680 JUMP JUMPDEST JUMPDEST SWAP3 POP SWAP3 SWAP1 POP JUMP JUMPDEST PUSH0 PUSH0 PUSH1 0x20 DUP4 DUP6 SUB SLT ISZERO PUSH2 0x16EF JUMPI PUSH2 0x16EE PUSH2 0x1196 JUMP JUMPDEST JUMPDEST PUSH0 DUP4 ADD CALLDATALOAD PUSH8 0xFFFFFFFFFFFFFFFF DUP2 GT ISZERO PUSH2 0x170C JUMPI PUSH2 0x170B PUSH2 0x119A JUMP JUMPDEST JUMPDEST PUSH2 0x1718 DUP6 DUP3 DUP7 ADD PUSH2 0x1684 JUMP JUMPDEST SWAP3 POP SWAP3 POP POP SWAP3 POP SWAP3 SWAP1 POP JUMP JUMPDEST PUSH32 0x4E487B7100000000000000000000000000000000000000000000000000000000 PUSH0 MSTORE PUSH1 0x22 PUSH1 0x4 MSTORE PUSH1 0x24 PUSH0 REVERT JUMPDEST PUSH0 PUSH1 0x2 DUP3 DIV SWAP1 POP PUSH1 0x1 DUP3 AND DUP1 PUSH2 0x1768 JUMPI PUSH1 0x7F DUP3 AND SWAP2 POP JUMPDEST PUSH1 0x20 DUP3 LT DUP2 SUB PUSH2 0x177B JUMPI PUSH2 0x177A PUSH2 0x1724 JUMP JUMPDEST JUMPDEST POP SWAP2 SWAP1 POP JUMP JUMPDEST PUSH0 DUP2 SWAP1 POP DUP2 PUSH0 MSTORE PUSH1 0x20 PUSH0 KECCAK256 SWAP1 POP SWAP2 SWAP1 POP JUMP JUMPDEST PUSH0 PUSH1 0x20 PUSH1 0x1F DUP4 ADD DIV SWAP1 POP SWAP2 SWAP1 POP JUMP JUMPDEST PUSH0 DUP3 DUP3 SHL SWAP1 POP SWAP3 SWAP2 POP POP JUMP JUMPDEST PUSH0 PUSH1 0x8 DUP4 MUL PUSH2 0x17DD PUSH32 0xFFFFFFFFFFFFFFFFFFFFFFFFFFFFFFFFFFFFFFFFFFFFFFFFFFFFFFFFFFFFFFFF DUP3 PUSH2 0x17A2 JUMP JUMPDEST PUSH2 0x17E7 DUP7 DUP4 PUSH2 0x17A2 JUMP JUMPDEST SWAP6 POP DUP1 NOT DUP5 AND SWAP4 POP DUP1 DUP7 AND DUP5 OR SWAP3 POP POP POP SWAP4 SWAP3 POP POP POP JUMP JUMPDEST PUSH0 PUSH2 0x1819 PUSH2 0x1814 PUSH2 0x180F DUP5 PUSH2 0x143D JUMP JUMPDEST PUSH2 0x138E JUMP JUMPDEST PUSH2 0x143D JUMP JUMPDEST SWAP1 POP SWAP2 SWAP1 POP JUMP JUMPDEST PUSH0 DUP2 SWAP1 POP SWAP2 SWAP1 POP JUMP JUMPDEST PUSH2 0x1832 DUP4 PUSH2 0x17FF JUMP JUMPDEST PUSH2 0x1846 PUSH2 0x183E DUP3 PUSH2 0x1820 JUMP JUMPDEST DUP5 DUP5 SLOAD PUSH2 0x17AE JUMP JUMPDEST DUP3 SSTORE POP POP POP POP JUMP JUMPDEST PUSH0 PUSH0 SWAP1 POP SWAP1 JUMP JUMPDEST PUSH2 0x185D PUSH2 0x184E JUMP JUMPDEST PUSH2 0x1868 DUP2 DUP5 DUP5 PUSH2 0x1829 JUMP JUMPDEST POP POP POP JUMP JUMPDEST JUMPDEST DUP2 DUP2 LT ISZERO PUSH2 0x188B JUMPI PUSH2 0x1880 PUSH0 DUP3 PUSH2 0x1855 JUMP JUMPDEST PUSH1 0x1 DUP2 ADD SWAP1 POP PUSH2 0x186E JUMP JUMPDEST POP POP JUMP JUMPDEST PUSH1 0x1F DUP3 GT ISZERO PUSH2 0x18D0 JUMPI PUSH2 0x18A1 DUP2 PUSH2 0x1781 JUMP JUMPDEST PUSH2 0x18AA DUP5 PUSH2 0x1793 JUMP JUMPDEST DUP2 ADD PUSH1 0x20 DUP6 LT ISZERO PUSH2 0x18B9 JUMPI DUP2 SWAP1 POP JUMPDEST PUSH2 0x18CD PUSH2 0x18C5 DUP6 PUSH2 0x1793 JUMP JUMPDEST DUP4 ADD DUP3 PUSH2 0x186D JUMP JUMPDEST POP POP JUMPDEST POP POP POP JUMP JUMPDEST PUSH0 DUP3 DUP3 SHR SWAP1 POP SWAP3 SWAP2 POP POP JUMP JUMPDEST PUSH0 PUSH2 0x18F0 PUSH0 NOT DUP5 PUSH1 0x8 MUL PUSH2 0x18D5 JUMP JUMPDEST NOT DUP1 DUP4 AND SWAP2 POP POP SWAP3 SWAP2 POP POP JUMP JUMPDEST PUSH0 PUSH2 0x1908 DUP4 DUP4 PUSH2 0x18E1 JUMP JUMPDEST SWAP2 POP DUP3 PUSH1 0x2 MUL DUP3 OR SWAP1 POP SWAP3 SWAP2 POP POP JUMP JUMPDEST PUSH2 0x1921 DUP3 PUSH2 0x15FC JUMP JUMPDEST PUSH8 0xFFFFFFFFFFFFFFFF DUP2 GT ISZERO PUSH2 0x193A JUMPI PUSH2 0x1939 PUSH2 0x1210 JUMP JUMPDEST JUMPDEST PUSH2 0x1944 DUP3 SLOAD PUSH2 0x1751 JUMP JUMPDEST PUSH2 0x194F DUP3 DUP3 DUP6 PUSH2 0x188F JUMP JUMPDEST PUSH0 PUSH1 0x20 SWAP1 POP PUSH1 0x1F DUP4 GT PUSH1 0x1 DUP2 EQ PUSH2 0x1980 JUMPI PUSH0 DUP5 ISZERO PUSH2 0x196E JUMPI DUP3 DUP8 ADD MLOAD SWAP1 POP JUMPDEST PUSH2 0x1978 DUP6 DUP3 PUSH2 0x18FD JUMP JUMPDEST DUP7 SSTORE POP PUSH2 0x19DF JUMP JUMPDEST PUSH1 0x1F NOT DUP5 AND PUSH2 0x198E DUP7 PUSH2 0x1781 JUMP JUMPDEST PUSH0 JUMPDEST DUP3 DUP2 LT ISZERO PUSH2 0x19B5 JUMPI DUP5 DUP10 ADD MLOAD DUP3 SSTORE PUSH1 0x1 DUP3 ADD SWAP2 POP PUSH1 0x20 DUP6 ADD SWAP5 POP PUSH1 0x20 DUP2 ADD SWAP1 POP PUSH2 0x1990 JUMP JUMPDEST DUP7 DUP4 LT ISZERO PUSH2 0x19D2 JUMPI DUP5 DUP10 ADD MLOAD PUSH2 0x19CE PUSH1 0x1F DUP10 AND DUP3 PUSH2 0x18E1 JUMP JUMPDEST DUP4 SSTORE POP JUMPDEST PUSH1 0x1 PUSH1 0x2 DUP9 MUL ADD DUP9 SSTORE POP POP POP JUMPDEST POP POP POP POP POP POP JUMP JUMPDEST PUSH0 PUSH1 0x40 DUP3 ADD SWAP1 POP PUSH2 0x19FA PUSH0 DUP4 ADD DUP6 PUSH2 0x15A9 JUMP JUMPDEST DUP2 DUP2 SUB PUSH1 0x20 DUP4 ADD MSTORE PUSH2 0x1A0C DUP2 DUP5 PUSH2 0x1624 JUMP JUMPDEST SWAP1 POP SWAP4 SWAP3 POP POP POP JUMP JUMPDEST PUSH32 0x4E487B7100000000000000000000000000000000000000000000000000000000 PUSH0 MSTORE PUSH1 0x11 PUSH1 0x4 MSTORE PUSH1 0x24 PUSH0 REVERT JUMPDEST PUSH0 PUSH2 0x1A4C DUP3 PUSH2 0x143D JUMP JUMPDEST SWAP2 POP PUSH2 0x1A57 DUP4 PUSH2 0x143D JUMP JUMPDEST SWAP3 POP DUP3 DUP3 SUB SWAP1 POP DUP2 DUP2 GT ISZERO PUSH2 0x1A6F JUMPI PUSH2 0x1A6E PUSH2 0x1A15 JUMP JUMPDEST JUMPDEST SWAP3 SWAP2 POP POP JUMP JUMPDEST PUSH32 0x4E487B7100000000000000000000000000000000000000000000000000000000 PUSH0 MSTORE PUSH1 0x32 PUSH1 0x4 MSTORE PUSH1 0x24 PUSH0 REVERT JUMPDEST PUSH0 PUSH2 0x1AAC DUP3 PUSH2 0x143D JUMP JUMPDEST SWAP2 POP PUSH2 0x1AB7 DUP4 PUSH2 0x143D JUMP JUMPDEST SWAP3 POP DUP3 DUP3 ADD SWAP1 POP DUP1 DUP3 GT ISZERO PUSH2 0x1ACF JUMPI PUSH2 0x1ACE PUSH2 0x1A15 JUMP JUMPDEST JUMPDEST SWAP3 SWAP2 POP POP JUMP JUMPDEST PUSH0 PUSH2 0x1ADF DUP3 PUSH2 0x143D JUMP JUMPDEST SWAP2 POP PUSH2 0x1AEA DUP4 PUSH2 0x143D JUMP JUMPDEST SWAP3 POP DUP3 DUP3 MUL PUSH2 0x1AF8 DUP2 PUSH2 0x143D JUMP JUMPDEST SWAP2 POP DUP3 DUP3 DIV DUP5 EQ DUP4 ISZERO OR PUSH2 0x1B0F JUMPI PUSH2 0x1B0E PUSH2 0x1A15 JUMP JUMPDEST JUMPDEST POP SWAP3 SWAP2 POP POP JUMP JUMPDEST PUSH0 DUP2 SLOAD SWAP1 POP PUSH2 0x1B24 DUP2 PUSH2 0x1751 JUMP JUMPDEST SWAP1 POP SWAP2 SWAP1 POP JUMP JUMPDEST DUP2 DUP2 SUB PUSH2 0x1B39 JUMPI POP POP PUSH2 0x1C0E JUMP JUMPDEST PUSH2 0x1B42 DUP3 PUSH2 0x1B16 JUMP JUMPDEST PUSH8 0xFFFFFFFFFFFFFFFF DUP2 GT ISZERO PUSH2 0x1B5B JUMPI PUSH2 0x1B5A PUSH2 0x1210 JUMP JUMPDEST JUMPDEST PUSH2 0x1B65 DUP3 SLOAD PUSH2 0x1751 JUMP JUMPDEST PUSH2 0x1B70 DUP3 DUP3 DUP6 PUSH2 0x188F JUMP JUMPDEST PUSH0 PUSH1 0x1F DUP4 GT PUSH1 0x1 DUP2 EQ PUSH2 0x1B9D JUMPI PUSH0 DUP5 ISZERO PUSH2 0x1B8B JUMPI DUP3 DUP8 ADD SLOAD SWAP1 POP JUMPDEST PUSH2 0x1B95 DUP6 DUP3 PUSH2 0x18FD JUMP JUMPDEST DUP7 SSTORE POP PUSH2 0x1C07 JUMP JUMPDEST PUSH1 0x1F NOT DUP5 AND PUSH2 0x1BAB DUP8 PUSH2 0x1781 JUMP JUMPDEST SWAP7 POP PUSH2 0x1BB6 DUP7 PUSH2 0x1781 JUMP JUMPDEST PUSH0 JUMPDEST DUP3 DUP2 LT ISZERO PUSH2 0x1BDD JUMPI DUP5 DUP10 ADD SLOAD DUP3 SSTORE PUSH1 0x1 DUP3 ADD SWAP2 POP PUSH1 0x1 DUP6 ADD SWAP5 POP PUSH1 0x20 DUP2 ADD SWAP1 POP PUSH2 0x1BB8 JUMP JUMPDEST DUP7 DUP4 LT ISZERO PUSH2 0x1BFA JUMPI DUP5 DUP10 ADD SLOAD PUSH2 0x1BF6 PUSH1 0x1F DUP10 AND DUP3 PUSH2 0x18E1 JUMP JUMPDEST DUP4 SSTORE POP JUMPDEST PUSH1 0x1 PUSH1 0x2 DUP9 MUL ADD DUP9 SSTORE POP POP POP JUMPDEST POP POP POP POP POP POP JUMPDEST JUMP JUMPDEST PUSH0 PUSH2 0x1C1A DUP3 PUSH2 0x143D JUMP JUMPDEST SWAP2 POP PUSH32 0xFFFFFFFFFFFFFFFFFFFFFFFFFFFFFFFFFFFFFFFFFFFFFFFFFFFFFFFFFFFFFFFF DUP3 SUB PUSH2 0x1C4C JUMPI PUSH2 0x1C4B PUSH2 0x1A15 JUMP JUMPDEST JUMPDEST PUSH1 0x1 DUP3 ADD SWAP1 POP SWAP2 SWAP1 POP JUMP JUMPDEST PUSH0 DUP2 MLOAD SWAP1 POP PUSH2 0x1C65 DUP2 PUSH2 0x11CE JUMP JUMPDEST SWAP3 SWAP2 POP POP JUMP JUMPDEST PUSH0 PUSH1 0x20 DUP3 DUP5 SUB SLT ISZERO PUSH2 0x1C80 JUMPI PUSH2 0x1C7F PUSH2 0x1196 JUMP JUMPDEST JUMPDEST PUSH0 PUSH2 0x1C8D DUP5 DUP3 DUP6 ADD PUSH2 0x1C57 JUMP JUMPDEST SWAP2 POP POP SWAP3 SWAP2 POP POP JUMP JUMPDEST PUSH0 DUP2 PUSH0 SHR SWAP1 POP SWAP2 SWAP1 POP JUMP JUMPDEST PUSH0 DUP2 SWAP1 POP SWAP2 SWAP1 POP JUMP JUMPDEST PUSH0 PUSH2 0x1CBC PUSH2 0x1CB7 DUP4 PUSH2 0x1C96 JUMP JUMPDEST PUSH2 0x1CA1 JUMP JUMPDEST SWAP1 POP SWAP2 SWAP1 POP JUMP JUMPDEST PUSH2 0x1CCC DUP2 PUSH2 0x140A JUMP JUMPDEST DUP3 MSTORE POP POP JUMP JUMPDEST PUSH0 DUP2 SWAP1 POP SWAP2 SWAP1 POP JUMP JUMPDEST PUSH0 PUSH2 0x1CED PUSH2 0x1CE8 DUP4 PUSH2 0x1C96 JUMP JUMPDEST PUSH2 0x1CD2 JUMP JUMPDEST SWAP1 POP SWAP2 SWAP1 POP JUMP JUMPDEST PUSH2 0x1CFD DUP2 PUSH2 0x143D JUMP JUMPDEST DUP3 MSTORE POP POP JUMP JUMPDEST PUSH0 DUP3 DUP3 MSTORE PUSH1 0x20 DUP3 ADD SWAP1 POP SWAP3 SWAP2 POP POP JUMP JUMPDEST PUSH0 DUP2 SLOAD PUSH2 0x1D1F DUP2 PUSH2 0x1751 JUMP JUMPDEST PUSH2 0x1D29 DUP2 DUP7 PUSH2 0x1D03 JUMP JUMPDEST SWAP5 POP PUSH1 0x1 DUP3 AND PUSH0 DUP2 EQ PUSH2 0x1D43 JUMPI PUSH1 0x1 DUP2 EQ PUSH2 0x1D59 JUMPI PUSH2 0x1D8B JUMP JUMPDEST PUSH1 0xFF NOT DUP4 AND DUP7 MSTORE DUP2 ISZERO ISZERO PUSH1 0x20 MUL DUP7 ADD SWAP4 POP PUSH2 0x1D8B JUMP JUMPDEST PUSH2 0x1D62 DUP6 PUSH2 0x1781 JUMP JUMPDEST PUSH0 JUMPDEST DUP4 DUP2 LT ISZERO PUSH2 0x1D83 JUMPI DUP2 SLOAD DUP2 DUP10 ADD MSTORE PUSH1 0x1 DUP3 ADD SWAP2 POP PUSH1 0x20 DUP2 ADD SWAP1 POP PUSH2 0x1D64 JUMP JUMPDEST DUP1 DUP9 ADD SWAP6 POP POP POP JUMPDEST POP POP POP SWAP3 SWAP2 POP POP JUMP JUMPDEST PUSH0 PUSH1 0x80 DUP4 ADD PUSH0 PUSH0 DUP5 ADD SLOAD SWAP1 POP PUSH2 0x1DA9 DUP2 PUSH2 0x1CAA JUMP JUMPDEST PUSH2 0x1DB5 PUSH0 DUP8 ADD DUP3 PUSH2 0x1CC3 JUMP JUMPDEST POP PUSH1 0x1 DUP5 ADD SLOAD SWAP1 POP PUSH2 0x1DC6 DUP2 PUSH2 0x1CAA JUMP JUMPDEST PUSH2 0x1DD3 PUSH1 0x20 DUP8 ADD DUP3 PUSH2 0x1CC3 JUMP JUMPDEST POP PUSH1 0x2 DUP5 ADD SLOAD SWAP1 POP PUSH2 0x1DE4 DUP2 PUSH2 0x1CDB JUMP JUMPDEST PUSH2 0x1DF1 PUSH1 0x40 DUP8 ADD DUP3 PUSH2 0x1CF4 JUMP JUMPDEST POP PUSH1 0x3 DUP5 ADD DUP6 DUP4 SUB PUSH1 0x60 DUP8 ADD MSTORE PUSH2 0x1E08 DUP4 DUP3 PUSH2 0x1D13 JUMP JUMPDEST SWAP3 POP POP DUP2 SWAP3 POP POP POP SWAP3 SWAP2 POP POP JUMP JUMPDEST PUSH0 PUSH1 0x20 DUP3 ADD SWAP1 POP DUP2 DUP2 SUB PUSH0 DUP4 ADD MSTORE PUSH2 0x1E2E DUP2 DUP5 PUSH2 0x1D94 JUMP JUMPDEST SWAP1 POP SWAP3 SWAP2 POP POP JUMP JUMPDEST PUSH32 0x4E6F20626C6F636B2070726F706F736564000000000000000000000000000000 PUSH0 DUP3 ADD MSTORE POP JUMP JUMPDEST PUSH0 PUSH2 0x1E6A PUSH1 0x11 DUP4 PUSH2 0x1606 JUMP JUMPDEST SWAP2 POP PUSH2 0x1E75 DUP3 PUSH2 0x1E36 JUMP JUMPDEST PUSH1 0x20 DUP3 ADD SWAP1 POP SWAP2 SWAP1 POP JUMP JUMPDEST PUSH0 PUSH1 0x20 DUP3 ADD SWAP1 POP DUP2 DUP2 SUB PUSH0 DUP4 ADD MSTORE PUSH2 0x1E97 DUP2 PUSH2 0x1E5E JUMP JUMPDEST SWAP1 POP SWAP2 SWAP1 POP JUMP JUMPDEST PUSH32 0x4E6F742073656C65637465642070726F706F7365720000000000000000000000 PUSH0 DUP3 ADD MSTORE POP JUMP JUMPDEST PUSH0 PUSH2 0x1ED2 PUSH1 0x15 DUP4 PUSH2 0x1606 JUMP JUMPDEST SWAP2 POP PUSH2 0x1EDD DUP3 PUSH2 0x1E9E JUMP JUMPDEST PUSH1 0x20 DUP3 ADD SWAP1 POP SWAP2 SWAP1 POP JUMP JUMPDEST PUSH0 PUSH1 0x20 DUP3 ADD SWAP1 POP DUP2 DUP2 SUB PUSH0 DUP4 ADD MSTORE PUSH2 0x1EFF DUP2 PUSH2 0x1EC6 JUMP JUMPDEST SWAP1 POP SWAP2 SWAP1 POP JUMP JUMPDEST PUSH32 0x5374616B65207265717569726564000000000000000000000000000000000000 PUSH0 DUP3 ADD MSTORE POP JUMP JUMPDEST PUSH0 PUSH2 0x1F3A PUSH1 0xE DUP4 PUSH2 0x1606 JUMP JUMPDEST SWAP2 POP PUSH2 0x1F45 DUP3 PUSH2 0x1F06 JUMP JUMPDEST PUSH1 0x20 DUP3 ADD SWAP1 POP SWAP2 SWAP1 POP JUMP JUMPDEST PUSH0 PUSH1 0x20 DUP3 ADD SWAP1 POP DUP2 DUP2 SUB PUSH0 DUP4 ADD MSTORE PUSH2 0x1F67 DUP2 PUSH2 0x1F2E JUMP JUMPDEST SWAP1 POP SWAP2 SWAP1 POP JUMP JUMPDEST PUSH0 DUP2 MLOAD SWAP1 POP PUSH2 0x1F7C DUP2 PUSH2 0x1446 JUMP JUMPDEST SWAP3 SWAP2 POP POP JUMP JUMPDEST PUSH0 PUSH1 0x20 DUP3 DUP5 SUB SLT ISZERO PUSH2 0x1F97 JUMPI PUSH2 0x1F96 PUSH2 0x1196 JUMP JUMPDEST JUMPDEST PUSH0 PUSH2 0x1FA4 DUP5 DUP3 DUP6 ADD PUSH2 0x1F6E JUMP JUMPDEST SWAP2 POP POP SWAP3 SWAP2 POP POP JUMP JUMPDEST PUSH32 0x426C6F636B2070726F706F73616C206661696C75726500000000000000000000 PUSH0 DUP3 ADD MSTORE POP JUMP JUMPDEST PUSH0 PUSH2 0x1FE1 PUSH1 0x16 DUP4 PUSH2 0x1606 JUMP JUMPDEST SWAP2 POP PUSH2 0x1FEC DUP3 PUSH2 0x1FAD JUMP JUMPDEST PUSH1 0x20 DUP3 ADD SWAP1 POP SWAP2 SWAP1 POP JUMP JUMPDEST PUSH0 PUSH1 0x20 DUP3 ADD SWAP1 POP DUP2 DUP2 SUB PUSH0 DUP4 ADD MSTORE PUSH2 0x200E DUP2 PUSH2 0x1FD5 JUMP JUMPDEST SWAP1 POP SWAP2 SWAP1 POP JUMP JUMPDEST PUSH32 0x456D7074792064617461207265717565737473206E6F74206163636570746564 PUSH0 DUP3 ADD MSTORE POP JUMP JUMPDEST PUSH0 PUSH2 0x2049 PUSH1 0x20 DUP4 PUSH2 0x1606 JUMP JUMPDEST SWAP2 POP PUSH2 0x2054 DUP3 PUSH2 0x2015 JUMP JUMPDEST PUSH1 0x20 DUP3 ADD SWAP1 POP SWAP2 SWAP1 POP JUMP JUMPDEST PUSH0 PUSH1 0x20 DUP3 ADD SWAP1 POP DUP2 DUP2 SUB PUSH0 DUP4 ADD MSTORE PUSH2 0x2076 DUP2 PUSH2 0x203D JUMP JUMPDEST SWAP1 POP SWAP2 SWAP1 POP JUMP JUMPDEST PUSH0 DUP3 SWAP1 POP SWAP3 SWAP2 POP POP JUMP JUMPDEST PUSH2 0x2091 DUP4 DUP4 PUSH2 0x207D JUMP JUMPDEST PUSH8 0xFFFFFFFFFFFFFFFF DUP2 GT ISZERO PUSH2 0x20AA JUMPI PUSH2 0x20A9 PUSH2 0x1210 JUMP JUMPDEST JUMPDEST PUSH2 0x20B4 DUP3 SLOAD PUSH2 0x1751 JUMP JUMPDEST PUSH2 0x20BF DUP3 DUP3 DUP6 PUSH2 0x188F JUMP JUMPDEST PUSH0 PUSH1 0x1F DUP4 GT PUSH1 0x1 DUP2 EQ PUSH2 0x20EC JUMPI PUSH0 DUP5 ISZERO PUSH2 0x20DA JUMPI DUP3 DUP8 ADD CALLDATALOAD SWAP1 POP JUMPDEST PUSH2 0x20E4 DUP6 DUP3 PUSH2 0x18FD JUMP JUMPDEST DUP7 SSTORE POP PUSH2 0x214B JUMP JUMPDEST PUSH1 0x1F NOT DUP5 AND PUSH2 0x20FA DUP7 PUSH2 0x1781 JUMP JUMPDEST PUSH0 JUMPDEST DUP3 DUP2 LT ISZERO PUSH2 0x2121 JUMPI DUP5 DUP10 ADD CALLDATALOAD DUP3 SSTORE PUSH1 0x1 DUP3 ADD SWAP2 POP PUSH1 0x20 DUP6 ADD SWAP5 POP PUSH1 0x20 DUP2 ADD SWAP1 POP PUSH2 0x20FC JUMP JUMPDEST DUP7 DUP4 LT ISZERO PUSH2 0x213E JUMPI DUP5 DUP10 ADD CALLDATALOAD PUSH2 0x213A PUSH1 0x1F DUP10 AND DUP3 PUSH2 0x18E1 JUMP JUMPDEST DUP4 SSTORE POP JUMPDEST PUSH1 0x1 PUSH1 0x2 DUP9 MUL ADD DUP9 SSTORE POP POP POP JUMPDEST POP POP POP POP POP POP POP JUMP JUMPDEST PUSH0 DUP2 SWAP1 POP SWAP3 SWAP2 POP POP JUMP JUMPDEST PUSH0 PUSH2 0x2168 DUP3 PUSH2 0x15FC JUMP JUMPDEST PUSH2 0x2172 DUP2 DUP6 PUSH2 0x2154 JUMP JUMPDEST SWAP4 POP PUSH2 0x2182 DUP2 DUP6 PUSH1 0x20 DUP7 ADD PUSH2 0x1616 JUMP JUMPDEST DUP1 DUP5 ADD SWAP2 POP POP SWAP3 SWAP2 POP POP JUMP JUMPDEST PUSH0 PUSH2 0x2199 DUP3 DUP5 PUSH2 0x215E JUMP JUMPDEST SWAP2 POP DUP2 SWAP1 POP SWAP3 SWAP2 POP POP JUMP INVALID LOG2 PUSH5 0x6970667358 0x22 SLT KECCAK256 PUSH6 0x4ADF46C28510 0x21 JUMP STATICCALL JUMPDEST LT SWAPN 0x3D PUSH12 0x11B181959EA19B0005DDEECE PUSH2 0xCBB6 TLOAD PUSH10 0x64736F6C634300081E00 CALLER "
		},
		"gasEstimates": {
			"creation": {
				"codeDepositCost": "1733200",
				"executionCost": "infinite",
				"totalCost": "infinite"
			},
			"external": {
				"add_peer(address)": "73445",
				"assigner()": "infinite",
				"check_block((bytes32,bytes32,uint256,string))": "infinite",
				"check_block_finality_and_build()": "infinite",
				"finalize_block((bytes32,bytes32,uint256,string))": "infinite",
				"getCurrentMessage()": "infinite",
				"nextPeer()": "2597",
				"propagate(address,string)": "infinite",
				"propose_block()": "infinite",
				"setNextPeer(address)": "24715",
				"staking()": "infinite",
				"user_input(string)": "infinite"
			}
		},
		"methodIdentifiers": {
			"add_peer(address)": "aefa5128",
			"assigner()": "19973261",
			"check_block((bytes32,bytes32,uint256,string))": "4618f42c",
			"check_block_finality_and_build()": "75731976",
			"finalize_block((bytes32,bytes32,uint256,string))": "b4c67900",
			"getCurrentMessage()": "9af7a48c",
			"nextPeer()": "73373d9f",
			"propagate(address,string)": "04b0d07e",
			"propose_block()": "abca8e09",
			"setNextPeer(address)": "83e12c83",
			"staking()": "4cf088d9",
			"user_input(string)": "f09a9fb2"
		}
	},
	"abi": [
		{
			"inputs": [
				{
					"internalType": "address[]",
					"name": "list_of_addresses",
					"type": "address[]"
				},
				{
					"internalType": "string",
					"name": "message",
					"type": "string"
				},
				{
					"internalType": "address",
					"name": "_staking",
					"type": "address"
				},
				{
					"internalType": "address",
					"name": "_assigner",
					"type": "address"
				}
			],
			"stateMutability": "nonpayable",
			"type": "constructor"
		},
		{
			"inputs": [
				{
					"internalType": "address",
					"name": "peer",
					"type": "address"
				}
			],
			"name": "add_peer",
			"outputs": [],
			"stateMutability": "nonpayable",
			"type": "function"
		},
		{
			"inputs": [],
			"name": "assigner",
			"outputs": [
				{
					"internalType": "contract Assigner",
					"name": "",
					"type": "address"
				}
			],
			"stateMutability": "view",
			"type": "function"
		},
		{
			"inputs": [
				{
					"components": [
						{
							"internalType": "bytes32",
							"name": "hash",
							"type": "bytes32"
						},
						{
							"internalType": "bytes32",
							"name": "prevHash",
							"type": "bytes32"
						},
						{
							"internalType": "uint256",
							"name": "blockNum",
							"type": "uint256"
						},
						{
							"internalType": "string",
							"name": "message",
							"type": "string"
						}
					],
					"internalType": "struct Blockchain.Block",
					"name": "proposed_block",
					"type": "tuple"
				}
			],
			"name": "check_block",
			"outputs": [
				{
					"internalType": "uint256",
					"name": "",
					"type": "uint256"
				}
			],
			"stateMutability": "view",
			"type": "function"
		},
		{
			"inputs": [],
			"name": "check_block_finality_and_build",
			"outputs": [],
			"stateMutability": "nonpayable",
			"type": "function"
		},
		{
			"inputs": [
				{
					"components": [
						{
							"internalType": "bytes32",
							"name": "hash",
							"type": "bytes32"
						},
						{
							"internalType": "bytes32",
							"name": "prevHash",
							"type": "bytes32"
						},
						{
							"internalType": "uint256",
							"name": "blockNum",
							"type": "uint256"
						},
						{
							"internalType": "string",
							"name": "message",
							"type": "string"
						}
					],
					"internalType": "struct Blockchain.Block",
					"name": "received_block",
					"type": "tuple"
				}
			],
			"name": "finalize_block",
			"outputs": [],
			"stateMutability": "nonpayable",
			"type": "function"
		},
		{
			"inputs": [],
			"name": "getCurrentMessage",
			"outputs": [
				{
					"internalType": "string",
					"name": "",
					"type": "string"
				}
			],
			"stateMutability": "view",
			"type": "function"
		},
		{
			"inputs": [],
			"name": "nextPeer",
			"outputs": [
				{
					"internalType": "address",
					"name": "",
					"type": "address"
				}
			],
			"stateMutability": "view",
			"type": "function"
		},
		{
			"inputs": [
				{
					"internalType": "address",
					"name": "originator",
					"type": "address"
				},
				{
					"internalType": "string",
					"name": "message",
					"type": "string"
				}
			],
			"name": "propagate",
			"outputs": [],
			"stateMutability": "nonpayable",
			"type": "function"
		},
		{
			"inputs": [],
			"name": "propose_block",
			"outputs": [],
			"stateMutability": "payable",
			"type": "function"
		},
		{
			"inputs": [
				{
					"internalType": "address",
					"name": "_nextPeer",
					"type": "address"
				}
			],
			"name": "setNextPeer",
			"outputs": [],
			"stateMutability": "nonpayable",
			"type": "function"
		},
		{
			"inputs": [],
			"name": "staking",
			"outputs": [
				{
					"internalType": "contract Staking",
					"name": "",
					"type": "address"
				}
			],
			"stateMutability": "view",
			"type": "function"
		},
		{
			"inputs": [
				{
					"internalType": "string",
					"name": "message",
					"type": "string"
				}
			],
			"name": "user_input",
			"outputs": [],
			"stateMutability": "nonpayable",
			"type": "function"
		}
	]
}